{
	"contracts/Lottery_ERC20_disposable.sol": {
		"Lottery": {
			"abi": [
				{
					"inputs": [
						{
							"internalType": "string",
							"name": "_name",
							"type": "string"
						},
						{
							"internalType": "string",
							"name": "_symbol",
							"type": "string"
						},
						{
							"internalType": "uint256",
							"name": "_numberOfTickets",
							"type": "uint256"
						},
						{
							"internalType": "uint256",
							"name": "_ticketPrice",
							"type": "uint256"
						},
						{
							"internalType": "uint256",
							"name": "_limitTimeDay",
							"type": "uint256"
						},
						{
							"internalType": "uint256",
							"name": "_soldTicketLimit",
							"type": "uint256"
						}
					],
					"stateMutability": "nonpayable",
					"type": "constructor"
				},
				{
					"anonymous": false,
					"inputs": [
						{
							"indexed": true,
							"internalType": "address",
							"name": "_owner",
							"type": "address"
						},
						{
							"indexed": true,
							"internalType": "address",
							"name": "_spender",
							"type": "address"
						},
						{
							"indexed": false,
							"internalType": "uint256",
							"name": "_value",
							"type": "uint256"
						}
					],
					"name": "Approval",
					"type": "event"
				},
				{
					"anonymous": false,
					"inputs": [
						{
							"indexed": false,
							"internalType": "address",
							"name": "_buyer",
							"type": "address"
						},
						{
							"indexed": false,
							"internalType": "uint256",
							"name": "_ticketCount",
							"type": "uint256"
						}
					],
					"name": "Sell",
					"type": "event"
				},
				{
					"anonymous": false,
					"inputs": [
						{
							"indexed": true,
							"internalType": "address",
							"name": "_from",
							"type": "address"
						},
						{
							"indexed": true,
							"internalType": "address",
							"name": "_to",
							"type": "address"
						},
						{
							"indexed": false,
							"internalType": "uint256",
							"name": "_value",
							"type": "uint256"
						}
					],
					"name": "Transfer",
					"type": "event"
				},
				{
					"anonymous": false,
					"inputs": [
						{
							"indexed": false,
							"internalType": "address",
							"name": "_winner",
							"type": "address"
						}
					],
					"name": "WeHaveAWinner",
					"type": "event"
				},
				{
					"inputs": [
						{
							"internalType": "address",
							"name": "",
							"type": "address"
						},
						{
							"internalType": "address",
							"name": "",
							"type": "address"
						}
					],
					"name": "allowance",
					"outputs": [
						{
							"internalType": "uint256",
							"name": "",
							"type": "uint256"
						}
					],
					"stateMutability": "view",
					"type": "function"
				},
				{
					"inputs": [
						{
							"internalType": "address",
							"name": "_spender",
							"type": "address"
						},
						{
							"internalType": "uint256",
							"name": "_value",
							"type": "uint256"
						}
					],
					"name": "approve",
					"outputs": [
						{
							"internalType": "bool",
							"name": "success",
							"type": "bool"
						}
					],
					"stateMutability": "nonpayable",
					"type": "function"
				},
				{
					"inputs": [
						{
							"internalType": "address",
							"name": "",
							"type": "address"
						}
					],
					"name": "balanceOf",
					"outputs": [
						{
							"internalType": "uint256",
							"name": "",
							"type": "uint256"
						}
					],
					"stateMutability": "view",
					"type": "function"
				},
				{
					"inputs": [
						{
							"internalType": "uint256",
							"name": "_numberOfTickets",
							"type": "uint256"
						}
					],
					"name": "buyTicket",
					"outputs": [],
					"stateMutability": "payable",
					"type": "function"
				},
				{
					"inputs": [],
					"name": "letsPlayTheGame",
					"outputs": [],
					"stateMutability": "nonpayable",
					"type": "function"
				},
				{
					"inputs": [],
					"name": "limitTime",
					"outputs": [
						{
							"internalType": "uint256",
							"name": "",
							"type": "uint256"
						}
					],
					"stateMutability": "view",
					"type": "function"
				},
				{
					"inputs": [],
					"name": "limitTimeDay",
					"outputs": [
						{
							"internalType": "uint256",
							"name": "",
							"type": "uint256"
						}
					],
					"stateMutability": "view",
					"type": "function"
				},
				{
					"inputs": [],
					"name": "name",
					"outputs": [
						{
							"internalType": "string",
							"name": "",
							"type": "string"
						}
					],
					"stateMutability": "view",
					"type": "function"
				},
				{
					"inputs": [],
					"name": "returnTheMoney",
					"outputs": [],
					"stateMutability": "nonpayable",
					"type": "function"
				},
				{
					"inputs": [],
					"name": "soldTicketLimit",
					"outputs": [
						{
							"internalType": "uint256",
							"name": "",
							"type": "uint256"
						}
					],
					"stateMutability": "view",
					"type": "function"
				},
				{
					"inputs": [],
					"name": "standard",
					"outputs": [
						{
							"internalType": "string",
							"name": "",
							"type": "string"
						}
					],
					"stateMutability": "view",
					"type": "function"
				},
				{
					"inputs": [],
					"name": "startTime",
					"outputs": [
						{
							"internalType": "uint256",
							"name": "",
							"type": "uint256"
						}
					],
					"stateMutability": "view",
					"type": "function"
				},
				{
					"inputs": [],
					"name": "symbol",
					"outputs": [
						{
							"internalType": "string",
							"name": "",
							"type": "string"
						}
					],
					"stateMutability": "view",
					"type": "function"
				},
				{
					"inputs": [],
					"name": "ticketPrice",
					"outputs": [
						{
							"internalType": "uint256",
							"name": "",
							"type": "uint256"
						}
					],
					"stateMutability": "view",
					"type": "function"
				},
				{
					"inputs": [],
					"name": "ticketPriceEth",
					"outputs": [
						{
							"internalType": "uint256",
							"name": "",
							"type": "uint256"
						}
					],
					"stateMutability": "view",
					"type": "function"
				},
				{
					"inputs": [],
					"name": "ticketSold",
					"outputs": [
						{
							"internalType": "uint256",
							"name": "",
							"type": "uint256"
						}
					],
					"stateMutability": "view",
					"type": "function"
				},
				{
					"inputs": [],
					"name": "totalSupply",
					"outputs": [
						{
							"internalType": "uint256",
							"name": "",
							"type": "uint256"
						}
					],
					"stateMutability": "view",
					"type": "function"
				},
				{
					"inputs": [
						{
							"internalType": "address",
							"name": "_to",
							"type": "address"
						},
						{
							"internalType": "uint256",
							"name": "_value",
							"type": "uint256"
						}
					],
					"name": "transfer",
					"outputs": [
						{
							"internalType": "bool",
							"name": "success",
							"type": "bool"
						}
					],
					"stateMutability": "nonpayable",
					"type": "function"
				},
				{
					"inputs": [
						{
							"internalType": "address",
							"name": "_from",
							"type": "address"
						},
						{
							"internalType": "address",
							"name": "_to",
							"type": "address"
						},
						{
							"internalType": "uint256",
							"name": "_value",
							"type": "uint256"
						}
					],
					"name": "transferFrom",
					"outputs": [
						{
							"internalType": "bool",
							"name": "success",
							"type": "bool"
						}
					],
					"stateMutability": "nonpayable",
					"type": "function"
				},
				{
					"inputs": [],
					"name": "winner",
					"outputs": [
						{
							"internalType": "address",
							"name": "",
							"type": "address"
						}
					],
					"stateMutability": "view",
					"type": "function"
				}
			],
			"devdoc": {
				"kind": "dev",
				"methods": {},
				"version": 1
			},
			"evm": {
				"assembly": "    /* \"contracts/Lottery_ERC20_disposable.sol\":71:4343  contract Lottery {... */\n  mstore(0x40, 0x80)\n    /* \"contracts/Lottery_ERC20_disposable.sol\":166:209  string  public standard = \"Be$t_token v1.0\" */\n  mload(0x40)\n  dup1\n  0x40\n  add\n  0x40\n  mstore\n  dup1\n  0x0f\n  dup2\n  mstore\n  0x20\n  add\n  0x426524745f746f6b656e2076312e300000000000000000000000000000000000\n  dup2\n  mstore\n  pop\n  0x02\n  swap1\n  dup1\n  mload\n  swap1\n  0x20\n  add\n  swap1\n  tag_1\n  swap3\n  swap2\n  swap1\n  tag_2\n  jump\t// in\ntag_1:\n  pop\n    /* \"contracts/Lottery_ERC20_disposable.sol\":614:1167  constructor(string memory _name, string memory _symbol, uint256 _numberOfTickets, ... */\n  callvalue\n  dup1\n  iszero\n  tag_3\n  jumpi\n  0x00\n  dup1\n  revert\ntag_3:\n  pop\n  mload(0x40)\n  sub(codesize, bytecodeSize)\n  dup1\n  bytecodeSize\n  dup4\n  codecopy\n  dup2\n  dup2\n  add\n  0x40\n  mstore\n  dup2\n  add\n  swap1\n  tag_4\n  swap2\n  swap1\n  tag_5\n  jump\t// in\ntag_4:\n    /* \"contracts/Lottery_ERC20_disposable.sol\":799:809  msg.sender */\n  caller\n    /* \"contracts/Lottery_ERC20_disposable.sol\":791:796  admin */\n  0x07\n  0x00\n    /* \"contracts/Lottery_ERC20_disposable.sol\":791:809  admin = msg.sender */\n  0x0100\n  exp\n  dup2\n  sload\n  dup2\n  0xffffffffffffffffffffffffffffffffffffffff\n  mul\n  not\n  and\n  swap1\n  dup4\n  0xffffffffffffffffffffffffffffffffffffffff\n  and\n  mul\n  or\n  swap1\n  sstore\n  pop\n    /* \"contracts/Lottery_ERC20_disposable.sol\":826:831  _name */\n  dup6\n    /* \"contracts/Lottery_ERC20_disposable.sol\":819:823  name */\n  0x00\n    /* \"contracts/Lottery_ERC20_disposable.sol\":819:831  name = _name */\n  swap1\n  dup1\n  mload\n  swap1\n  0x20\n  add\n  swap1\n  tag_8\n  swap3\n  swap2\n  swap1\n  tag_2\n  jump\t// in\ntag_8:\n  pop\n    /* \"contracts/Lottery_ERC20_disposable.sol\":850:857  _symbol */\n  dup5\n    /* \"contracts/Lottery_ERC20_disposable.sol\":841:847  symbol */\n  0x01\n    /* \"contracts/Lottery_ERC20_disposable.sol\":841:857  symbol = _symbol */\n  swap1\n  dup1\n  mload\n  swap1\n  0x20\n  add\n  swap1\n  tag_9\n  swap3\n  swap2\n  swap1\n  tag_2\n  jump\t// in\ntag_9:\n  pop\n    /* \"contracts/Lottery_ERC20_disposable.sol\":881:893  _ticketPrice */\n  dup3\n    /* \"contracts/Lottery_ERC20_disposable.sol\":867:878  ticketPrice */\n  0x05\n    /* \"contracts/Lottery_ERC20_disposable.sol\":867:893  ticketPrice = _ticketPrice */\n  dup2\n  swap1\n  sstore\n  pop\n    /* \"contracts/Lottery_ERC20_disposable.sol\":918:931  _limitTimeDay */\n  dup2\n    /* \"contracts/Lottery_ERC20_disposable.sol\":903:915  limitTimeDay */\n  0x0a\n    /* \"contracts/Lottery_ERC20_disposable.sol\":903:931  limitTimeDay = _limitTimeDay */\n  dup2\n  swap1\n  sstore\n  pop\n    /* \"contracts/Lottery_ERC20_disposable.sol\":955:971  _numberOfTickets */\n  dup4\n    /* \"contracts/Lottery_ERC20_disposable.sol\":941:952  totalSupply */\n  0x03\n    /* \"contracts/Lottery_ERC20_disposable.sol\":941:971  totalSupply = _numberOfTickets */\n  dup2\n  swap1\n  sstore\n  pop\n    /* \"contracts/Lottery_ERC20_disposable.sol\":999:1015  _soldTicketLimit */\n  dup1\n    /* \"contracts/Lottery_ERC20_disposable.sol\":981:996  soldTicketLimit */\n  0x0c\n    /* \"contracts/Lottery_ERC20_disposable.sol\":981:1015  soldTicketLimit = _soldTicketLimit */\n  dup2\n  swap1\n  sstore\n  pop\n    /* \"contracts/Lottery_ERC20_disposable.sol\":1052:1068  _numberOfTickets */\n  dup4\n    /* \"contracts/Lottery_ERC20_disposable.sol\":1025:1034  balanceOf */\n  0x0e\n    /* \"contracts/Lottery_ERC20_disposable.sol\":1025:1049  balanceOf[address(this)] */\n  0x00\n    /* \"contracts/Lottery_ERC20_disposable.sol\":1043:1047  this */\n  address\n    /* \"contracts/Lottery_ERC20_disposable.sol\":1025:1049  balanceOf[address(this)] */\n  0xffffffffffffffffffffffffffffffffffffffff\n  and\n  0xffffffffffffffffffffffffffffffffffffffff\n  and\n  dup2\n  mstore\n  0x20\n  add\n  swap1\n  dup2\n  mstore\n  0x20\n  add\n  0x00\n  keccak256\n    /* \"contracts/Lottery_ERC20_disposable.sol\":1025:1068  balanceOf[address(this)] = _numberOfTickets */\n  dup2\n  swap1\n  sstore\n  pop\n    /* \"contracts/Lottery_ERC20_disposable.sol\":1090:1105  block.timestamp */\n  timestamp\n    /* \"contracts/Lottery_ERC20_disposable.sol\":1078:1087  startTime */\n  0x09\n    /* \"contracts/Lottery_ERC20_disposable.sol\":1078:1105  startTime = block.timestamp */\n  dup2\n  swap1\n  sstore\n  pop\n    /* \"contracts/Lottery_ERC20_disposable.sol\":1154:1160  1 days */\n  0x015180\n    /* \"contracts/Lottery_ERC20_disposable.sol\":1139:1151  limitTimeDay */\n  sload(0x0a)\n    /* \"contracts/Lottery_ERC20_disposable.sol\":1139:1160  limitTimeDay * 1 days */\n  tag_10\n  swap2\n  swap1\n  tag_11\n  jump\t// in\ntag_10:\n    /* \"contracts/Lottery_ERC20_disposable.sol\":1127:1136  startTime */\n  sload(0x09)\n    /* \"contracts/Lottery_ERC20_disposable.sol\":1127:1160  startTime + limitTimeDay * 1 days */\n  tag_12\n  swap2\n  swap1\n  tag_13\n  jump\t// in\ntag_12:\n    /* \"contracts/Lottery_ERC20_disposable.sol\":1115:1124  limitTime */\n  0x0b\n    /* \"contracts/Lottery_ERC20_disposable.sol\":1115:1160  limitTime = startTime + limitTimeDay * 1 days */\n  dup2\n  swap1\n  sstore\n  pop\n    /* \"contracts/Lottery_ERC20_disposable.sol\":614:1167  constructor(string memory _name, string memory _symbol, uint256 _numberOfTickets, ... */\n  pop\n  pop\n  pop\n  pop\n  pop\n  pop\n    /* \"contracts/Lottery_ERC20_disposable.sol\":71:4343  contract Lottery {... */\n  jump(tag_14)\ntag_2:\n  dup3\n  dup1\n  sload\n  tag_15\n  swap1\n  tag_16\n  jump\t// in\ntag_15:\n  swap1\n  0x00\n  mstore\n  keccak256(0x00, 0x20)\n  swap1\n  0x1f\n  add\n  0x20\n  swap1\n  div\n  dup2\n  add\n  swap3\n  dup3\n  tag_18\n  jumpi\n  0x00\n  dup6\n  sstore\n  jump(tag_17)\ntag_18:\n  dup3\n  0x1f\n  lt\n  tag_19\n  jumpi\n  dup1\n  mload\n  not(0xff)\n  and\n  dup4\n  dup1\n  add\n  or\n  dup6\n  sstore\n  jump(tag_17)\ntag_19:\n  dup3\n  dup1\n  add\n  0x01\n  add\n  dup6\n  sstore\n  dup3\n  iszero\n  tag_17\n  jumpi\n  swap2\n  dup3\n  add\ntag_20:\n  dup3\n  dup2\n  gt\n  iszero\n  tag_21\n  jumpi\n  dup3\n  mload\n  dup3\n  sstore\n  swap2\n  0x20\n  add\n  swap2\n  swap1\n  0x01\n  add\n  swap1\n  jump(tag_20)\ntag_21:\ntag_17:\n  pop\n  swap1\n  pop\n  tag_22\n  swap2\n  swap1\n  tag_23\n  jump\t// in\ntag_22:\n  pop\n  swap1\n  jump\t// out\ntag_23:\ntag_24:\n  dup1\n  dup3\n  gt\n  iszero\n  tag_25\n  jumpi\n  0x00\n  dup2\n  0x00\n  swap1\n  sstore\n  pop\n  0x01\n  add\n  jump(tag_24)\ntag_25:\n  pop\n  swap1\n  jump\t// out\n    /* \"#utility.yul\":7:428   */\ntag_27:\n    /* \"#utility.yul\":96:101   */\n  0x00\n    /* \"#utility.yul\":121:187   */\n  tag_29\n    /* \"#utility.yul\":137:186   */\n  tag_30\n    /* \"#utility.yul\":179:185   */\n  dup5\n    /* \"#utility.yul\":137:186   */\n  tag_31\n  jump\t// in\ntag_30:\n    /* \"#utility.yul\":121:187   */\n  tag_32\n  jump\t// in\ntag_29:\n    /* \"#utility.yul\":112:187   */\n  swap1\n  pop\n    /* \"#utility.yul\":210:216   */\n  dup3\n    /* \"#utility.yul\":203:208   */\n  dup2\n    /* \"#utility.yul\":196:217   */\n  mstore\n    /* \"#utility.yul\":248:252   */\n  0x20\n    /* \"#utility.yul\":241:246   */\n  dup2\n    /* \"#utility.yul\":237:253   */\n  add\n    /* \"#utility.yul\":286:289   */\n  dup5\n    /* \"#utility.yul\":277:283   */\n  dup5\n    /* \"#utility.yul\":272:275   */\n  dup5\n    /* \"#utility.yul\":268:284   */\n  add\n    /* \"#utility.yul\":265:290   */\n  gt\n    /* \"#utility.yul\":262:374   */\n  iszero\n  tag_33\n  jumpi\n    /* \"#utility.yul\":293:372   */\n  tag_34\n  tag_35\n  jump\t// in\ntag_34:\n    /* \"#utility.yul\":262:374   */\ntag_33:\n    /* \"#utility.yul\":383:422   */\n  tag_36\n    /* \"#utility.yul\":415:421   */\n  dup5\n    /* \"#utility.yul\":410:413   */\n  dup3\n    /* \"#utility.yul\":405:408   */\n  dup6\n    /* \"#utility.yul\":383:422   */\n  tag_37\n  jump\t// in\ntag_36:\n    /* \"#utility.yul\":102:428   */\n  pop\n    /* \"#utility.yul\":7:428   */\n  swap4\n  swap3\n  pop\n  pop\n  pop\n  jump\t// out\n    /* \"#utility.yul\":448:803   */\ntag_38:\n    /* \"#utility.yul\":515:520   */\n  0x00\n    /* \"#utility.yul\":564:567   */\n  dup3\n    /* \"#utility.yul\":557:561   */\n  0x1f\n    /* \"#utility.yul\":549:555   */\n  dup4\n    /* \"#utility.yul\":545:562   */\n  add\n    /* \"#utility.yul\":541:568   */\n  slt\n    /* \"#utility.yul\":531:653   */\n  tag_40\n  jumpi\n    /* \"#utility.yul\":572:651   */\n  tag_41\n  tag_42\n  jump\t// in\ntag_41:\n    /* \"#utility.yul\":531:653   */\ntag_40:\n    /* \"#utility.yul\":682:688   */\n  dup2\n    /* \"#utility.yul\":676:689   */\n  mload\n    /* \"#utility.yul\":707:797   */\n  tag_43\n    /* \"#utility.yul\":793:796   */\n  dup5\n    /* \"#utility.yul\":785:791   */\n  dup3\n    /* \"#utility.yul\":778:782   */\n  0x20\n    /* \"#utility.yul\":770:776   */\n  dup7\n    /* \"#utility.yul\":766:783   */\n  add\n    /* \"#utility.yul\":707:797   */\n  tag_27\n  jump\t// in\ntag_43:\n    /* \"#utility.yul\":698:797   */\n  swap2\n  pop\n    /* \"#utility.yul\":521:803   */\n  pop\n    /* \"#utility.yul\":448:803   */\n  swap3\n  swap2\n  pop\n  pop\n  jump\t// out\n    /* \"#utility.yul\":809:952   */\ntag_44:\n    /* \"#utility.yul\":866:871   */\n  0x00\n    /* \"#utility.yul\":897:903   */\n  dup2\n    /* \"#utility.yul\":891:904   */\n  mload\n    /* \"#utility.yul\":882:904   */\n  swap1\n  pop\n    /* \"#utility.yul\":913:946   */\n  tag_46\n    /* \"#utility.yul\":940:945   */\n  dup2\n    /* \"#utility.yul\":913:946   */\n  tag_47\n  jump\t// in\ntag_46:\n    /* \"#utility.yul\":809:952   */\n  swap3\n  swap2\n  pop\n  pop\n  jump\t// out\n    /* \"#utility.yul\":958:2438   */\ntag_5:\n    /* \"#utility.yul\":1093:1099   */\n  0x00\n    /* \"#utility.yul\":1101:1107   */\n  dup1\n    /* \"#utility.yul\":1109:1115   */\n  0x00\n    /* \"#utility.yul\":1117:1123   */\n  dup1\n    /* \"#utility.yul\":1125:1131   */\n  0x00\n    /* \"#utility.yul\":1133:1139   */\n  dup1\n    /* \"#utility.yul\":1182:1185   */\n  0xc0\n    /* \"#utility.yul\":1170:1179   */\n  dup8\n    /* \"#utility.yul\":1161:1168   */\n  dup10\n    /* \"#utility.yul\":1157:1180   */\n  sub\n    /* \"#utility.yul\":1153:1186   */\n  slt\n    /* \"#utility.yul\":1150:1270   */\n  iszero\n  tag_49\n  jumpi\n    /* \"#utility.yul\":1189:1268   */\n  tag_50\n  tag_51\n  jump\t// in\ntag_50:\n    /* \"#utility.yul\":1150:1270   */\ntag_49:\n    /* \"#utility.yul\":1330:1331   */\n  0x00\n    /* \"#utility.yul\":1319:1328   */\n  dup8\n    /* \"#utility.yul\":1315:1332   */\n  add\n    /* \"#utility.yul\":1309:1333   */\n  mload\n    /* \"#utility.yul\":1360:1378   */\n  0xffffffffffffffff\n    /* \"#utility.yul\":1352:1358   */\n  dup2\n    /* \"#utility.yul\":1349:1379   */\n  gt\n    /* \"#utility.yul\":1346:1463   */\n  iszero\n  tag_52\n  jumpi\n    /* \"#utility.yul\":1382:1461   */\n  tag_53\n  tag_54\n  jump\t// in\ntag_53:\n    /* \"#utility.yul\":1346:1463   */\ntag_52:\n    /* \"#utility.yul\":1487:1561   */\n  tag_55\n    /* \"#utility.yul\":1553:1560   */\n  dup10\n    /* \"#utility.yul\":1544:1550   */\n  dup3\n    /* \"#utility.yul\":1533:1542   */\n  dup11\n    /* \"#utility.yul\":1529:1551   */\n  add\n    /* \"#utility.yul\":1487:1561   */\n  tag_38\n  jump\t// in\ntag_55:\n    /* \"#utility.yul\":1477:1561   */\n  swap7\n  pop\n    /* \"#utility.yul\":1280:1571   */\n  pop\n    /* \"#utility.yul\":1631:1633   */\n  0x20\n    /* \"#utility.yul\":1620:1629   */\n  dup8\n    /* \"#utility.yul\":1616:1634   */\n  add\n    /* \"#utility.yul\":1610:1635   */\n  mload\n    /* \"#utility.yul\":1662:1680   */\n  0xffffffffffffffff\n    /* \"#utility.yul\":1654:1660   */\n  dup2\n    /* \"#utility.yul\":1651:1681   */\n  gt\n    /* \"#utility.yul\":1648:1765   */\n  iszero\n  tag_56\n  jumpi\n    /* \"#utility.yul\":1684:1763   */\n  tag_57\n  tag_54\n  jump\t// in\ntag_57:\n    /* \"#utility.yul\":1648:1765   */\ntag_56:\n    /* \"#utility.yul\":1789:1863   */\n  tag_58\n    /* \"#utility.yul\":1855:1862   */\n  dup10\n    /* \"#utility.yul\":1846:1852   */\n  dup3\n    /* \"#utility.yul\":1835:1844   */\n  dup11\n    /* \"#utility.yul\":1831:1853   */\n  add\n    /* \"#utility.yul\":1789:1863   */\n  tag_38\n  jump\t// in\ntag_58:\n    /* \"#utility.yul\":1779:1863   */\n  swap6\n  pop\n    /* \"#utility.yul\":1581:1873   */\n  pop\n    /* \"#utility.yul\":1912:1914   */\n  0x40\n    /* \"#utility.yul\":1938:2002   */\n  tag_59\n    /* \"#utility.yul\":1994:2001   */\n  dup10\n    /* \"#utility.yul\":1985:1991   */\n  dup3\n    /* \"#utility.yul\":1974:1983   */\n  dup11\n    /* \"#utility.yul\":1970:1992   */\n  add\n    /* \"#utility.yul\":1938:2002   */\n  tag_44\n  jump\t// in\ntag_59:\n    /* \"#utility.yul\":1928:2002   */\n  swap5\n  pop\n    /* \"#utility.yul\":1883:2012   */\n  pop\n    /* \"#utility.yul\":2051:2053   */\n  0x60\n    /* \"#utility.yul\":2077:2141   */\n  tag_60\n    /* \"#utility.yul\":2133:2140   */\n  dup10\n    /* \"#utility.yul\":2124:2130   */\n  dup3\n    /* \"#utility.yul\":2113:2122   */\n  dup11\n    /* \"#utility.yul\":2109:2131   */\n  add\n    /* \"#utility.yul\":2077:2141   */\n  tag_44\n  jump\t// in\ntag_60:\n    /* \"#utility.yul\":2067:2141   */\n  swap4\n  pop\n    /* \"#utility.yul\":2022:2151   */\n  pop\n    /* \"#utility.yul\":2190:2193   */\n  0x80\n    /* \"#utility.yul\":2217:2281   */\n  tag_61\n    /* \"#utility.yul\":2273:2280   */\n  dup10\n    /* \"#utility.yul\":2264:2270   */\n  dup3\n    /* \"#utility.yul\":2253:2262   */\n  dup11\n    /* \"#utility.yul\":2249:2271   */\n  add\n    /* \"#utility.yul\":2217:2281   */\n  tag_44\n  jump\t// in\ntag_61:\n    /* \"#utility.yul\":2207:2281   */\n  swap3\n  pop\n    /* \"#utility.yul\":2161:2291   */\n  pop\n    /* \"#utility.yul\":2330:2333   */\n  0xa0\n    /* \"#utility.yul\":2357:2421   */\n  tag_62\n    /* \"#utility.yul\":2413:2420   */\n  dup10\n    /* \"#utility.yul\":2404:2410   */\n  dup3\n    /* \"#utility.yul\":2393:2402   */\n  dup11\n    /* \"#utility.yul\":2389:2411   */\n  add\n    /* \"#utility.yul\":2357:2421   */\n  tag_44\n  jump\t// in\ntag_62:\n    /* \"#utility.yul\":2347:2421   */\n  swap2\n  pop\n    /* \"#utility.yul\":2301:2431   */\n  pop\n    /* \"#utility.yul\":958:2438   */\n  swap3\n  swap6\n  pop\n  swap3\n  swap6\n  pop\n  swap3\n  swap6\n  jump\t// out\n    /* \"#utility.yul\":2444:2573   */\ntag_32:\n    /* \"#utility.yul\":2478:2484   */\n  0x00\n    /* \"#utility.yul\":2505:2525   */\n  tag_64\n  tag_65\n  jump\t// in\ntag_64:\n    /* \"#utility.yul\":2495:2525   */\n  swap1\n  pop\n    /* \"#utility.yul\":2534:2567   */\n  tag_66\n    /* \"#utility.yul\":2562:2566   */\n  dup3\n    /* \"#utility.yul\":2554:2560   */\n  dup3\n    /* \"#utility.yul\":2534:2567   */\n  tag_67\n  jump\t// in\ntag_66:\n    /* \"#utility.yul\":2444:2573   */\n  swap2\n  swap1\n  pop\n  jump\t// out\n    /* \"#utility.yul\":2579:2654   */\ntag_65:\n    /* \"#utility.yul\":2612:2618   */\n  0x00\n    /* \"#utility.yul\":2645:2647   */\n  0x40\n    /* \"#utility.yul\":2639:2648   */\n  mload\n    /* \"#utility.yul\":2629:2648   */\n  swap1\n  pop\n    /* \"#utility.yul\":2579:2654   */\n  swap1\n  jump\t// out\n    /* \"#utility.yul\":2660:2968   */\ntag_31:\n    /* \"#utility.yul\":2722:2726   */\n  0x00\n    /* \"#utility.yul\":2812:2830   */\n  0xffffffffffffffff\n    /* \"#utility.yul\":2804:2810   */\n  dup3\n    /* \"#utility.yul\":2801:2831   */\n  gt\n    /* \"#utility.yul\":2798:2854   */\n  iszero\n  tag_70\n  jumpi\n    /* \"#utility.yul\":2834:2852   */\n  tag_71\n  tag_72\n  jump\t// in\ntag_71:\n    /* \"#utility.yul\":2798:2854   */\ntag_70:\n    /* \"#utility.yul\":2872:2901   */\n  tag_73\n    /* \"#utility.yul\":2894:2900   */\n  dup3\n    /* \"#utility.yul\":2872:2901   */\n  tag_74\n  jump\t// in\ntag_73:\n    /* \"#utility.yul\":2864:2901   */\n  swap1\n  pop\n    /* \"#utility.yul\":2956:2960   */\n  0x20\n    /* \"#utility.yul\":2950:2954   */\n  dup2\n    /* \"#utility.yul\":2946:2961   */\n  add\n    /* \"#utility.yul\":2938:2961   */\n  swap1\n  pop\n    /* \"#utility.yul\":2660:2968   */\n  swap2\n  swap1\n  pop\n  jump\t// out\n    /* \"#utility.yul\":2974:3279   */\ntag_13:\n    /* \"#utility.yul\":3014:3017   */\n  0x00\n    /* \"#utility.yul\":3033:3053   */\n  tag_76\n    /* \"#utility.yul\":3051:3052   */\n  dup3\n    /* \"#utility.yul\":3033:3053   */\n  tag_77\n  jump\t// in\ntag_76:\n    /* \"#utility.yul\":3028:3053   */\n  swap2\n  pop\n    /* \"#utility.yul\":3067:3087   */\n  tag_78\n    /* \"#utility.yul\":3085:3086   */\n  dup4\n    /* \"#utility.yul\":3067:3087   */\n  tag_77\n  jump\t// in\ntag_78:\n    /* \"#utility.yul\":3062:3087   */\n  swap3\n  pop\n    /* \"#utility.yul\":3221:3222   */\n  dup3\n    /* \"#utility.yul\":3153:3219   */\n  0xffffffffffffffffffffffffffffffffffffffffffffffffffffffffffffffff\n    /* \"#utility.yul\":3149:3223   */\n  sub\n    /* \"#utility.yul\":3146:3147   */\n  dup3\n    /* \"#utility.yul\":3143:3224   */\n  gt\n    /* \"#utility.yul\":3140:3247   */\n  iszero\n  tag_79\n  jumpi\n    /* \"#utility.yul\":3227:3245   */\n  tag_80\n  tag_81\n  jump\t// in\ntag_80:\n    /* \"#utility.yul\":3140:3247   */\ntag_79:\n    /* \"#utility.yul\":3271:3272   */\n  dup3\n    /* \"#utility.yul\":3268:3269   */\n  dup3\n    /* \"#utility.yul\":3264:3273   */\n  add\n    /* \"#utility.yul\":3257:3273   */\n  swap1\n  pop\n    /* \"#utility.yul\":2974:3279   */\n  swap3\n  swap2\n  pop\n  pop\n  jump\t// out\n    /* \"#utility.yul\":3285:3633   */\ntag_11:\n    /* \"#utility.yul\":3325:3332   */\n  0x00\n    /* \"#utility.yul\":3348:3368   */\n  tag_83\n    /* \"#utility.yul\":3366:3367   */\n  dup3\n    /* \"#utility.yul\":3348:3368   */\n  tag_77\n  jump\t// in\ntag_83:\n    /* \"#utility.yul\":3343:3368   */\n  swap2\n  pop\n    /* \"#utility.yul\":3382:3402   */\n  tag_84\n    /* \"#utility.yul\":3400:3401   */\n  dup4\n    /* \"#utility.yul\":3382:3402   */\n  tag_77\n  jump\t// in\ntag_84:\n    /* \"#utility.yul\":3377:3402   */\n  swap3\n  pop\n    /* \"#utility.yul\":3570:3571   */\n  dup2\n    /* \"#utility.yul\":3502:3568   */\n  0xffffffffffffffffffffffffffffffffffffffffffffffffffffffffffffffff\n    /* \"#utility.yul\":3498:3572   */\n  div\n    /* \"#utility.yul\":3495:3496   */\n  dup4\n    /* \"#utility.yul\":3492:3573   */\n  gt\n    /* \"#utility.yul\":3487:3488   */\n  dup3\n    /* \"#utility.yul\":3480:3489   */\n  iszero\n    /* \"#utility.yul\":3473:3490   */\n  iszero\n    /* \"#utility.yul\":3469:3574   */\n  and\n    /* \"#utility.yul\":3466:3597   */\n  iszero\n  tag_85\n  jumpi\n    /* \"#utility.yul\":3577:3595   */\n  tag_86\n  tag_81\n  jump\t// in\ntag_86:\n    /* \"#utility.yul\":3466:3597   */\ntag_85:\n    /* \"#utility.yul\":3625:3626   */\n  dup3\n    /* \"#utility.yul\":3622:3623   */\n  dup3\n    /* \"#utility.yul\":3618:3627   */\n  mul\n    /* \"#utility.yul\":3607:3627   */\n  swap1\n  pop\n    /* \"#utility.yul\":3285:3633   */\n  swap3\n  swap2\n  pop\n  pop\n  jump\t// out\n    /* \"#utility.yul\":3639:3716   */\ntag_77:\n    /* \"#utility.yul\":3676:3683   */\n  0x00\n    /* \"#utility.yul\":3705:3710   */\n  dup2\n    /* \"#utility.yul\":3694:3710   */\n  swap1\n  pop\n    /* \"#utility.yul\":3639:3716   */\n  swap2\n  swap1\n  pop\n  jump\t// out\n    /* \"#utility.yul\":3722:4029   */\ntag_37:\n    /* \"#utility.yul\":3790:3791   */\n  0x00\n    /* \"#utility.yul\":3800:3913   */\ntag_89:\n    /* \"#utility.yul\":3814:3820   */\n  dup4\n    /* \"#utility.yul\":3811:3812   */\n  dup2\n    /* \"#utility.yul\":3808:3821   */\n  lt\n    /* \"#utility.yul\":3800:3913   */\n  iszero\n  tag_91\n  jumpi\n    /* \"#utility.yul\":3899:3900   */\n  dup1\n    /* \"#utility.yul\":3894:3897   */\n  dup3\n    /* \"#utility.yul\":3890:3901   */\n  add\n    /* \"#utility.yul\":3884:3902   */\n  mload\n    /* \"#utility.yul\":3880:3881   */\n  dup2\n    /* \"#utility.yul\":3875:3878   */\n  dup5\n    /* \"#utility.yul\":3871:3882   */\n  add\n    /* \"#utility.yul\":3864:3903   */\n  mstore\n    /* \"#utility.yul\":3836:3838   */\n  0x20\n    /* \"#utility.yul\":3833:3834   */\n  dup2\n    /* \"#utility.yul\":3829:3839   */\n  add\n    /* \"#utility.yul\":3824:3839   */\n  swap1\n  pop\n    /* \"#utility.yul\":3800:3913   */\n  jump(tag_89)\ntag_91:\n    /* \"#utility.yul\":3931:3937   */\n  dup4\n    /* \"#utility.yul\":3928:3929   */\n  dup2\n    /* \"#utility.yul\":3925:3938   */\n  gt\n    /* \"#utility.yul\":3922:4023   */\n  iszero\n  tag_92\n  jumpi\n    /* \"#utility.yul\":4011:4012   */\n  0x00\n    /* \"#utility.yul\":4002:4008   */\n  dup5\n    /* \"#utility.yul\":3997:4000   */\n  dup5\n    /* \"#utility.yul\":3993:4009   */\n  add\n    /* \"#utility.yul\":3986:4013   */\n  mstore\n    /* \"#utility.yul\":3922:4023   */\ntag_92:\n    /* \"#utility.yul\":3771:4029   */\n  pop\n    /* \"#utility.yul\":3722:4029   */\n  pop\n  pop\n  pop\n  jump\t// out\n    /* \"#utility.yul\":4035:4355   */\ntag_16:\n    /* \"#utility.yul\":4079:4085   */\n  0x00\n    /* \"#utility.yul\":4116:4117   */\n  0x02\n    /* \"#utility.yul\":4110:4114   */\n  dup3\n    /* \"#utility.yul\":4106:4118   */\n  div\n    /* \"#utility.yul\":4096:4118   */\n  swap1\n  pop\n    /* \"#utility.yul\":4163:4164   */\n  0x01\n    /* \"#utility.yul\":4157:4161   */\n  dup3\n    /* \"#utility.yul\":4153:4165   */\n  and\n    /* \"#utility.yul\":4184:4202   */\n  dup1\n    /* \"#utility.yul\":4174:4255   */\n  tag_94\n  jumpi\n    /* \"#utility.yul\":4240:4244   */\n  0x7f\n    /* \"#utility.yul\":4232:4238   */\n  dup3\n    /* \"#utility.yul\":4228:4245   */\n  and\n    /* \"#utility.yul\":4218:4245   */\n  swap2\n  pop\n    /* \"#utility.yul\":4174:4255   */\ntag_94:\n    /* \"#utility.yul\":4302:4304   */\n  0x20\n    /* \"#utility.yul\":4294:4300   */\n  dup3\n    /* \"#utility.yul\":4291:4305   */\n  lt\n    /* \"#utility.yul\":4271:4289   */\n  dup2\n    /* \"#utility.yul\":4268:4306   */\n  eq\n    /* \"#utility.yul\":4265:4349   */\n  iszero\n  tag_95\n  jumpi\n    /* \"#utility.yul\":4321:4339   */\n  tag_96\n  tag_97\n  jump\t// in\ntag_96:\n    /* \"#utility.yul\":4265:4349   */\ntag_95:\n    /* \"#utility.yul\":4086:4355   */\n  pop\n    /* \"#utility.yul\":4035:4355   */\n  swap2\n  swap1\n  pop\n  jump\t// out\n    /* \"#utility.yul\":4361:4642   */\ntag_67:\n    /* \"#utility.yul\":4444:4471   */\n  tag_99\n    /* \"#utility.yul\":4466:4470   */\n  dup3\n    /* \"#utility.yul\":4444:4471   */\n  tag_74\n  jump\t// in\ntag_99:\n    /* \"#utility.yul\":4436:4442   */\n  dup2\n    /* \"#utility.yul\":4432:4472   */\n  add\n    /* \"#utility.yul\":4574:4580   */\n  dup2\n    /* \"#utility.yul\":4562:4572   */\n  dup2\n    /* \"#utility.yul\":4559:4581   */\n  lt\n    /* \"#utility.yul\":4538:4556   */\n  0xffffffffffffffff\n    /* \"#utility.yul\":4526:4536   */\n  dup3\n    /* \"#utility.yul\":4523:4557   */\n  gt\n    /* \"#utility.yul\":4520:4582   */\n  or\n    /* \"#utility.yul\":4517:4605   */\n  iszero\n  tag_100\n  jumpi\n    /* \"#utility.yul\":4585:4603   */\n  tag_101\n  tag_72\n  jump\t// in\ntag_101:\n    /* \"#utility.yul\":4517:4605   */\ntag_100:\n    /* \"#utility.yul\":4625:4635   */\n  dup1\n    /* \"#utility.yul\":4621:4623   */\n  0x40\n    /* \"#utility.yul\":4614:4636   */\n  mstore\n    /* \"#utility.yul\":4404:4642   */\n  pop\n    /* \"#utility.yul\":4361:4642   */\n  pop\n  pop\n  jump\t// out\n    /* \"#utility.yul\":4648:4828   */\ntag_81:\n    /* \"#utility.yul\":4696:4773   */\n  0x4e487b7100000000000000000000000000000000000000000000000000000000\n    /* \"#utility.yul\":4693:4694   */\n  0x00\n    /* \"#utility.yul\":4686:4774   */\n  mstore\n    /* \"#utility.yul\":4793:4797   */\n  0x11\n    /* \"#utility.yul\":4790:4791   */\n  0x04\n    /* \"#utility.yul\":4783:4798   */\n  mstore\n    /* \"#utility.yul\":4817:4821   */\n  0x24\n    /* \"#utility.yul\":4814:4815   */\n  0x00\n    /* \"#utility.yul\":4807:4822   */\n  revert\n    /* \"#utility.yul\":4834:5014   */\ntag_97:\n    /* \"#utility.yul\":4882:4959   */\n  0x4e487b7100000000000000000000000000000000000000000000000000000000\n    /* \"#utility.yul\":4879:4880   */\n  0x00\n    /* \"#utility.yul\":4872:4960   */\n  mstore\n    /* \"#utility.yul\":4979:4983   */\n  0x22\n    /* \"#utility.yul\":4976:4977   */\n  0x04\n    /* \"#utility.yul\":4969:4984   */\n  mstore\n    /* \"#utility.yul\":5003:5007   */\n  0x24\n    /* \"#utility.yul\":5000:5001   */\n  0x00\n    /* \"#utility.yul\":4993:5008   */\n  revert\n    /* \"#utility.yul\":5020:5200   */\ntag_72:\n    /* \"#utility.yul\":5068:5145   */\n  0x4e487b7100000000000000000000000000000000000000000000000000000000\n    /* \"#utility.yul\":5065:5066   */\n  0x00\n    /* \"#utility.yul\":5058:5146   */\n  mstore\n    /* \"#utility.yul\":5165:5169   */\n  0x41\n    /* \"#utility.yul\":5162:5163   */\n  0x04\n    /* \"#utility.yul\":5155:5170   */\n  mstore\n    /* \"#utility.yul\":5189:5193   */\n  0x24\n    /* \"#utility.yul\":5186:5187   */\n  0x00\n    /* \"#utility.yul\":5179:5194   */\n  revert\n    /* \"#utility.yul\":5206:5323   */\ntag_42:\n    /* \"#utility.yul\":5315:5316   */\n  0x00\n    /* \"#utility.yul\":5312:5313   */\n  dup1\n    /* \"#utility.yul\":5305:5317   */\n  revert\n    /* \"#utility.yul\":5329:5446   */\ntag_35:\n    /* \"#utility.yul\":5438:5439   */\n  0x00\n    /* \"#utility.yul\":5435:5436   */\n  dup1\n    /* \"#utility.yul\":5428:5440   */\n  revert\n    /* \"#utility.yul\":5452:5569   */\ntag_54:\n    /* \"#utility.yul\":5561:5562   */\n  0x00\n    /* \"#utility.yul\":5558:5559   */\n  dup1\n    /* \"#utility.yul\":5551:5563   */\n  revert\n    /* \"#utility.yul\":5575:5692   */\ntag_51:\n    /* \"#utility.yul\":5684:5685   */\n  0x00\n    /* \"#utility.yul\":5681:5682   */\n  dup1\n    /* \"#utility.yul\":5674:5686   */\n  revert\n    /* \"#utility.yul\":5698:5800   */\ntag_74:\n    /* \"#utility.yul\":5739:5745   */\n  0x00\n    /* \"#utility.yul\":5790:5792   */\n  0x1f\n    /* \"#utility.yul\":5786:5793   */\n  not\n    /* \"#utility.yul\":5781:5783   */\n  0x1f\n    /* \"#utility.yul\":5774:5779   */\n  dup4\n    /* \"#utility.yul\":5770:5784   */\n  add\n    /* \"#utility.yul\":5766:5794   */\n  and\n    /* \"#utility.yul\":5756:5794   */\n  swap1\n  pop\n    /* \"#utility.yul\":5698:5800   */\n  swap2\n  swap1\n  pop\n  jump\t// out\n    /* \"#utility.yul\":5806:5928   */\ntag_47:\n    /* \"#utility.yul\":5879:5903   */\n  tag_111\n    /* \"#utility.yul\":5897:5902   */\n  dup2\n    /* \"#utility.yul\":5879:5903   */\n  tag_77\n  jump\t// in\ntag_111:\n    /* \"#utility.yul\":5872:5877   */\n  dup2\n    /* \"#utility.yul\":5869:5904   */\n  eq\n    /* \"#utility.yul\":5859:5922   */\n  tag_112\n  jumpi\n    /* \"#utility.yul\":5918:5919   */\n  0x00\n    /* \"#utility.yul\":5915:5916   */\n  dup1\n    /* \"#utility.yul\":5908:5920   */\n  revert\n    /* \"#utility.yul\":5859:5922   */\ntag_112:\n    /* \"#utility.yul\":5806:5928   */\n  pop\n  jump\t// out\n    /* \"contracts/Lottery_ERC20_disposable.sol\":71:4343  contract Lottery {... */\ntag_14:\n  dataSize(sub_0)\n  dup1\n  dataOffset(sub_0)\n  0x00\n  codecopy\n  0x00\n  return\nstop\n\nsub_0: assembly {\n        /* \"contracts/Lottery_ERC20_disposable.sol\":71:4343  contract Lottery {... */\n      mstore(0x40, 0x80)\n      jumpi(tag_1, lt(calldatasize, 0x04))\n      shr(0xe0, calldataload(0x00))\n      dup1\n      0x70a08231\n      gt\n      tag_22\n      jumpi\n      dup1\n      0xb3b95e30\n      gt\n      tag_23\n      jumpi\n      dup1\n      0xb3b95e30\n      eq\n      tag_17\n      jumpi\n      dup1\n      0xcb8a4c5c\n      eq\n      tag_18\n      jumpi\n      dup1\n      0xdd62ed3e\n      eq\n      tag_19\n      jumpi\n      dup1\n      0xdfbf53ae\n      eq\n      tag_20\n      jumpi\n      dup1\n      0xf732d3fd\n      eq\n      tag_21\n      jumpi\n      jump(tag_1)\n    tag_23:\n      dup1\n      0x70a08231\n      eq\n      tag_12\n      jumpi\n      dup1\n      0x78e97925\n      eq\n      tag_13\n      jumpi\n      dup1\n      0x7bb9bc6e\n      eq\n      tag_14\n      jumpi\n      dup1\n      0x95d89b41\n      eq\n      tag_15\n      jumpi\n      dup1\n      0xa9059cbb\n      eq\n      tag_16\n      jumpi\n      jump(tag_1)\n    tag_22:\n      dup1\n      0x3e016252\n      gt\n      tag_24\n      jumpi\n      dup1\n      0x3e016252\n      eq\n      tag_7\n      jumpi\n      dup1\n      0x485cc439\n      eq\n      tag_8\n      jumpi\n      dup1\n      0x520992f2\n      eq\n      tag_9\n      jumpi\n      dup1\n      0x5a3b7e42\n      eq\n      tag_10\n      jumpi\n      dup1\n      0x67dd74ca\n      eq\n      tag_11\n      jumpi\n      jump(tag_1)\n    tag_24:\n      dup1\n      0x06fdde03\n      eq\n      tag_2\n      jumpi\n      dup1\n      0x095ea7b3\n      eq\n      tag_3\n      jumpi\n      dup1\n      0x1209b1f6\n      eq\n      tag_4\n      jumpi\n      dup1\n      0x18160ddd\n      eq\n      tag_5\n      jumpi\n      dup1\n      0x23b872dd\n      eq\n      tag_6\n      jumpi\n    tag_1:\n      0x00\n      dup1\n      revert\n        /* \"contracts/Lottery_ERC20_disposable.sol\":114:133  string  public name */\n    tag_2:\n      callvalue\n      dup1\n      iszero\n      tag_25\n      jumpi\n      0x00\n      dup1\n      revert\n    tag_25:\n      pop\n      tag_26\n      tag_27\n      jump\t// in\n    tag_26:\n      mload(0x40)\n      tag_28\n      swap2\n      swap1\n      tag_29\n      jump\t// in\n    tag_28:\n      mload(0x40)\n      dup1\n      swap2\n      sub\n      swap1\n      return\n        /* \"contracts/Lottery_ERC20_disposable.sol\":4103:4317  function approve(address _spender, uint256 _value) public returns (bool success) {... */\n    tag_3:\n      callvalue\n      dup1\n      iszero\n      tag_30\n      jumpi\n      0x00\n      dup1\n      revert\n    tag_30:\n      pop\n      tag_31\n      0x04\n      dup1\n      calldatasize\n      sub\n      dup2\n      add\n      swap1\n      tag_32\n      swap2\n      swap1\n      tag_33\n      jump\t// in\n    tag_32:\n      tag_34\n      jump\t// in\n    tag_31:\n      mload(0x40)\n      tag_35\n      swap2\n      swap1\n      tag_36\n      jump\t// in\n    tag_35:\n      mload(0x40)\n      dup1\n      swap2\n      sub\n      swap1\n      return\n        /* \"contracts/Lottery_ERC20_disposable.sol\":294:320  uint256 public ticketPrice */\n    tag_4:\n      callvalue\n      dup1\n      iszero\n      tag_37\n      jumpi\n      0x00\n      dup1\n      revert\n    tag_37:\n      pop\n      tag_38\n      tag_39\n      jump\t// in\n    tag_38:\n      mload(0x40)\n      tag_40\n      swap2\n      swap1\n      tag_41\n      jump\t// in\n    tag_40:\n      mload(0x40)\n      dup1\n      swap2\n      sub\n      swap1\n      return\n        /* \"contracts/Lottery_ERC20_disposable.sol\":215:241  uint256 public totalSupply */\n    tag_5:\n      callvalue\n      dup1\n      iszero\n      tag_42\n      jumpi\n      0x00\n      dup1\n      revert\n    tag_42:\n      pop\n      tag_43\n      tag_44\n      jump\t// in\n    tag_43:\n      mload(0x40)\n      tag_45\n      swap2\n      swap1\n      tag_41\n      jump\t// in\n    tag_45:\n      mload(0x40)\n      dup1\n      swap2\n      sub\n      swap1\n      return\n        /* \"contracts/Lottery_ERC20_disposable.sol\":3663:4097  function transferFrom(address _from, address _to, uint256 _value) public returns (bool success) {... */\n    tag_6:\n      callvalue\n      dup1\n      iszero\n      tag_46\n      jumpi\n      0x00\n      dup1\n      revert\n    tag_46:\n      pop\n      tag_47\n      0x04\n      dup1\n      calldatasize\n      sub\n      dup2\n      add\n      swap1\n      tag_48\n      swap2\n      swap1\n      tag_49\n      jump\t// in\n    tag_48:\n      tag_50\n      jump\t// in\n    tag_47:\n      mload(0x40)\n      tag_51\n      swap2\n      swap1\n      tag_36\n      jump\t// in\n    tag_51:\n      mload(0x40)\n      dup1\n      swap2\n      sub\n      swap1\n      return\n        /* \"contracts/Lottery_ERC20_disposable.sol\":532:562  uint256 public soldTicketLimit */\n    tag_7:\n      callvalue\n      dup1\n      iszero\n      tag_52\n      jumpi\n      0x00\n      dup1\n      revert\n    tag_52:\n      pop\n      tag_53\n      tag_54\n      jump\t// in\n    tag_53:\n      mload(0x40)\n      tag_55\n      swap2\n      swap1\n      tag_41\n      jump\t// in\n    tag_55:\n      mload(0x40)\n      dup1\n      swap2\n      sub\n      swap1\n      return\n        /* \"contracts/Lottery_ERC20_disposable.sol\":568:593  uint256 public ticketSold */\n    tag_8:\n      callvalue\n      dup1\n      iszero\n      tag_56\n      jumpi\n      0x00\n      dup1\n      revert\n    tag_56:\n      pop\n      tag_57\n      tag_58\n      jump\t// in\n    tag_57:\n      mload(0x40)\n      tag_59\n      swap2\n      swap1\n      tag_41\n      jump\t// in\n    tag_59:\n      mload(0x40)\n      dup1\n      swap2\n      sub\n      swap1\n      return\n        /* \"contracts/Lottery_ERC20_disposable.sol\":2907:3158  function returnTheMoney() public {... */\n    tag_9:\n      callvalue\n      dup1\n      iszero\n      tag_60\n      jumpi\n      0x00\n      dup1\n      revert\n    tag_60:\n      pop\n      tag_61\n      tag_62\n      jump\t// in\n    tag_61:\n      stop\n        /* \"contracts/Lottery_ERC20_disposable.sol\":166:209  string  public standard = \"Be$t_token v1.0\" */\n    tag_10:\n      callvalue\n      dup1\n      iszero\n      tag_63\n      jumpi\n      0x00\n      dup1\n      revert\n    tag_63:\n      pop\n      tag_64\n      tag_65\n      jump\t// in\n    tag_64:\n      mload(0x40)\n      tag_66\n      swap2\n      swap1\n      tag_29\n      jump\t// in\n    tag_66:\n      mload(0x40)\n      dup1\n      swap2\n      sub\n      swap1\n      return\n        /* \"contracts/Lottery_ERC20_disposable.sol\":1867:2496  function buyTicket(uint256 _numberOfTickets) public payable {... */\n    tag_11:\n      tag_67\n      0x04\n      dup1\n      calldatasize\n      sub\n      dup2\n      add\n      swap1\n      tag_68\n      swap2\n      swap1\n      tag_69\n      jump\t// in\n    tag_68:\n      tag_70\n      jump\t// in\n    tag_67:\n      stop\n        /* \"contracts/Lottery_ERC20_disposable.sol\":1431:1475  mapping(address => uint256) public balanceOf */\n    tag_12:\n      callvalue\n      dup1\n      iszero\n      tag_71\n      jumpi\n      0x00\n      dup1\n      revert\n    tag_71:\n      pop\n      tag_72\n      0x04\n      dup1\n      calldatasize\n      sub\n      dup2\n      add\n      swap1\n      tag_73\n      swap2\n      swap1\n      tag_74\n      jump\t// in\n    tag_73:\n      tag_75\n      jump\t// in\n    tag_72:\n      mload(0x40)\n      tag_76\n      swap2\n      swap1\n      tag_41\n      jump\t// in\n    tag_76:\n      mload(0x40)\n      dup1\n      swap2\n      sub\n      swap1\n      return\n        /* \"contracts/Lottery_ERC20_disposable.sol\":421:442  uint public startTime */\n    tag_13:\n      callvalue\n      dup1\n      iszero\n      tag_77\n      jumpi\n      0x00\n      dup1\n      revert\n    tag_77:\n      pop\n      tag_78\n      tag_79\n      jump\t// in\n    tag_78:\n      mload(0x40)\n      tag_80\n      swap2\n      swap1\n      tag_41\n      jump\t// in\n    tag_80:\n      mload(0x40)\n      dup1\n      swap2\n      sub\n      swap1\n      return\n        /* \"contracts/Lottery_ERC20_disposable.sol\":327:356  uint256 public ticketPriceEth */\n    tag_14:\n      callvalue\n      dup1\n      iszero\n      tag_81\n      jumpi\n      0x00\n      dup1\n      revert\n    tag_81:\n      pop\n      tag_82\n      tag_83\n      jump\t// in\n    tag_82:\n      mload(0x40)\n      tag_84\n      swap2\n      swap1\n      tag_41\n      jump\t// in\n    tag_84:\n      mload(0x40)\n      dup1\n      swap2\n      sub\n      swap1\n      return\n        /* \"contracts/Lottery_ERC20_disposable.sol\":139:160  string  public symbol */\n    tag_15:\n      callvalue\n      dup1\n      iszero\n      tag_85\n      jumpi\n      0x00\n      dup1\n      revert\n    tag_85:\n      pop\n      tag_86\n      tag_87\n      jump\t// in\n    tag_86:\n      mload(0x40)\n      tag_88\n      swap2\n      swap1\n      tag_29\n      jump\t// in\n    tag_88:\n      mload(0x40)\n      dup1\n      swap2\n      sub\n      swap1\n      return\n        /* \"contracts/Lottery_ERC20_disposable.sol\":3378:3657  function transfer(address _to, uint256 _value) public returns (bool success) {... */\n    tag_16:\n      callvalue\n      dup1\n      iszero\n      tag_89\n      jumpi\n      0x00\n      dup1\n      revert\n    tag_89:\n      pop\n      tag_90\n      0x04\n      dup1\n      calldatasize\n      sub\n      dup2\n      add\n      swap1\n      tag_91\n      swap2\n      swap1\n      tag_33\n      jump\t// in\n    tag_91:\n      tag_92\n      jump\t// in\n    tag_90:\n      mload(0x40)\n      tag_93\n      swap2\n      swap1\n      tag_36\n      jump\t// in\n    tag_93:\n      mload(0x40)\n      dup1\n      swap2\n      sub\n      swap1\n      return\n        /* \"contracts/Lottery_ERC20_disposable.sol\":490:511  uint public limitTime */\n    tag_17:\n      callvalue\n      dup1\n      iszero\n      tag_94\n      jumpi\n      0x00\n      dup1\n      revert\n    tag_94:\n      pop\n      tag_95\n      tag_96\n      jump\t// in\n    tag_95:\n      mload(0x40)\n      tag_97\n      swap2\n      swap1\n      tag_41\n      jump\t// in\n    tag_97:\n      mload(0x40)\n      dup1\n      swap2\n      sub\n      swap1\n      return\n        /* \"contracts/Lottery_ERC20_disposable.sol\":448:472  uint public limitTimeDay */\n    tag_18:\n      callvalue\n      dup1\n      iszero\n      tag_98\n      jumpi\n      0x00\n      dup1\n      revert\n    tag_98:\n      pop\n      tag_99\n      tag_100\n      jump\t// in\n    tag_99:\n      mload(0x40)\n      tag_101\n      swap2\n      swap1\n      tag_41\n      jump\t// in\n    tag_101:\n      mload(0x40)\n      dup1\n      swap2\n      sub\n      swap1\n      return\n        /* \"contracts/Lottery_ERC20_disposable.sol\":1481:1545  mapping(address => mapping(address => uint256)) public allowance */\n    tag_19:\n      callvalue\n      dup1\n      iszero\n      tag_102\n      jumpi\n      0x00\n      dup1\n      revert\n    tag_102:\n      pop\n      tag_103\n      0x04\n      dup1\n      calldatasize\n      sub\n      dup2\n      add\n      swap1\n      tag_104\n      swap2\n      swap1\n      tag_105\n      jump\t// in\n    tag_104:\n      tag_106\n      jump\t// in\n    tag_103:\n      mload(0x40)\n      tag_107\n      swap2\n      swap1\n      tag_41\n      jump\t// in\n    tag_107:\n      mload(0x40)\n      dup1\n      swap2\n      sub\n      swap1\n      return\n        /* \"contracts/Lottery_ERC20_disposable.sol\":267:288  address public winner */\n    tag_20:\n      callvalue\n      dup1\n      iszero\n      tag_108\n      jumpi\n      0x00\n      dup1\n      revert\n    tag_108:\n      pop\n      tag_109\n      tag_110\n      jump\t// in\n    tag_109:\n      mload(0x40)\n      tag_111\n      swap2\n      swap1\n      tag_112\n      jump\t// in\n    tag_111:\n      mload(0x40)\n      dup1\n      swap2\n      sub\n      swap1\n      return\n        /* \"contracts/Lottery_ERC20_disposable.sol\":2502:2901  function letsPlayTheGame() public {... */\n    tag_21:\n      callvalue\n      dup1\n      iszero\n      tag_113\n      jumpi\n      0x00\n      dup1\n      revert\n    tag_113:\n      pop\n      tag_114\n      tag_115\n      jump\t// in\n    tag_114:\n      stop\n        /* \"contracts/Lottery_ERC20_disposable.sol\":114:133  string  public name */\n    tag_27:\n      0x00\n      dup1\n      sload\n      tag_116\n      swap1\n      tag_117\n      jump\t// in\n    tag_116:\n      dup1\n      0x1f\n      add\n      0x20\n      dup1\n      swap2\n      div\n      mul\n      0x20\n      add\n      mload(0x40)\n      swap1\n      dup2\n      add\n      0x40\n      mstore\n      dup1\n      swap3\n      swap2\n      swap1\n      dup2\n      dup2\n      mstore\n      0x20\n      add\n      dup3\n      dup1\n      sload\n      tag_118\n      swap1\n      tag_117\n      jump\t// in\n    tag_118:\n      dup1\n      iszero\n      tag_119\n      jumpi\n      dup1\n      0x1f\n      lt\n      tag_120\n      jumpi\n      0x0100\n      dup1\n      dup4\n      sload\n      div\n      mul\n      dup4\n      mstore\n      swap2\n      0x20\n      add\n      swap2\n      jump(tag_119)\n    tag_120:\n      dup3\n      add\n      swap2\n      swap1\n      0x00\n      mstore\n      keccak256(0x00, 0x20)\n      swap1\n    tag_121:\n      dup2\n      sload\n      dup2\n      mstore\n      swap1\n      0x01\n      add\n      swap1\n      0x20\n      add\n      dup1\n      dup4\n      gt\n      tag_121\n      jumpi\n      dup3\n      swap1\n      sub\n      0x1f\n      and\n      dup3\n      add\n      swap2\n    tag_119:\n      pop\n      pop\n      pop\n      pop\n      pop\n      dup2\n      jump\t// out\n        /* \"contracts/Lottery_ERC20_disposable.sol\":4103:4317  function approve(address _spender, uint256 _value) public returns (bool success) {... */\n    tag_34:\n        /* \"contracts/Lottery_ERC20_disposable.sol\":4170:4182  bool success */\n      0x00\n        /* \"contracts/Lottery_ERC20_disposable.sol\":4228:4234  _value */\n      dup2\n        /* \"contracts/Lottery_ERC20_disposable.sol\":4194:4203  allowance */\n      0x0f\n        /* \"contracts/Lottery_ERC20_disposable.sol\":4194:4215  allowance[msg.sender] */\n      0x00\n        /* \"contracts/Lottery_ERC20_disposable.sol\":4204:4214  msg.sender */\n      caller\n        /* \"contracts/Lottery_ERC20_disposable.sol\":4194:4215  allowance[msg.sender] */\n      0xffffffffffffffffffffffffffffffffffffffff\n      and\n      0xffffffffffffffffffffffffffffffffffffffff\n      and\n      dup2\n      mstore\n      0x20\n      add\n      swap1\n      dup2\n      mstore\n      0x20\n      add\n      0x00\n      keccak256\n        /* \"contracts/Lottery_ERC20_disposable.sol\":4194:4225  allowance[msg.sender][_spender] */\n      0x00\n        /* \"contracts/Lottery_ERC20_disposable.sol\":4216:4224  _spender */\n      dup6\n        /* \"contracts/Lottery_ERC20_disposable.sol\":4194:4225  allowance[msg.sender][_spender] */\n      0xffffffffffffffffffffffffffffffffffffffff\n      and\n      0xffffffffffffffffffffffffffffffffffffffff\n      and\n      dup2\n      mstore\n      0x20\n      add\n      swap1\n      dup2\n      mstore\n      0x20\n      add\n      0x00\n      keccak256\n        /* \"contracts/Lottery_ERC20_disposable.sol\":4194:4234  allowance[msg.sender][_spender] = _value */\n      dup2\n      swap1\n      sstore\n      pop\n        /* \"contracts/Lottery_ERC20_disposable.sol\":4271:4279  _spender */\n      dup3\n        /* \"contracts/Lottery_ERC20_disposable.sol\":4250:4288  Approval(msg.sender, _spender, _value) */\n      0xffffffffffffffffffffffffffffffffffffffff\n      and\n        /* \"contracts/Lottery_ERC20_disposable.sol\":4259:4269  msg.sender */\n      caller\n        /* \"contracts/Lottery_ERC20_disposable.sol\":4250:4288  Approval(msg.sender, _spender, _value) */\n      0xffffffffffffffffffffffffffffffffffffffff\n      and\n      0x8c5be1e5ebec7d5bd14f71427d1e84f3dd0314c0f7b2291e5b200ac8c7c3b925\n        /* \"contracts/Lottery_ERC20_disposable.sol\":4281:4287  _value */\n      dup5\n        /* \"contracts/Lottery_ERC20_disposable.sol\":4250:4288  Approval(msg.sender, _spender, _value) */\n      mload(0x40)\n      tag_123\n      swap2\n      swap1\n      tag_41\n      jump\t// in\n    tag_123:\n      mload(0x40)\n      dup1\n      swap2\n      sub\n      swap1\n      log3\n        /* \"contracts/Lottery_ERC20_disposable.sol\":4306:4310  true */\n      0x01\n        /* \"contracts/Lottery_ERC20_disposable.sol\":4299:4310  return true */\n      swap1\n      pop\n        /* \"contracts/Lottery_ERC20_disposable.sol\":4103:4317  function approve(address _spender, uint256 _value) public returns (bool success) {... */\n      swap3\n      swap2\n      pop\n      pop\n      jump\t// out\n        /* \"contracts/Lottery_ERC20_disposable.sol\":294:320  uint256 public ticketPrice */\n    tag_39:\n      sload(0x05)\n      dup2\n      jump\t// out\n        /* \"contracts/Lottery_ERC20_disposable.sol\":215:241  uint256 public totalSupply */\n    tag_44:\n      sload(0x03)\n      dup2\n      jump\t// out\n        /* \"contracts/Lottery_ERC20_disposable.sol\":3663:4097  function transferFrom(address _from, address _to, uint256 _value) public returns (bool success) {... */\n    tag_50:\n        /* \"contracts/Lottery_ERC20_disposable.sol\":3745:3757  bool success */\n      0x00\n        /* \"contracts/Lottery_ERC20_disposable.sol\":3787:3796  balanceOf */\n      0x0e\n        /* \"contracts/Lottery_ERC20_disposable.sol\":3787:3803  balanceOf[_from] */\n      0x00\n        /* \"contracts/Lottery_ERC20_disposable.sol\":3797:3802  _from */\n      dup6\n        /* \"contracts/Lottery_ERC20_disposable.sol\":3787:3803  balanceOf[_from] */\n      0xffffffffffffffffffffffffffffffffffffffff\n      and\n      0xffffffffffffffffffffffffffffffffffffffff\n      and\n      dup2\n      mstore\n      0x20\n      add\n      swap1\n      dup2\n      mstore\n      0x20\n      add\n      0x00\n      keccak256\n      sload\n        /* \"contracts/Lottery_ERC20_disposable.sol\":3777:3783  _value */\n      dup3\n        /* \"contracts/Lottery_ERC20_disposable.sol\":3777:3803  _value <= balanceOf[_from] */\n      gt\n      iszero\n        /* \"contracts/Lottery_ERC20_disposable.sol\":3769:3826  require(_value <= balanceOf[_from], \"not enough tickets\") */\n      tag_125\n      jumpi\n      mload(0x40)\n      0x08c379a000000000000000000000000000000000000000000000000000000000\n      dup2\n      mstore\n      0x04\n      add\n      tag_126\n      swap1\n      tag_127\n      jump\t// in\n    tag_126:\n      mload(0x40)\n      dup1\n      swap2\n      sub\n      swap1\n      revert\n    tag_125:\n        /* \"contracts/Lottery_ERC20_disposable.sol\":3854:3863  allowance */\n      0x0f\n        /* \"contracts/Lottery_ERC20_disposable.sol\":3854:3870  allowance[_from] */\n      0x00\n        /* \"contracts/Lottery_ERC20_disposable.sol\":3864:3869  _from */\n      dup6\n        /* \"contracts/Lottery_ERC20_disposable.sol\":3854:3870  allowance[_from] */\n      0xffffffffffffffffffffffffffffffffffffffff\n      and\n      0xffffffffffffffffffffffffffffffffffffffff\n      and\n      dup2\n      mstore\n      0x20\n      add\n      swap1\n      dup2\n      mstore\n      0x20\n      add\n      0x00\n      keccak256\n        /* \"contracts/Lottery_ERC20_disposable.sol\":3854:3882  allowance[_from][msg.sender] */\n      0x00\n        /* \"contracts/Lottery_ERC20_disposable.sol\":3871:3881  msg.sender */\n      caller\n        /* \"contracts/Lottery_ERC20_disposable.sol\":3854:3882  allowance[_from][msg.sender] */\n      0xffffffffffffffffffffffffffffffffffffffff\n      and\n      0xffffffffffffffffffffffffffffffffffffffff\n      and\n      dup2\n      mstore\n      0x20\n      add\n      swap1\n      dup2\n      mstore\n      0x20\n      add\n      0x00\n      keccak256\n      sload\n        /* \"contracts/Lottery_ERC20_disposable.sol\":3844:3850  _value */\n      dup3\n        /* \"contracts/Lottery_ERC20_disposable.sol\":3844:3882  _value <= allowance[_from][msg.sender] */\n      gt\n      iszero\n        /* \"contracts/Lottery_ERC20_disposable.sol\":3836:3907  require(_value <= allowance[_from][msg.sender], \"not enough allowance\") */\n      tag_128\n      jumpi\n      mload(0x40)\n      0x08c379a000000000000000000000000000000000000000000000000000000000\n      dup2\n      mstore\n      0x04\n      add\n      tag_129\n      swap1\n      tag_130\n      jump\t// in\n    tag_129:\n      mload(0x40)\n      dup1\n      swap2\n      sub\n      swap1\n      revert\n    tag_128:\n        /* \"contracts/Lottery_ERC20_disposable.sol\":3937:3943  _value */\n      dup2\n        /* \"contracts/Lottery_ERC20_disposable.sol\":3917:3926  balanceOf */\n      0x0e\n        /* \"contracts/Lottery_ERC20_disposable.sol\":3917:3933  balanceOf[_from] */\n      0x00\n        /* \"contracts/Lottery_ERC20_disposable.sol\":3927:3932  _from */\n      dup7\n        /* \"contracts/Lottery_ERC20_disposable.sol\":3917:3933  balanceOf[_from] */\n      0xffffffffffffffffffffffffffffffffffffffff\n      and\n      0xffffffffffffffffffffffffffffffffffffffff\n      and\n      dup2\n      mstore\n      0x20\n      add\n      swap1\n      dup2\n      mstore\n      0x20\n      add\n      0x00\n      keccak256\n      0x00\n        /* \"contracts/Lottery_ERC20_disposable.sol\":3917:3943  balanceOf[_from] -= _value */\n      dup3\n      dup3\n      sload\n      tag_131\n      swap2\n      swap1\n      tag_132\n      jump\t// in\n    tag_131:\n      swap3\n      pop\n      pop\n      dup2\n      swap1\n      sstore\n      pop\n        /* \"contracts/Lottery_ERC20_disposable.sol\":3971:3977  _value */\n      dup2\n        /* \"contracts/Lottery_ERC20_disposable.sol\":3953:3962  balanceOf */\n      0x0e\n        /* \"contracts/Lottery_ERC20_disposable.sol\":3953:3967  balanceOf[_to] */\n      0x00\n        /* \"contracts/Lottery_ERC20_disposable.sol\":3963:3966  _to */\n      dup6\n        /* \"contracts/Lottery_ERC20_disposable.sol\":3953:3967  balanceOf[_to] */\n      0xffffffffffffffffffffffffffffffffffffffff\n      and\n      0xffffffffffffffffffffffffffffffffffffffff\n      and\n      dup2\n      mstore\n      0x20\n      add\n      swap1\n      dup2\n      mstore\n      0x20\n      add\n      0x00\n      keccak256\n      0x00\n        /* \"contracts/Lottery_ERC20_disposable.sol\":3953:3977  balanceOf[_to] += _value */\n      dup3\n      dup3\n      sload\n      tag_133\n      swap2\n      swap1\n      tag_134\n      jump\t// in\n    tag_133:\n      swap3\n      pop\n      pop\n      dup2\n      swap1\n      sstore\n      pop\n        /* \"contracts/Lottery_ERC20_disposable.sol\":4019:4025  _value */\n      dup2\n        /* \"contracts/Lottery_ERC20_disposable.sol\":3987:3996  allowance */\n      0x0f\n        /* \"contracts/Lottery_ERC20_disposable.sol\":3987:4003  allowance[_from] */\n      0x00\n        /* \"contracts/Lottery_ERC20_disposable.sol\":3997:4002  _from */\n      dup7\n        /* \"contracts/Lottery_ERC20_disposable.sol\":3987:4003  allowance[_from] */\n      0xffffffffffffffffffffffffffffffffffffffff\n      and\n      0xffffffffffffffffffffffffffffffffffffffff\n      and\n      dup2\n      mstore\n      0x20\n      add\n      swap1\n      dup2\n      mstore\n      0x20\n      add\n      0x00\n      keccak256\n        /* \"contracts/Lottery_ERC20_disposable.sol\":3987:4015  allowance[_from][msg.sender] */\n      0x00\n        /* \"contracts/Lottery_ERC20_disposable.sol\":4004:4014  msg.sender */\n      caller\n        /* \"contracts/Lottery_ERC20_disposable.sol\":3987:4015  allowance[_from][msg.sender] */\n      0xffffffffffffffffffffffffffffffffffffffff\n      and\n      0xffffffffffffffffffffffffffffffffffffffff\n      and\n      dup2\n      mstore\n      0x20\n      add\n      swap1\n      dup2\n      mstore\n      0x20\n      add\n      0x00\n      keccak256\n      0x00\n        /* \"contracts/Lottery_ERC20_disposable.sol\":3987:4025  allowance[_from][msg.sender] -= _value */\n      dup3\n      dup3\n      sload\n      tag_135\n      swap2\n      swap1\n      tag_132\n      jump\t// in\n    tag_135:\n      swap3\n      pop\n      pop\n      dup2\n      swap1\n      sstore\n      pop\n        /* \"contracts/Lottery_ERC20_disposable.sol\":4056:4059  _to */\n      dup3\n        /* \"contracts/Lottery_ERC20_disposable.sol\":4040:4068  Transfer(_from, _to, _value) */\n      0xffffffffffffffffffffffffffffffffffffffff\n      and\n        /* \"contracts/Lottery_ERC20_disposable.sol\":4049:4054  _from */\n      dup5\n        /* \"contracts/Lottery_ERC20_disposable.sol\":4040:4068  Transfer(_from, _to, _value) */\n      0xffffffffffffffffffffffffffffffffffffffff\n      and\n      0xddf252ad1be2c89b69c2b068fc378daa952ba7f163c4a11628f55a4df523b3ef\n        /* \"contracts/Lottery_ERC20_disposable.sol\":4061:4067  _value */\n      dup5\n        /* \"contracts/Lottery_ERC20_disposable.sol\":4040:4068  Transfer(_from, _to, _value) */\n      mload(0x40)\n      tag_136\n      swap2\n      swap1\n      tag_41\n      jump\t// in\n    tag_136:\n      mload(0x40)\n      dup1\n      swap2\n      sub\n      swap1\n      log3\n        /* \"contracts/Lottery_ERC20_disposable.sol\":4086:4090  true */\n      0x01\n        /* \"contracts/Lottery_ERC20_disposable.sol\":4079:4090  return true */\n      swap1\n      pop\n        /* \"contracts/Lottery_ERC20_disposable.sol\":3663:4097  function transferFrom(address _from, address _to, uint256 _value) public returns (bool success) {... */\n      swap4\n      swap3\n      pop\n      pop\n      pop\n      jump\t// out\n        /* \"contracts/Lottery_ERC20_disposable.sol\":532:562  uint256 public soldTicketLimit */\n    tag_54:\n      sload(0x0c)\n      dup2\n      jump\t// out\n        /* \"contracts/Lottery_ERC20_disposable.sol\":568:593  uint256 public ticketSold */\n    tag_58:\n      sload(0x0d)\n      dup2\n      jump\t// out\n        /* \"contracts/Lottery_ERC20_disposable.sol\":2907:3158  function returnTheMoney() public {... */\n    tag_62:\n        /* \"contracts/Lottery_ERC20_disposable.sol\":2950:2962  uint nowTime */\n      0x00\n        /* \"contracts/Lottery_ERC20_disposable.sol\":2965:2980  block.timestamp */\n      timestamp\n        /* \"contracts/Lottery_ERC20_disposable.sol\":2950:2980  uint nowTime = block.timestamp */\n      swap1\n      pop\n        /* \"contracts/Lottery_ERC20_disposable.sol\":3009:3018  limitTime */\n      sload(0x0b)\n        /* \"contracts/Lottery_ERC20_disposable.sol\":2999:3006  nowTime */\n      dup2\n        /* \"contracts/Lottery_ERC20_disposable.sol\":2999:3018  nowTime > limitTime */\n      gt\n        /* \"contracts/Lottery_ERC20_disposable.sol\":2998:3053  (nowTime > limitTime) && (ticketSold < soldTicketLimit) */\n      dup1\n      iszero\n      tag_138\n      jumpi\n      pop\n        /* \"contracts/Lottery_ERC20_disposable.sol\":3037:3052  soldTicketLimit */\n      sload(0x0c)\n        /* \"contracts/Lottery_ERC20_disposable.sol\":3024:3034  ticketSold */\n      sload(0x0d)\n        /* \"contracts/Lottery_ERC20_disposable.sol\":3024:3052  ticketSold < soldTicketLimit */\n      lt\n        /* \"contracts/Lottery_ERC20_disposable.sol\":2998:3053  (nowTime > limitTime) && (ticketSold < soldTicketLimit) */\n    tag_138:\n        /* \"contracts/Lottery_ERC20_disposable.sol\":2990:3076  require((nowTime > limitTime) && (ticketSold < soldTicketLimit), \"Time is not up yet\") */\n      tag_139\n      jumpi\n      mload(0x40)\n      0x08c379a000000000000000000000000000000000000000000000000000000000\n      dup2\n      mstore\n      0x04\n      add\n      tag_140\n      swap1\n      tag_141\n      jump\t// in\n    tag_140:\n      mload(0x40)\n      dup1\n      swap2\n      sub\n      swap1\n      revert\n    tag_139:\n        /* \"contracts/Lottery_ERC20_disposable.sol\":3094:3104  msg.sender */\n      caller\n        /* \"contracts/Lottery_ERC20_disposable.sol\":3086:3114  payable(msg.sender).transfer */\n      0xffffffffffffffffffffffffffffffffffffffff\n      and\n        /* \"contracts/Lottery_ERC20_disposable.sol\":3086:3151  payable(msg.sender).transfer(ticketPrice * balanceOf[msg.sender]) */\n      0x08fc\n        /* \"contracts/Lottery_ERC20_disposable.sol\":3129:3138  balanceOf */\n      0x0e\n        /* \"contracts/Lottery_ERC20_disposable.sol\":3129:3150  balanceOf[msg.sender] */\n      0x00\n        /* \"contracts/Lottery_ERC20_disposable.sol\":3139:3149  msg.sender */\n      caller\n        /* \"contracts/Lottery_ERC20_disposable.sol\":3129:3150  balanceOf[msg.sender] */\n      0xffffffffffffffffffffffffffffffffffffffff\n      and\n      0xffffffffffffffffffffffffffffffffffffffff\n      and\n      dup2\n      mstore\n      0x20\n      add\n      swap1\n      dup2\n      mstore\n      0x20\n      add\n      0x00\n      keccak256\n      sload\n        /* \"contracts/Lottery_ERC20_disposable.sol\":3115:3126  ticketPrice */\n      sload(0x05)\n        /* \"contracts/Lottery_ERC20_disposable.sol\":3115:3150  ticketPrice * balanceOf[msg.sender] */\n      tag_142\n      swap2\n      swap1\n      tag_143\n      jump\t// in\n    tag_142:\n        /* \"contracts/Lottery_ERC20_disposable.sol\":3086:3151  payable(msg.sender).transfer(ticketPrice * balanceOf[msg.sender]) */\n      swap1\n      dup2\n      iszero\n      mul\n      swap1\n      mload(0x40)\n      0x00\n      mload(0x40)\n      dup1\n      dup4\n      sub\n      dup2\n      dup6\n      dup9\n      dup9\n      call\n      swap4\n      pop\n      pop\n      pop\n      pop\n      iszero\n      dup1\n      iszero\n      tag_145\n      jumpi\n      returndatasize\n      0x00\n      dup1\n      returndatacopy\n      revert(0x00, returndatasize)\n    tag_145:\n      pop\n        /* \"contracts/Lottery_ERC20_disposable.sol\":2940:3158  {... */\n      pop\n        /* \"contracts/Lottery_ERC20_disposable.sol\":2907:3158  function returnTheMoney() public {... */\n      jump\t// out\n        /* \"contracts/Lottery_ERC20_disposable.sol\":166:209  string  public standard = \"Be$t_token v1.0\" */\n    tag_65:\n      0x02\n      dup1\n      sload\n      tag_146\n      swap1\n      tag_117\n      jump\t// in\n    tag_146:\n      dup1\n      0x1f\n      add\n      0x20\n      dup1\n      swap2\n      div\n      mul\n      0x20\n      add\n      mload(0x40)\n      swap1\n      dup2\n      add\n      0x40\n      mstore\n      dup1\n      swap3\n      swap2\n      swap1\n      dup2\n      dup2\n      mstore\n      0x20\n      add\n      dup3\n      dup1\n      sload\n      tag_147\n      swap1\n      tag_117\n      jump\t// in\n    tag_147:\n      dup1\n      iszero\n      tag_148\n      jumpi\n      dup1\n      0x1f\n      lt\n      tag_149\n      jumpi\n      0x0100\n      dup1\n      dup4\n      sload\n      div\n      mul\n      dup4\n      mstore\n      swap2\n      0x20\n      add\n      swap2\n      jump(tag_148)\n    tag_149:\n      dup3\n      add\n      swap2\n      swap1\n      0x00\n      mstore\n      keccak256(0x00, 0x20)\n      swap1\n    tag_150:\n      dup2\n      sload\n      dup2\n      mstore\n      swap1\n      0x01\n      add\n      swap1\n      0x20\n      add\n      dup1\n      dup4\n      gt\n      tag_150\n      jumpi\n      dup3\n      swap1\n      sub\n      0x1f\n      and\n      dup3\n      add\n      swap2\n    tag_148:\n      pop\n      pop\n      pop\n      pop\n      pop\n      dup2\n      jump\t// out\n        /* \"contracts/Lottery_ERC20_disposable.sol\":1867:2496  function buyTicket(uint256 _numberOfTickets) public payable {... */\n    tag_70:\n        /* \"contracts/Lottery_ERC20_disposable.sol\":1937:1949  uint nowTime */\n      0x00\n        /* \"contracts/Lottery_ERC20_disposable.sol\":1952:1967  block.timestamp */\n      timestamp\n        /* \"contracts/Lottery_ERC20_disposable.sol\":1937:1967  uint nowTime = block.timestamp */\n      swap1\n      pop\n        /* \"contracts/Lottery_ERC20_disposable.sol\":1995:2004  limitTime */\n      sload(0x0b)\n        /* \"contracts/Lottery_ERC20_disposable.sol\":1985:1992  nowTime */\n      dup2\n        /* \"contracts/Lottery_ERC20_disposable.sol\":1985:2004  nowTime < limitTime */\n      lt\n        /* \"contracts/Lottery_ERC20_disposable.sol\":1977:2028  require(nowTime < limitTime, \"The lottery is over\") */\n      tag_152\n      jumpi\n      mload(0x40)\n      0x08c379a000000000000000000000000000000000000000000000000000000000\n      dup2\n      mstore\n      0x04\n      add\n      tag_153\n      swap1\n      tag_154\n      jump\t// in\n    tag_153:\n      mload(0x40)\n      dup1\n      swap2\n      sub\n      swap1\n      revert\n    tag_152:\n        /* \"contracts/Lottery_ERC20_disposable.sol\":2059:2098  multiply(_numberOfTickets, ticketPrice) */\n      tag_155\n        /* \"contracts/Lottery_ERC20_disposable.sol\":2068:2084  _numberOfTickets */\n      dup3\n        /* \"contracts/Lottery_ERC20_disposable.sol\":2086:2097  ticketPrice */\n      sload(0x05)\n        /* \"contracts/Lottery_ERC20_disposable.sol\":2059:2067  multiply */\n      tag_156\n        /* \"contracts/Lottery_ERC20_disposable.sol\":2059:2098  multiply(_numberOfTickets, ticketPrice) */\n      jump\t// in\n    tag_155:\n        /* \"contracts/Lottery_ERC20_disposable.sol\":2046:2055  msg.value */\n      callvalue\n        /* \"contracts/Lottery_ERC20_disposable.sol\":2046:2098  msg.value == multiply(_numberOfTickets, ticketPrice) */\n      eq\n        /* \"contracts/Lottery_ERC20_disposable.sol\":2038:2133  require(msg.value == multiply(_numberOfTickets, ticketPrice), \"Not enaught or too much ethers\") */\n      tag_157\n      jumpi\n      mload(0x40)\n      0x08c379a000000000000000000000000000000000000000000000000000000000\n      dup2\n      mstore\n      0x04\n      add\n      tag_158\n      swap1\n      tag_159\n      jump\t// in\n    tag_158:\n      mload(0x40)\n      dup1\n      swap2\n      sub\n      swap1\n      revert\n    tag_157:\n        /* \"contracts/Lottery_ERC20_disposable.sol\":2187:2203  _numberOfTickets */\n      dup2\n        /* \"contracts/Lottery_ERC20_disposable.sol\":2148:2157  allowance */\n      0x0f\n        /* \"contracts/Lottery_ERC20_disposable.sol\":2148:2172  allowance[address(this)] */\n      0x00\n        /* \"contracts/Lottery_ERC20_disposable.sol\":2166:2170  this */\n      address\n        /* \"contracts/Lottery_ERC20_disposable.sol\":2148:2172  allowance[address(this)] */\n      0xffffffffffffffffffffffffffffffffffffffff\n      and\n      0xffffffffffffffffffffffffffffffffffffffff\n      and\n      dup2\n      mstore\n      0x20\n      add\n      swap1\n      dup2\n      mstore\n      0x20\n      add\n      0x00\n      keccak256\n        /* \"contracts/Lottery_ERC20_disposable.sol\":2148:2184  allowance[address(this)][msg.sender] */\n      0x00\n        /* \"contracts/Lottery_ERC20_disposable.sol\":2173:2183  msg.sender */\n      caller\n        /* \"contracts/Lottery_ERC20_disposable.sol\":2148:2184  allowance[address(this)][msg.sender] */\n      0xffffffffffffffffffffffffffffffffffffffff\n      and\n      0xffffffffffffffffffffffffffffffffffffffff\n      and\n      dup2\n      mstore\n      0x20\n      add\n      swap1\n      dup2\n      mstore\n      0x20\n      add\n      0x00\n      keccak256\n        /* \"contracts/Lottery_ERC20_disposable.sol\":2148:2203  allowance[address(this)][msg.sender] = _numberOfTickets */\n      dup2\n      swap1\n      sstore\n      pop\n        /* \"contracts/Lottery_ERC20_disposable.sol\":2221:2278  transferFrom(address(this), msg.sender, _numberOfTickets) */\n      tag_160\n        /* \"contracts/Lottery_ERC20_disposable.sol\":2242:2246  this */\n      address\n        /* \"contracts/Lottery_ERC20_disposable.sol\":2249:2259  msg.sender */\n      caller\n        /* \"contracts/Lottery_ERC20_disposable.sol\":2261:2277  _numberOfTickets */\n      dup5\n        /* \"contracts/Lottery_ERC20_disposable.sol\":2221:2233  transferFrom */\n      tag_50\n        /* \"contracts/Lottery_ERC20_disposable.sol\":2221:2278  transferFrom(address(this), msg.sender, _numberOfTickets) */\n      jump\t// in\n    tag_160:\n        /* \"contracts/Lottery_ERC20_disposable.sol\":2213:2298  require(transferFrom(address(this), msg.sender, _numberOfTickets), \"transfer failed\") */\n      tag_161\n      jumpi\n      mload(0x40)\n      0x08c379a000000000000000000000000000000000000000000000000000000000\n      dup2\n      mstore\n      0x04\n      add\n      tag_162\n      swap1\n      tag_163\n      jump\t// in\n    tag_162:\n      mload(0x40)\n      dup1\n      swap2\n      sub\n      swap1\n      revert\n    tag_161:\n        /* \"contracts/Lottery_ERC20_disposable.sol\":2322:2338  _numberOfTickets */\n      dup2\n        /* \"contracts/Lottery_ERC20_disposable.sol\":2308:2318  ticketSold */\n      0x0d\n      0x00\n        /* \"contracts/Lottery_ERC20_disposable.sol\":2308:2338  ticketSold += _numberOfTickets */\n      dup3\n      dup3\n      sload\n      tag_164\n      swap2\n      swap1\n      tag_134\n      jump\t// in\n    tag_164:\n      swap3\n      pop\n      pop\n      dup2\n      swap1\n      sstore\n      pop\n        /* \"contracts/Lottery_ERC20_disposable.sol\":2353:2359  uint i */\n      0x00\n        /* \"contracts/Lottery_ERC20_disposable.sol\":2348:2441  for (uint i = 0; i < _numberOfTickets; i++) {... */\n    tag_165:\n        /* \"contracts/Lottery_ERC20_disposable.sol\":2369:2385  _numberOfTickets */\n      dup3\n        /* \"contracts/Lottery_ERC20_disposable.sol\":2365:2366  i */\n      dup2\n        /* \"contracts/Lottery_ERC20_disposable.sol\":2365:2385  i < _numberOfTickets */\n      lt\n        /* \"contracts/Lottery_ERC20_disposable.sol\":2348:2441  for (uint i = 0; i < _numberOfTickets; i++) {... */\n      iszero\n      tag_166\n      jumpi\n        /* \"contracts/Lottery_ERC20_disposable.sol\":2406:2413  players */\n      0x08\n        /* \"contracts/Lottery_ERC20_disposable.sol\":2419:2429  msg.sender */\n      caller\n        /* \"contracts/Lottery_ERC20_disposable.sol\":2406:2430  players.push(msg.sender) */\n      swap1\n      dup1\n      0x01\n      dup2\n      sload\n      add\n      dup1\n      dup3\n      sstore\n      dup1\n      swap2\n      pop\n      pop\n      0x01\n      swap1\n      sub\n      swap1\n      0x00\n      mstore\n      keccak256(0x00, 0x20)\n      add\n      0x00\n      swap1\n      swap2\n      swap1\n      swap2\n      swap1\n      swap2\n      0x0100\n      exp\n      dup2\n      sload\n      dup2\n      0xffffffffffffffffffffffffffffffffffffffff\n      mul\n      not\n      and\n      swap1\n      dup4\n      0xffffffffffffffffffffffffffffffffffffffff\n      and\n      mul\n      or\n      swap1\n      sstore\n      pop\n        /* \"contracts/Lottery_ERC20_disposable.sol\":2387:2390  i++ */\n      dup1\n      dup1\n      tag_169\n      swap1\n      tag_170\n      jump\t// in\n    tag_169:\n      swap2\n      pop\n      pop\n        /* \"contracts/Lottery_ERC20_disposable.sol\":2348:2441  for (uint i = 0; i < _numberOfTickets; i++) {... */\n      jump(tag_165)\n    tag_166:\n      pop\n        /* \"contracts/Lottery_ERC20_disposable.sol\":2455:2489  Sell(msg.sender, _numberOfTickets) */\n      0x5e5e995ce3133561afceaa51a9a154d5db228cd7525d34df5185582c18d3df09\n        /* \"contracts/Lottery_ERC20_disposable.sol\":2460:2470  msg.sender */\n      caller\n        /* \"contracts/Lottery_ERC20_disposable.sol\":2472:2488  _numberOfTickets */\n      dup4\n        /* \"contracts/Lottery_ERC20_disposable.sol\":2455:2489  Sell(msg.sender, _numberOfTickets) */\n      mload(0x40)\n      tag_171\n      swap3\n      swap2\n      swap1\n      tag_172\n      jump\t// in\n    tag_171:\n      mload(0x40)\n      dup1\n      swap2\n      sub\n      swap1\n      log1\n        /* \"contracts/Lottery_ERC20_disposable.sol\":1927:2496  {... */\n      pop\n        /* \"contracts/Lottery_ERC20_disposable.sol\":1867:2496  function buyTicket(uint256 _numberOfTickets) public payable {... */\n      pop\n      jump\t// out\n        /* \"contracts/Lottery_ERC20_disposable.sol\":1431:1475  mapping(address => uint256) public balanceOf */\n    tag_75:\n      mstore(0x20, 0x0e)\n      dup1\n      0x00\n      mstore\n      keccak256(0x00, 0x40)\n      0x00\n      swap2\n      pop\n      swap1\n      pop\n      sload\n      dup2\n      jump\t// out\n        /* \"contracts/Lottery_ERC20_disposable.sol\":421:442  uint public startTime */\n    tag_79:\n      sload(0x09)\n      dup2\n      jump\t// out\n        /* \"contracts/Lottery_ERC20_disposable.sol\":327:356  uint256 public ticketPriceEth */\n    tag_83:\n      sload(0x06)\n      dup2\n      jump\t// out\n        /* \"contracts/Lottery_ERC20_disposable.sol\":139:160  string  public symbol */\n    tag_87:\n      0x01\n      dup1\n      sload\n      tag_173\n      swap1\n      tag_117\n      jump\t// in\n    tag_173:\n      dup1\n      0x1f\n      add\n      0x20\n      dup1\n      swap2\n      div\n      mul\n      0x20\n      add\n      mload(0x40)\n      swap1\n      dup2\n      add\n      0x40\n      mstore\n      dup1\n      swap3\n      swap2\n      swap1\n      dup2\n      dup2\n      mstore\n      0x20\n      add\n      dup3\n      dup1\n      sload\n      tag_174\n      swap1\n      tag_117\n      jump\t// in\n    tag_174:\n      dup1\n      iszero\n      tag_175\n      jumpi\n      dup1\n      0x1f\n      lt\n      tag_176\n      jumpi\n      0x0100\n      dup1\n      dup4\n      sload\n      div\n      mul\n      dup4\n      mstore\n      swap2\n      0x20\n      add\n      swap2\n      jump(tag_175)\n    tag_176:\n      dup3\n      add\n      swap2\n      swap1\n      0x00\n      mstore\n      keccak256(0x00, 0x20)\n      swap1\n    tag_177:\n      dup2\n      sload\n      dup2\n      mstore\n      swap1\n      0x01\n      add\n      swap1\n      0x20\n      add\n      dup1\n      dup4\n      gt\n      tag_177\n      jumpi\n      dup3\n      swap1\n      sub\n      0x1f\n      and\n      dup3\n      add\n      swap2\n    tag_175:\n      pop\n      pop\n      pop\n      pop\n      pop\n      dup2\n      jump\t// out\n        /* \"contracts/Lottery_ERC20_disposable.sol\":3378:3657  function transfer(address _to, uint256 _value) public returns (bool success) {... */\n    tag_92:\n        /* \"contracts/Lottery_ERC20_disposable.sol\":3441:3453  bool success */\n      0x00\n        /* \"contracts/Lottery_ERC20_disposable.sol\":3498:3504  _value */\n      dup2\n        /* \"contracts/Lottery_ERC20_disposable.sol\":3473:3482  balanceOf */\n      0x0e\n        /* \"contracts/Lottery_ERC20_disposable.sol\":3473:3494  balanceOf[msg.sender] */\n      0x00\n        /* \"contracts/Lottery_ERC20_disposable.sol\":3483:3493  msg.sender */\n      caller\n        /* \"contracts/Lottery_ERC20_disposable.sol\":3473:3494  balanceOf[msg.sender] */\n      0xffffffffffffffffffffffffffffffffffffffff\n      and\n      0xffffffffffffffffffffffffffffffffffffffff\n      and\n      dup2\n      mstore\n      0x20\n      add\n      swap1\n      dup2\n      mstore\n      0x20\n      add\n      0x00\n      keccak256\n      sload\n        /* \"contracts/Lottery_ERC20_disposable.sol\":3473:3504  balanceOf[msg.sender] >= _value */\n      lt\n      iszero\n        /* \"contracts/Lottery_ERC20_disposable.sol\":3465:3505  require(balanceOf[msg.sender] >= _value) */\n      tag_179\n      jumpi\n      0x00\n      dup1\n      revert\n    tag_179:\n        /* \"contracts/Lottery_ERC20_disposable.sol\":3540:3546  _value */\n      dup2\n        /* \"contracts/Lottery_ERC20_disposable.sol\":3515:3524  balanceOf */\n      0x0e\n        /* \"contracts/Lottery_ERC20_disposable.sol\":3515:3536  balanceOf[msg.sender] */\n      0x00\n        /* \"contracts/Lottery_ERC20_disposable.sol\":3525:3535  msg.sender */\n      caller\n        /* \"contracts/Lottery_ERC20_disposable.sol\":3515:3536  balanceOf[msg.sender] */\n      0xffffffffffffffffffffffffffffffffffffffff\n      and\n      0xffffffffffffffffffffffffffffffffffffffff\n      and\n      dup2\n      mstore\n      0x20\n      add\n      swap1\n      dup2\n      mstore\n      0x20\n      add\n      0x00\n      keccak256\n      0x00\n        /* \"contracts/Lottery_ERC20_disposable.sol\":3515:3546  balanceOf[msg.sender] -= _value */\n      dup3\n      dup3\n      sload\n      tag_180\n      swap2\n      swap1\n      tag_132\n      jump\t// in\n    tag_180:\n      swap3\n      pop\n      pop\n      dup2\n      swap1\n      sstore\n      pop\n        /* \"contracts/Lottery_ERC20_disposable.sol\":3574:3580  _value */\n      dup2\n        /* \"contracts/Lottery_ERC20_disposable.sol\":3556:3565  balanceOf */\n      0x0e\n        /* \"contracts/Lottery_ERC20_disposable.sol\":3556:3570  balanceOf[_to] */\n      0x00\n        /* \"contracts/Lottery_ERC20_disposable.sol\":3566:3569  _to */\n      dup6\n        /* \"contracts/Lottery_ERC20_disposable.sol\":3556:3570  balanceOf[_to] */\n      0xffffffffffffffffffffffffffffffffffffffff\n      and\n      0xffffffffffffffffffffffffffffffffffffffff\n      and\n      dup2\n      mstore\n      0x20\n      add\n      swap1\n      dup2\n      mstore\n      0x20\n      add\n      0x00\n      keccak256\n      0x00\n        /* \"contracts/Lottery_ERC20_disposable.sol\":3556:3580  balanceOf[_to] += _value */\n      dup3\n      dup3\n      sload\n      tag_181\n      swap2\n      swap1\n      tag_134\n      jump\t// in\n    tag_181:\n      swap3\n      pop\n      pop\n      dup2\n      swap1\n      sstore\n      pop\n        /* \"contracts/Lottery_ERC20_disposable.sol\":3616:3619  _to */\n      dup3\n        /* \"contracts/Lottery_ERC20_disposable.sol\":3595:3628  Transfer(msg.sender, _to, _value) */\n      0xffffffffffffffffffffffffffffffffffffffff\n      and\n        /* \"contracts/Lottery_ERC20_disposable.sol\":3604:3614  msg.sender */\n      caller\n        /* \"contracts/Lottery_ERC20_disposable.sol\":3595:3628  Transfer(msg.sender, _to, _value) */\n      0xffffffffffffffffffffffffffffffffffffffff\n      and\n      0xddf252ad1be2c89b69c2b068fc378daa952ba7f163c4a11628f55a4df523b3ef\n        /* \"contracts/Lottery_ERC20_disposable.sol\":3621:3627  _value */\n      dup5\n        /* \"contracts/Lottery_ERC20_disposable.sol\":3595:3628  Transfer(msg.sender, _to, _value) */\n      mload(0x40)\n      tag_182\n      swap2\n      swap1\n      tag_41\n      jump\t// in\n    tag_182:\n      mload(0x40)\n      dup1\n      swap2\n      sub\n      swap1\n      log3\n        /* \"contracts/Lottery_ERC20_disposable.sol\":3646:3650  true */\n      0x01\n        /* \"contracts/Lottery_ERC20_disposable.sol\":3639:3650  return true */\n      swap1\n      pop\n        /* \"contracts/Lottery_ERC20_disposable.sol\":3378:3657  function transfer(address _to, uint256 _value) public returns (bool success) {... */\n      swap3\n      swap2\n      pop\n      pop\n      jump\t// out\n        /* \"contracts/Lottery_ERC20_disposable.sol\":490:511  uint public limitTime */\n    tag_96:\n      sload(0x0b)\n      dup2\n      jump\t// out\n        /* \"contracts/Lottery_ERC20_disposable.sol\":448:472  uint public limitTimeDay */\n    tag_100:\n      sload(0x0a)\n      dup2\n      jump\t// out\n        /* \"contracts/Lottery_ERC20_disposable.sol\":1481:1545  mapping(address => mapping(address => uint256)) public allowance */\n    tag_106:\n      mstore(0x20, 0x0f)\n      dup2\n      0x00\n      mstore\n      mstore(0x20, keccak256(0x00, 0x40))\n      dup1\n      0x00\n      mstore\n      keccak256(0x00, 0x40)\n      0x00\n      swap2\n      pop\n      swap2\n      pop\n      pop\n      sload\n      dup2\n      jump\t// out\n        /* \"contracts/Lottery_ERC20_disposable.sol\":267:288  address public winner */\n    tag_110:\n      0x04\n      0x00\n      swap1\n      sload\n      swap1\n      0x0100\n      exp\n      swap1\n      div\n      0xffffffffffffffffffffffffffffffffffffffff\n      and\n      dup2\n      jump\t// out\n        /* \"contracts/Lottery_ERC20_disposable.sol\":2502:2901  function letsPlayTheGame() public {... */\n    tag_115:\n        /* \"contracts/Lottery_ERC20_disposable.sol\":2546:2558  uint nowTime */\n      0x00\n        /* \"contracts/Lottery_ERC20_disposable.sol\":2561:2576  block.timestamp */\n      timestamp\n        /* \"contracts/Lottery_ERC20_disposable.sol\":2546:2576  uint nowTime = block.timestamp */\n      swap1\n      pop\n        /* \"contracts/Lottery_ERC20_disposable.sol\":2609:2620  totalSupply */\n      sload(0x03)\n        /* \"contracts/Lottery_ERC20_disposable.sol\":2595:2605  ticketSold */\n      sload(0x0d)\n        /* \"contracts/Lottery_ERC20_disposable.sol\":2595:2620  ticketSold == totalSupply */\n      eq\n        /* \"contracts/Lottery_ERC20_disposable.sol\":2594:2684  (ticketSold == totalSupply) || ((ticketSold >= soldTicketLimit) && (nowTime >= limitTime)) */\n      dup1\n      tag_184\n      jumpi\n      pop\n        /* \"contracts/Lottery_ERC20_disposable.sol\":2641:2656  soldTicketLimit */\n      sload(0x0c)\n        /* \"contracts/Lottery_ERC20_disposable.sol\":2627:2637  ticketSold */\n      sload(0x0d)\n        /* \"contracts/Lottery_ERC20_disposable.sol\":2627:2656  ticketSold >= soldTicketLimit */\n      lt\n      iszero\n        /* \"contracts/Lottery_ERC20_disposable.sol\":2626:2683  (ticketSold >= soldTicketLimit) && (nowTime >= limitTime) */\n      dup1\n      iszero\n      tag_185\n      jumpi\n      pop\n        /* \"contracts/Lottery_ERC20_disposable.sol\":2673:2682  limitTime */\n      sload(0x0b)\n        /* \"contracts/Lottery_ERC20_disposable.sol\":2662:2669  nowTime */\n      dup2\n        /* \"contracts/Lottery_ERC20_disposable.sol\":2662:2682  nowTime >= limitTime */\n      lt\n      iszero\n        /* \"contracts/Lottery_ERC20_disposable.sol\":2626:2683  (ticketSold >= soldTicketLimit) && (nowTime >= limitTime) */\n    tag_185:\n        /* \"contracts/Lottery_ERC20_disposable.sol\":2594:2684  (ticketSold == totalSupply) || ((ticketSold >= soldTicketLimit) && (nowTime >= limitTime)) */\n    tag_184:\n        /* \"contracts/Lottery_ERC20_disposable.sol\":2586:2685  require((ticketSold == totalSupply) || ((ticketSold >= soldTicketLimit) && (nowTime >= limitTime))) */\n      tag_186\n      jumpi\n      0x00\n      dup1\n      revert\n    tag_186:\n        /* \"contracts/Lottery_ERC20_disposable.sol\":2710:2717  players */\n      0x08\n        /* \"contracts/Lottery_ERC20_disposable.sol\":2718:2740  random(players.length) */\n      tag_187\n        /* \"contracts/Lottery_ERC20_disposable.sol\":2725:2732  players */\n      0x08\n        /* \"contracts/Lottery_ERC20_disposable.sol\":2725:2739  players.length */\n      dup1\n      sload\n      swap1\n      pop\n        /* \"contracts/Lottery_ERC20_disposable.sol\":2718:2724  random */\n      tag_188\n        /* \"contracts/Lottery_ERC20_disposable.sol\":2718:2740  random(players.length) */\n      jump\t// in\n    tag_187:\n        /* \"contracts/Lottery_ERC20_disposable.sol\":2710:2741  players[random(players.length)] */\n      dup2\n      sload\n      dup2\n      lt\n      tag_189\n      jumpi\n      tag_190\n      tag_191\n      jump\t// in\n    tag_190:\n    tag_189:\n      swap1\n      0x00\n      mstore\n      keccak256(0x00, 0x20)\n      add\n      0x00\n      swap1\n      sload\n      swap1\n      0x0100\n      exp\n      swap1\n      div\n      0xffffffffffffffffffffffffffffffffffffffff\n      and\n        /* \"contracts/Lottery_ERC20_disposable.sol\":2701:2707  winner */\n      0x04\n      0x00\n        /* \"contracts/Lottery_ERC20_disposable.sol\":2701:2741  winner = players[random(players.length)] */\n      0x0100\n      exp\n      dup2\n      sload\n      dup2\n      0xffffffffffffffffffffffffffffffffffffffff\n      mul\n      not\n      and\n      swap1\n      dup4\n      0xffffffffffffffffffffffffffffffffffffffff\n      and\n      mul\n      or\n      swap1\n      sstore\n      pop\n        /* \"contracts/Lottery_ERC20_disposable.sol\":2757:2778  WeHaveAWinner(winner) */\n      0x10233db257888c60414333eee11dab8e8dabaf552466002fee253e03615db1d1\n        /* \"contracts/Lottery_ERC20_disposable.sol\":2771:2777  winner */\n      0x04\n      0x00\n      swap1\n      sload\n      swap1\n      0x0100\n      exp\n      swap1\n      div\n      0xffffffffffffffffffffffffffffffffffffffff\n      and\n        /* \"contracts/Lottery_ERC20_disposable.sol\":2757:2778  WeHaveAWinner(winner) */\n      mload(0x40)\n      tag_193\n      swap2\n      swap1\n      tag_112\n      jump\t// in\n    tag_193:\n      mload(0x40)\n      dup1\n      swap2\n      sub\n      swap1\n      log1\n        /* \"contracts/Lottery_ERC20_disposable.sol\":2819:2838  1000000000000000000 */\n      0x0de0b6b3a7640000\n        /* \"contracts/Lottery_ERC20_disposable.sol\":2805:2816  ticketPrice */\n      sload(0x05)\n        /* \"contracts/Lottery_ERC20_disposable.sol\":2805:2838  ticketPrice / 1000000000000000000 */\n      tag_194\n      swap2\n      swap1\n      tag_195\n      jump\t// in\n    tag_194:\n        /* \"contracts/Lottery_ERC20_disposable.sol\":2788:2802  ticketPriceEth */\n      0x06\n        /* \"contracts/Lottery_ERC20_disposable.sol\":2788:2838  ticketPriceEth = ticketPrice / 1000000000000000000 */\n      dup2\n      swap1\n      sstore\n      pop\n        /* \"contracts/Lottery_ERC20_disposable.sol\":2856:2861  admin */\n      0x07\n      0x00\n      swap1\n      sload\n      swap1\n      0x0100\n      exp\n      swap1\n      div\n      0xffffffffffffffffffffffffffffffffffffffff\n      and\n        /* \"contracts/Lottery_ERC20_disposable.sol\":2848:2871  payable(admin).transfer */\n      0xffffffffffffffffffffffffffffffffffffffff\n      and\n        /* \"contracts/Lottery_ERC20_disposable.sol\":2848:2894  payable(admin).transfer(address(this).balance) */\n      0x08fc\n        /* \"contracts/Lottery_ERC20_disposable.sol\":2872:2893  address(this).balance */\n      selfbalance\n        /* \"contracts/Lottery_ERC20_disposable.sol\":2848:2894  payable(admin).transfer(address(this).balance) */\n      swap1\n      dup2\n      iszero\n      mul\n      swap1\n      mload(0x40)\n      0x00\n      mload(0x40)\n      dup1\n      dup4\n      sub\n      dup2\n      dup6\n      dup9\n      dup9\n      call\n      swap4\n      pop\n      pop\n      pop\n      pop\n      iszero\n      dup1\n      iszero\n      tag_197\n      jumpi\n      returndatasize\n      0x00\n      dup1\n      returndatacopy\n      revert(0x00, returndatasize)\n    tag_197:\n      pop\n        /* \"contracts/Lottery_ERC20_disposable.sol\":2536:2901  {... */\n      pop\n        /* \"contracts/Lottery_ERC20_disposable.sol\":2502:2901  function letsPlayTheGame() public {... */\n      jump\t// out\n        /* \"contracts/Lottery_ERC20_disposable.sol\":1740:1861  function multiply(uint x, uint y) internal pure returns (uint z) {... */\n    tag_156:\n        /* \"contracts/Lottery_ERC20_disposable.sol\":1797:1803  uint z */\n      0x00\n        /* \"contracts/Lottery_ERC20_disposable.sol\":1828:1829  0 */\n      dup1\n        /* \"contracts/Lottery_ERC20_disposable.sol\":1823:1824  y */\n      dup3\n        /* \"contracts/Lottery_ERC20_disposable.sol\":1823:1829  y == 0 */\n      eq\n        /* \"contracts/Lottery_ERC20_disposable.sol\":1823:1853  y == 0 || (z = x * y) / y == x */\n      dup1\n      tag_199\n      jumpi\n      pop\n        /* \"contracts/Lottery_ERC20_disposable.sol\":1852:1853  x */\n      dup3\n        /* \"contracts/Lottery_ERC20_disposable.sol\":1847:1848  y */\n      dup3\n        /* \"contracts/Lottery_ERC20_disposable.sol\":1842:1843  y */\n      dup4\n        /* \"contracts/Lottery_ERC20_disposable.sol\":1838:1839  x */\n      dup6\n        /* \"contracts/Lottery_ERC20_disposable.sol\":1838:1843  x * y */\n      tag_200\n      swap2\n      swap1\n      tag_143\n      jump\t// in\n    tag_200:\n        /* \"contracts/Lottery_ERC20_disposable.sol\":1834:1843  z = x * y */\n      swap3\n      pop\n      dup3\n        /* \"contracts/Lottery_ERC20_disposable.sol\":1833:1848  (z = x * y) / y */\n      tag_201\n      swap2\n      swap1\n      tag_195\n      jump\t// in\n    tag_201:\n        /* \"contracts/Lottery_ERC20_disposable.sol\":1833:1853  (z = x * y) / y == x */\n      eq\n        /* \"contracts/Lottery_ERC20_disposable.sol\":1823:1853  y == 0 || (z = x * y) / y == x */\n    tag_199:\n        /* \"contracts/Lottery_ERC20_disposable.sol\":1815:1854  require(y == 0 || (z = x * y) / y == x) */\n      tag_202\n      jumpi\n      0x00\n      dup1\n      revert\n    tag_202:\n        /* \"contracts/Lottery_ERC20_disposable.sol\":1740:1861  function multiply(uint x, uint y) internal pure returns (uint z) {... */\n      swap3\n      swap2\n      pop\n      pop\n      jump\t// out\n        /* \"contracts/Lottery_ERC20_disposable.sol\":3164:3347  function random(uint256 _playersCount) private view returns (uint256) {... */\n    tag_188:\n        /* \"contracts/Lottery_ERC20_disposable.sol\":3225:3232  uint256 */\n      0x00\n        /* \"contracts/Lottery_ERC20_disposable.sol\":3338:3339  1 */\n      0x01\n        /* \"contracts/Lottery_ERC20_disposable.sol\":3324:3337  _playersCount */\n      dup3\n        /* \"contracts/Lottery_ERC20_disposable.sol\":3324:3339  _playersCount-1 */\n      tag_204\n      swap2\n      swap1\n      tag_132\n      jump\t// in\n    tag_204:\n        /* \"contracts/Lottery_ERC20_disposable.sol\":3286:3301  block.timestamp */\n      timestamp\n        /* \"contracts/Lottery_ERC20_disposable.sol\":3303:3319  block.difficulty */\n      difficulty\n        /* \"contracts/Lottery_ERC20_disposable.sol\":3269:3320  abi.encodePacked(block.timestamp, block.difficulty) */\n      add(0x20, mload(0x40))\n      tag_205\n      swap3\n      swap2\n      swap1\n      tag_206\n      jump\t// in\n    tag_205:\n      mload(0x40)\n      0x20\n      dup2\n      dup4\n      sub\n      sub\n      dup2\n      mstore\n      swap1\n      0x40\n      mstore\n        /* \"contracts/Lottery_ERC20_disposable.sol\":3259:3321  keccak256(abi.encodePacked(block.timestamp, block.difficulty)) */\n      dup1\n      mload\n      swap1\n      0x20\n      add\n      keccak256\n        /* \"contracts/Lottery_ERC20_disposable.sol\":3251:3322  uint256(keccak256(abi.encodePacked(block.timestamp, block.difficulty))) */\n      0x00\n      shr\n        /* \"contracts/Lottery_ERC20_disposable.sol\":3251:3340  uint256(keccak256(abi.encodePacked(block.timestamp, block.difficulty)))%(_playersCount-1) */\n      tag_207\n      swap2\n      swap1\n      tag_208\n      jump\t// in\n    tag_207:\n        /* \"contracts/Lottery_ERC20_disposable.sol\":3244:3340  return uint256(keccak256(abi.encodePacked(block.timestamp, block.difficulty)))%(_playersCount-1) */\n      swap1\n      pop\n        /* \"contracts/Lottery_ERC20_disposable.sol\":3164:3347  function random(uint256 _playersCount) private view returns (uint256) {... */\n      swap2\n      swap1\n      pop\n      jump\t// out\n        /* \"#utility.yul\":7:146   */\n    tag_210:\n        /* \"#utility.yul\":53:58   */\n      0x00\n        /* \"#utility.yul\":91:97   */\n      dup2\n        /* \"#utility.yul\":78:98   */\n      calldataload\n        /* \"#utility.yul\":69:98   */\n      swap1\n      pop\n        /* \"#utility.yul\":107:140   */\n      tag_212\n        /* \"#utility.yul\":134:139   */\n      dup2\n        /* \"#utility.yul\":107:140   */\n      tag_213\n      jump\t// in\n    tag_212:\n        /* \"#utility.yul\":7:146   */\n      swap3\n      swap2\n      pop\n      pop\n      jump\t// out\n        /* \"#utility.yul\":152:291   */\n    tag_214:\n        /* \"#utility.yul\":198:203   */\n      0x00\n        /* \"#utility.yul\":236:242   */\n      dup2\n        /* \"#utility.yul\":223:243   */\n      calldataload\n        /* \"#utility.yul\":214:243   */\n      swap1\n      pop\n        /* \"#utility.yul\":252:285   */\n      tag_216\n        /* \"#utility.yul\":279:284   */\n      dup2\n        /* \"#utility.yul\":252:285   */\n      tag_217\n      jump\t// in\n    tag_216:\n        /* \"#utility.yul\":152:291   */\n      swap3\n      swap2\n      pop\n      pop\n      jump\t// out\n        /* \"#utility.yul\":297:626   */\n    tag_74:\n        /* \"#utility.yul\":356:362   */\n      0x00\n        /* \"#utility.yul\":405:407   */\n      0x20\n        /* \"#utility.yul\":393:402   */\n      dup3\n        /* \"#utility.yul\":384:391   */\n      dup5\n        /* \"#utility.yul\":380:403   */\n      sub\n        /* \"#utility.yul\":376:408   */\n      slt\n        /* \"#utility.yul\":373:492   */\n      iszero\n      tag_219\n      jumpi\n        /* \"#utility.yul\":411:490   */\n      tag_220\n      tag_221\n      jump\t// in\n    tag_220:\n        /* \"#utility.yul\":373:492   */\n    tag_219:\n        /* \"#utility.yul\":531:532   */\n      0x00\n        /* \"#utility.yul\":556:609   */\n      tag_222\n        /* \"#utility.yul\":601:608   */\n      dup5\n        /* \"#utility.yul\":592:598   */\n      dup3\n        /* \"#utility.yul\":581:590   */\n      dup6\n        /* \"#utility.yul\":577:599   */\n      add\n        /* \"#utility.yul\":556:609   */\n      tag_210\n      jump\t// in\n    tag_222:\n        /* \"#utility.yul\":546:609   */\n      swap2\n      pop\n        /* \"#utility.yul\":502:619   */\n      pop\n        /* \"#utility.yul\":297:626   */\n      swap3\n      swap2\n      pop\n      pop\n      jump\t// out\n        /* \"#utility.yul\":632:1106   */\n    tag_105:\n        /* \"#utility.yul\":700:706   */\n      0x00\n        /* \"#utility.yul\":708:714   */\n      dup1\n        /* \"#utility.yul\":757:759   */\n      0x40\n        /* \"#utility.yul\":745:754   */\n      dup4\n        /* \"#utility.yul\":736:743   */\n      dup6\n        /* \"#utility.yul\":732:755   */\n      sub\n        /* \"#utility.yul\":728:760   */\n      slt\n        /* \"#utility.yul\":725:844   */\n      iszero\n      tag_224\n      jumpi\n        /* \"#utility.yul\":763:842   */\n      tag_225\n      tag_221\n      jump\t// in\n    tag_225:\n        /* \"#utility.yul\":725:844   */\n    tag_224:\n        /* \"#utility.yul\":883:884   */\n      0x00\n        /* \"#utility.yul\":908:961   */\n      tag_226\n        /* \"#utility.yul\":953:960   */\n      dup6\n        /* \"#utility.yul\":944:950   */\n      dup3\n        /* \"#utility.yul\":933:942   */\n      dup7\n        /* \"#utility.yul\":929:951   */\n      add\n        /* \"#utility.yul\":908:961   */\n      tag_210\n      jump\t// in\n    tag_226:\n        /* \"#utility.yul\":898:961   */\n      swap3\n      pop\n        /* \"#utility.yul\":854:971   */\n      pop\n        /* \"#utility.yul\":1010:1012   */\n      0x20\n        /* \"#utility.yul\":1036:1089   */\n      tag_227\n        /* \"#utility.yul\":1081:1088   */\n      dup6\n        /* \"#utility.yul\":1072:1078   */\n      dup3\n        /* \"#utility.yul\":1061:1070   */\n      dup7\n        /* \"#utility.yul\":1057:1079   */\n      add\n        /* \"#utility.yul\":1036:1089   */\n      tag_210\n      jump\t// in\n    tag_227:\n        /* \"#utility.yul\":1026:1089   */\n      swap2\n      pop\n        /* \"#utility.yul\":981:1099   */\n      pop\n        /* \"#utility.yul\":632:1106   */\n      swap3\n      pop\n      swap3\n      swap1\n      pop\n      jump\t// out\n        /* \"#utility.yul\":1112:1731   */\n    tag_49:\n        /* \"#utility.yul\":1189:1195   */\n      0x00\n        /* \"#utility.yul\":1197:1203   */\n      dup1\n        /* \"#utility.yul\":1205:1211   */\n      0x00\n        /* \"#utility.yul\":1254:1256   */\n      0x60\n        /* \"#utility.yul\":1242:1251   */\n      dup5\n        /* \"#utility.yul\":1233:1240   */\n      dup7\n        /* \"#utility.yul\":1229:1252   */\n      sub\n        /* \"#utility.yul\":1225:1257   */\n      slt\n        /* \"#utility.yul\":1222:1341   */\n      iszero\n      tag_229\n      jumpi\n        /* \"#utility.yul\":1260:1339   */\n      tag_230\n      tag_221\n      jump\t// in\n    tag_230:\n        /* \"#utility.yul\":1222:1341   */\n    tag_229:\n        /* \"#utility.yul\":1380:1381   */\n      0x00\n        /* \"#utility.yul\":1405:1458   */\n      tag_231\n        /* \"#utility.yul\":1450:1457   */\n      dup7\n        /* \"#utility.yul\":1441:1447   */\n      dup3\n        /* \"#utility.yul\":1430:1439   */\n      dup8\n        /* \"#utility.yul\":1426:1448   */\n      add\n        /* \"#utility.yul\":1405:1458   */\n      tag_210\n      jump\t// in\n    tag_231:\n        /* \"#utility.yul\":1395:1458   */\n      swap4\n      pop\n        /* \"#utility.yul\":1351:1468   */\n      pop\n        /* \"#utility.yul\":1507:1509   */\n      0x20\n        /* \"#utility.yul\":1533:1586   */\n      tag_232\n        /* \"#utility.yul\":1578:1585   */\n      dup7\n        /* \"#utility.yul\":1569:1575   */\n      dup3\n        /* \"#utility.yul\":1558:1567   */\n      dup8\n        /* \"#utility.yul\":1554:1576   */\n      add\n        /* \"#utility.yul\":1533:1586   */\n      tag_210\n      jump\t// in\n    tag_232:\n        /* \"#utility.yul\":1523:1586   */\n      swap3\n      pop\n        /* \"#utility.yul\":1478:1596   */\n      pop\n        /* \"#utility.yul\":1635:1637   */\n      0x40\n        /* \"#utility.yul\":1661:1714   */\n      tag_233\n        /* \"#utility.yul\":1706:1713   */\n      dup7\n        /* \"#utility.yul\":1697:1703   */\n      dup3\n        /* \"#utility.yul\":1686:1695   */\n      dup8\n        /* \"#utility.yul\":1682:1704   */\n      add\n        /* \"#utility.yul\":1661:1714   */\n      tag_214\n      jump\t// in\n    tag_233:\n        /* \"#utility.yul\":1651:1714   */\n      swap2\n      pop\n        /* \"#utility.yul\":1606:1724   */\n      pop\n        /* \"#utility.yul\":1112:1731   */\n      swap3\n      pop\n      swap3\n      pop\n      swap3\n      jump\t// out\n        /* \"#utility.yul\":1737:2211   */\n    tag_33:\n        /* \"#utility.yul\":1805:1811   */\n      0x00\n        /* \"#utility.yul\":1813:1819   */\n      dup1\n        /* \"#utility.yul\":1862:1864   */\n      0x40\n        /* \"#utility.yul\":1850:1859   */\n      dup4\n        /* \"#utility.yul\":1841:1848   */\n      dup6\n        /* \"#utility.yul\":1837:1860   */\n      sub\n        /* \"#utility.yul\":1833:1865   */\n      slt\n        /* \"#utility.yul\":1830:1949   */\n      iszero\n      tag_235\n      jumpi\n        /* \"#utility.yul\":1868:1947   */\n      tag_236\n      tag_221\n      jump\t// in\n    tag_236:\n        /* \"#utility.yul\":1830:1949   */\n    tag_235:\n        /* \"#utility.yul\":1988:1989   */\n      0x00\n        /* \"#utility.yul\":2013:2066   */\n      tag_237\n        /* \"#utility.yul\":2058:2065   */\n      dup6\n        /* \"#utility.yul\":2049:2055   */\n      dup3\n        /* \"#utility.yul\":2038:2047   */\n      dup7\n        /* \"#utility.yul\":2034:2056   */\n      add\n        /* \"#utility.yul\":2013:2066   */\n      tag_210\n      jump\t// in\n    tag_237:\n        /* \"#utility.yul\":2003:2066   */\n      swap3\n      pop\n        /* \"#utility.yul\":1959:2076   */\n      pop\n        /* \"#utility.yul\":2115:2117   */\n      0x20\n        /* \"#utility.yul\":2141:2194   */\n      tag_238\n        /* \"#utility.yul\":2186:2193   */\n      dup6\n        /* \"#utility.yul\":2177:2183   */\n      dup3\n        /* \"#utility.yul\":2166:2175   */\n      dup7\n        /* \"#utility.yul\":2162:2184   */\n      add\n        /* \"#utility.yul\":2141:2194   */\n      tag_214\n      jump\t// in\n    tag_238:\n        /* \"#utility.yul\":2131:2194   */\n      swap2\n      pop\n        /* \"#utility.yul\":2086:2204   */\n      pop\n        /* \"#utility.yul\":1737:2211   */\n      swap3\n      pop\n      swap3\n      swap1\n      pop\n      jump\t// out\n        /* \"#utility.yul\":2217:2546   */\n    tag_69:\n        /* \"#utility.yul\":2276:2282   */\n      0x00\n        /* \"#utility.yul\":2325:2327   */\n      0x20\n        /* \"#utility.yul\":2313:2322   */\n      dup3\n        /* \"#utility.yul\":2304:2311   */\n      dup5\n        /* \"#utility.yul\":2300:2323   */\n      sub\n        /* \"#utility.yul\":2296:2328   */\n      slt\n        /* \"#utility.yul\":2293:2412   */\n      iszero\n      tag_240\n      jumpi\n        /* \"#utility.yul\":2331:2410   */\n      tag_241\n      tag_221\n      jump\t// in\n    tag_241:\n        /* \"#utility.yul\":2293:2412   */\n    tag_240:\n        /* \"#utility.yul\":2451:2452   */\n      0x00\n        /* \"#utility.yul\":2476:2529   */\n      tag_242\n        /* \"#utility.yul\":2521:2528   */\n      dup5\n        /* \"#utility.yul\":2512:2518   */\n      dup3\n        /* \"#utility.yul\":2501:2510   */\n      dup6\n        /* \"#utility.yul\":2497:2519   */\n      add\n        /* \"#utility.yul\":2476:2529   */\n      tag_214\n      jump\t// in\n    tag_242:\n        /* \"#utility.yul\":2466:2529   */\n      swap2\n      pop\n        /* \"#utility.yul\":2422:2539   */\n      pop\n        /* \"#utility.yul\":2217:2546   */\n      swap3\n      swap2\n      pop\n      pop\n      jump\t// out\n        /* \"#utility.yul\":2552:2670   */\n    tag_243:\n        /* \"#utility.yul\":2639:2663   */\n      tag_245\n        /* \"#utility.yul\":2657:2662   */\n      dup2\n        /* \"#utility.yul\":2639:2663   */\n      tag_246\n      jump\t// in\n    tag_245:\n        /* \"#utility.yul\":2634:2637   */\n      dup3\n        /* \"#utility.yul\":2627:2664   */\n      mstore\n        /* \"#utility.yul\":2552:2670   */\n      pop\n      pop\n      jump\t// out\n        /* \"#utility.yul\":2676:2785   */\n    tag_247:\n        /* \"#utility.yul\":2757:2778   */\n      tag_249\n        /* \"#utility.yul\":2772:2777   */\n      dup2\n        /* \"#utility.yul\":2757:2778   */\n      tag_250\n      jump\t// in\n    tag_249:\n        /* \"#utility.yul\":2752:2755   */\n      dup3\n        /* \"#utility.yul\":2745:2779   */\n      mstore\n        /* \"#utility.yul\":2676:2785   */\n      pop\n      pop\n      jump\t// out\n        /* \"#utility.yul\":2791:3155   */\n    tag_251:\n        /* \"#utility.yul\":2879:2882   */\n      0x00\n        /* \"#utility.yul\":2907:2946   */\n      tag_253\n        /* \"#utility.yul\":2940:2945   */\n      dup3\n        /* \"#utility.yul\":2907:2946   */\n      tag_254\n      jump\t// in\n    tag_253:\n        /* \"#utility.yul\":2962:3033   */\n      tag_255\n        /* \"#utility.yul\":3026:3032   */\n      dup2\n        /* \"#utility.yul\":3021:3024   */\n      dup6\n        /* \"#utility.yul\":2962:3033   */\n      tag_256\n      jump\t// in\n    tag_255:\n        /* \"#utility.yul\":2955:3033   */\n      swap4\n      pop\n        /* \"#utility.yul\":3042:3094   */\n      tag_257\n        /* \"#utility.yul\":3087:3093   */\n      dup2\n        /* \"#utility.yul\":3082:3085   */\n      dup6\n        /* \"#utility.yul\":3075:3079   */\n      0x20\n        /* \"#utility.yul\":3068:3073   */\n      dup7\n        /* \"#utility.yul\":3064:3080   */\n      add\n        /* \"#utility.yul\":3042:3094   */\n      tag_258\n      jump\t// in\n    tag_257:\n        /* \"#utility.yul\":3119:3148   */\n      tag_259\n        /* \"#utility.yul\":3141:3147   */\n      dup2\n        /* \"#utility.yul\":3119:3148   */\n      tag_260\n      jump\t// in\n    tag_259:\n        /* \"#utility.yul\":3114:3117   */\n      dup5\n        /* \"#utility.yul\":3110:3149   */\n      add\n        /* \"#utility.yul\":3103:3149   */\n      swap2\n      pop\n        /* \"#utility.yul\":2883:3155   */\n      pop\n        /* \"#utility.yul\":2791:3155   */\n      swap3\n      swap2\n      pop\n      pop\n      jump\t// out\n        /* \"#utility.yul\":3161:3527   */\n    tag_261:\n        /* \"#utility.yul\":3303:3306   */\n      0x00\n        /* \"#utility.yul\":3324:3391   */\n      tag_263\n        /* \"#utility.yul\":3388:3390   */\n      0x13\n        /* \"#utility.yul\":3383:3386   */\n      dup4\n        /* \"#utility.yul\":3324:3391   */\n      tag_256\n      jump\t// in\n    tag_263:\n        /* \"#utility.yul\":3317:3391   */\n      swap2\n      pop\n        /* \"#utility.yul\":3400:3493   */\n      tag_264\n        /* \"#utility.yul\":3489:3492   */\n      dup3\n        /* \"#utility.yul\":3400:3493   */\n      tag_265\n      jump\t// in\n    tag_264:\n        /* \"#utility.yul\":3518:3520   */\n      0x20\n        /* \"#utility.yul\":3513:3516   */\n      dup3\n        /* \"#utility.yul\":3509:3521   */\n      add\n        /* \"#utility.yul\":3502:3521   */\n      swap1\n      pop\n        /* \"#utility.yul\":3161:3527   */\n      swap2\n      swap1\n      pop\n      jump\t// out\n        /* \"#utility.yul\":3533:3899   */\n    tag_266:\n        /* \"#utility.yul\":3675:3678   */\n      0x00\n        /* \"#utility.yul\":3696:3763   */\n      tag_268\n        /* \"#utility.yul\":3760:3762   */\n      0x12\n        /* \"#utility.yul\":3755:3758   */\n      dup4\n        /* \"#utility.yul\":3696:3763   */\n      tag_256\n      jump\t// in\n    tag_268:\n        /* \"#utility.yul\":3689:3763   */\n      swap2\n      pop\n        /* \"#utility.yul\":3772:3865   */\n      tag_269\n        /* \"#utility.yul\":3861:3864   */\n      dup3\n        /* \"#utility.yul\":3772:3865   */\n      tag_270\n      jump\t// in\n    tag_269:\n        /* \"#utility.yul\":3890:3892   */\n      0x20\n        /* \"#utility.yul\":3885:3888   */\n      dup3\n        /* \"#utility.yul\":3881:3893   */\n      add\n        /* \"#utility.yul\":3874:3893   */\n      swap1\n      pop\n        /* \"#utility.yul\":3533:3899   */\n      swap2\n      swap1\n      pop\n      jump\t// out\n        /* \"#utility.yul\":3905:4271   */\n    tag_271:\n        /* \"#utility.yul\":4047:4050   */\n      0x00\n        /* \"#utility.yul\":4068:4135   */\n      tag_273\n        /* \"#utility.yul\":4132:4134   */\n      0x1e\n        /* \"#utility.yul\":4127:4130   */\n      dup4\n        /* \"#utility.yul\":4068:4135   */\n      tag_256\n      jump\t// in\n    tag_273:\n        /* \"#utility.yul\":4061:4135   */\n      swap2\n      pop\n        /* \"#utility.yul\":4144:4237   */\n      tag_274\n        /* \"#utility.yul\":4233:4236   */\n      dup3\n        /* \"#utility.yul\":4144:4237   */\n      tag_275\n      jump\t// in\n    tag_274:\n        /* \"#utility.yul\":4262:4264   */\n      0x20\n        /* \"#utility.yul\":4257:4260   */\n      dup3\n        /* \"#utility.yul\":4253:4265   */\n      add\n        /* \"#utility.yul\":4246:4265   */\n      swap1\n      pop\n        /* \"#utility.yul\":3905:4271   */\n      swap2\n      swap1\n      pop\n      jump\t// out\n        /* \"#utility.yul\":4277:4643   */\n    tag_276:\n        /* \"#utility.yul\":4419:4422   */\n      0x00\n        /* \"#utility.yul\":4440:4507   */\n      tag_278\n        /* \"#utility.yul\":4504:4506   */\n      0x12\n        /* \"#utility.yul\":4499:4502   */\n      dup4\n        /* \"#utility.yul\":4440:4507   */\n      tag_256\n      jump\t// in\n    tag_278:\n        /* \"#utility.yul\":4433:4507   */\n      swap2\n      pop\n        /* \"#utility.yul\":4516:4609   */\n      tag_279\n        /* \"#utility.yul\":4605:4608   */\n      dup3\n        /* \"#utility.yul\":4516:4609   */\n      tag_280\n      jump\t// in\n    tag_279:\n        /* \"#utility.yul\":4634:4636   */\n      0x20\n        /* \"#utility.yul\":4629:4632   */\n      dup3\n        /* \"#utility.yul\":4625:4637   */\n      add\n        /* \"#utility.yul\":4618:4637   */\n      swap1\n      pop\n        /* \"#utility.yul\":4277:4643   */\n      swap2\n      swap1\n      pop\n      jump\t// out\n        /* \"#utility.yul\":4649:5015   */\n    tag_281:\n        /* \"#utility.yul\":4791:4794   */\n      0x00\n        /* \"#utility.yul\":4812:4879   */\n      tag_283\n        /* \"#utility.yul\":4876:4878   */\n      0x14\n        /* \"#utility.yul\":4871:4874   */\n      dup4\n        /* \"#utility.yul\":4812:4879   */\n      tag_256\n      jump\t// in\n    tag_283:\n        /* \"#utility.yul\":4805:4879   */\n      swap2\n      pop\n        /* \"#utility.yul\":4888:4981   */\n      tag_284\n        /* \"#utility.yul\":4977:4980   */\n      dup3\n        /* \"#utility.yul\":4888:4981   */\n      tag_285\n      jump\t// in\n    tag_284:\n        /* \"#utility.yul\":5006:5008   */\n      0x20\n        /* \"#utility.yul\":5001:5004   */\n      dup3\n        /* \"#utility.yul\":4997:5009   */\n      add\n        /* \"#utility.yul\":4990:5009   */\n      swap1\n      pop\n        /* \"#utility.yul\":4649:5015   */\n      swap2\n      swap1\n      pop\n      jump\t// out\n        /* \"#utility.yul\":5021:5387   */\n    tag_286:\n        /* \"#utility.yul\":5163:5166   */\n      0x00\n        /* \"#utility.yul\":5184:5251   */\n      tag_288\n        /* \"#utility.yul\":5248:5250   */\n      0x0f\n        /* \"#utility.yul\":5243:5246   */\n      dup4\n        /* \"#utility.yul\":5184:5251   */\n      tag_256\n      jump\t// in\n    tag_288:\n        /* \"#utility.yul\":5177:5251   */\n      swap2\n      pop\n        /* \"#utility.yul\":5260:5353   */\n      tag_289\n        /* \"#utility.yul\":5349:5352   */\n      dup3\n        /* \"#utility.yul\":5260:5353   */\n      tag_290\n      jump\t// in\n    tag_289:\n        /* \"#utility.yul\":5378:5380   */\n      0x20\n        /* \"#utility.yul\":5373:5376   */\n      dup3\n        /* \"#utility.yul\":5369:5381   */\n      add\n        /* \"#utility.yul\":5362:5381   */\n      swap1\n      pop\n        /* \"#utility.yul\":5021:5387   */\n      swap2\n      swap1\n      pop\n      jump\t// out\n        /* \"#utility.yul\":5393:5511   */\n    tag_291:\n        /* \"#utility.yul\":5480:5504   */\n      tag_293\n        /* \"#utility.yul\":5498:5503   */\n      dup2\n        /* \"#utility.yul\":5480:5504   */\n      tag_294\n      jump\t// in\n    tag_293:\n        /* \"#utility.yul\":5475:5478   */\n      dup3\n        /* \"#utility.yul\":5468:5505   */\n      mstore\n        /* \"#utility.yul\":5393:5511   */\n      pop\n      pop\n      jump\t// out\n        /* \"#utility.yul\":5517:5674   */\n    tag_295:\n        /* \"#utility.yul\":5622:5667   */\n      tag_297\n        /* \"#utility.yul\":5642:5666   */\n      tag_298\n        /* \"#utility.yul\":5660:5665   */\n      dup3\n        /* \"#utility.yul\":5642:5666   */\n      tag_294\n      jump\t// in\n    tag_298:\n        /* \"#utility.yul\":5622:5667   */\n      tag_299\n      jump\t// in\n    tag_297:\n        /* \"#utility.yul\":5617:5620   */\n      dup3\n        /* \"#utility.yul\":5610:5668   */\n      mstore\n        /* \"#utility.yul\":5517:5674   */\n      pop\n      pop\n      jump\t// out\n        /* \"#utility.yul\":5680:6077   */\n    tag_206:\n        /* \"#utility.yul\":5820:5823   */\n      0x00\n        /* \"#utility.yul\":5835:5910   */\n      tag_301\n        /* \"#utility.yul\":5906:5909   */\n      dup3\n        /* \"#utility.yul\":5897:5903   */\n      dup6\n        /* \"#utility.yul\":5835:5910   */\n      tag_295\n      jump\t// in\n    tag_301:\n        /* \"#utility.yul\":5935:5937   */\n      0x20\n        /* \"#utility.yul\":5930:5933   */\n      dup3\n        /* \"#utility.yul\":5926:5938   */\n      add\n        /* \"#utility.yul\":5919:5938   */\n      swap2\n      pop\n        /* \"#utility.yul\":5948:6023   */\n      tag_302\n        /* \"#utility.yul\":6019:6022   */\n      dup3\n        /* \"#utility.yul\":6010:6016   */\n      dup5\n        /* \"#utility.yul\":5948:6023   */\n      tag_295\n      jump\t// in\n    tag_302:\n        /* \"#utility.yul\":6048:6050   */\n      0x20\n        /* \"#utility.yul\":6043:6046   */\n      dup3\n        /* \"#utility.yul\":6039:6051   */\n      add\n        /* \"#utility.yul\":6032:6051   */\n      swap2\n      pop\n        /* \"#utility.yul\":6068:6071   */\n      dup2\n        /* \"#utility.yul\":6061:6071   */\n      swap1\n      pop\n        /* \"#utility.yul\":5680:6077   */\n      swap4\n      swap3\n      pop\n      pop\n      pop\n      jump\t// out\n        /* \"#utility.yul\":6083:6305   */\n    tag_112:\n        /* \"#utility.yul\":6176:6180   */\n      0x00\n        /* \"#utility.yul\":6214:6216   */\n      0x20\n        /* \"#utility.yul\":6203:6212   */\n      dup3\n        /* \"#utility.yul\":6199:6217   */\n      add\n        /* \"#utility.yul\":6191:6217   */\n      swap1\n      pop\n        /* \"#utility.yul\":6227:6298   */\n      tag_304\n        /* \"#utility.yul\":6295:6296   */\n      0x00\n        /* \"#utility.yul\":6284:6293   */\n      dup4\n        /* \"#utility.yul\":6280:6297   */\n      add\n        /* \"#utility.yul\":6271:6277   */\n      dup5\n        /* \"#utility.yul\":6227:6298   */\n      tag_243\n      jump\t// in\n    tag_304:\n        /* \"#utility.yul\":6083:6305   */\n      swap3\n      swap2\n      pop\n      pop\n      jump\t// out\n        /* \"#utility.yul\":6311:6643   */\n    tag_172:\n        /* \"#utility.yul\":6432:6436   */\n      0x00\n        /* \"#utility.yul\":6470:6472   */\n      0x40\n        /* \"#utility.yul\":6459:6468   */\n      dup3\n        /* \"#utility.yul\":6455:6473   */\n      add\n        /* \"#utility.yul\":6447:6473   */\n      swap1\n      pop\n        /* \"#utility.yul\":6483:6554   */\n      tag_306\n        /* \"#utility.yul\":6551:6552   */\n      0x00\n        /* \"#utility.yul\":6540:6549   */\n      dup4\n        /* \"#utility.yul\":6536:6553   */\n      add\n        /* \"#utility.yul\":6527:6533   */\n      dup6\n        /* \"#utility.yul\":6483:6554   */\n      tag_243\n      jump\t// in\n    tag_306:\n        /* \"#utility.yul\":6564:6636   */\n      tag_307\n        /* \"#utility.yul\":6632:6634   */\n      0x20\n        /* \"#utility.yul\":6621:6630   */\n      dup4\n        /* \"#utility.yul\":6617:6635   */\n      add\n        /* \"#utility.yul\":6608:6614   */\n      dup5\n        /* \"#utility.yul\":6564:6636   */\n      tag_291\n      jump\t// in\n    tag_307:\n        /* \"#utility.yul\":6311:6643   */\n      swap4\n      swap3\n      pop\n      pop\n      pop\n      jump\t// out\n        /* \"#utility.yul\":6649:6859   */\n    tag_36:\n        /* \"#utility.yul\":6736:6740   */\n      0x00\n        /* \"#utility.yul\":6774:6776   */\n      0x20\n        /* \"#utility.yul\":6763:6772   */\n      dup3\n        /* \"#utility.yul\":6759:6777   */\n      add\n        /* \"#utility.yul\":6751:6777   */\n      swap1\n      pop\n        /* \"#utility.yul\":6787:6852   */\n      tag_309\n        /* \"#utility.yul\":6849:6850   */\n      0x00\n        /* \"#utility.yul\":6838:6847   */\n      dup4\n        /* \"#utility.yul\":6834:6851   */\n      add\n        /* \"#utility.yul\":6825:6831   */\n      dup5\n        /* \"#utility.yul\":6787:6852   */\n      tag_247\n      jump\t// in\n    tag_309:\n        /* \"#utility.yul\":6649:6859   */\n      swap3\n      swap2\n      pop\n      pop\n      jump\t// out\n        /* \"#utility.yul\":6865:7178   */\n    tag_29:\n        /* \"#utility.yul\":6978:6982   */\n      0x00\n        /* \"#utility.yul\":7016:7018   */\n      0x20\n        /* \"#utility.yul\":7005:7014   */\n      dup3\n        /* \"#utility.yul\":7001:7019   */\n      add\n        /* \"#utility.yul\":6993:7019   */\n      swap1\n      pop\n        /* \"#utility.yul\":7065:7074   */\n      dup2\n        /* \"#utility.yul\":7059:7063   */\n      dup2\n        /* \"#utility.yul\":7055:7075   */\n      sub\n        /* \"#utility.yul\":7051:7052   */\n      0x00\n        /* \"#utility.yul\":7040:7049   */\n      dup4\n        /* \"#utility.yul\":7036:7053   */\n      add\n        /* \"#utility.yul\":7029:7076   */\n      mstore\n        /* \"#utility.yul\":7093:7171   */\n      tag_311\n        /* \"#utility.yul\":7166:7170   */\n      dup2\n        /* \"#utility.yul\":7157:7163   */\n      dup5\n        /* \"#utility.yul\":7093:7171   */\n      tag_251\n      jump\t// in\n    tag_311:\n        /* \"#utility.yul\":7085:7171   */\n      swap1\n      pop\n        /* \"#utility.yul\":6865:7178   */\n      swap3\n      swap2\n      pop\n      pop\n      jump\t// out\n        /* \"#utility.yul\":7184:7603   */\n    tag_154:\n        /* \"#utility.yul\":7350:7354   */\n      0x00\n        /* \"#utility.yul\":7388:7390   */\n      0x20\n        /* \"#utility.yul\":7377:7386   */\n      dup3\n        /* \"#utility.yul\":7373:7391   */\n      add\n        /* \"#utility.yul\":7365:7391   */\n      swap1\n      pop\n        /* \"#utility.yul\":7437:7446   */\n      dup2\n        /* \"#utility.yul\":7431:7435   */\n      dup2\n        /* \"#utility.yul\":7427:7447   */\n      sub\n        /* \"#utility.yul\":7423:7424   */\n      0x00\n        /* \"#utility.yul\":7412:7421   */\n      dup4\n        /* \"#utility.yul\":7408:7425   */\n      add\n        /* \"#utility.yul\":7401:7448   */\n      mstore\n        /* \"#utility.yul\":7465:7596   */\n      tag_313\n        /* \"#utility.yul\":7591:7595   */\n      dup2\n        /* \"#utility.yul\":7465:7596   */\n      tag_261\n      jump\t// in\n    tag_313:\n        /* \"#utility.yul\":7457:7596   */\n      swap1\n      pop\n        /* \"#utility.yul\":7184:7603   */\n      swap2\n      swap1\n      pop\n      jump\t// out\n        /* \"#utility.yul\":7609:8028   */\n    tag_141:\n        /* \"#utility.yul\":7775:7779   */\n      0x00\n        /* \"#utility.yul\":7813:7815   */\n      0x20\n        /* \"#utility.yul\":7802:7811   */\n      dup3\n        /* \"#utility.yul\":7798:7816   */\n      add\n        /* \"#utility.yul\":7790:7816   */\n      swap1\n      pop\n        /* \"#utility.yul\":7862:7871   */\n      dup2\n        /* \"#utility.yul\":7856:7860   */\n      dup2\n        /* \"#utility.yul\":7852:7872   */\n      sub\n        /* \"#utility.yul\":7848:7849   */\n      0x00\n        /* \"#utility.yul\":7837:7846   */\n      dup4\n        /* \"#utility.yul\":7833:7850   */\n      add\n        /* \"#utility.yul\":7826:7873   */\n      mstore\n        /* \"#utility.yul\":7890:8021   */\n      tag_315\n        /* \"#utility.yul\":8016:8020   */\n      dup2\n        /* \"#utility.yul\":7890:8021   */\n      tag_266\n      jump\t// in\n    tag_315:\n        /* \"#utility.yul\":7882:8021   */\n      swap1\n      pop\n        /* \"#utility.yul\":7609:8028   */\n      swap2\n      swap1\n      pop\n      jump\t// out\n        /* \"#utility.yul\":8034:8453   */\n    tag_159:\n        /* \"#utility.yul\":8200:8204   */\n      0x00\n        /* \"#utility.yul\":8238:8240   */\n      0x20\n        /* \"#utility.yul\":8227:8236   */\n      dup3\n        /* \"#utility.yul\":8223:8241   */\n      add\n        /* \"#utility.yul\":8215:8241   */\n      swap1\n      pop\n        /* \"#utility.yul\":8287:8296   */\n      dup2\n        /* \"#utility.yul\":8281:8285   */\n      dup2\n        /* \"#utility.yul\":8277:8297   */\n      sub\n        /* \"#utility.yul\":8273:8274   */\n      0x00\n        /* \"#utility.yul\":8262:8271   */\n      dup4\n        /* \"#utility.yul\":8258:8275   */\n      add\n        /* \"#utility.yul\":8251:8298   */\n      mstore\n        /* \"#utility.yul\":8315:8446   */\n      tag_317\n        /* \"#utility.yul\":8441:8445   */\n      dup2\n        /* \"#utility.yul\":8315:8446   */\n      tag_271\n      jump\t// in\n    tag_317:\n        /* \"#utility.yul\":8307:8446   */\n      swap1\n      pop\n        /* \"#utility.yul\":8034:8453   */\n      swap2\n      swap1\n      pop\n      jump\t// out\n        /* \"#utility.yul\":8459:8878   */\n    tag_127:\n        /* \"#utility.yul\":8625:8629   */\n      0x00\n        /* \"#utility.yul\":8663:8665   */\n      0x20\n        /* \"#utility.yul\":8652:8661   */\n      dup3\n        /* \"#utility.yul\":8648:8666   */\n      add\n        /* \"#utility.yul\":8640:8666   */\n      swap1\n      pop\n        /* \"#utility.yul\":8712:8721   */\n      dup2\n        /* \"#utility.yul\":8706:8710   */\n      dup2\n        /* \"#utility.yul\":8702:8722   */\n      sub\n        /* \"#utility.yul\":8698:8699   */\n      0x00\n        /* \"#utility.yul\":8687:8696   */\n      dup4\n        /* \"#utility.yul\":8683:8700   */\n      add\n        /* \"#utility.yul\":8676:8723   */\n      mstore\n        /* \"#utility.yul\":8740:8871   */\n      tag_319\n        /* \"#utility.yul\":8866:8870   */\n      dup2\n        /* \"#utility.yul\":8740:8871   */\n      tag_276\n      jump\t// in\n    tag_319:\n        /* \"#utility.yul\":8732:8871   */\n      swap1\n      pop\n        /* \"#utility.yul\":8459:8878   */\n      swap2\n      swap1\n      pop\n      jump\t// out\n        /* \"#utility.yul\":8884:9303   */\n    tag_130:\n        /* \"#utility.yul\":9050:9054   */\n      0x00\n        /* \"#utility.yul\":9088:9090   */\n      0x20\n        /* \"#utility.yul\":9077:9086   */\n      dup3\n        /* \"#utility.yul\":9073:9091   */\n      add\n        /* \"#utility.yul\":9065:9091   */\n      swap1\n      pop\n        /* \"#utility.yul\":9137:9146   */\n      dup2\n        /* \"#utility.yul\":9131:9135   */\n      dup2\n        /* \"#utility.yul\":9127:9147   */\n      sub\n        /* \"#utility.yul\":9123:9124   */\n      0x00\n        /* \"#utility.yul\":9112:9121   */\n      dup4\n        /* \"#utility.yul\":9108:9125   */\n      add\n        /* \"#utility.yul\":9101:9148   */\n      mstore\n        /* \"#utility.yul\":9165:9296   */\n      tag_321\n        /* \"#utility.yul\":9291:9295   */\n      dup2\n        /* \"#utility.yul\":9165:9296   */\n      tag_281\n      jump\t// in\n    tag_321:\n        /* \"#utility.yul\":9157:9296   */\n      swap1\n      pop\n        /* \"#utility.yul\":8884:9303   */\n      swap2\n      swap1\n      pop\n      jump\t// out\n        /* \"#utility.yul\":9309:9728   */\n    tag_163:\n        /* \"#utility.yul\":9475:9479   */\n      0x00\n        /* \"#utility.yul\":9513:9515   */\n      0x20\n        /* \"#utility.yul\":9502:9511   */\n      dup3\n        /* \"#utility.yul\":9498:9516   */\n      add\n        /* \"#utility.yul\":9490:9516   */\n      swap1\n      pop\n        /* \"#utility.yul\":9562:9571   */\n      dup2\n        /* \"#utility.yul\":9556:9560   */\n      dup2\n        /* \"#utility.yul\":9552:9572   */\n      sub\n        /* \"#utility.yul\":9548:9549   */\n      0x00\n        /* \"#utility.yul\":9537:9546   */\n      dup4\n        /* \"#utility.yul\":9533:9550   */\n      add\n        /* \"#utility.yul\":9526:9573   */\n      mstore\n        /* \"#utility.yul\":9590:9721   */\n      tag_323\n        /* \"#utility.yul\":9716:9720   */\n      dup2\n        /* \"#utility.yul\":9590:9721   */\n      tag_286\n      jump\t// in\n    tag_323:\n        /* \"#utility.yul\":9582:9721   */\n      swap1\n      pop\n        /* \"#utility.yul\":9309:9728   */\n      swap2\n      swap1\n      pop\n      jump\t// out\n        /* \"#utility.yul\":9734:9956   */\n    tag_41:\n        /* \"#utility.yul\":9827:9831   */\n      0x00\n        /* \"#utility.yul\":9865:9867   */\n      0x20\n        /* \"#utility.yul\":9854:9863   */\n      dup3\n        /* \"#utility.yul\":9850:9868   */\n      add\n        /* \"#utility.yul\":9842:9868   */\n      swap1\n      pop\n        /* \"#utility.yul\":9878:9949   */\n      tag_325\n        /* \"#utility.yul\":9946:9947   */\n      0x00\n        /* \"#utility.yul\":9935:9944   */\n      dup4\n        /* \"#utility.yul\":9931:9948   */\n      add\n        /* \"#utility.yul\":9922:9928   */\n      dup5\n        /* \"#utility.yul\":9878:9949   */\n      tag_291\n      jump\t// in\n    tag_325:\n        /* \"#utility.yul\":9734:9956   */\n      swap3\n      swap2\n      pop\n      pop\n      jump\t// out\n        /* \"#utility.yul\":10043:10142   */\n    tag_254:\n        /* \"#utility.yul\":10095:10101   */\n      0x00\n        /* \"#utility.yul\":10129:10134   */\n      dup2\n        /* \"#utility.yul\":10123:10135   */\n      mload\n        /* \"#utility.yul\":10113:10135   */\n      swap1\n      pop\n        /* \"#utility.yul\":10043:10142   */\n      swap2\n      swap1\n      pop\n      jump\t// out\n        /* \"#utility.yul\":10148:10317   */\n    tag_256:\n        /* \"#utility.yul\":10232:10243   */\n      0x00\n        /* \"#utility.yul\":10266:10272   */\n      dup3\n        /* \"#utility.yul\":10261:10264   */\n      dup3\n        /* \"#utility.yul\":10254:10273   */\n      mstore\n        /* \"#utility.yul\":10306:10310   */\n      0x20\n        /* \"#utility.yul\":10301:10304   */\n      dup3\n        /* \"#utility.yul\":10297:10311   */\n      add\n        /* \"#utility.yul\":10282:10311   */\n      swap1\n      pop\n        /* \"#utility.yul\":10148:10317   */\n      swap3\n      swap2\n      pop\n      pop\n      jump\t// out\n        /* \"#utility.yul\":10323:10628   */\n    tag_134:\n        /* \"#utility.yul\":10363:10366   */\n      0x00\n        /* \"#utility.yul\":10382:10402   */\n      tag_331\n        /* \"#utility.yul\":10400:10401   */\n      dup3\n        /* \"#utility.yul\":10382:10402   */\n      tag_294\n      jump\t// in\n    tag_331:\n        /* \"#utility.yul\":10377:10402   */\n      swap2\n      pop\n        /* \"#utility.yul\":10416:10436   */\n      tag_332\n        /* \"#utility.yul\":10434:10435   */\n      dup4\n        /* \"#utility.yul\":10416:10436   */\n      tag_294\n      jump\t// in\n    tag_332:\n        /* \"#utility.yul\":10411:10436   */\n      swap3\n      pop\n        /* \"#utility.yul\":10570:10571   */\n      dup3\n        /* \"#utility.yul\":10502:10568   */\n      0xffffffffffffffffffffffffffffffffffffffffffffffffffffffffffffffff\n        /* \"#utility.yul\":10498:10572   */\n      sub\n        /* \"#utility.yul\":10495:10496   */\n      dup3\n        /* \"#utility.yul\":10492:10573   */\n      gt\n        /* \"#utility.yul\":10489:10596   */\n      iszero\n      tag_333\n      jumpi\n        /* \"#utility.yul\":10576:10594   */\n      tag_334\n      tag_335\n      jump\t// in\n    tag_334:\n        /* \"#utility.yul\":10489:10596   */\n    tag_333:\n        /* \"#utility.yul\":10620:10621   */\n      dup3\n        /* \"#utility.yul\":10617:10618   */\n      dup3\n        /* \"#utility.yul\":10613:10622   */\n      add\n        /* \"#utility.yul\":10606:10622   */\n      swap1\n      pop\n        /* \"#utility.yul\":10323:10628   */\n      swap3\n      swap2\n      pop\n      pop\n      jump\t// out\n        /* \"#utility.yul\":10634:10819   */\n    tag_195:\n        /* \"#utility.yul\":10674:10675   */\n      0x00\n        /* \"#utility.yul\":10691:10711   */\n      tag_337\n        /* \"#utility.yul\":10709:10710   */\n      dup3\n        /* \"#utility.yul\":10691:10711   */\n      tag_294\n      jump\t// in\n    tag_337:\n        /* \"#utility.yul\":10686:10711   */\n      swap2\n      pop\n        /* \"#utility.yul\":10725:10745   */\n      tag_338\n        /* \"#utility.yul\":10743:10744   */\n      dup4\n        /* \"#utility.yul\":10725:10745   */\n      tag_294\n      jump\t// in\n    tag_338:\n        /* \"#utility.yul\":10720:10745   */\n      swap3\n      pop\n        /* \"#utility.yul\":10764:10765   */\n      dup3\n        /* \"#utility.yul\":10754:10789   */\n      tag_339\n      jumpi\n        /* \"#utility.yul\":10769:10787   */\n      tag_340\n      tag_341\n      jump\t// in\n    tag_340:\n        /* \"#utility.yul\":10754:10789   */\n    tag_339:\n        /* \"#utility.yul\":10811:10812   */\n      dup3\n        /* \"#utility.yul\":10808:10809   */\n      dup3\n        /* \"#utility.yul\":10804:10813   */\n      div\n        /* \"#utility.yul\":10799:10813   */\n      swap1\n      pop\n        /* \"#utility.yul\":10634:10819   */\n      swap3\n      swap2\n      pop\n      pop\n      jump\t// out\n        /* \"#utility.yul\":10825:11173   */\n    tag_143:\n        /* \"#utility.yul\":10865:10872   */\n      0x00\n        /* \"#utility.yul\":10888:10908   */\n      tag_343\n        /* \"#utility.yul\":10906:10907   */\n      dup3\n        /* \"#utility.yul\":10888:10908   */\n      tag_294\n      jump\t// in\n    tag_343:\n        /* \"#utility.yul\":10883:10908   */\n      swap2\n      pop\n        /* \"#utility.yul\":10922:10942   */\n      tag_344\n        /* \"#utility.yul\":10940:10941   */\n      dup4\n        /* \"#utility.yul\":10922:10942   */\n      tag_294\n      jump\t// in\n    tag_344:\n        /* \"#utility.yul\":10917:10942   */\n      swap3\n      pop\n        /* \"#utility.yul\":11110:11111   */\n      dup2\n        /* \"#utility.yul\":11042:11108   */\n      0xffffffffffffffffffffffffffffffffffffffffffffffffffffffffffffffff\n        /* \"#utility.yul\":11038:11112   */\n      div\n        /* \"#utility.yul\":11035:11036   */\n      dup4\n        /* \"#utility.yul\":11032:11113   */\n      gt\n        /* \"#utility.yul\":11027:11028   */\n      dup3\n        /* \"#utility.yul\":11020:11029   */\n      iszero\n        /* \"#utility.yul\":11013:11030   */\n      iszero\n        /* \"#utility.yul\":11009:11114   */\n      and\n        /* \"#utility.yul\":11006:11137   */\n      iszero\n      tag_345\n      jumpi\n        /* \"#utility.yul\":11117:11135   */\n      tag_346\n      tag_335\n      jump\t// in\n    tag_346:\n        /* \"#utility.yul\":11006:11137   */\n    tag_345:\n        /* \"#utility.yul\":11165:11166   */\n      dup3\n        /* \"#utility.yul\":11162:11163   */\n      dup3\n        /* \"#utility.yul\":11158:11167   */\n      mul\n        /* \"#utility.yul\":11147:11167   */\n      swap1\n      pop\n        /* \"#utility.yul\":10825:11173   */\n      swap3\n      swap2\n      pop\n      pop\n      jump\t// out\n        /* \"#utility.yul\":11179:11370   */\n    tag_132:\n        /* \"#utility.yul\":11219:11223   */\n      0x00\n        /* \"#utility.yul\":11239:11259   */\n      tag_348\n        /* \"#utility.yul\":11257:11258   */\n      dup3\n        /* \"#utility.yul\":11239:11259   */\n      tag_294\n      jump\t// in\n    tag_348:\n        /* \"#utility.yul\":11234:11259   */\n      swap2\n      pop\n        /* \"#utility.yul\":11273:11293   */\n      tag_349\n        /* \"#utility.yul\":11291:11292   */\n      dup4\n        /* \"#utility.yul\":11273:11293   */\n      tag_294\n      jump\t// in\n    tag_349:\n        /* \"#utility.yul\":11268:11293   */\n      swap3\n      pop\n        /* \"#utility.yul\":11312:11313   */\n      dup3\n        /* \"#utility.yul\":11309:11310   */\n      dup3\n        /* \"#utility.yul\":11306:11314   */\n      lt\n        /* \"#utility.yul\":11303:11337   */\n      iszero\n      tag_350\n      jumpi\n        /* \"#utility.yul\":11317:11335   */\n      tag_351\n      tag_335\n      jump\t// in\n    tag_351:\n        /* \"#utility.yul\":11303:11337   */\n    tag_350:\n        /* \"#utility.yul\":11362:11363   */\n      dup3\n        /* \"#utility.yul\":11359:11360   */\n      dup3\n        /* \"#utility.yul\":11355:11364   */\n      sub\n        /* \"#utility.yul\":11347:11364   */\n      swap1\n      pop\n        /* \"#utility.yul\":11179:11370   */\n      swap3\n      swap2\n      pop\n      pop\n      jump\t// out\n        /* \"#utility.yul\":11376:11472   */\n    tag_246:\n        /* \"#utility.yul\":11413:11420   */\n      0x00\n        /* \"#utility.yul\":11442:11466   */\n      tag_353\n        /* \"#utility.yul\":11460:11465   */\n      dup3\n        /* \"#utility.yul\":11442:11466   */\n      tag_354\n      jump\t// in\n    tag_353:\n        /* \"#utility.yul\":11431:11466   */\n      swap1\n      pop\n        /* \"#utility.yul\":11376:11472   */\n      swap2\n      swap1\n      pop\n      jump\t// out\n        /* \"#utility.yul\":11478:11568   */\n    tag_250:\n        /* \"#utility.yul\":11512:11519   */\n      0x00\n        /* \"#utility.yul\":11555:11560   */\n      dup2\n        /* \"#utility.yul\":11548:11561   */\n      iszero\n        /* \"#utility.yul\":11541:11562   */\n      iszero\n        /* \"#utility.yul\":11530:11562   */\n      swap1\n      pop\n        /* \"#utility.yul\":11478:11568   */\n      swap2\n      swap1\n      pop\n      jump\t// out\n        /* \"#utility.yul\":11574:11700   */\n    tag_354:\n        /* \"#utility.yul\":11611:11618   */\n      0x00\n        /* \"#utility.yul\":11651:11693   */\n      0xffffffffffffffffffffffffffffffffffffffff\n        /* \"#utility.yul\":11644:11649   */\n      dup3\n        /* \"#utility.yul\":11640:11694   */\n      and\n        /* \"#utility.yul\":11629:11694   */\n      swap1\n      pop\n        /* \"#utility.yul\":11574:11700   */\n      swap2\n      swap1\n      pop\n      jump\t// out\n        /* \"#utility.yul\":11706:11783   */\n    tag_294:\n        /* \"#utility.yul\":11743:11750   */\n      0x00\n        /* \"#utility.yul\":11772:11777   */\n      dup2\n        /* \"#utility.yul\":11761:11777   */\n      swap1\n      pop\n        /* \"#utility.yul\":11706:11783   */\n      swap2\n      swap1\n      pop\n      jump\t// out\n        /* \"#utility.yul\":11789:12096   */\n    tag_258:\n        /* \"#utility.yul\":11857:11858   */\n      0x00\n        /* \"#utility.yul\":11867:11980   */\n    tag_359:\n        /* \"#utility.yul\":11881:11887   */\n      dup4\n        /* \"#utility.yul\":11878:11879   */\n      dup2\n        /* \"#utility.yul\":11875:11888   */\n      lt\n        /* \"#utility.yul\":11867:11980   */\n      iszero\n      tag_361\n      jumpi\n        /* \"#utility.yul\":11966:11967   */\n      dup1\n        /* \"#utility.yul\":11961:11964   */\n      dup3\n        /* \"#utility.yul\":11957:11968   */\n      add\n        /* \"#utility.yul\":11951:11969   */\n      mload\n        /* \"#utility.yul\":11947:11948   */\n      dup2\n        /* \"#utility.yul\":11942:11945   */\n      dup5\n        /* \"#utility.yul\":11938:11949   */\n      add\n        /* \"#utility.yul\":11931:11970   */\n      mstore\n        /* \"#utility.yul\":11903:11905   */\n      0x20\n        /* \"#utility.yul\":11900:11901   */\n      dup2\n        /* \"#utility.yul\":11896:11906   */\n      add\n        /* \"#utility.yul\":11891:11906   */\n      swap1\n      pop\n        /* \"#utility.yul\":11867:11980   */\n      jump(tag_359)\n    tag_361:\n        /* \"#utility.yul\":11998:12004   */\n      dup4\n        /* \"#utility.yul\":11995:11996   */\n      dup2\n        /* \"#utility.yul\":11992:12005   */\n      gt\n        /* \"#utility.yul\":11989:12090   */\n      iszero\n      tag_362\n      jumpi\n        /* \"#utility.yul\":12078:12079   */\n      0x00\n        /* \"#utility.yul\":12069:12075   */\n      dup5\n        /* \"#utility.yul\":12064:12067   */\n      dup5\n        /* \"#utility.yul\":12060:12076   */\n      add\n        /* \"#utility.yul\":12053:12080   */\n      mstore\n        /* \"#utility.yul\":11989:12090   */\n    tag_362:\n        /* \"#utility.yul\":11838:12096   */\n      pop\n        /* \"#utility.yul\":11789:12096   */\n      pop\n      pop\n      pop\n      jump\t// out\n        /* \"#utility.yul\":12102:12422   */\n    tag_117:\n        /* \"#utility.yul\":12146:12152   */\n      0x00\n        /* \"#utility.yul\":12183:12184   */\n      0x02\n        /* \"#utility.yul\":12177:12181   */\n      dup3\n        /* \"#utility.yul\":12173:12185   */\n      div\n        /* \"#utility.yul\":12163:12185   */\n      swap1\n      pop\n        /* \"#utility.yul\":12230:12231   */\n      0x01\n        /* \"#utility.yul\":12224:12228   */\n      dup3\n        /* \"#utility.yul\":12220:12232   */\n      and\n        /* \"#utility.yul\":12251:12269   */\n      dup1\n        /* \"#utility.yul\":12241:12322   */\n      tag_364\n      jumpi\n        /* \"#utility.yul\":12307:12311   */\n      0x7f\n        /* \"#utility.yul\":12299:12305   */\n      dup3\n        /* \"#utility.yul\":12295:12312   */\n      and\n        /* \"#utility.yul\":12285:12312   */\n      swap2\n      pop\n        /* \"#utility.yul\":12241:12322   */\n    tag_364:\n        /* \"#utility.yul\":12369:12371   */\n      0x20\n        /* \"#utility.yul\":12361:12367   */\n      dup3\n        /* \"#utility.yul\":12358:12372   */\n      lt\n        /* \"#utility.yul\":12338:12356   */\n      dup2\n        /* \"#utility.yul\":12335:12373   */\n      eq\n        /* \"#utility.yul\":12332:12416   */\n      iszero\n      tag_365\n      jumpi\n        /* \"#utility.yul\":12388:12406   */\n      tag_366\n      tag_367\n      jump\t// in\n    tag_366:\n        /* \"#utility.yul\":12332:12416   */\n    tag_365:\n        /* \"#utility.yul\":12153:12422   */\n      pop\n        /* \"#utility.yul\":12102:12422   */\n      swap2\n      swap1\n      pop\n      jump\t// out\n        /* \"#utility.yul\":12428:12661   */\n    tag_170:\n        /* \"#utility.yul\":12467:12470   */\n      0x00\n        /* \"#utility.yul\":12490:12514   */\n      tag_369\n        /* \"#utility.yul\":12508:12513   */\n      dup3\n        /* \"#utility.yul\":12490:12514   */\n      tag_294\n      jump\t// in\n    tag_369:\n        /* \"#utility.yul\":12481:12514   */\n      swap2\n      pop\n        /* \"#utility.yul\":12536:12602   */\n      0xffffffffffffffffffffffffffffffffffffffffffffffffffffffffffffffff\n        /* \"#utility.yul\":12529:12534   */\n      dup3\n        /* \"#utility.yul\":12526:12603   */\n      eq\n        /* \"#utility.yul\":12523:12626   */\n      iszero\n      tag_370\n      jumpi\n        /* \"#utility.yul\":12606:12624   */\n      tag_371\n      tag_335\n      jump\t// in\n    tag_371:\n        /* \"#utility.yul\":12523:12626   */\n    tag_370:\n        /* \"#utility.yul\":12653:12654   */\n      0x01\n        /* \"#utility.yul\":12646:12651   */\n      dup3\n        /* \"#utility.yul\":12642:12655   */\n      add\n        /* \"#utility.yul\":12635:12655   */\n      swap1\n      pop\n        /* \"#utility.yul\":12428:12661   */\n      swap2\n      swap1\n      pop\n      jump\t// out\n        /* \"#utility.yul\":12667:12746   */\n    tag_299:\n        /* \"#utility.yul\":12706:12713   */\n      0x00\n        /* \"#utility.yul\":12735:12740   */\n      dup2\n        /* \"#utility.yul\":12724:12740   */\n      swap1\n      pop\n        /* \"#utility.yul\":12667:12746   */\n      swap2\n      swap1\n      pop\n      jump\t// out\n        /* \"#utility.yul\":12752:12928   */\n    tag_208:\n        /* \"#utility.yul\":12784:12785   */\n      0x00\n        /* \"#utility.yul\":12801:12821   */\n      tag_374\n        /* \"#utility.yul\":12819:12820   */\n      dup3\n        /* \"#utility.yul\":12801:12821   */\n      tag_294\n      jump\t// in\n    tag_374:\n        /* \"#utility.yul\":12796:12821   */\n      swap2\n      pop\n        /* \"#utility.yul\":12835:12855   */\n      tag_375\n        /* \"#utility.yul\":12853:12854   */\n      dup4\n        /* \"#utility.yul\":12835:12855   */\n      tag_294\n      jump\t// in\n    tag_375:\n        /* \"#utility.yul\":12830:12855   */\n      swap3\n      pop\n        /* \"#utility.yul\":12874:12875   */\n      dup3\n        /* \"#utility.yul\":12864:12899   */\n      tag_376\n      jumpi\n        /* \"#utility.yul\":12879:12897   */\n      tag_377\n      tag_341\n      jump\t// in\n    tag_377:\n        /* \"#utility.yul\":12864:12899   */\n    tag_376:\n        /* \"#utility.yul\":12920:12921   */\n      dup3\n        /* \"#utility.yul\":12917:12918   */\n      dup3\n        /* \"#utility.yul\":12913:12922   */\n      mod\n        /* \"#utility.yul\":12908:12922   */\n      swap1\n      pop\n        /* \"#utility.yul\":12752:12928   */\n      swap3\n      swap2\n      pop\n      pop\n      jump\t// out\n        /* \"#utility.yul\":12934:13114   */\n    tag_335:\n        /* \"#utility.yul\":12982:13059   */\n      0x4e487b7100000000000000000000000000000000000000000000000000000000\n        /* \"#utility.yul\":12979:12980   */\n      0x00\n        /* \"#utility.yul\":12972:13060   */\n      mstore\n        /* \"#utility.yul\":13079:13083   */\n      0x11\n        /* \"#utility.yul\":13076:13077   */\n      0x04\n        /* \"#utility.yul\":13069:13084   */\n      mstore\n        /* \"#utility.yul\":13103:13107   */\n      0x24\n        /* \"#utility.yul\":13100:13101   */\n      0x00\n        /* \"#utility.yul\":13093:13108   */\n      revert\n        /* \"#utility.yul\":13120:13300   */\n    tag_341:\n        /* \"#utility.yul\":13168:13245   */\n      0x4e487b7100000000000000000000000000000000000000000000000000000000\n        /* \"#utility.yul\":13165:13166   */\n      0x00\n        /* \"#utility.yul\":13158:13246   */\n      mstore\n        /* \"#utility.yul\":13265:13269   */\n      0x12\n        /* \"#utility.yul\":13262:13263   */\n      0x04\n        /* \"#utility.yul\":13255:13270   */\n      mstore\n        /* \"#utility.yul\":13289:13293   */\n      0x24\n        /* \"#utility.yul\":13286:13287   */\n      0x00\n        /* \"#utility.yul\":13279:13294   */\n      revert\n        /* \"#utility.yul\":13306:13486   */\n    tag_367:\n        /* \"#utility.yul\":13354:13431   */\n      0x4e487b7100000000000000000000000000000000000000000000000000000000\n        /* \"#utility.yul\":13351:13352   */\n      0x00\n        /* \"#utility.yul\":13344:13432   */\n      mstore\n        /* \"#utility.yul\":13451:13455   */\n      0x22\n        /* \"#utility.yul\":13448:13449   */\n      0x04\n        /* \"#utility.yul\":13441:13456   */\n      mstore\n        /* \"#utility.yul\":13475:13479   */\n      0x24\n        /* \"#utility.yul\":13472:13473   */\n      0x00\n        /* \"#utility.yul\":13465:13480   */\n      revert\n        /* \"#utility.yul\":13492:13672   */\n    tag_191:\n        /* \"#utility.yul\":13540:13617   */\n      0x4e487b7100000000000000000000000000000000000000000000000000000000\n        /* \"#utility.yul\":13537:13538   */\n      0x00\n        /* \"#utility.yul\":13530:13618   */\n      mstore\n        /* \"#utility.yul\":13637:13641   */\n      0x32\n        /* \"#utility.yul\":13634:13635   */\n      0x04\n        /* \"#utility.yul\":13627:13642   */\n      mstore\n        /* \"#utility.yul\":13661:13665   */\n      0x24\n        /* \"#utility.yul\":13658:13659   */\n      0x00\n        /* \"#utility.yul\":13651:13666   */\n      revert\n        /* \"#utility.yul\":13801:13918   */\n    tag_221:\n        /* \"#utility.yul\":13910:13911   */\n      0x00\n        /* \"#utility.yul\":13907:13908   */\n      dup1\n        /* \"#utility.yul\":13900:13912   */\n      revert\n        /* \"#utility.yul\":13924:14026   */\n    tag_260:\n        /* \"#utility.yul\":13965:13971   */\n      0x00\n        /* \"#utility.yul\":14016:14018   */\n      0x1f\n        /* \"#utility.yul\":14012:14019   */\n      not\n        /* \"#utility.yul\":14007:14009   */\n      0x1f\n        /* \"#utility.yul\":14000:14005   */\n      dup4\n        /* \"#utility.yul\":13996:14010   */\n      add\n        /* \"#utility.yul\":13992:14020   */\n      and\n        /* \"#utility.yul\":13982:14020   */\n      swap1\n      pop\n        /* \"#utility.yul\":13924:14026   */\n      swap2\n      swap1\n      pop\n      jump\t// out\n        /* \"#utility.yul\":14032:14201   */\n    tag_265:\n        /* \"#utility.yul\":14172:14193   */\n      0x546865206c6f7474657279206973206f76657200000000000000000000000000\n        /* \"#utility.yul\":14168:14169   */\n      0x00\n        /* \"#utility.yul\":14160:14166   */\n      dup3\n        /* \"#utility.yul\":14156:14170   */\n      add\n        /* \"#utility.yul\":14149:14194   */\n      mstore\n        /* \"#utility.yul\":14032:14201   */\n      pop\n      jump\t// out\n        /* \"#utility.yul\":14207:14375   */\n    tag_270:\n        /* \"#utility.yul\":14347:14367   */\n      0x54696d65206973206e6f74207570207965740000000000000000000000000000\n        /* \"#utility.yul\":14343:14344   */\n      0x00\n        /* \"#utility.yul\":14335:14341   */\n      dup3\n        /* \"#utility.yul\":14331:14345   */\n      add\n        /* \"#utility.yul\":14324:14368   */\n      mstore\n        /* \"#utility.yul\":14207:14375   */\n      pop\n      jump\t// out\n        /* \"#utility.yul\":14381:14561   */\n    tag_275:\n        /* \"#utility.yul\":14521:14553   */\n      0x4e6f7420656e6175676874206f7220746f6f206d756368206574686572730000\n        /* \"#utility.yul\":14517:14518   */\n      0x00\n        /* \"#utility.yul\":14509:14515   */\n      dup3\n        /* \"#utility.yul\":14505:14519   */\n      add\n        /* \"#utility.yul\":14498:14554   */\n      mstore\n        /* \"#utility.yul\":14381:14561   */\n      pop\n      jump\t// out\n        /* \"#utility.yul\":14567:14735   */\n    tag_280:\n        /* \"#utility.yul\":14707:14727   */\n      0x6e6f7420656e6f756768207469636b6574730000000000000000000000000000\n        /* \"#utility.yul\":14703:14704   */\n      0x00\n        /* \"#utility.yul\":14695:14701   */\n      dup3\n        /* \"#utility.yul\":14691:14705   */\n      add\n        /* \"#utility.yul\":14684:14728   */\n      mstore\n        /* \"#utility.yul\":14567:14735   */\n      pop\n      jump\t// out\n        /* \"#utility.yul\":14741:14911   */\n    tag_285:\n        /* \"#utility.yul\":14881:14903   */\n      0x6e6f7420656e6f75676820616c6c6f77616e6365000000000000000000000000\n        /* \"#utility.yul\":14877:14878   */\n      0x00\n        /* \"#utility.yul\":14869:14875   */\n      dup3\n        /* \"#utility.yul\":14865:14879   */\n      add\n        /* \"#utility.yul\":14858:14904   */\n      mstore\n        /* \"#utility.yul\":14741:14911   */\n      pop\n      jump\t// out\n        /* \"#utility.yul\":14917:15082   */\n    tag_290:\n        /* \"#utility.yul\":15057:15074   */\n      0x7472616e73666572206661696c65640000000000000000000000000000000000\n        /* \"#utility.yul\":15053:15054   */\n      0x00\n        /* \"#utility.yul\":15045:15051   */\n      dup3\n        /* \"#utility.yul\":15041:15055   */\n      add\n        /* \"#utility.yul\":15034:15075   */\n      mstore\n        /* \"#utility.yul\":14917:15082   */\n      pop\n      jump\t// out\n        /* \"#utility.yul\":15088:15210   */\n    tag_213:\n        /* \"#utility.yul\":15161:15185   */\n      tag_393\n        /* \"#utility.yul\":15179:15184   */\n      dup2\n        /* \"#utility.yul\":15161:15185   */\n      tag_246\n      jump\t// in\n    tag_393:\n        /* \"#utility.yul\":15154:15159   */\n      dup2\n        /* \"#utility.yul\":15151:15186   */\n      eq\n        /* \"#utility.yul\":15141:15204   */\n      tag_394\n      jumpi\n        /* \"#utility.yul\":15200:15201   */\n      0x00\n        /* \"#utility.yul\":15197:15198   */\n      dup1\n        /* \"#utility.yul\":15190:15202   */\n      revert\n        /* \"#utility.yul\":15141:15204   */\n    tag_394:\n        /* \"#utility.yul\":15088:15210   */\n      pop\n      jump\t// out\n        /* \"#utility.yul\":15216:15338   */\n    tag_217:\n        /* \"#utility.yul\":15289:15313   */\n      tag_396\n        /* \"#utility.yul\":15307:15312   */\n      dup2\n        /* \"#utility.yul\":15289:15313   */\n      tag_294\n      jump\t// in\n    tag_396:\n        /* \"#utility.yul\":15282:15287   */\n      dup2\n        /* \"#utility.yul\":15279:15314   */\n      eq\n        /* \"#utility.yul\":15269:15332   */\n      tag_397\n      jumpi\n        /* \"#utility.yul\":15328:15329   */\n      0x00\n        /* \"#utility.yul\":15325:15326   */\n      dup1\n        /* \"#utility.yul\":15318:15330   */\n      revert\n        /* \"#utility.yul\":15269:15332   */\n    tag_397:\n        /* \"#utility.yul\":15216:15338   */\n      pop\n      jump\t// out\n\n    auxdata: 0xa264697066735822122076249b5fc88ba0a65346491dcfece4fb64f81d172bf5876cc1f12a0ee02f14c964736f6c63430008070033\n}\n",
				"bytecode": {
					"linkReferences": {},
					"object": "60806040526040518060400160405280600f81526020017f426524745f746f6b656e2076312e300000000000000000000000000000000000815250600290805190602001906200005192919062000193565b503480156200005f57600080fd5b5060405162002089380380620020898339818101604052810190620000859190620002d8565b33600760006101000a81548173ffffffffffffffffffffffffffffffffffffffff021916908373ffffffffffffffffffffffffffffffffffffffff1602179055508560009080519060200190620000de92919062000193565b508460019080519060200190620000f792919062000193565b508260058190555081600a819055508360038190555080600c8190555083600e60003073ffffffffffffffffffffffffffffffffffffffff1673ffffffffffffffffffffffffffffffffffffffff168152602001908152602001600020819055504260098190555062015180600a546200017291906200046e565b60095462000181919062000411565b600b8190555050505050505062000647565b828054620001a1906200050f565b90600052602060002090601f016020900481019282620001c5576000855562000211565b82601f10620001e057805160ff191683800117855562000211565b8280016001018555821562000211579182015b8281111562000210578251825591602001919060010190620001f3565b5b50905062000220919062000224565b5090565b5b808211156200023f57600081600090555060010162000225565b5090565b60006200025a6200025484620003db565b620003b2565b9050828152602081018484840111156200027957620002786200060d565b5b62000286848285620004d9565b509392505050565b600082601f830112620002a657620002a562000608565b5b8151620002b884826020860162000243565b91505092915050565b600081519050620002d2816200062d565b92915050565b60008060008060008060c08789031215620002f857620002f762000617565b5b600087015167ffffffffffffffff81111562000319576200031862000612565b5b6200032789828a016200028e565b965050602087015167ffffffffffffffff8111156200034b576200034a62000612565b5b6200035989828a016200028e565b95505060406200036c89828a01620002c1565b94505060606200037f89828a01620002c1565b93505060806200039289828a01620002c1565b92505060a0620003a589828a01620002c1565b9150509295509295509295565b6000620003be620003d1565b9050620003cc828262000545565b919050565b6000604051905090565b600067ffffffffffffffff821115620003f957620003f8620005d9565b5b62000404826200061c565b9050602081019050919050565b60006200041e82620004cf565b91506200042b83620004cf565b9250827fffffffffffffffffffffffffffffffffffffffffffffffffffffffffffffffff038211156200046357620004626200057b565b5b828201905092915050565b60006200047b82620004cf565b91506200048883620004cf565b9250817fffffffffffffffffffffffffffffffffffffffffffffffffffffffffffffffff0483118215151615620004c457620004c36200057b565b5b828202905092915050565b6000819050919050565b60005b83811015620004f9578082015181840152602081019050620004dc565b8381111562000509576000848401525b50505050565b600060028204905060018216806200052857607f821691505b602082108114156200053f576200053e620005aa565b5b50919050565b62000550826200061c565b810181811067ffffffffffffffff82111715620005725762000571620005d9565b5b80604052505050565b7f4e487b7100000000000000000000000000000000000000000000000000000000600052601160045260246000fd5b7f4e487b7100000000000000000000000000000000000000000000000000000000600052602260045260246000fd5b7f4e487b7100000000000000000000000000000000000000000000000000000000600052604160045260246000fd5b600080fd5b600080fd5b600080fd5b600080fd5b6000601f19601f8301169050919050565b6200063881620004cf565b81146200064457600080fd5b50565b611a3280620006576000396000f3fe60806040526004361061011f5760003560e01c806370a08231116100a0578063b3b95e3011610064578063b3b95e30146103ce578063cb8a4c5c146103f9578063dd62ed3e14610424578063dfbf53ae14610461578063f732d3fd1461048c5761011f565b806370a08231146102d357806378e97925146103105780637bb9bc6e1461033b57806395d89b4114610366578063a9059cbb146103915761011f565b80633e016252116100e75780633e0162521461021f578063485cc4391461024a578063520992f2146102755780635a3b7e421461028c57806367dd74ca146102b75761011f565b806306fdde0314610124578063095ea7b31461014f5780631209b1f61461018c57806318160ddd146101b757806323b872dd146101e2575b600080fd5b34801561013057600080fd5b506101396104a3565b60405161014691906114a7565b60405180910390f35b34801561015b57600080fd5b5061017660048036038101906101719190611260565b610531565b604051610183919061148c565b60405180910390f35b34801561019857600080fd5b506101a1610623565b6040516101ae9190611589565b60405180910390f35b3480156101c357600080fd5b506101cc610629565b6040516101d99190611589565b60405180910390f35b3480156101ee57600080fd5b506102096004803603810190610204919061120d565b61062f565b604051610216919061148c565b60405180910390f35b34801561022b57600080fd5b50610234610921565b6040516102419190611589565b60405180910390f35b34801561025657600080fd5b5061025f610927565b60405161026c9190611589565b60405180910390f35b34801561028157600080fd5b5061028a61092d565b005b34801561029857600080fd5b506102a1610a1b565b6040516102ae91906114a7565b60405180910390f35b6102d160048036038101906102cc91906112a0565b610aa9565b005b3480156102df57600080fd5b506102fa60048036038101906102f591906111a0565b610ce2565b6040516103079190611589565b60405180910390f35b34801561031c57600080fd5b50610325610cfa565b6040516103329190611589565b60405180910390f35b34801561034757600080fd5b50610350610d00565b60405161035d9190611589565b60405180910390f35b34801561037257600080fd5b5061037b610d06565b60405161038891906114a7565b60405180910390f35b34801561039d57600080fd5b506103b860048036038101906103b39190611260565b610d94565b6040516103c5919061148c565b60405180910390f35b3480156103da57600080fd5b506103e3610efd565b6040516103f09190611589565b60405180910390f35b34801561040557600080fd5b5061040e610f03565b60405161041b9190611589565b60405180910390f35b34801561043057600080fd5b5061044b600480360381019061044691906111cd565b610f09565b6040516104589190611589565b60405180910390f35b34801561046d57600080fd5b50610476610f2e565b6040516104839190611448565b60405180910390f35b34801561049857600080fd5b506104a1610f54565b005b600080546104b090611750565b80601f01602080910402602001604051908101604052809291908181526020018280546104dc90611750565b80156105295780601f106104fe57610100808354040283529160200191610529565b820191906000526020600020905b81548152906001019060200180831161050c57829003601f168201915b505050505081565b600081600f60003373ffffffffffffffffffffffffffffffffffffffff1673ffffffffffffffffffffffffffffffffffffffff16815260200190815260200160002060008573ffffffffffffffffffffffffffffffffffffffff1673ffffffffffffffffffffffffffffffffffffffff168152602001908152602001600020819055508273ffffffffffffffffffffffffffffffffffffffff163373ffffffffffffffffffffffffffffffffffffffff167f8c5be1e5ebec7d5bd14f71427d1e84f3dd0314c0f7b2291e5b200ac8c7c3b925846040516106119190611589565b60405180910390a36001905092915050565b60055481565b60035481565b6000600e60008573ffffffffffffffffffffffffffffffffffffffff1673ffffffffffffffffffffffffffffffffffffffff168152602001908152602001600020548211156106b3576040517f08c379a00000000000000000000000000000000000000000000000000000000081526004016106aa90611529565b60405180910390fd5b600f60008573ffffffffffffffffffffffffffffffffffffffff1673ffffffffffffffffffffffffffffffffffffffff16815260200190815260200160002060003373ffffffffffffffffffffffffffffffffffffffff1673ffffffffffffffffffffffffffffffffffffffff16815260200190815260200160002054821115610772576040517f08c379a000000000000000000000000000000000000000000000000000000000815260040161076990611549565b60405180910390fd5b81600e60008673ffffffffffffffffffffffffffffffffffffffff1673ffffffffffffffffffffffffffffffffffffffff16815260200190815260200160002060008282546107c191906116a1565b9250508190555081600e60008573ffffffffffffffffffffffffffffffffffffffff1673ffffffffffffffffffffffffffffffffffffffff168152602001908152602001600020600082825461081791906115c0565b9250508190555081600f60008673ffffffffffffffffffffffffffffffffffffffff1673ffffffffffffffffffffffffffffffffffffffff16815260200190815260200160002060003373ffffffffffffffffffffffffffffffffffffffff1673ffffffffffffffffffffffffffffffffffffffff16815260200190815260200160002060008282546108aa91906116a1565b925050819055508273ffffffffffffffffffffffffffffffffffffffff168473ffffffffffffffffffffffffffffffffffffffff167fddf252ad1be2c89b69c2b068fc378daa952ba7f163c4a11628f55a4df523b3ef8460405161090e9190611589565b60405180910390a3600190509392505050565b600c5481565b600d5481565b6000429050600b54811180156109465750600c54600d54105b610985576040517f08c379a000000000000000000000000000000000000000000000000000000000815260040161097c906114e9565b60405180910390fd5b3373ffffffffffffffffffffffffffffffffffffffff166108fc600e60003373ffffffffffffffffffffffffffffffffffffffff1673ffffffffffffffffffffffffffffffffffffffff168152602001908152602001600020546005546109ec9190611647565b9081150290604051600060405180830381858888f19350505050158015610a17573d6000803e3d6000fd5b5050565b60028054610a2890611750565b80601f0160208091040260200160405190810160405280929190818152602001828054610a5490611750565b8015610aa15780601f10610a7657610100808354040283529160200191610aa1565b820191906000526020600020905b815481529060010190602001808311610a8457829003601f168201915b505050505081565b6000429050600b548110610af2576040517f08c379a0000000000000000000000000000000000000000000000000000000008152600401610ae9906114c9565b60405180910390fd5b610afe826005546110f3565b3414610b3f576040517f08c379a0000000000000000000000000000000000000000000000000000000008152600401610b3690611509565b60405180910390fd5b81600f60003073ffffffffffffffffffffffffffffffffffffffff1673ffffffffffffffffffffffffffffffffffffffff16815260200190815260200160002060003373ffffffffffffffffffffffffffffffffffffffff1673ffffffffffffffffffffffffffffffffffffffff16815260200190815260200160002081905550610bcb30338461062f565b610c0a576040517f08c379a0000000000000000000000000000000000000000000000000000000008152600401610c0190611569565b60405180910390fd5b81600d6000828254610c1c91906115c0565b9250508190555060005b82811015610ca4576008339080600181540180825580915050600190039060005260206000200160009091909190916101000a81548173ffffffffffffffffffffffffffffffffffffffff021916908373ffffffffffffffffffffffffffffffffffffffff1602179055508080610c9c90611782565b915050610c26565b507f5e5e995ce3133561afceaa51a9a154d5db228cd7525d34df5185582c18d3df093383604051610cd6929190611463565b60405180910390a15050565b600e6020528060005260406000206000915090505481565b60095481565b60065481565b60018054610d1390611750565b80601f0160208091040260200160405190810160405280929190818152602001828054610d3f90611750565b8015610d8c5780601f10610d6157610100808354040283529160200191610d8c565b820191906000526020600020905b815481529060010190602001808311610d6f57829003601f168201915b505050505081565b600081600e60003373ffffffffffffffffffffffffffffffffffffffff1673ffffffffffffffffffffffffffffffffffffffff168152602001908152602001600020541015610de257600080fd5b81600e60003373ffffffffffffffffffffffffffffffffffffffff1673ffffffffffffffffffffffffffffffffffffffff1681526020019081526020016000206000828254610e3191906116a1565b9250508190555081600e60008573ffffffffffffffffffffffffffffffffffffffff1673ffffffffffffffffffffffffffffffffffffffff1681526020019081526020016000206000828254610e8791906115c0565b925050819055508273ffffffffffffffffffffffffffffffffffffffff163373ffffffffffffffffffffffffffffffffffffffff167fddf252ad1be2c89b69c2b068fc378daa952ba7f163c4a11628f55a4df523b3ef84604051610eeb9190611589565b60405180910390a36001905092915050565b600b5481565b600a5481565b600f602052816000526040600020602052806000526040600020600091509150505481565b600460009054906101000a900473ffffffffffffffffffffffffffffffffffffffff1681565b6000429050600354600d541480610f7d5750600c54600d5410158015610f7c5750600b548110155b5b610f8657600080fd5b6008610f9660088054905061112a565b81548110610fa757610fa6611893565b5b9060005260206000200160009054906101000a900473ffffffffffffffffffffffffffffffffffffffff16600460006101000a81548173ffffffffffffffffffffffffffffffffffffffff021916908373ffffffffffffffffffffffffffffffffffffffff1602179055507f10233db257888c60414333eee11dab8e8dabaf552466002fee253e03615db1d1600460009054906101000a900473ffffffffffffffffffffffffffffffffffffffff166040516110639190611448565b60405180910390a1670de0b6b3a76400006005546110819190611616565b600681905550600760009054906101000a900473ffffffffffffffffffffffffffffffffffffffff1673ffffffffffffffffffffffffffffffffffffffff166108fc479081150290604051600060405180830381858888f193505050501580156110ef573d6000803e3d6000fd5b5050565b60008082148061111b57508282838561110c9190611647565b9250826111199190611616565b145b61112457600080fd5b92915050565b600060018261113991906116a1565b424460405160200161114c92919061141c565b6040516020818303038152906040528051906020012060001c61116f91906117d5565b9050919050565b600081359050611185816119ce565b92915050565b60008135905061119a816119e5565b92915050565b6000602082840312156111b6576111b56118c2565b5b60006111c484828501611176565b91505092915050565b600080604083850312156111e4576111e36118c2565b5b60006111f285828601611176565b925050602061120385828601611176565b9150509250929050565b600080600060608486031215611226576112256118c2565b5b600061123486828701611176565b935050602061124586828701611176565b92505060406112568682870161118b565b9150509250925092565b60008060408385031215611277576112766118c2565b5b600061128585828601611176565b92505060206112968582860161118b565b9150509250929050565b6000602082840312156112b6576112b56118c2565b5b60006112c48482850161118b565b91505092915050565b6112d6816116d5565b82525050565b6112e5816116e7565b82525050565b60006112f6826115a4565b61130081856115af565b935061131081856020860161171d565b611319816118c7565b840191505092915050565b60006113316013836115af565b915061133c826118d8565b602082019050919050565b60006113546012836115af565b915061135f82611901565b602082019050919050565b6000611377601e836115af565b91506113828261192a565b602082019050919050565b600061139a6012836115af565b91506113a582611953565b602082019050919050565b60006113bd6014836115af565b91506113c88261197c565b602082019050919050565b60006113e0600f836115af565b91506113eb826119a5565b602082019050919050565b6113ff81611713565b82525050565b61141661141182611713565b6117cb565b82525050565b60006114288285611405565b6020820191506114388284611405565b6020820191508190509392505050565b600060208201905061145d60008301846112cd565b92915050565b600060408201905061147860008301856112cd565b61148560208301846113f6565b9392505050565b60006020820190506114a160008301846112dc565b92915050565b600060208201905081810360008301526114c181846112eb565b905092915050565b600060208201905081810360008301526114e281611324565b9050919050565b6000602082019050818103600083015261150281611347565b9050919050565b600060208201905081810360008301526115228161136a565b9050919050565b600060208201905081810360008301526115428161138d565b9050919050565b60006020820190508181036000830152611562816113b0565b9050919050565b60006020820190508181036000830152611582816113d3565b9050919050565b600060208201905061159e60008301846113f6565b92915050565b600081519050919050565b600082825260208201905092915050565b60006115cb82611713565b91506115d683611713565b9250827fffffffffffffffffffffffffffffffffffffffffffffffffffffffffffffffff0382111561160b5761160a611806565b5b828201905092915050565b600061162182611713565b915061162c83611713565b92508261163c5761163b611835565b5b828204905092915050565b600061165282611713565b915061165d83611713565b9250817fffffffffffffffffffffffffffffffffffffffffffffffffffffffffffffffff048311821515161561169657611695611806565b5b828202905092915050565b60006116ac82611713565b91506116b783611713565b9250828210156116ca576116c9611806565b5b828203905092915050565b60006116e0826116f3565b9050919050565b60008115159050919050565b600073ffffffffffffffffffffffffffffffffffffffff82169050919050565b6000819050919050565b60005b8381101561173b578082015181840152602081019050611720565b8381111561174a576000848401525b50505050565b6000600282049050600182168061176857607f821691505b6020821081141561177c5761177b611864565b5b50919050565b600061178d82611713565b91507fffffffffffffffffffffffffffffffffffffffffffffffffffffffffffffffff8214156117c0576117bf611806565b5b600182019050919050565b6000819050919050565b60006117e082611713565b91506117eb83611713565b9250826117fb576117fa611835565b5b828206905092915050565b7f4e487b7100000000000000000000000000000000000000000000000000000000600052601160045260246000fd5b7f4e487b7100000000000000000000000000000000000000000000000000000000600052601260045260246000fd5b7f4e487b7100000000000000000000000000000000000000000000000000000000600052602260045260246000fd5b7f4e487b7100000000000000000000000000000000000000000000000000000000600052603260045260246000fd5b600080fd5b6000601f19601f8301169050919050565b7f546865206c6f7474657279206973206f76657200000000000000000000000000600082015250565b7f54696d65206973206e6f74207570207965740000000000000000000000000000600082015250565b7f4e6f7420656e6175676874206f7220746f6f206d756368206574686572730000600082015250565b7f6e6f7420656e6f756768207469636b6574730000000000000000000000000000600082015250565b7f6e6f7420656e6f75676820616c6c6f77616e6365000000000000000000000000600082015250565b7f7472616e73666572206661696c65640000000000000000000000000000000000600082015250565b6119d7816116d5565b81146119e257600080fd5b50565b6119ee81611713565b81146119f957600080fd5b5056fea264697066735822122076249b5fc88ba0a65346491dcfece4fb64f81d172bf5876cc1f12a0ee02f14c964736f6c63430008070033",
					"opcodes": "PUSH1 0x80 PUSH1 0x40 MSTORE PUSH1 0x40 MLOAD DUP1 PUSH1 0x40 ADD PUSH1 0x40 MSTORE DUP1 PUSH1 0xF DUP2 MSTORE PUSH1 0x20 ADD PUSH32 0x426524745F746F6B656E2076312E300000000000000000000000000000000000 DUP2 MSTORE POP PUSH1 0x2 SWAP1 DUP1 MLOAD SWAP1 PUSH1 0x20 ADD SWAP1 PUSH3 0x51 SWAP3 SWAP2 SWAP1 PUSH3 0x193 JUMP JUMPDEST POP CALLVALUE DUP1 ISZERO PUSH3 0x5F JUMPI PUSH1 0x0 DUP1 REVERT JUMPDEST POP PUSH1 0x40 MLOAD PUSH3 0x2089 CODESIZE SUB DUP1 PUSH3 0x2089 DUP4 CODECOPY DUP2 DUP2 ADD PUSH1 0x40 MSTORE DUP2 ADD SWAP1 PUSH3 0x85 SWAP2 SWAP1 PUSH3 0x2D8 JUMP JUMPDEST CALLER PUSH1 0x7 PUSH1 0x0 PUSH2 0x100 EXP DUP2 SLOAD DUP2 PUSH20 0xFFFFFFFFFFFFFFFFFFFFFFFFFFFFFFFFFFFFFFFF MUL NOT AND SWAP1 DUP4 PUSH20 0xFFFFFFFFFFFFFFFFFFFFFFFFFFFFFFFFFFFFFFFF AND MUL OR SWAP1 SSTORE POP DUP6 PUSH1 0x0 SWAP1 DUP1 MLOAD SWAP1 PUSH1 0x20 ADD SWAP1 PUSH3 0xDE SWAP3 SWAP2 SWAP1 PUSH3 0x193 JUMP JUMPDEST POP DUP5 PUSH1 0x1 SWAP1 DUP1 MLOAD SWAP1 PUSH1 0x20 ADD SWAP1 PUSH3 0xF7 SWAP3 SWAP2 SWAP1 PUSH3 0x193 JUMP JUMPDEST POP DUP3 PUSH1 0x5 DUP2 SWAP1 SSTORE POP DUP2 PUSH1 0xA DUP2 SWAP1 SSTORE POP DUP4 PUSH1 0x3 DUP2 SWAP1 SSTORE POP DUP1 PUSH1 0xC DUP2 SWAP1 SSTORE POP DUP4 PUSH1 0xE PUSH1 0x0 ADDRESS PUSH20 0xFFFFFFFFFFFFFFFFFFFFFFFFFFFFFFFFFFFFFFFF AND PUSH20 0xFFFFFFFFFFFFFFFFFFFFFFFFFFFFFFFFFFFFFFFF AND DUP2 MSTORE PUSH1 0x20 ADD SWAP1 DUP2 MSTORE PUSH1 0x20 ADD PUSH1 0x0 KECCAK256 DUP2 SWAP1 SSTORE POP TIMESTAMP PUSH1 0x9 DUP2 SWAP1 SSTORE POP PUSH3 0x15180 PUSH1 0xA SLOAD PUSH3 0x172 SWAP2 SWAP1 PUSH3 0x46E JUMP JUMPDEST PUSH1 0x9 SLOAD PUSH3 0x181 SWAP2 SWAP1 PUSH3 0x411 JUMP JUMPDEST PUSH1 0xB DUP2 SWAP1 SSTORE POP POP POP POP POP POP POP PUSH3 0x647 JUMP JUMPDEST DUP3 DUP1 SLOAD PUSH3 0x1A1 SWAP1 PUSH3 0x50F JUMP JUMPDEST SWAP1 PUSH1 0x0 MSTORE PUSH1 0x20 PUSH1 0x0 KECCAK256 SWAP1 PUSH1 0x1F ADD PUSH1 0x20 SWAP1 DIV DUP2 ADD SWAP3 DUP3 PUSH3 0x1C5 JUMPI PUSH1 0x0 DUP6 SSTORE PUSH3 0x211 JUMP JUMPDEST DUP3 PUSH1 0x1F LT PUSH3 0x1E0 JUMPI DUP1 MLOAD PUSH1 0xFF NOT AND DUP4 DUP1 ADD OR DUP6 SSTORE PUSH3 0x211 JUMP JUMPDEST DUP3 DUP1 ADD PUSH1 0x1 ADD DUP6 SSTORE DUP3 ISZERO PUSH3 0x211 JUMPI SWAP2 DUP3 ADD JUMPDEST DUP3 DUP2 GT ISZERO PUSH3 0x210 JUMPI DUP3 MLOAD DUP3 SSTORE SWAP2 PUSH1 0x20 ADD SWAP2 SWAP1 PUSH1 0x1 ADD SWAP1 PUSH3 0x1F3 JUMP JUMPDEST JUMPDEST POP SWAP1 POP PUSH3 0x220 SWAP2 SWAP1 PUSH3 0x224 JUMP JUMPDEST POP SWAP1 JUMP JUMPDEST JUMPDEST DUP1 DUP3 GT ISZERO PUSH3 0x23F JUMPI PUSH1 0x0 DUP2 PUSH1 0x0 SWAP1 SSTORE POP PUSH1 0x1 ADD PUSH3 0x225 JUMP JUMPDEST POP SWAP1 JUMP JUMPDEST PUSH1 0x0 PUSH3 0x25A PUSH3 0x254 DUP5 PUSH3 0x3DB JUMP JUMPDEST PUSH3 0x3B2 JUMP JUMPDEST SWAP1 POP DUP3 DUP2 MSTORE PUSH1 0x20 DUP2 ADD DUP5 DUP5 DUP5 ADD GT ISZERO PUSH3 0x279 JUMPI PUSH3 0x278 PUSH3 0x60D JUMP JUMPDEST JUMPDEST PUSH3 0x286 DUP5 DUP3 DUP6 PUSH3 0x4D9 JUMP JUMPDEST POP SWAP4 SWAP3 POP POP POP JUMP JUMPDEST PUSH1 0x0 DUP3 PUSH1 0x1F DUP4 ADD SLT PUSH3 0x2A6 JUMPI PUSH3 0x2A5 PUSH3 0x608 JUMP JUMPDEST JUMPDEST DUP2 MLOAD PUSH3 0x2B8 DUP5 DUP3 PUSH1 0x20 DUP7 ADD PUSH3 0x243 JUMP JUMPDEST SWAP2 POP POP SWAP3 SWAP2 POP POP JUMP JUMPDEST PUSH1 0x0 DUP2 MLOAD SWAP1 POP PUSH3 0x2D2 DUP2 PUSH3 0x62D JUMP JUMPDEST SWAP3 SWAP2 POP POP JUMP JUMPDEST PUSH1 0x0 DUP1 PUSH1 0x0 DUP1 PUSH1 0x0 DUP1 PUSH1 0xC0 DUP8 DUP10 SUB SLT ISZERO PUSH3 0x2F8 JUMPI PUSH3 0x2F7 PUSH3 0x617 JUMP JUMPDEST JUMPDEST PUSH1 0x0 DUP8 ADD MLOAD PUSH8 0xFFFFFFFFFFFFFFFF DUP2 GT ISZERO PUSH3 0x319 JUMPI PUSH3 0x318 PUSH3 0x612 JUMP JUMPDEST JUMPDEST PUSH3 0x327 DUP10 DUP3 DUP11 ADD PUSH3 0x28E JUMP JUMPDEST SWAP7 POP POP PUSH1 0x20 DUP8 ADD MLOAD PUSH8 0xFFFFFFFFFFFFFFFF DUP2 GT ISZERO PUSH3 0x34B JUMPI PUSH3 0x34A PUSH3 0x612 JUMP JUMPDEST JUMPDEST PUSH3 0x359 DUP10 DUP3 DUP11 ADD PUSH3 0x28E JUMP JUMPDEST SWAP6 POP POP PUSH1 0x40 PUSH3 0x36C DUP10 DUP3 DUP11 ADD PUSH3 0x2C1 JUMP JUMPDEST SWAP5 POP POP PUSH1 0x60 PUSH3 0x37F DUP10 DUP3 DUP11 ADD PUSH3 0x2C1 JUMP JUMPDEST SWAP4 POP POP PUSH1 0x80 PUSH3 0x392 DUP10 DUP3 DUP11 ADD PUSH3 0x2C1 JUMP JUMPDEST SWAP3 POP POP PUSH1 0xA0 PUSH3 0x3A5 DUP10 DUP3 DUP11 ADD PUSH3 0x2C1 JUMP JUMPDEST SWAP2 POP POP SWAP3 SWAP6 POP SWAP3 SWAP6 POP SWAP3 SWAP6 JUMP JUMPDEST PUSH1 0x0 PUSH3 0x3BE PUSH3 0x3D1 JUMP JUMPDEST SWAP1 POP PUSH3 0x3CC DUP3 DUP3 PUSH3 0x545 JUMP JUMPDEST SWAP2 SWAP1 POP JUMP JUMPDEST PUSH1 0x0 PUSH1 0x40 MLOAD SWAP1 POP SWAP1 JUMP JUMPDEST PUSH1 0x0 PUSH8 0xFFFFFFFFFFFFFFFF DUP3 GT ISZERO PUSH3 0x3F9 JUMPI PUSH3 0x3F8 PUSH3 0x5D9 JUMP JUMPDEST JUMPDEST PUSH3 0x404 DUP3 PUSH3 0x61C JUMP JUMPDEST SWAP1 POP PUSH1 0x20 DUP2 ADD SWAP1 POP SWAP2 SWAP1 POP JUMP JUMPDEST PUSH1 0x0 PUSH3 0x41E DUP3 PUSH3 0x4CF JUMP JUMPDEST SWAP2 POP PUSH3 0x42B DUP4 PUSH3 0x4CF JUMP JUMPDEST SWAP3 POP DUP3 PUSH32 0xFFFFFFFFFFFFFFFFFFFFFFFFFFFFFFFFFFFFFFFFFFFFFFFFFFFFFFFFFFFFFFFF SUB DUP3 GT ISZERO PUSH3 0x463 JUMPI PUSH3 0x462 PUSH3 0x57B JUMP JUMPDEST JUMPDEST DUP3 DUP3 ADD SWAP1 POP SWAP3 SWAP2 POP POP JUMP JUMPDEST PUSH1 0x0 PUSH3 0x47B DUP3 PUSH3 0x4CF JUMP JUMPDEST SWAP2 POP PUSH3 0x488 DUP4 PUSH3 0x4CF JUMP JUMPDEST SWAP3 POP DUP2 PUSH32 0xFFFFFFFFFFFFFFFFFFFFFFFFFFFFFFFFFFFFFFFFFFFFFFFFFFFFFFFFFFFFFFFF DIV DUP4 GT DUP3 ISZERO ISZERO AND ISZERO PUSH3 0x4C4 JUMPI PUSH3 0x4C3 PUSH3 0x57B JUMP JUMPDEST JUMPDEST DUP3 DUP3 MUL SWAP1 POP SWAP3 SWAP2 POP POP JUMP JUMPDEST PUSH1 0x0 DUP2 SWAP1 POP SWAP2 SWAP1 POP JUMP JUMPDEST PUSH1 0x0 JUMPDEST DUP4 DUP2 LT ISZERO PUSH3 0x4F9 JUMPI DUP1 DUP3 ADD MLOAD DUP2 DUP5 ADD MSTORE PUSH1 0x20 DUP2 ADD SWAP1 POP PUSH3 0x4DC JUMP JUMPDEST DUP4 DUP2 GT ISZERO PUSH3 0x509 JUMPI PUSH1 0x0 DUP5 DUP5 ADD MSTORE JUMPDEST POP POP POP POP JUMP JUMPDEST PUSH1 0x0 PUSH1 0x2 DUP3 DIV SWAP1 POP PUSH1 0x1 DUP3 AND DUP1 PUSH3 0x528 JUMPI PUSH1 0x7F DUP3 AND SWAP2 POP JUMPDEST PUSH1 0x20 DUP3 LT DUP2 EQ ISZERO PUSH3 0x53F JUMPI PUSH3 0x53E PUSH3 0x5AA JUMP JUMPDEST JUMPDEST POP SWAP2 SWAP1 POP JUMP JUMPDEST PUSH3 0x550 DUP3 PUSH3 0x61C JUMP JUMPDEST DUP2 ADD DUP2 DUP2 LT PUSH8 0xFFFFFFFFFFFFFFFF DUP3 GT OR ISZERO PUSH3 0x572 JUMPI PUSH3 0x571 PUSH3 0x5D9 JUMP JUMPDEST JUMPDEST DUP1 PUSH1 0x40 MSTORE POP POP POP JUMP JUMPDEST PUSH32 0x4E487B7100000000000000000000000000000000000000000000000000000000 PUSH1 0x0 MSTORE PUSH1 0x11 PUSH1 0x4 MSTORE PUSH1 0x24 PUSH1 0x0 REVERT JUMPDEST PUSH32 0x4E487B7100000000000000000000000000000000000000000000000000000000 PUSH1 0x0 MSTORE PUSH1 0x22 PUSH1 0x4 MSTORE PUSH1 0x24 PUSH1 0x0 REVERT JUMPDEST PUSH32 0x4E487B7100000000000000000000000000000000000000000000000000000000 PUSH1 0x0 MSTORE PUSH1 0x41 PUSH1 0x4 MSTORE PUSH1 0x24 PUSH1 0x0 REVERT JUMPDEST PUSH1 0x0 DUP1 REVERT JUMPDEST PUSH1 0x0 DUP1 REVERT JUMPDEST PUSH1 0x0 DUP1 REVERT JUMPDEST PUSH1 0x0 DUP1 REVERT JUMPDEST PUSH1 0x0 PUSH1 0x1F NOT PUSH1 0x1F DUP4 ADD AND SWAP1 POP SWAP2 SWAP1 POP JUMP JUMPDEST PUSH3 0x638 DUP2 PUSH3 0x4CF JUMP JUMPDEST DUP2 EQ PUSH3 0x644 JUMPI PUSH1 0x0 DUP1 REVERT JUMPDEST POP JUMP JUMPDEST PUSH2 0x1A32 DUP1 PUSH3 0x657 PUSH1 0x0 CODECOPY PUSH1 0x0 RETURN INVALID PUSH1 0x80 PUSH1 0x40 MSTORE PUSH1 0x4 CALLDATASIZE LT PUSH2 0x11F JUMPI PUSH1 0x0 CALLDATALOAD PUSH1 0xE0 SHR DUP1 PUSH4 0x70A08231 GT PUSH2 0xA0 JUMPI DUP1 PUSH4 0xB3B95E30 GT PUSH2 0x64 JUMPI DUP1 PUSH4 0xB3B95E30 EQ PUSH2 0x3CE JUMPI DUP1 PUSH4 0xCB8A4C5C EQ PUSH2 0x3F9 JUMPI DUP1 PUSH4 0xDD62ED3E EQ PUSH2 0x424 JUMPI DUP1 PUSH4 0xDFBF53AE EQ PUSH2 0x461 JUMPI DUP1 PUSH4 0xF732D3FD EQ PUSH2 0x48C JUMPI PUSH2 0x11F JUMP JUMPDEST DUP1 PUSH4 0x70A08231 EQ PUSH2 0x2D3 JUMPI DUP1 PUSH4 0x78E97925 EQ PUSH2 0x310 JUMPI DUP1 PUSH4 0x7BB9BC6E EQ PUSH2 0x33B JUMPI DUP1 PUSH4 0x95D89B41 EQ PUSH2 0x366 JUMPI DUP1 PUSH4 0xA9059CBB EQ PUSH2 0x391 JUMPI PUSH2 0x11F JUMP JUMPDEST DUP1 PUSH4 0x3E016252 GT PUSH2 0xE7 JUMPI DUP1 PUSH4 0x3E016252 EQ PUSH2 0x21F JUMPI DUP1 PUSH4 0x485CC439 EQ PUSH2 0x24A JUMPI DUP1 PUSH4 0x520992F2 EQ PUSH2 0x275 JUMPI DUP1 PUSH4 0x5A3B7E42 EQ PUSH2 0x28C JUMPI DUP1 PUSH4 0x67DD74CA EQ PUSH2 0x2B7 JUMPI PUSH2 0x11F JUMP JUMPDEST DUP1 PUSH4 0x6FDDE03 EQ PUSH2 0x124 JUMPI DUP1 PUSH4 0x95EA7B3 EQ PUSH2 0x14F JUMPI DUP1 PUSH4 0x1209B1F6 EQ PUSH2 0x18C JUMPI DUP1 PUSH4 0x18160DDD EQ PUSH2 0x1B7 JUMPI DUP1 PUSH4 0x23B872DD EQ PUSH2 0x1E2 JUMPI JUMPDEST PUSH1 0x0 DUP1 REVERT JUMPDEST CALLVALUE DUP1 ISZERO PUSH2 0x130 JUMPI PUSH1 0x0 DUP1 REVERT JUMPDEST POP PUSH2 0x139 PUSH2 0x4A3 JUMP JUMPDEST PUSH1 0x40 MLOAD PUSH2 0x146 SWAP2 SWAP1 PUSH2 0x14A7 JUMP JUMPDEST PUSH1 0x40 MLOAD DUP1 SWAP2 SUB SWAP1 RETURN JUMPDEST CALLVALUE DUP1 ISZERO PUSH2 0x15B JUMPI PUSH1 0x0 DUP1 REVERT JUMPDEST POP PUSH2 0x176 PUSH1 0x4 DUP1 CALLDATASIZE SUB DUP2 ADD SWAP1 PUSH2 0x171 SWAP2 SWAP1 PUSH2 0x1260 JUMP JUMPDEST PUSH2 0x531 JUMP JUMPDEST PUSH1 0x40 MLOAD PUSH2 0x183 SWAP2 SWAP1 PUSH2 0x148C JUMP JUMPDEST PUSH1 0x40 MLOAD DUP1 SWAP2 SUB SWAP1 RETURN JUMPDEST CALLVALUE DUP1 ISZERO PUSH2 0x198 JUMPI PUSH1 0x0 DUP1 REVERT JUMPDEST POP PUSH2 0x1A1 PUSH2 0x623 JUMP JUMPDEST PUSH1 0x40 MLOAD PUSH2 0x1AE SWAP2 SWAP1 PUSH2 0x1589 JUMP JUMPDEST PUSH1 0x40 MLOAD DUP1 SWAP2 SUB SWAP1 RETURN JUMPDEST CALLVALUE DUP1 ISZERO PUSH2 0x1C3 JUMPI PUSH1 0x0 DUP1 REVERT JUMPDEST POP PUSH2 0x1CC PUSH2 0x629 JUMP JUMPDEST PUSH1 0x40 MLOAD PUSH2 0x1D9 SWAP2 SWAP1 PUSH2 0x1589 JUMP JUMPDEST PUSH1 0x40 MLOAD DUP1 SWAP2 SUB SWAP1 RETURN JUMPDEST CALLVALUE DUP1 ISZERO PUSH2 0x1EE JUMPI PUSH1 0x0 DUP1 REVERT JUMPDEST POP PUSH2 0x209 PUSH1 0x4 DUP1 CALLDATASIZE SUB DUP2 ADD SWAP1 PUSH2 0x204 SWAP2 SWAP1 PUSH2 0x120D JUMP JUMPDEST PUSH2 0x62F JUMP JUMPDEST PUSH1 0x40 MLOAD PUSH2 0x216 SWAP2 SWAP1 PUSH2 0x148C JUMP JUMPDEST PUSH1 0x40 MLOAD DUP1 SWAP2 SUB SWAP1 RETURN JUMPDEST CALLVALUE DUP1 ISZERO PUSH2 0x22B JUMPI PUSH1 0x0 DUP1 REVERT JUMPDEST POP PUSH2 0x234 PUSH2 0x921 JUMP JUMPDEST PUSH1 0x40 MLOAD PUSH2 0x241 SWAP2 SWAP1 PUSH2 0x1589 JUMP JUMPDEST PUSH1 0x40 MLOAD DUP1 SWAP2 SUB SWAP1 RETURN JUMPDEST CALLVALUE DUP1 ISZERO PUSH2 0x256 JUMPI PUSH1 0x0 DUP1 REVERT JUMPDEST POP PUSH2 0x25F PUSH2 0x927 JUMP JUMPDEST PUSH1 0x40 MLOAD PUSH2 0x26C SWAP2 SWAP1 PUSH2 0x1589 JUMP JUMPDEST PUSH1 0x40 MLOAD DUP1 SWAP2 SUB SWAP1 RETURN JUMPDEST CALLVALUE DUP1 ISZERO PUSH2 0x281 JUMPI PUSH1 0x0 DUP1 REVERT JUMPDEST POP PUSH2 0x28A PUSH2 0x92D JUMP JUMPDEST STOP JUMPDEST CALLVALUE DUP1 ISZERO PUSH2 0x298 JUMPI PUSH1 0x0 DUP1 REVERT JUMPDEST POP PUSH2 0x2A1 PUSH2 0xA1B JUMP JUMPDEST PUSH1 0x40 MLOAD PUSH2 0x2AE SWAP2 SWAP1 PUSH2 0x14A7 JUMP JUMPDEST PUSH1 0x40 MLOAD DUP1 SWAP2 SUB SWAP1 RETURN JUMPDEST PUSH2 0x2D1 PUSH1 0x4 DUP1 CALLDATASIZE SUB DUP2 ADD SWAP1 PUSH2 0x2CC SWAP2 SWAP1 PUSH2 0x12A0 JUMP JUMPDEST PUSH2 0xAA9 JUMP JUMPDEST STOP JUMPDEST CALLVALUE DUP1 ISZERO PUSH2 0x2DF JUMPI PUSH1 0x0 DUP1 REVERT JUMPDEST POP PUSH2 0x2FA PUSH1 0x4 DUP1 CALLDATASIZE SUB DUP2 ADD SWAP1 PUSH2 0x2F5 SWAP2 SWAP1 PUSH2 0x11A0 JUMP JUMPDEST PUSH2 0xCE2 JUMP JUMPDEST PUSH1 0x40 MLOAD PUSH2 0x307 SWAP2 SWAP1 PUSH2 0x1589 JUMP JUMPDEST PUSH1 0x40 MLOAD DUP1 SWAP2 SUB SWAP1 RETURN JUMPDEST CALLVALUE DUP1 ISZERO PUSH2 0x31C JUMPI PUSH1 0x0 DUP1 REVERT JUMPDEST POP PUSH2 0x325 PUSH2 0xCFA JUMP JUMPDEST PUSH1 0x40 MLOAD PUSH2 0x332 SWAP2 SWAP1 PUSH2 0x1589 JUMP JUMPDEST PUSH1 0x40 MLOAD DUP1 SWAP2 SUB SWAP1 RETURN JUMPDEST CALLVALUE DUP1 ISZERO PUSH2 0x347 JUMPI PUSH1 0x0 DUP1 REVERT JUMPDEST POP PUSH2 0x350 PUSH2 0xD00 JUMP JUMPDEST PUSH1 0x40 MLOAD PUSH2 0x35D SWAP2 SWAP1 PUSH2 0x1589 JUMP JUMPDEST PUSH1 0x40 MLOAD DUP1 SWAP2 SUB SWAP1 RETURN JUMPDEST CALLVALUE DUP1 ISZERO PUSH2 0x372 JUMPI PUSH1 0x0 DUP1 REVERT JUMPDEST POP PUSH2 0x37B PUSH2 0xD06 JUMP JUMPDEST PUSH1 0x40 MLOAD PUSH2 0x388 SWAP2 SWAP1 PUSH2 0x14A7 JUMP JUMPDEST PUSH1 0x40 MLOAD DUP1 SWAP2 SUB SWAP1 RETURN JUMPDEST CALLVALUE DUP1 ISZERO PUSH2 0x39D JUMPI PUSH1 0x0 DUP1 REVERT JUMPDEST POP PUSH2 0x3B8 PUSH1 0x4 DUP1 CALLDATASIZE SUB DUP2 ADD SWAP1 PUSH2 0x3B3 SWAP2 SWAP1 PUSH2 0x1260 JUMP JUMPDEST PUSH2 0xD94 JUMP JUMPDEST PUSH1 0x40 MLOAD PUSH2 0x3C5 SWAP2 SWAP1 PUSH2 0x148C JUMP JUMPDEST PUSH1 0x40 MLOAD DUP1 SWAP2 SUB SWAP1 RETURN JUMPDEST CALLVALUE DUP1 ISZERO PUSH2 0x3DA JUMPI PUSH1 0x0 DUP1 REVERT JUMPDEST POP PUSH2 0x3E3 PUSH2 0xEFD JUMP JUMPDEST PUSH1 0x40 MLOAD PUSH2 0x3F0 SWAP2 SWAP1 PUSH2 0x1589 JUMP JUMPDEST PUSH1 0x40 MLOAD DUP1 SWAP2 SUB SWAP1 RETURN JUMPDEST CALLVALUE DUP1 ISZERO PUSH2 0x405 JUMPI PUSH1 0x0 DUP1 REVERT JUMPDEST POP PUSH2 0x40E PUSH2 0xF03 JUMP JUMPDEST PUSH1 0x40 MLOAD PUSH2 0x41B SWAP2 SWAP1 PUSH2 0x1589 JUMP JUMPDEST PUSH1 0x40 MLOAD DUP1 SWAP2 SUB SWAP1 RETURN JUMPDEST CALLVALUE DUP1 ISZERO PUSH2 0x430 JUMPI PUSH1 0x0 DUP1 REVERT JUMPDEST POP PUSH2 0x44B PUSH1 0x4 DUP1 CALLDATASIZE SUB DUP2 ADD SWAP1 PUSH2 0x446 SWAP2 SWAP1 PUSH2 0x11CD JUMP JUMPDEST PUSH2 0xF09 JUMP JUMPDEST PUSH1 0x40 MLOAD PUSH2 0x458 SWAP2 SWAP1 PUSH2 0x1589 JUMP JUMPDEST PUSH1 0x40 MLOAD DUP1 SWAP2 SUB SWAP1 RETURN JUMPDEST CALLVALUE DUP1 ISZERO PUSH2 0x46D JUMPI PUSH1 0x0 DUP1 REVERT JUMPDEST POP PUSH2 0x476 PUSH2 0xF2E JUMP JUMPDEST PUSH1 0x40 MLOAD PUSH2 0x483 SWAP2 SWAP1 PUSH2 0x1448 JUMP JUMPDEST PUSH1 0x40 MLOAD DUP1 SWAP2 SUB SWAP1 RETURN JUMPDEST CALLVALUE DUP1 ISZERO PUSH2 0x498 JUMPI PUSH1 0x0 DUP1 REVERT JUMPDEST POP PUSH2 0x4A1 PUSH2 0xF54 JUMP JUMPDEST STOP JUMPDEST PUSH1 0x0 DUP1 SLOAD PUSH2 0x4B0 SWAP1 PUSH2 0x1750 JUMP JUMPDEST DUP1 PUSH1 0x1F ADD PUSH1 0x20 DUP1 SWAP2 DIV MUL PUSH1 0x20 ADD PUSH1 0x40 MLOAD SWAP1 DUP2 ADD PUSH1 0x40 MSTORE DUP1 SWAP3 SWAP2 SWAP1 DUP2 DUP2 MSTORE PUSH1 0x20 ADD DUP3 DUP1 SLOAD PUSH2 0x4DC SWAP1 PUSH2 0x1750 JUMP JUMPDEST DUP1 ISZERO PUSH2 0x529 JUMPI DUP1 PUSH1 0x1F LT PUSH2 0x4FE JUMPI PUSH2 0x100 DUP1 DUP4 SLOAD DIV MUL DUP4 MSTORE SWAP2 PUSH1 0x20 ADD SWAP2 PUSH2 0x529 JUMP JUMPDEST DUP3 ADD SWAP2 SWAP1 PUSH1 0x0 MSTORE PUSH1 0x20 PUSH1 0x0 KECCAK256 SWAP1 JUMPDEST DUP2 SLOAD DUP2 MSTORE SWAP1 PUSH1 0x1 ADD SWAP1 PUSH1 0x20 ADD DUP1 DUP4 GT PUSH2 0x50C JUMPI DUP3 SWAP1 SUB PUSH1 0x1F AND DUP3 ADD SWAP2 JUMPDEST POP POP POP POP POP DUP2 JUMP JUMPDEST PUSH1 0x0 DUP2 PUSH1 0xF PUSH1 0x0 CALLER PUSH20 0xFFFFFFFFFFFFFFFFFFFFFFFFFFFFFFFFFFFFFFFF AND PUSH20 0xFFFFFFFFFFFFFFFFFFFFFFFFFFFFFFFFFFFFFFFF AND DUP2 MSTORE PUSH1 0x20 ADD SWAP1 DUP2 MSTORE PUSH1 0x20 ADD PUSH1 0x0 KECCAK256 PUSH1 0x0 DUP6 PUSH20 0xFFFFFFFFFFFFFFFFFFFFFFFFFFFFFFFFFFFFFFFF AND PUSH20 0xFFFFFFFFFFFFFFFFFFFFFFFFFFFFFFFFFFFFFFFF AND DUP2 MSTORE PUSH1 0x20 ADD SWAP1 DUP2 MSTORE PUSH1 0x20 ADD PUSH1 0x0 KECCAK256 DUP2 SWAP1 SSTORE POP DUP3 PUSH20 0xFFFFFFFFFFFFFFFFFFFFFFFFFFFFFFFFFFFFFFFF AND CALLER PUSH20 0xFFFFFFFFFFFFFFFFFFFFFFFFFFFFFFFFFFFFFFFF AND PUSH32 0x8C5BE1E5EBEC7D5BD14F71427D1E84F3DD0314C0F7B2291E5B200AC8C7C3B925 DUP5 PUSH1 0x40 MLOAD PUSH2 0x611 SWAP2 SWAP1 PUSH2 0x1589 JUMP JUMPDEST PUSH1 0x40 MLOAD DUP1 SWAP2 SUB SWAP1 LOG3 PUSH1 0x1 SWAP1 POP SWAP3 SWAP2 POP POP JUMP JUMPDEST PUSH1 0x5 SLOAD DUP2 JUMP JUMPDEST PUSH1 0x3 SLOAD DUP2 JUMP JUMPDEST PUSH1 0x0 PUSH1 0xE PUSH1 0x0 DUP6 PUSH20 0xFFFFFFFFFFFFFFFFFFFFFFFFFFFFFFFFFFFFFFFF AND PUSH20 0xFFFFFFFFFFFFFFFFFFFFFFFFFFFFFFFFFFFFFFFF AND DUP2 MSTORE PUSH1 0x20 ADD SWAP1 DUP2 MSTORE PUSH1 0x20 ADD PUSH1 0x0 KECCAK256 SLOAD DUP3 GT ISZERO PUSH2 0x6B3 JUMPI PUSH1 0x40 MLOAD PUSH32 0x8C379A000000000000000000000000000000000000000000000000000000000 DUP2 MSTORE PUSH1 0x4 ADD PUSH2 0x6AA SWAP1 PUSH2 0x1529 JUMP JUMPDEST PUSH1 0x40 MLOAD DUP1 SWAP2 SUB SWAP1 REVERT JUMPDEST PUSH1 0xF PUSH1 0x0 DUP6 PUSH20 0xFFFFFFFFFFFFFFFFFFFFFFFFFFFFFFFFFFFFFFFF AND PUSH20 0xFFFFFFFFFFFFFFFFFFFFFFFFFFFFFFFFFFFFFFFF AND DUP2 MSTORE PUSH1 0x20 ADD SWAP1 DUP2 MSTORE PUSH1 0x20 ADD PUSH1 0x0 KECCAK256 PUSH1 0x0 CALLER PUSH20 0xFFFFFFFFFFFFFFFFFFFFFFFFFFFFFFFFFFFFFFFF AND PUSH20 0xFFFFFFFFFFFFFFFFFFFFFFFFFFFFFFFFFFFFFFFF AND DUP2 MSTORE PUSH1 0x20 ADD SWAP1 DUP2 MSTORE PUSH1 0x20 ADD PUSH1 0x0 KECCAK256 SLOAD DUP3 GT ISZERO PUSH2 0x772 JUMPI PUSH1 0x40 MLOAD PUSH32 0x8C379A000000000000000000000000000000000000000000000000000000000 DUP2 MSTORE PUSH1 0x4 ADD PUSH2 0x769 SWAP1 PUSH2 0x1549 JUMP JUMPDEST PUSH1 0x40 MLOAD DUP1 SWAP2 SUB SWAP1 REVERT JUMPDEST DUP2 PUSH1 0xE PUSH1 0x0 DUP7 PUSH20 0xFFFFFFFFFFFFFFFFFFFFFFFFFFFFFFFFFFFFFFFF AND PUSH20 0xFFFFFFFFFFFFFFFFFFFFFFFFFFFFFFFFFFFFFFFF AND DUP2 MSTORE PUSH1 0x20 ADD SWAP1 DUP2 MSTORE PUSH1 0x20 ADD PUSH1 0x0 KECCAK256 PUSH1 0x0 DUP3 DUP3 SLOAD PUSH2 0x7C1 SWAP2 SWAP1 PUSH2 0x16A1 JUMP JUMPDEST SWAP3 POP POP DUP2 SWAP1 SSTORE POP DUP2 PUSH1 0xE PUSH1 0x0 DUP6 PUSH20 0xFFFFFFFFFFFFFFFFFFFFFFFFFFFFFFFFFFFFFFFF AND PUSH20 0xFFFFFFFFFFFFFFFFFFFFFFFFFFFFFFFFFFFFFFFF AND DUP2 MSTORE PUSH1 0x20 ADD SWAP1 DUP2 MSTORE PUSH1 0x20 ADD PUSH1 0x0 KECCAK256 PUSH1 0x0 DUP3 DUP3 SLOAD PUSH2 0x817 SWAP2 SWAP1 PUSH2 0x15C0 JUMP JUMPDEST SWAP3 POP POP DUP2 SWAP1 SSTORE POP DUP2 PUSH1 0xF PUSH1 0x0 DUP7 PUSH20 0xFFFFFFFFFFFFFFFFFFFFFFFFFFFFFFFFFFFFFFFF AND PUSH20 0xFFFFFFFFFFFFFFFFFFFFFFFFFFFFFFFFFFFFFFFF AND DUP2 MSTORE PUSH1 0x20 ADD SWAP1 DUP2 MSTORE PUSH1 0x20 ADD PUSH1 0x0 KECCAK256 PUSH1 0x0 CALLER PUSH20 0xFFFFFFFFFFFFFFFFFFFFFFFFFFFFFFFFFFFFFFFF AND PUSH20 0xFFFFFFFFFFFFFFFFFFFFFFFFFFFFFFFFFFFFFFFF AND DUP2 MSTORE PUSH1 0x20 ADD SWAP1 DUP2 MSTORE PUSH1 0x20 ADD PUSH1 0x0 KECCAK256 PUSH1 0x0 DUP3 DUP3 SLOAD PUSH2 0x8AA SWAP2 SWAP1 PUSH2 0x16A1 JUMP JUMPDEST SWAP3 POP POP DUP2 SWAP1 SSTORE POP DUP3 PUSH20 0xFFFFFFFFFFFFFFFFFFFFFFFFFFFFFFFFFFFFFFFF AND DUP5 PUSH20 0xFFFFFFFFFFFFFFFFFFFFFFFFFFFFFFFFFFFFFFFF AND PUSH32 0xDDF252AD1BE2C89B69C2B068FC378DAA952BA7F163C4A11628F55A4DF523B3EF DUP5 PUSH1 0x40 MLOAD PUSH2 0x90E SWAP2 SWAP1 PUSH2 0x1589 JUMP JUMPDEST PUSH1 0x40 MLOAD DUP1 SWAP2 SUB SWAP1 LOG3 PUSH1 0x1 SWAP1 POP SWAP4 SWAP3 POP POP POP JUMP JUMPDEST PUSH1 0xC SLOAD DUP2 JUMP JUMPDEST PUSH1 0xD SLOAD DUP2 JUMP JUMPDEST PUSH1 0x0 TIMESTAMP SWAP1 POP PUSH1 0xB SLOAD DUP2 GT DUP1 ISZERO PUSH2 0x946 JUMPI POP PUSH1 0xC SLOAD PUSH1 0xD SLOAD LT JUMPDEST PUSH2 0x985 JUMPI PUSH1 0x40 MLOAD PUSH32 0x8C379A000000000000000000000000000000000000000000000000000000000 DUP2 MSTORE PUSH1 0x4 ADD PUSH2 0x97C SWAP1 PUSH2 0x14E9 JUMP JUMPDEST PUSH1 0x40 MLOAD DUP1 SWAP2 SUB SWAP1 REVERT JUMPDEST CALLER PUSH20 0xFFFFFFFFFFFFFFFFFFFFFFFFFFFFFFFFFFFFFFFF AND PUSH2 0x8FC PUSH1 0xE PUSH1 0x0 CALLER PUSH20 0xFFFFFFFFFFFFFFFFFFFFFFFFFFFFFFFFFFFFFFFF AND PUSH20 0xFFFFFFFFFFFFFFFFFFFFFFFFFFFFFFFFFFFFFFFF AND DUP2 MSTORE PUSH1 0x20 ADD SWAP1 DUP2 MSTORE PUSH1 0x20 ADD PUSH1 0x0 KECCAK256 SLOAD PUSH1 0x5 SLOAD PUSH2 0x9EC SWAP2 SWAP1 PUSH2 0x1647 JUMP JUMPDEST SWAP1 DUP2 ISZERO MUL SWAP1 PUSH1 0x40 MLOAD PUSH1 0x0 PUSH1 0x40 MLOAD DUP1 DUP4 SUB DUP2 DUP6 DUP9 DUP9 CALL SWAP4 POP POP POP POP ISZERO DUP1 ISZERO PUSH2 0xA17 JUMPI RETURNDATASIZE PUSH1 0x0 DUP1 RETURNDATACOPY RETURNDATASIZE PUSH1 0x0 REVERT JUMPDEST POP POP JUMP JUMPDEST PUSH1 0x2 DUP1 SLOAD PUSH2 0xA28 SWAP1 PUSH2 0x1750 JUMP JUMPDEST DUP1 PUSH1 0x1F ADD PUSH1 0x20 DUP1 SWAP2 DIV MUL PUSH1 0x20 ADD PUSH1 0x40 MLOAD SWAP1 DUP2 ADD PUSH1 0x40 MSTORE DUP1 SWAP3 SWAP2 SWAP1 DUP2 DUP2 MSTORE PUSH1 0x20 ADD DUP3 DUP1 SLOAD PUSH2 0xA54 SWAP1 PUSH2 0x1750 JUMP JUMPDEST DUP1 ISZERO PUSH2 0xAA1 JUMPI DUP1 PUSH1 0x1F LT PUSH2 0xA76 JUMPI PUSH2 0x100 DUP1 DUP4 SLOAD DIV MUL DUP4 MSTORE SWAP2 PUSH1 0x20 ADD SWAP2 PUSH2 0xAA1 JUMP JUMPDEST DUP3 ADD SWAP2 SWAP1 PUSH1 0x0 MSTORE PUSH1 0x20 PUSH1 0x0 KECCAK256 SWAP1 JUMPDEST DUP2 SLOAD DUP2 MSTORE SWAP1 PUSH1 0x1 ADD SWAP1 PUSH1 0x20 ADD DUP1 DUP4 GT PUSH2 0xA84 JUMPI DUP3 SWAP1 SUB PUSH1 0x1F AND DUP3 ADD SWAP2 JUMPDEST POP POP POP POP POP DUP2 JUMP JUMPDEST PUSH1 0x0 TIMESTAMP SWAP1 POP PUSH1 0xB SLOAD DUP2 LT PUSH2 0xAF2 JUMPI PUSH1 0x40 MLOAD PUSH32 0x8C379A000000000000000000000000000000000000000000000000000000000 DUP2 MSTORE PUSH1 0x4 ADD PUSH2 0xAE9 SWAP1 PUSH2 0x14C9 JUMP JUMPDEST PUSH1 0x40 MLOAD DUP1 SWAP2 SUB SWAP1 REVERT JUMPDEST PUSH2 0xAFE DUP3 PUSH1 0x5 SLOAD PUSH2 0x10F3 JUMP JUMPDEST CALLVALUE EQ PUSH2 0xB3F JUMPI PUSH1 0x40 MLOAD PUSH32 0x8C379A000000000000000000000000000000000000000000000000000000000 DUP2 MSTORE PUSH1 0x4 ADD PUSH2 0xB36 SWAP1 PUSH2 0x1509 JUMP JUMPDEST PUSH1 0x40 MLOAD DUP1 SWAP2 SUB SWAP1 REVERT JUMPDEST DUP2 PUSH1 0xF PUSH1 0x0 ADDRESS PUSH20 0xFFFFFFFFFFFFFFFFFFFFFFFFFFFFFFFFFFFFFFFF AND PUSH20 0xFFFFFFFFFFFFFFFFFFFFFFFFFFFFFFFFFFFFFFFF AND DUP2 MSTORE PUSH1 0x20 ADD SWAP1 DUP2 MSTORE PUSH1 0x20 ADD PUSH1 0x0 KECCAK256 PUSH1 0x0 CALLER PUSH20 0xFFFFFFFFFFFFFFFFFFFFFFFFFFFFFFFFFFFFFFFF AND PUSH20 0xFFFFFFFFFFFFFFFFFFFFFFFFFFFFFFFFFFFFFFFF AND DUP2 MSTORE PUSH1 0x20 ADD SWAP1 DUP2 MSTORE PUSH1 0x20 ADD PUSH1 0x0 KECCAK256 DUP2 SWAP1 SSTORE POP PUSH2 0xBCB ADDRESS CALLER DUP5 PUSH2 0x62F JUMP JUMPDEST PUSH2 0xC0A JUMPI PUSH1 0x40 MLOAD PUSH32 0x8C379A000000000000000000000000000000000000000000000000000000000 DUP2 MSTORE PUSH1 0x4 ADD PUSH2 0xC01 SWAP1 PUSH2 0x1569 JUMP JUMPDEST PUSH1 0x40 MLOAD DUP1 SWAP2 SUB SWAP1 REVERT JUMPDEST DUP2 PUSH1 0xD PUSH1 0x0 DUP3 DUP3 SLOAD PUSH2 0xC1C SWAP2 SWAP1 PUSH2 0x15C0 JUMP JUMPDEST SWAP3 POP POP DUP2 SWAP1 SSTORE POP PUSH1 0x0 JUMPDEST DUP3 DUP2 LT ISZERO PUSH2 0xCA4 JUMPI PUSH1 0x8 CALLER SWAP1 DUP1 PUSH1 0x1 DUP2 SLOAD ADD DUP1 DUP3 SSTORE DUP1 SWAP2 POP POP PUSH1 0x1 SWAP1 SUB SWAP1 PUSH1 0x0 MSTORE PUSH1 0x20 PUSH1 0x0 KECCAK256 ADD PUSH1 0x0 SWAP1 SWAP2 SWAP1 SWAP2 SWAP1 SWAP2 PUSH2 0x100 EXP DUP2 SLOAD DUP2 PUSH20 0xFFFFFFFFFFFFFFFFFFFFFFFFFFFFFFFFFFFFFFFF MUL NOT AND SWAP1 DUP4 PUSH20 0xFFFFFFFFFFFFFFFFFFFFFFFFFFFFFFFFFFFFFFFF AND MUL OR SWAP1 SSTORE POP DUP1 DUP1 PUSH2 0xC9C SWAP1 PUSH2 0x1782 JUMP JUMPDEST SWAP2 POP POP PUSH2 0xC26 JUMP JUMPDEST POP PUSH32 0x5E5E995CE3133561AFCEAA51A9A154D5DB228CD7525D34DF5185582C18D3DF09 CALLER DUP4 PUSH1 0x40 MLOAD PUSH2 0xCD6 SWAP3 SWAP2 SWAP1 PUSH2 0x1463 JUMP JUMPDEST PUSH1 0x40 MLOAD DUP1 SWAP2 SUB SWAP1 LOG1 POP POP JUMP JUMPDEST PUSH1 0xE PUSH1 0x20 MSTORE DUP1 PUSH1 0x0 MSTORE PUSH1 0x40 PUSH1 0x0 KECCAK256 PUSH1 0x0 SWAP2 POP SWAP1 POP SLOAD DUP2 JUMP JUMPDEST PUSH1 0x9 SLOAD DUP2 JUMP JUMPDEST PUSH1 0x6 SLOAD DUP2 JUMP JUMPDEST PUSH1 0x1 DUP1 SLOAD PUSH2 0xD13 SWAP1 PUSH2 0x1750 JUMP JUMPDEST DUP1 PUSH1 0x1F ADD PUSH1 0x20 DUP1 SWAP2 DIV MUL PUSH1 0x20 ADD PUSH1 0x40 MLOAD SWAP1 DUP2 ADD PUSH1 0x40 MSTORE DUP1 SWAP3 SWAP2 SWAP1 DUP2 DUP2 MSTORE PUSH1 0x20 ADD DUP3 DUP1 SLOAD PUSH2 0xD3F SWAP1 PUSH2 0x1750 JUMP JUMPDEST DUP1 ISZERO PUSH2 0xD8C JUMPI DUP1 PUSH1 0x1F LT PUSH2 0xD61 JUMPI PUSH2 0x100 DUP1 DUP4 SLOAD DIV MUL DUP4 MSTORE SWAP2 PUSH1 0x20 ADD SWAP2 PUSH2 0xD8C JUMP JUMPDEST DUP3 ADD SWAP2 SWAP1 PUSH1 0x0 MSTORE PUSH1 0x20 PUSH1 0x0 KECCAK256 SWAP1 JUMPDEST DUP2 SLOAD DUP2 MSTORE SWAP1 PUSH1 0x1 ADD SWAP1 PUSH1 0x20 ADD DUP1 DUP4 GT PUSH2 0xD6F JUMPI DUP3 SWAP1 SUB PUSH1 0x1F AND DUP3 ADD SWAP2 JUMPDEST POP POP POP POP POP DUP2 JUMP JUMPDEST PUSH1 0x0 DUP2 PUSH1 0xE PUSH1 0x0 CALLER PUSH20 0xFFFFFFFFFFFFFFFFFFFFFFFFFFFFFFFFFFFFFFFF AND PUSH20 0xFFFFFFFFFFFFFFFFFFFFFFFFFFFFFFFFFFFFFFFF AND DUP2 MSTORE PUSH1 0x20 ADD SWAP1 DUP2 MSTORE PUSH1 0x20 ADD PUSH1 0x0 KECCAK256 SLOAD LT ISZERO PUSH2 0xDE2 JUMPI PUSH1 0x0 DUP1 REVERT JUMPDEST DUP2 PUSH1 0xE PUSH1 0x0 CALLER PUSH20 0xFFFFFFFFFFFFFFFFFFFFFFFFFFFFFFFFFFFFFFFF AND PUSH20 0xFFFFFFFFFFFFFFFFFFFFFFFFFFFFFFFFFFFFFFFF AND DUP2 MSTORE PUSH1 0x20 ADD SWAP1 DUP2 MSTORE PUSH1 0x20 ADD PUSH1 0x0 KECCAK256 PUSH1 0x0 DUP3 DUP3 SLOAD PUSH2 0xE31 SWAP2 SWAP1 PUSH2 0x16A1 JUMP JUMPDEST SWAP3 POP POP DUP2 SWAP1 SSTORE POP DUP2 PUSH1 0xE PUSH1 0x0 DUP6 PUSH20 0xFFFFFFFFFFFFFFFFFFFFFFFFFFFFFFFFFFFFFFFF AND PUSH20 0xFFFFFFFFFFFFFFFFFFFFFFFFFFFFFFFFFFFFFFFF AND DUP2 MSTORE PUSH1 0x20 ADD SWAP1 DUP2 MSTORE PUSH1 0x20 ADD PUSH1 0x0 KECCAK256 PUSH1 0x0 DUP3 DUP3 SLOAD PUSH2 0xE87 SWAP2 SWAP1 PUSH2 0x15C0 JUMP JUMPDEST SWAP3 POP POP DUP2 SWAP1 SSTORE POP DUP3 PUSH20 0xFFFFFFFFFFFFFFFFFFFFFFFFFFFFFFFFFFFFFFFF AND CALLER PUSH20 0xFFFFFFFFFFFFFFFFFFFFFFFFFFFFFFFFFFFFFFFF AND PUSH32 0xDDF252AD1BE2C89B69C2B068FC378DAA952BA7F163C4A11628F55A4DF523B3EF DUP5 PUSH1 0x40 MLOAD PUSH2 0xEEB SWAP2 SWAP1 PUSH2 0x1589 JUMP JUMPDEST PUSH1 0x40 MLOAD DUP1 SWAP2 SUB SWAP1 LOG3 PUSH1 0x1 SWAP1 POP SWAP3 SWAP2 POP POP JUMP JUMPDEST PUSH1 0xB SLOAD DUP2 JUMP JUMPDEST PUSH1 0xA SLOAD DUP2 JUMP JUMPDEST PUSH1 0xF PUSH1 0x20 MSTORE DUP2 PUSH1 0x0 MSTORE PUSH1 0x40 PUSH1 0x0 KECCAK256 PUSH1 0x20 MSTORE DUP1 PUSH1 0x0 MSTORE PUSH1 0x40 PUSH1 0x0 KECCAK256 PUSH1 0x0 SWAP2 POP SWAP2 POP POP SLOAD DUP2 JUMP JUMPDEST PUSH1 0x4 PUSH1 0x0 SWAP1 SLOAD SWAP1 PUSH2 0x100 EXP SWAP1 DIV PUSH20 0xFFFFFFFFFFFFFFFFFFFFFFFFFFFFFFFFFFFFFFFF AND DUP2 JUMP JUMPDEST PUSH1 0x0 TIMESTAMP SWAP1 POP PUSH1 0x3 SLOAD PUSH1 0xD SLOAD EQ DUP1 PUSH2 0xF7D JUMPI POP PUSH1 0xC SLOAD PUSH1 0xD SLOAD LT ISZERO DUP1 ISZERO PUSH2 0xF7C JUMPI POP PUSH1 0xB SLOAD DUP2 LT ISZERO JUMPDEST JUMPDEST PUSH2 0xF86 JUMPI PUSH1 0x0 DUP1 REVERT JUMPDEST PUSH1 0x8 PUSH2 0xF96 PUSH1 0x8 DUP1 SLOAD SWAP1 POP PUSH2 0x112A JUMP JUMPDEST DUP2 SLOAD DUP2 LT PUSH2 0xFA7 JUMPI PUSH2 0xFA6 PUSH2 0x1893 JUMP JUMPDEST JUMPDEST SWAP1 PUSH1 0x0 MSTORE PUSH1 0x20 PUSH1 0x0 KECCAK256 ADD PUSH1 0x0 SWAP1 SLOAD SWAP1 PUSH2 0x100 EXP SWAP1 DIV PUSH20 0xFFFFFFFFFFFFFFFFFFFFFFFFFFFFFFFFFFFFFFFF AND PUSH1 0x4 PUSH1 0x0 PUSH2 0x100 EXP DUP2 SLOAD DUP2 PUSH20 0xFFFFFFFFFFFFFFFFFFFFFFFFFFFFFFFFFFFFFFFF MUL NOT AND SWAP1 DUP4 PUSH20 0xFFFFFFFFFFFFFFFFFFFFFFFFFFFFFFFFFFFFFFFF AND MUL OR SWAP1 SSTORE POP PUSH32 0x10233DB257888C60414333EEE11DAB8E8DABAF552466002FEE253E03615DB1D1 PUSH1 0x4 PUSH1 0x0 SWAP1 SLOAD SWAP1 PUSH2 0x100 EXP SWAP1 DIV PUSH20 0xFFFFFFFFFFFFFFFFFFFFFFFFFFFFFFFFFFFFFFFF AND PUSH1 0x40 MLOAD PUSH2 0x1063 SWAP2 SWAP1 PUSH2 0x1448 JUMP JUMPDEST PUSH1 0x40 MLOAD DUP1 SWAP2 SUB SWAP1 LOG1 PUSH8 0xDE0B6B3A7640000 PUSH1 0x5 SLOAD PUSH2 0x1081 SWAP2 SWAP1 PUSH2 0x1616 JUMP JUMPDEST PUSH1 0x6 DUP2 SWAP1 SSTORE POP PUSH1 0x7 PUSH1 0x0 SWAP1 SLOAD SWAP1 PUSH2 0x100 EXP SWAP1 DIV PUSH20 0xFFFFFFFFFFFFFFFFFFFFFFFFFFFFFFFFFFFFFFFF AND PUSH20 0xFFFFFFFFFFFFFFFFFFFFFFFFFFFFFFFFFFFFFFFF AND PUSH2 0x8FC SELFBALANCE SWAP1 DUP2 ISZERO MUL SWAP1 PUSH1 0x40 MLOAD PUSH1 0x0 PUSH1 0x40 MLOAD DUP1 DUP4 SUB DUP2 DUP6 DUP9 DUP9 CALL SWAP4 POP POP POP POP ISZERO DUP1 ISZERO PUSH2 0x10EF JUMPI RETURNDATASIZE PUSH1 0x0 DUP1 RETURNDATACOPY RETURNDATASIZE PUSH1 0x0 REVERT JUMPDEST POP POP JUMP JUMPDEST PUSH1 0x0 DUP1 DUP3 EQ DUP1 PUSH2 0x111B JUMPI POP DUP3 DUP3 DUP4 DUP6 PUSH2 0x110C SWAP2 SWAP1 PUSH2 0x1647 JUMP JUMPDEST SWAP3 POP DUP3 PUSH2 0x1119 SWAP2 SWAP1 PUSH2 0x1616 JUMP JUMPDEST EQ JUMPDEST PUSH2 0x1124 JUMPI PUSH1 0x0 DUP1 REVERT JUMPDEST SWAP3 SWAP2 POP POP JUMP JUMPDEST PUSH1 0x0 PUSH1 0x1 DUP3 PUSH2 0x1139 SWAP2 SWAP1 PUSH2 0x16A1 JUMP JUMPDEST TIMESTAMP DIFFICULTY PUSH1 0x40 MLOAD PUSH1 0x20 ADD PUSH2 0x114C SWAP3 SWAP2 SWAP1 PUSH2 0x141C JUMP JUMPDEST PUSH1 0x40 MLOAD PUSH1 0x20 DUP2 DUP4 SUB SUB DUP2 MSTORE SWAP1 PUSH1 0x40 MSTORE DUP1 MLOAD SWAP1 PUSH1 0x20 ADD KECCAK256 PUSH1 0x0 SHR PUSH2 0x116F SWAP2 SWAP1 PUSH2 0x17D5 JUMP JUMPDEST SWAP1 POP SWAP2 SWAP1 POP JUMP JUMPDEST PUSH1 0x0 DUP2 CALLDATALOAD SWAP1 POP PUSH2 0x1185 DUP2 PUSH2 0x19CE JUMP JUMPDEST SWAP3 SWAP2 POP POP JUMP JUMPDEST PUSH1 0x0 DUP2 CALLDATALOAD SWAP1 POP PUSH2 0x119A DUP2 PUSH2 0x19E5 JUMP JUMPDEST SWAP3 SWAP2 POP POP JUMP JUMPDEST PUSH1 0x0 PUSH1 0x20 DUP3 DUP5 SUB SLT ISZERO PUSH2 0x11B6 JUMPI PUSH2 0x11B5 PUSH2 0x18C2 JUMP JUMPDEST JUMPDEST PUSH1 0x0 PUSH2 0x11C4 DUP5 DUP3 DUP6 ADD PUSH2 0x1176 JUMP JUMPDEST SWAP2 POP POP SWAP3 SWAP2 POP POP JUMP JUMPDEST PUSH1 0x0 DUP1 PUSH1 0x40 DUP4 DUP6 SUB SLT ISZERO PUSH2 0x11E4 JUMPI PUSH2 0x11E3 PUSH2 0x18C2 JUMP JUMPDEST JUMPDEST PUSH1 0x0 PUSH2 0x11F2 DUP6 DUP3 DUP7 ADD PUSH2 0x1176 JUMP JUMPDEST SWAP3 POP POP PUSH1 0x20 PUSH2 0x1203 DUP6 DUP3 DUP7 ADD PUSH2 0x1176 JUMP JUMPDEST SWAP2 POP POP SWAP3 POP SWAP3 SWAP1 POP JUMP JUMPDEST PUSH1 0x0 DUP1 PUSH1 0x0 PUSH1 0x60 DUP5 DUP7 SUB SLT ISZERO PUSH2 0x1226 JUMPI PUSH2 0x1225 PUSH2 0x18C2 JUMP JUMPDEST JUMPDEST PUSH1 0x0 PUSH2 0x1234 DUP7 DUP3 DUP8 ADD PUSH2 0x1176 JUMP JUMPDEST SWAP4 POP POP PUSH1 0x20 PUSH2 0x1245 DUP7 DUP3 DUP8 ADD PUSH2 0x1176 JUMP JUMPDEST SWAP3 POP POP PUSH1 0x40 PUSH2 0x1256 DUP7 DUP3 DUP8 ADD PUSH2 0x118B JUMP JUMPDEST SWAP2 POP POP SWAP3 POP SWAP3 POP SWAP3 JUMP JUMPDEST PUSH1 0x0 DUP1 PUSH1 0x40 DUP4 DUP6 SUB SLT ISZERO PUSH2 0x1277 JUMPI PUSH2 0x1276 PUSH2 0x18C2 JUMP JUMPDEST JUMPDEST PUSH1 0x0 PUSH2 0x1285 DUP6 DUP3 DUP7 ADD PUSH2 0x1176 JUMP JUMPDEST SWAP3 POP POP PUSH1 0x20 PUSH2 0x1296 DUP6 DUP3 DUP7 ADD PUSH2 0x118B JUMP JUMPDEST SWAP2 POP POP SWAP3 POP SWAP3 SWAP1 POP JUMP JUMPDEST PUSH1 0x0 PUSH1 0x20 DUP3 DUP5 SUB SLT ISZERO PUSH2 0x12B6 JUMPI PUSH2 0x12B5 PUSH2 0x18C2 JUMP JUMPDEST JUMPDEST PUSH1 0x0 PUSH2 0x12C4 DUP5 DUP3 DUP6 ADD PUSH2 0x118B JUMP JUMPDEST SWAP2 POP POP SWAP3 SWAP2 POP POP JUMP JUMPDEST PUSH2 0x12D6 DUP2 PUSH2 0x16D5 JUMP JUMPDEST DUP3 MSTORE POP POP JUMP JUMPDEST PUSH2 0x12E5 DUP2 PUSH2 0x16E7 JUMP JUMPDEST DUP3 MSTORE POP POP JUMP JUMPDEST PUSH1 0x0 PUSH2 0x12F6 DUP3 PUSH2 0x15A4 JUMP JUMPDEST PUSH2 0x1300 DUP2 DUP6 PUSH2 0x15AF JUMP JUMPDEST SWAP4 POP PUSH2 0x1310 DUP2 DUP6 PUSH1 0x20 DUP7 ADD PUSH2 0x171D JUMP JUMPDEST PUSH2 0x1319 DUP2 PUSH2 0x18C7 JUMP JUMPDEST DUP5 ADD SWAP2 POP POP SWAP3 SWAP2 POP POP JUMP JUMPDEST PUSH1 0x0 PUSH2 0x1331 PUSH1 0x13 DUP4 PUSH2 0x15AF JUMP JUMPDEST SWAP2 POP PUSH2 0x133C DUP3 PUSH2 0x18D8 JUMP JUMPDEST PUSH1 0x20 DUP3 ADD SWAP1 POP SWAP2 SWAP1 POP JUMP JUMPDEST PUSH1 0x0 PUSH2 0x1354 PUSH1 0x12 DUP4 PUSH2 0x15AF JUMP JUMPDEST SWAP2 POP PUSH2 0x135F DUP3 PUSH2 0x1901 JUMP JUMPDEST PUSH1 0x20 DUP3 ADD SWAP1 POP SWAP2 SWAP1 POP JUMP JUMPDEST PUSH1 0x0 PUSH2 0x1377 PUSH1 0x1E DUP4 PUSH2 0x15AF JUMP JUMPDEST SWAP2 POP PUSH2 0x1382 DUP3 PUSH2 0x192A JUMP JUMPDEST PUSH1 0x20 DUP3 ADD SWAP1 POP SWAP2 SWAP1 POP JUMP JUMPDEST PUSH1 0x0 PUSH2 0x139A PUSH1 0x12 DUP4 PUSH2 0x15AF JUMP JUMPDEST SWAP2 POP PUSH2 0x13A5 DUP3 PUSH2 0x1953 JUMP JUMPDEST PUSH1 0x20 DUP3 ADD SWAP1 POP SWAP2 SWAP1 POP JUMP JUMPDEST PUSH1 0x0 PUSH2 0x13BD PUSH1 0x14 DUP4 PUSH2 0x15AF JUMP JUMPDEST SWAP2 POP PUSH2 0x13C8 DUP3 PUSH2 0x197C JUMP JUMPDEST PUSH1 0x20 DUP3 ADD SWAP1 POP SWAP2 SWAP1 POP JUMP JUMPDEST PUSH1 0x0 PUSH2 0x13E0 PUSH1 0xF DUP4 PUSH2 0x15AF JUMP JUMPDEST SWAP2 POP PUSH2 0x13EB DUP3 PUSH2 0x19A5 JUMP JUMPDEST PUSH1 0x20 DUP3 ADD SWAP1 POP SWAP2 SWAP1 POP JUMP JUMPDEST PUSH2 0x13FF DUP2 PUSH2 0x1713 JUMP JUMPDEST DUP3 MSTORE POP POP JUMP JUMPDEST PUSH2 0x1416 PUSH2 0x1411 DUP3 PUSH2 0x1713 JUMP JUMPDEST PUSH2 0x17CB JUMP JUMPDEST DUP3 MSTORE POP POP JUMP JUMPDEST PUSH1 0x0 PUSH2 0x1428 DUP3 DUP6 PUSH2 0x1405 JUMP JUMPDEST PUSH1 0x20 DUP3 ADD SWAP2 POP PUSH2 0x1438 DUP3 DUP5 PUSH2 0x1405 JUMP JUMPDEST PUSH1 0x20 DUP3 ADD SWAP2 POP DUP2 SWAP1 POP SWAP4 SWAP3 POP POP POP JUMP JUMPDEST PUSH1 0x0 PUSH1 0x20 DUP3 ADD SWAP1 POP PUSH2 0x145D PUSH1 0x0 DUP4 ADD DUP5 PUSH2 0x12CD JUMP JUMPDEST SWAP3 SWAP2 POP POP JUMP JUMPDEST PUSH1 0x0 PUSH1 0x40 DUP3 ADD SWAP1 POP PUSH2 0x1478 PUSH1 0x0 DUP4 ADD DUP6 PUSH2 0x12CD JUMP JUMPDEST PUSH2 0x1485 PUSH1 0x20 DUP4 ADD DUP5 PUSH2 0x13F6 JUMP JUMPDEST SWAP4 SWAP3 POP POP POP JUMP JUMPDEST PUSH1 0x0 PUSH1 0x20 DUP3 ADD SWAP1 POP PUSH2 0x14A1 PUSH1 0x0 DUP4 ADD DUP5 PUSH2 0x12DC JUMP JUMPDEST SWAP3 SWAP2 POP POP JUMP JUMPDEST PUSH1 0x0 PUSH1 0x20 DUP3 ADD SWAP1 POP DUP2 DUP2 SUB PUSH1 0x0 DUP4 ADD MSTORE PUSH2 0x14C1 DUP2 DUP5 PUSH2 0x12EB JUMP JUMPDEST SWAP1 POP SWAP3 SWAP2 POP POP JUMP JUMPDEST PUSH1 0x0 PUSH1 0x20 DUP3 ADD SWAP1 POP DUP2 DUP2 SUB PUSH1 0x0 DUP4 ADD MSTORE PUSH2 0x14E2 DUP2 PUSH2 0x1324 JUMP JUMPDEST SWAP1 POP SWAP2 SWAP1 POP JUMP JUMPDEST PUSH1 0x0 PUSH1 0x20 DUP3 ADD SWAP1 POP DUP2 DUP2 SUB PUSH1 0x0 DUP4 ADD MSTORE PUSH2 0x1502 DUP2 PUSH2 0x1347 JUMP JUMPDEST SWAP1 POP SWAP2 SWAP1 POP JUMP JUMPDEST PUSH1 0x0 PUSH1 0x20 DUP3 ADD SWAP1 POP DUP2 DUP2 SUB PUSH1 0x0 DUP4 ADD MSTORE PUSH2 0x1522 DUP2 PUSH2 0x136A JUMP JUMPDEST SWAP1 POP SWAP2 SWAP1 POP JUMP JUMPDEST PUSH1 0x0 PUSH1 0x20 DUP3 ADD SWAP1 POP DUP2 DUP2 SUB PUSH1 0x0 DUP4 ADD MSTORE PUSH2 0x1542 DUP2 PUSH2 0x138D JUMP JUMPDEST SWAP1 POP SWAP2 SWAP1 POP JUMP JUMPDEST PUSH1 0x0 PUSH1 0x20 DUP3 ADD SWAP1 POP DUP2 DUP2 SUB PUSH1 0x0 DUP4 ADD MSTORE PUSH2 0x1562 DUP2 PUSH2 0x13B0 JUMP JUMPDEST SWAP1 POP SWAP2 SWAP1 POP JUMP JUMPDEST PUSH1 0x0 PUSH1 0x20 DUP3 ADD SWAP1 POP DUP2 DUP2 SUB PUSH1 0x0 DUP4 ADD MSTORE PUSH2 0x1582 DUP2 PUSH2 0x13D3 JUMP JUMPDEST SWAP1 POP SWAP2 SWAP1 POP JUMP JUMPDEST PUSH1 0x0 PUSH1 0x20 DUP3 ADD SWAP1 POP PUSH2 0x159E PUSH1 0x0 DUP4 ADD DUP5 PUSH2 0x13F6 JUMP JUMPDEST SWAP3 SWAP2 POP POP JUMP JUMPDEST PUSH1 0x0 DUP2 MLOAD SWAP1 POP SWAP2 SWAP1 POP JUMP JUMPDEST PUSH1 0x0 DUP3 DUP3 MSTORE PUSH1 0x20 DUP3 ADD SWAP1 POP SWAP3 SWAP2 POP POP JUMP JUMPDEST PUSH1 0x0 PUSH2 0x15CB DUP3 PUSH2 0x1713 JUMP JUMPDEST SWAP2 POP PUSH2 0x15D6 DUP4 PUSH2 0x1713 JUMP JUMPDEST SWAP3 POP DUP3 PUSH32 0xFFFFFFFFFFFFFFFFFFFFFFFFFFFFFFFFFFFFFFFFFFFFFFFFFFFFFFFFFFFFFFFF SUB DUP3 GT ISZERO PUSH2 0x160B JUMPI PUSH2 0x160A PUSH2 0x1806 JUMP JUMPDEST JUMPDEST DUP3 DUP3 ADD SWAP1 POP SWAP3 SWAP2 POP POP JUMP JUMPDEST PUSH1 0x0 PUSH2 0x1621 DUP3 PUSH2 0x1713 JUMP JUMPDEST SWAP2 POP PUSH2 0x162C DUP4 PUSH2 0x1713 JUMP JUMPDEST SWAP3 POP DUP3 PUSH2 0x163C JUMPI PUSH2 0x163B PUSH2 0x1835 JUMP JUMPDEST JUMPDEST DUP3 DUP3 DIV SWAP1 POP SWAP3 SWAP2 POP POP JUMP JUMPDEST PUSH1 0x0 PUSH2 0x1652 DUP3 PUSH2 0x1713 JUMP JUMPDEST SWAP2 POP PUSH2 0x165D DUP4 PUSH2 0x1713 JUMP JUMPDEST SWAP3 POP DUP2 PUSH32 0xFFFFFFFFFFFFFFFFFFFFFFFFFFFFFFFFFFFFFFFFFFFFFFFFFFFFFFFFFFFFFFFF DIV DUP4 GT DUP3 ISZERO ISZERO AND ISZERO PUSH2 0x1696 JUMPI PUSH2 0x1695 PUSH2 0x1806 JUMP JUMPDEST JUMPDEST DUP3 DUP3 MUL SWAP1 POP SWAP3 SWAP2 POP POP JUMP JUMPDEST PUSH1 0x0 PUSH2 0x16AC DUP3 PUSH2 0x1713 JUMP JUMPDEST SWAP2 POP PUSH2 0x16B7 DUP4 PUSH2 0x1713 JUMP JUMPDEST SWAP3 POP DUP3 DUP3 LT ISZERO PUSH2 0x16CA JUMPI PUSH2 0x16C9 PUSH2 0x1806 JUMP JUMPDEST JUMPDEST DUP3 DUP3 SUB SWAP1 POP SWAP3 SWAP2 POP POP JUMP JUMPDEST PUSH1 0x0 PUSH2 0x16E0 DUP3 PUSH2 0x16F3 JUMP JUMPDEST SWAP1 POP SWAP2 SWAP1 POP JUMP JUMPDEST PUSH1 0x0 DUP2 ISZERO ISZERO SWAP1 POP SWAP2 SWAP1 POP JUMP JUMPDEST PUSH1 0x0 PUSH20 0xFFFFFFFFFFFFFFFFFFFFFFFFFFFFFFFFFFFFFFFF DUP3 AND SWAP1 POP SWAP2 SWAP1 POP JUMP JUMPDEST PUSH1 0x0 DUP2 SWAP1 POP SWAP2 SWAP1 POP JUMP JUMPDEST PUSH1 0x0 JUMPDEST DUP4 DUP2 LT ISZERO PUSH2 0x173B JUMPI DUP1 DUP3 ADD MLOAD DUP2 DUP5 ADD MSTORE PUSH1 0x20 DUP2 ADD SWAP1 POP PUSH2 0x1720 JUMP JUMPDEST DUP4 DUP2 GT ISZERO PUSH2 0x174A JUMPI PUSH1 0x0 DUP5 DUP5 ADD MSTORE JUMPDEST POP POP POP POP JUMP JUMPDEST PUSH1 0x0 PUSH1 0x2 DUP3 DIV SWAP1 POP PUSH1 0x1 DUP3 AND DUP1 PUSH2 0x1768 JUMPI PUSH1 0x7F DUP3 AND SWAP2 POP JUMPDEST PUSH1 0x20 DUP3 LT DUP2 EQ ISZERO PUSH2 0x177C JUMPI PUSH2 0x177B PUSH2 0x1864 JUMP JUMPDEST JUMPDEST POP SWAP2 SWAP1 POP JUMP JUMPDEST PUSH1 0x0 PUSH2 0x178D DUP3 PUSH2 0x1713 JUMP JUMPDEST SWAP2 POP PUSH32 0xFFFFFFFFFFFFFFFFFFFFFFFFFFFFFFFFFFFFFFFFFFFFFFFFFFFFFFFFFFFFFFFF DUP3 EQ ISZERO PUSH2 0x17C0 JUMPI PUSH2 0x17BF PUSH2 0x1806 JUMP JUMPDEST JUMPDEST PUSH1 0x1 DUP3 ADD SWAP1 POP SWAP2 SWAP1 POP JUMP JUMPDEST PUSH1 0x0 DUP2 SWAP1 POP SWAP2 SWAP1 POP JUMP JUMPDEST PUSH1 0x0 PUSH2 0x17E0 DUP3 PUSH2 0x1713 JUMP JUMPDEST SWAP2 POP PUSH2 0x17EB DUP4 PUSH2 0x1713 JUMP JUMPDEST SWAP3 POP DUP3 PUSH2 0x17FB JUMPI PUSH2 0x17FA PUSH2 0x1835 JUMP JUMPDEST JUMPDEST DUP3 DUP3 MOD SWAP1 POP SWAP3 SWAP2 POP POP JUMP JUMPDEST PUSH32 0x4E487B7100000000000000000000000000000000000000000000000000000000 PUSH1 0x0 MSTORE PUSH1 0x11 PUSH1 0x4 MSTORE PUSH1 0x24 PUSH1 0x0 REVERT JUMPDEST PUSH32 0x4E487B7100000000000000000000000000000000000000000000000000000000 PUSH1 0x0 MSTORE PUSH1 0x12 PUSH1 0x4 MSTORE PUSH1 0x24 PUSH1 0x0 REVERT JUMPDEST PUSH32 0x4E487B7100000000000000000000000000000000000000000000000000000000 PUSH1 0x0 MSTORE PUSH1 0x22 PUSH1 0x4 MSTORE PUSH1 0x24 PUSH1 0x0 REVERT JUMPDEST PUSH32 0x4E487B7100000000000000000000000000000000000000000000000000000000 PUSH1 0x0 MSTORE PUSH1 0x32 PUSH1 0x4 MSTORE PUSH1 0x24 PUSH1 0x0 REVERT JUMPDEST PUSH1 0x0 DUP1 REVERT JUMPDEST PUSH1 0x0 PUSH1 0x1F NOT PUSH1 0x1F DUP4 ADD AND SWAP1 POP SWAP2 SWAP1 POP JUMP JUMPDEST PUSH32 0x546865206C6F7474657279206973206F76657200000000000000000000000000 PUSH1 0x0 DUP3 ADD MSTORE POP JUMP JUMPDEST PUSH32 0x54696D65206973206E6F74207570207965740000000000000000000000000000 PUSH1 0x0 DUP3 ADD MSTORE POP JUMP JUMPDEST PUSH32 0x4E6F7420656E6175676874206F7220746F6F206D756368206574686572730000 PUSH1 0x0 DUP3 ADD MSTORE POP JUMP JUMPDEST PUSH32 0x6E6F7420656E6F756768207469636B6574730000000000000000000000000000 PUSH1 0x0 DUP3 ADD MSTORE POP JUMP JUMPDEST PUSH32 0x6E6F7420656E6F75676820616C6C6F77616E6365000000000000000000000000 PUSH1 0x0 DUP3 ADD MSTORE POP JUMP JUMPDEST PUSH32 0x7472616E73666572206661696C65640000000000000000000000000000000000 PUSH1 0x0 DUP3 ADD MSTORE POP JUMP JUMPDEST PUSH2 0x19D7 DUP2 PUSH2 0x16D5 JUMP JUMPDEST DUP2 EQ PUSH2 0x19E2 JUMPI PUSH1 0x0 DUP1 REVERT JUMPDEST POP JUMP JUMPDEST PUSH2 0x19EE DUP2 PUSH2 0x1713 JUMP JUMPDEST DUP2 EQ PUSH2 0x19F9 JUMPI PUSH1 0x0 DUP1 REVERT JUMPDEST POP JUMP INVALID LOG2 PUSH5 0x6970667358 0x22 SLT KECCAK256 PUSH23 0x249B5FC88BA0A65346491DCFECE4FB64F81D172BF5876C 0xC1 CALL 0x2A 0xE 0xE0 0x2F EQ 0xC9 PUSH5 0x736F6C6343 STOP ADDMOD SMOD STOP CALLER "
				},
				"gasEstimates": {
					"creation": {
						"codeDepositCost": "1341200",
						"executionCost": "infinite",
						"totalCost": "infinite"
					},
					"external": {
						"allowance(address,address)": "infinite",
						"approve(address,uint256)": "infinite",
						"balanceOf(address)": "2837",
						"buyTicket(uint256)": "infinite",
						"letsPlayTheGame()": "infinite",
						"limitTime()": "2451",
						"limitTimeDay()": "2473",
						"name()": "infinite",
						"returnTheMoney()": "infinite",
						"soldTicketLimit()": "2452",
						"standard()": "infinite",
						"startTime()": "2474",
						"symbol()": "infinite",
						"ticketPrice()": "2497",
						"ticketPriceEth()": "2496",
						"ticketSold()": "2474",
						"totalSupply()": "2519",
						"transfer(address,uint256)": "infinite",
						"transferFrom(address,address,uint256)": "infinite",
						"winner()": "2602"
					},
					"internal": {
						"multiply(uint256,uint256)": "infinite",
						"random(uint256)": "infinite"
					}
				},
				"methodIdentifiers": {
					"allowance(address,address)": "dd62ed3e",
					"approve(address,uint256)": "095ea7b3",
					"balanceOf(address)": "70a08231",
					"buyTicket(uint256)": "67dd74ca",
					"letsPlayTheGame()": "f732d3fd",
					"limitTime()": "b3b95e30",
					"limitTimeDay()": "cb8a4c5c",
					"name()": "06fdde03",
					"returnTheMoney()": "520992f2",
					"soldTicketLimit()": "3e016252",
					"standard()": "5a3b7e42",
					"startTime()": "78e97925",
					"symbol()": "95d89b41",
					"ticketPrice()": "1209b1f6",
					"ticketPriceEth()": "7bb9bc6e",
					"ticketSold()": "485cc439",
					"totalSupply()": "18160ddd",
					"transfer(address,uint256)": "a9059cbb",
					"transferFrom(address,address,uint256)": "23b872dd",
					"winner()": "dfbf53ae"
				}
			},
			"userdoc": {
				"kind": "user",
				"methods": {},
				"version": 1
			}
		}
	}
}