{
	"contracts/Lottery_ERC20_disposable.sol": {
		"Lottery": {
			"abi": [
				{
					"inputs": [
						{
							"internalType": "string",
							"name": "_name",
							"type": "string"
						},
						{
							"internalType": "string",
							"name": "_symbol",
							"type": "string"
						},
						{
							"internalType": "uint256",
							"name": "_numberOfTickets",
							"type": "uint256"
						},
						{
							"internalType": "uint256",
							"name": "_ticketPrice",
							"type": "uint256"
						},
						{
							"internalType": "uint256",
							"name": "_limitTimeDay",
							"type": "uint256"
						},
						{
							"internalType": "uint256",
							"name": "_soldTicketLimit",
							"type": "uint256"
						}
					],
					"stateMutability": "nonpayable",
					"type": "constructor"
				},
				{
					"anonymous": false,
					"inputs": [
						{
							"indexed": true,
							"internalType": "address",
							"name": "_owner",
							"type": "address"
						},
						{
							"indexed": true,
							"internalType": "address",
							"name": "_spender",
							"type": "address"
						},
						{
							"indexed": false,
							"internalType": "uint256",
							"name": "_value",
							"type": "uint256"
						}
					],
					"name": "Approval",
					"type": "event"
				},
				{
					"anonymous": false,
					"inputs": [
						{
							"indexed": false,
							"internalType": "address",
							"name": "_buyer",
							"type": "address"
						},
						{
							"indexed": false,
							"internalType": "uint256",
							"name": "_ticketCount",
							"type": "uint256"
						}
					],
					"name": "Sell",
					"type": "event"
				},
				{
					"anonymous": false,
					"inputs": [
						{
							"indexed": true,
							"internalType": "address",
							"name": "_from",
							"type": "address"
						},
						{
							"indexed": true,
							"internalType": "address",
							"name": "_to",
							"type": "address"
						},
						{
							"indexed": false,
							"internalType": "uint256",
							"name": "_value",
							"type": "uint256"
						}
					],
					"name": "Transfer",
					"type": "event"
				},
				{
					"anonymous": false,
					"inputs": [
						{
							"indexed": false,
							"internalType": "address",
							"name": "_winner",
							"type": "address"
						}
					],
					"name": "WeHaveAWinner",
					"type": "event"
				},
				{
					"inputs": [
						{
							"internalType": "address",
							"name": "",
							"type": "address"
						},
						{
							"internalType": "address",
							"name": "",
							"type": "address"
						}
					],
					"name": "allowance",
					"outputs": [
						{
							"internalType": "uint256",
							"name": "",
							"type": "uint256"
						}
					],
					"stateMutability": "view",
					"type": "function"
				},
				{
					"inputs": [
						{
							"internalType": "address",
							"name": "_spender",
							"type": "address"
						},
						{
							"internalType": "uint256",
							"name": "_value",
							"type": "uint256"
						}
					],
					"name": "approve",
					"outputs": [
						{
							"internalType": "bool",
							"name": "success",
							"type": "bool"
						}
					],
					"stateMutability": "nonpayable",
					"type": "function"
				},
				{
					"inputs": [
						{
							"internalType": "address",
							"name": "",
							"type": "address"
						}
					],
					"name": "balanceOf",
					"outputs": [
						{
							"internalType": "uint256",
							"name": "",
							"type": "uint256"
						}
					],
					"stateMutability": "view",
					"type": "function"
				},
				{
					"inputs": [
						{
							"internalType": "uint256",
							"name": "_numberOfTickets",
							"type": "uint256"
						}
					],
					"name": "buyTicket",
					"outputs": [],
					"stateMutability": "payable",
					"type": "function"
				},
				{
					"inputs": [],
					"name": "letsPlayTheGame",
					"outputs": [],
					"stateMutability": "nonpayable",
					"type": "function"
				},
				{
					"inputs": [],
					"name": "limitTime",
					"outputs": [
						{
							"internalType": "uint256",
							"name": "",
							"type": "uint256"
						}
					],
					"stateMutability": "view",
					"type": "function"
				},
				{
					"inputs": [],
					"name": "limitTimeDay",
					"outputs": [
						{
							"internalType": "uint256",
							"name": "",
							"type": "uint256"
						}
					],
					"stateMutability": "view",
					"type": "function"
				},
				{
					"inputs": [],
					"name": "name",
					"outputs": [
						{
							"internalType": "string",
							"name": "",
							"type": "string"
						}
					],
					"stateMutability": "view",
					"type": "function"
				},
				{
					"inputs": [],
					"name": "returnTheMoney",
					"outputs": [],
					"stateMutability": "nonpayable",
					"type": "function"
				},
				{
					"inputs": [],
					"name": "soldTicketLimit",
					"outputs": [
						{
							"internalType": "uint256",
							"name": "",
							"type": "uint256"
						}
					],
					"stateMutability": "view",
					"type": "function"
				},
				{
					"inputs": [],
					"name": "standard",
					"outputs": [
						{
							"internalType": "string",
							"name": "",
							"type": "string"
						}
					],
					"stateMutability": "view",
					"type": "function"
				},
				{
					"inputs": [],
					"name": "startTime",
					"outputs": [
						{
							"internalType": "uint256",
							"name": "",
							"type": "uint256"
						}
					],
					"stateMutability": "view",
					"type": "function"
				},
				{
					"inputs": [],
					"name": "symbol",
					"outputs": [
						{
							"internalType": "string",
							"name": "",
							"type": "string"
						}
					],
					"stateMutability": "view",
					"type": "function"
				},
				{
					"inputs": [],
					"name": "ticketPrice",
					"outputs": [
						{
							"internalType": "uint256",
							"name": "",
							"type": "uint256"
						}
					],
					"stateMutability": "view",
					"type": "function"
				},
				{
					"inputs": [],
					"name": "ticketPriceEth",
					"outputs": [
						{
							"internalType": "uint256",
							"name": "",
							"type": "uint256"
						}
					],
					"stateMutability": "view",
					"type": "function"
				},
				{
					"inputs": [],
					"name": "ticketSold",
					"outputs": [
						{
							"internalType": "uint256",
							"name": "",
							"type": "uint256"
						}
					],
					"stateMutability": "view",
					"type": "function"
				},
				{
					"inputs": [],
					"name": "totalSupply",
					"outputs": [
						{
							"internalType": "uint256",
							"name": "",
							"type": "uint256"
						}
					],
					"stateMutability": "view",
					"type": "function"
				},
				{
					"inputs": [
						{
							"internalType": "address",
							"name": "_to",
							"type": "address"
						},
						{
							"internalType": "uint256",
							"name": "_value",
							"type": "uint256"
						}
					],
					"name": "transfer",
					"outputs": [
						{
							"internalType": "bool",
							"name": "success",
							"type": "bool"
						}
					],
					"stateMutability": "nonpayable",
					"type": "function"
				},
				{
					"inputs": [
						{
							"internalType": "address",
							"name": "_from",
							"type": "address"
						},
						{
							"internalType": "address",
							"name": "_to",
							"type": "address"
						},
						{
							"internalType": "uint256",
							"name": "_value",
							"type": "uint256"
						}
					],
					"name": "transferFrom",
					"outputs": [
						{
							"internalType": "bool",
							"name": "success",
							"type": "bool"
						}
					],
					"stateMutability": "nonpayable",
					"type": "function"
				},
				{
					"inputs": [],
					"name": "winner",
					"outputs": [
						{
							"internalType": "address",
							"name": "",
							"type": "address"
						}
					],
					"stateMutability": "view",
					"type": "function"
				}
			],
			"devdoc": {
				"kind": "dev",
				"methods": {},
				"version": 1
			},
			"evm": {
				"assembly": "    /* \"contracts/Lottery_ERC20_disposable.sol\":166:209  string  public standard = \"Be$t_token v1.0\" */\n  0xc0\n    /* \"contracts/Lottery_ERC20_disposable.sol\":71:4343  contract Lottery {... */\n  0x40\n    /* \"contracts/Lottery_ERC20_disposable.sol\":166:209  string  public standard = \"Be$t_token v1.0\" */\n  mstore\n  0x0f\n    /* \"contracts/Lottery_ERC20_disposable.sol\":71:4343  contract Lottery {... */\n  0x80\n    /* \"contracts/Lottery_ERC20_disposable.sol\":166:209  string  public standard = \"Be$t_token v1.0\" */\n  dup2\n  swap1\n  mstore\n  shl(0x8c, 0x0426524745f746f6b656e2076312e3)\n  0xa0\n  swap1\n  dup2\n  mstore\n  tag_1\n  swap2\n  0x02\n  swap2\n  swap1\n  tag_2\n  jump\t// in\ntag_1:\n  pop\n    /* \"contracts/Lottery_ERC20_disposable.sol\":614:1167  constructor(string memory _name, string memory _symbol, uint256 _numberOfTickets, ... */\n  callvalue\n  dup1\n  iszero\n  tag_3\n  jumpi\n  0x00\n  dup1\n  revert\ntag_3:\n  pop\n  mload(0x40)\n  sub(codesize, bytecodeSize)\n  dup1\n  bytecodeSize\n  dup4\n  codecopy\n  dup2\n  add\n  0x40\n  dup2\n  swap1\n  mstore\n  tag_4\n  swap2\n  tag_5\n  jump\t// in\ntag_4:\n    /* \"contracts/Lottery_ERC20_disposable.sol\":791:796  admin */\n  0x07\n    /* \"contracts/Lottery_ERC20_disposable.sol\":791:809  admin = msg.sender */\n  dup1\n  sload\n  not(sub(shl(0xa0, 0x01), 0x01))\n  and\n    /* \"contracts/Lottery_ERC20_disposable.sol\":799:809  msg.sender */\n  caller\n    /* \"contracts/Lottery_ERC20_disposable.sol\":791:809  admin = msg.sender */\n  or\n  swap1\n  sstore\n    /* \"contracts/Lottery_ERC20_disposable.sol\":819:831  name = _name */\n  dup6\n  mload\n  tag_8\n  swap1\n    /* \"contracts/Lottery_ERC20_disposable.sol\":791:796  admin */\n  0x00\n  swap1\n    /* \"contracts/Lottery_ERC20_disposable.sol\":819:831  name = _name */\n  0x20\n  dup10\n  add\n  swap1\n  tag_2\n  jump\t// in\ntag_8:\n  pop\n    /* \"contracts/Lottery_ERC20_disposable.sol\":841:857  symbol = _symbol */\n  dup5\n  mload\n  tag_9\n  swap1\n    /* \"contracts/Lottery_ERC20_disposable.sol\":841:847  symbol */\n  0x01\n  swap1\n    /* \"contracts/Lottery_ERC20_disposable.sol\":841:857  symbol = _symbol */\n  0x20\n  dup9\n  add\n  swap1\n  tag_2\n  jump\t// in\ntag_9:\n  pop\n    /* \"contracts/Lottery_ERC20_disposable.sol\":867:878  ticketPrice */\n  0x05\n    /* \"contracts/Lottery_ERC20_disposable.sol\":867:893  ticketPrice = _ticketPrice */\n  dup4\n  swap1\n  sstore\n    /* \"contracts/Lottery_ERC20_disposable.sol\":903:915  limitTimeDay */\n  0x0a\n    /* \"contracts/Lottery_ERC20_disposable.sol\":903:931  limitTimeDay = _limitTimeDay */\n  dup3\n  dup2\n  sstore\n    /* \"contracts/Lottery_ERC20_disposable.sol\":941:952  totalSupply */\n  0x03\n    /* \"contracts/Lottery_ERC20_disposable.sol\":941:971  totalSupply = _numberOfTickets */\n  dup6\n  swap1\n  sstore\n    /* \"contracts/Lottery_ERC20_disposable.sol\":981:996  soldTicketLimit */\n  0x0c\n    /* \"contracts/Lottery_ERC20_disposable.sol\":981:1015  soldTicketLimit = _soldTicketLimit */\n  dup3\n  swap1\n  sstore\n    /* \"contracts/Lottery_ERC20_disposable.sol\":1043:1047  this */\n  address\n  0x00\n    /* \"contracts/Lottery_ERC20_disposable.sol\":1025:1049  balanceOf[address(this)] */\n  swap1\n  dup2\n  mstore\n    /* \"contracts/Lottery_ERC20_disposable.sol\":1025:1034  balanceOf */\n  0x0e\n    /* \"contracts/Lottery_ERC20_disposable.sol\":1025:1049  balanceOf[address(this)] */\n  0x20\n  mstore\n  0x40\n  swap1\n  keccak256\n    /* \"contracts/Lottery_ERC20_disposable.sol\":1025:1068  balanceOf[address(this)] = _numberOfTickets */\n  dup6\n  swap1\n  sstore\n    /* \"contracts/Lottery_ERC20_disposable.sol\":1090:1105  block.timestamp */\n  timestamp\n    /* \"contracts/Lottery_ERC20_disposable.sol\":1078:1087  startTime */\n  0x09\n    /* \"contracts/Lottery_ERC20_disposable.sol\":1078:1105  startTime = block.timestamp */\n  sstore\n    /* \"contracts/Lottery_ERC20_disposable.sol\":1139:1151  limitTimeDay */\n  sload\n    /* \"contracts/Lottery_ERC20_disposable.sol\":1139:1160  limitTimeDay * 1 days */\n  tag_10\n  swap1\n    /* \"contracts/Lottery_ERC20_disposable.sol\":1154:1160  1 days */\n  0x015180\n    /* \"contracts/Lottery_ERC20_disposable.sol\":1139:1160  limitTimeDay * 1 days */\n  tag_11\n  jump\t// in\ntag_10:\n    /* \"contracts/Lottery_ERC20_disposable.sol\":1127:1136  startTime */\n  sload(0x09)\n    /* \"contracts/Lottery_ERC20_disposable.sol\":1127:1160  startTime + limitTimeDay * 1 days */\n  tag_12\n  swap2\n  swap1\n  tag_13\n  jump\t// in\ntag_12:\n    /* \"contracts/Lottery_ERC20_disposable.sol\":1115:1124  limitTime */\n  0x0b\n    /* \"contracts/Lottery_ERC20_disposable.sol\":1115:1160  limitTime = startTime + limitTimeDay * 1 days */\n  sstore\n  pop\n    /* \"contracts/Lottery_ERC20_disposable.sol\":71:4343  contract Lottery {... */\n  tag_26\n  swap5\n  pop\n  pop\n  pop\n  pop\n  pop\n  jump\ntag_2:\n  dup3\n  dup1\n  sload\n  tag_15\n  swap1\n  tag_16\n  jump\t// in\ntag_15:\n  swap1\n  0x00\n  mstore\n  keccak256(0x00, 0x20)\n  swap1\n  0x1f\n  add\n  0x20\n  swap1\n  div\n  dup2\n  add\n  swap3\n  dup3\n  tag_18\n  jumpi\n  0x00\n  dup6\n  sstore\n  jump(tag_21)\ntag_18:\n  dup3\n  0x1f\n  lt\n  tag_19\n  jumpi\n  dup1\n  mload\n  not(0xff)\n  and\n  dup4\n  dup1\n  add\n  or\n  dup6\n  sstore\n  jump(tag_21)\ntag_19:\n  dup3\n  dup1\n  add\n  0x01\n  add\n  dup6\n  sstore\n  dup3\n  iszero\n  tag_21\n  jumpi\n  swap2\n  dup3\n  add\ntag_20:\n  dup3\n  dup2\n  gt\n  iszero\n  tag_21\n  jumpi\n  dup3\n  mload\n  dup3\n  sstore\n  swap2\n  0x20\n  add\n  swap2\n  swap1\n  0x01\n  add\n  swap1\n  jump(tag_20)\ntag_21:\n  pop\n  tag_22\n  swap3\n  swap2\n  pop\n  tag_23\n  jump\t// in\ntag_22:\n  pop\n  swap1\n  jump\t// out\ntag_23:\ntag_24:\n  dup1\n  dup3\n  gt\n  iszero\n  tag_22\n  jumpi\n  0x00\n  dup2\n  sstore\n  0x01\n  add\n  jump(tag_24)\n    /* \"#utility.yul\":14:899   */\ntag_27:\n    /* \"#utility.yul\":68:73   */\n  0x00\n    /* \"#utility.yul\":121:124   */\n  dup3\n    /* \"#utility.yul\":114:118   */\n  0x1f\n    /* \"#utility.yul\":106:112   */\n  dup4\n    /* \"#utility.yul\":102:119   */\n  add\n    /* \"#utility.yul\":98:125   */\n  slt\n    /* \"#utility.yul\":88:143   */\n  tag_29\n  jumpi\n    /* \"#utility.yul\":139:140   */\n  0x00\n    /* \"#utility.yul\":136:137   */\n  dup1\n    /* \"#utility.yul\":129:141   */\n  revert\n    /* \"#utility.yul\":88:143   */\ntag_29:\n    /* \"#utility.yul\":162:175   */\n  dup2\n  mload\n  sub(shl(0x40, 0x01), 0x01)\n    /* \"#utility.yul\":224:234   */\n  dup1\n  dup3\n  gt\n    /* \"#utility.yul\":221:257   */\n  iszero\n  tag_31\n  jumpi\n    /* \"#utility.yul\":237:255   */\n  tag_31\n  tag_32\n  jump\t// in\ntag_31:\n    /* \"#utility.yul\":312:314   */\n  0x40\n    /* \"#utility.yul\":306:315   */\n  mload\n    /* \"#utility.yul\":280:282   */\n  0x1f\n    /* \"#utility.yul\":366:379   */\n  dup4\n  add\n  not(0x1f)\n    /* \"#utility.yul\":362:384   */\n  swap1\n  dup2\n  and\n    /* \"#utility.yul\":386:388   */\n  0x3f\n    /* \"#utility.yul\":358:389   */\n  add\n    /* \"#utility.yul\":354:394   */\n  and\n    /* \"#utility.yul\":342:395   */\n  dup2\n  add\n  swap1\n    /* \"#utility.yul\":410:428   */\n  dup3\n  dup3\n  gt\n    /* \"#utility.yul\":430:452   */\n  dup2\n  dup4\n  lt\n    /* \"#utility.yul\":407:453   */\n  or\n    /* \"#utility.yul\":404:476   */\n  iszero\n  tag_34\n  jumpi\n    /* \"#utility.yul\":456:474   */\n  tag_34\n  tag_32\n  jump\t// in\ntag_34:\n    /* \"#utility.yul\":496:506   */\n  dup2\n    /* \"#utility.yul\":492:494   */\n  0x40\n    /* \"#utility.yul\":485:507   */\n  mstore\n    /* \"#utility.yul\":531:533   */\n  dup4\n    /* \"#utility.yul\":523:529   */\n  dup2\n    /* \"#utility.yul\":516:534   */\n  mstore\n    /* \"#utility.yul\":553:557   */\n  0x20\n    /* \"#utility.yul\":543:557   */\n  swap3\n  pop\n    /* \"#utility.yul\":598:601   */\n  dup7\n    /* \"#utility.yul\":593:595   */\n  dup4\n    /* \"#utility.yul\":588:590   */\n  dup6\n    /* \"#utility.yul\":580:586   */\n  dup9\n    /* \"#utility.yul\":576:591   */\n  add\n    /* \"#utility.yul\":572:596   */\n  add\n    /* \"#utility.yul\":569:602   */\n  gt\n    /* \"#utility.yul\":566:619   */\n  iszero\n  tag_35\n  jumpi\n    /* \"#utility.yul\":615:616   */\n  0x00\n    /* \"#utility.yul\":612:613   */\n  dup1\n    /* \"#utility.yul\":605:617   */\n  revert\n    /* \"#utility.yul\":566:619   */\ntag_35:\n    /* \"#utility.yul\":637:638   */\n  0x00\n    /* \"#utility.yul\":628:638   */\n  swap2\n  pop\n    /* \"#utility.yul\":647:780   */\ntag_36:\n    /* \"#utility.yul\":661:663   */\n  dup4\n    /* \"#utility.yul\":658:659   */\n  dup3\n    /* \"#utility.yul\":655:664   */\n  lt\n    /* \"#utility.yul\":647:780   */\n  iszero\n  tag_38\n  jumpi\n    /* \"#utility.yul\":749:763   */\n  dup6\n  dup3\n  add\n    /* \"#utility.yul\":745:768   */\n  dup4\n  add\n    /* \"#utility.yul\":739:769   */\n  mload\n    /* \"#utility.yul\":718:732   */\n  dup2\n  dup4\n  add\n    /* \"#utility.yul\":714:737   */\n  dup5\n  add\n    /* \"#utility.yul\":707:770   */\n  mstore\n    /* \"#utility.yul\":672:682   */\n  swap1\n  dup3\n  add\n  swap1\n    /* \"#utility.yul\":647:780   */\n  jump(tag_36)\ntag_38:\n    /* \"#utility.yul\":798:800   */\n  dup4\n    /* \"#utility.yul\":795:796   */\n  dup3\n    /* \"#utility.yul\":792:801   */\n  gt\n    /* \"#utility.yul\":789:869   */\n  iszero\n  tag_39\n  jumpi\n    /* \"#utility.yul\":857:858   */\n  0x00\n    /* \"#utility.yul\":852:854   */\n  dup4\n    /* \"#utility.yul\":847:849   */\n  dup6\n    /* \"#utility.yul\":839:845   */\n  dup4\n    /* \"#utility.yul\":835:850   */\n  add\n    /* \"#utility.yul\":831:855   */\n  add\n    /* \"#utility.yul\":824:859   */\n  mstore\n    /* \"#utility.yul\":789:869   */\ntag_39:\n    /* \"#utility.yul\":887:893   */\n  swap7\n    /* \"#utility.yul\":14:899   */\n  swap6\n  pop\n  pop\n  pop\n  pop\n  pop\n  pop\n  jump\t// out\n    /* \"#utility.yul\":904:1713   */\ntag_5:\n    /* \"#utility.yul\":1039:1045   */\n  0x00\n    /* \"#utility.yul\":1047:1053   */\n  dup1\n    /* \"#utility.yul\":1055:1061   */\n  0x00\n    /* \"#utility.yul\":1063:1069   */\n  dup1\n    /* \"#utility.yul\":1071:1077   */\n  0x00\n    /* \"#utility.yul\":1079:1085   */\n  dup1\n    /* \"#utility.yul\":1132:1135   */\n  0xc0\n    /* \"#utility.yul\":1120:1129   */\n  dup8\n    /* \"#utility.yul\":1111:1118   */\n  dup10\n    /* \"#utility.yul\":1107:1130   */\n  sub\n    /* \"#utility.yul\":1103:1136   */\n  slt\n    /* \"#utility.yul\":1100:1153   */\n  iszero\n  tag_41\n  jumpi\n    /* \"#utility.yul\":1149:1150   */\n  0x00\n    /* \"#utility.yul\":1146:1147   */\n  dup1\n    /* \"#utility.yul\":1139:1151   */\n  revert\n    /* \"#utility.yul\":1100:1153   */\ntag_41:\n    /* \"#utility.yul\":1176:1192   */\n  dup7\n  mload\n  sub(shl(0x40, 0x01), 0x01)\n    /* \"#utility.yul\":1241:1255   */\n  dup1\n  dup3\n  gt\n    /* \"#utility.yul\":1238:1272   */\n  iszero\n  tag_42\n  jumpi\n    /* \"#utility.yul\":1268:1269   */\n  0x00\n    /* \"#utility.yul\":1265:1266   */\n  dup1\n    /* \"#utility.yul\":1258:1270   */\n  revert\n    /* \"#utility.yul\":1238:1272   */\ntag_42:\n    /* \"#utility.yul\":1291:1352   */\n  tag_43\n    /* \"#utility.yul\":1344:1351   */\n  dup11\n    /* \"#utility.yul\":1335:1341   */\n  dup4\n    /* \"#utility.yul\":1324:1333   */\n  dup12\n    /* \"#utility.yul\":1320:1342   */\n  add\n    /* \"#utility.yul\":1291:1352   */\n  tag_27\n  jump\t// in\ntag_43:\n    /* \"#utility.yul\":1281:1352   */\n  swap8\n  pop\n    /* \"#utility.yul\":1398:1400   */\n  0x20\n    /* \"#utility.yul\":1387:1396   */\n  dup10\n    /* \"#utility.yul\":1383:1401   */\n  add\n    /* \"#utility.yul\":1377:1402   */\n  mload\n    /* \"#utility.yul\":1361:1402   */\n  swap2\n  pop\n    /* \"#utility.yul\":1427:1429   */\n  dup1\n    /* \"#utility.yul\":1417:1425   */\n  dup3\n    /* \"#utility.yul\":1414:1430   */\n  gt\n    /* \"#utility.yul\":1411:1447   */\n  iszero\n  tag_44\n  jumpi\n    /* \"#utility.yul\":1443:1444   */\n  0x00\n    /* \"#utility.yul\":1440:1441   */\n  dup1\n    /* \"#utility.yul\":1433:1445   */\n  revert\n    /* \"#utility.yul\":1411:1447   */\ntag_44:\n  pop\n    /* \"#utility.yul\":1466:1529   */\n  tag_45\n    /* \"#utility.yul\":1521:1528   */\n  dup10\n    /* \"#utility.yul\":1510:1518   */\n  dup3\n    /* \"#utility.yul\":1499:1508   */\n  dup11\n    /* \"#utility.yul\":1495:1519   */\n  add\n    /* \"#utility.yul\":1466:1529   */\n  tag_27\n  jump\t// in\ntag_45:\n    /* \"#utility.yul\":1456:1529   */\n  swap6\n  pop\n  pop\n    /* \"#utility.yul\":1569:1571   */\n  0x40\n    /* \"#utility.yul\":1558:1567   */\n  dup8\n    /* \"#utility.yul\":1554:1572   */\n  add\n    /* \"#utility.yul\":1548:1573   */\n  mload\n    /* \"#utility.yul\":1538:1573   */\n  swap4\n  pop\n    /* \"#utility.yul\":1613:1615   */\n  0x60\n    /* \"#utility.yul\":1602:1611   */\n  dup8\n    /* \"#utility.yul\":1598:1616   */\n  add\n    /* \"#utility.yul\":1592:1617   */\n  mload\n    /* \"#utility.yul\":1582:1617   */\n  swap3\n  pop\n    /* \"#utility.yul\":1657:1660   */\n  0x80\n    /* \"#utility.yul\":1646:1655   */\n  dup8\n    /* \"#utility.yul\":1642:1661   */\n  add\n    /* \"#utility.yul\":1636:1662   */\n  mload\n    /* \"#utility.yul\":1626:1662   */\n  swap2\n  pop\n    /* \"#utility.yul\":1702:1705   */\n  0xa0\n    /* \"#utility.yul\":1691:1700   */\n  dup8\n    /* \"#utility.yul\":1687:1706   */\n  add\n    /* \"#utility.yul\":1681:1707   */\n  mload\n    /* \"#utility.yul\":1671:1707   */\n  swap1\n  pop\n    /* \"#utility.yul\":904:1713   */\n  swap3\n  swap6\n  pop\n  swap3\n  swap6\n  pop\n  swap3\n  swap6\n  jump\t// out\n    /* \"#utility.yul\":1718:1846   */\ntag_13:\n    /* \"#utility.yul\":1758:1761   */\n  0x00\n    /* \"#utility.yul\":1789:1790   */\n  dup3\n    /* \"#utility.yul\":1785:1791   */\n  not\n    /* \"#utility.yul\":1782:1783   */\n  dup3\n    /* \"#utility.yul\":1779:1792   */\n  gt\n    /* \"#utility.yul\":1776:1815   */\n  iszero\n  tag_48\n  jumpi\n    /* \"#utility.yul\":1795:1813   */\n  tag_48\n  tag_49\n  jump\t// in\ntag_48:\n  pop\n    /* \"#utility.yul\":1831:1840   */\n  add\n  swap1\n    /* \"#utility.yul\":1718:1846   */\n  jump\t// out\n    /* \"#utility.yul\":1851:2019   */\ntag_11:\n    /* \"#utility.yul\":1891:1898   */\n  0x00\n    /* \"#utility.yul\":1957:1958   */\n  dup2\n    /* \"#utility.yul\":1953:1954   */\n  0x00\n    /* \"#utility.yul\":1949:1955   */\n  not\n    /* \"#utility.yul\":1945:1959   */\n  div\n    /* \"#utility.yul\":1942:1943   */\n  dup4\n    /* \"#utility.yul\":1939:1960   */\n  gt\n    /* \"#utility.yul\":1934:1935   */\n  dup3\n    /* \"#utility.yul\":1927:1936   */\n  iszero\n    /* \"#utility.yul\":1920:1937   */\n  iszero\n    /* \"#utility.yul\":1916:1961   */\n  and\n    /* \"#utility.yul\":1913:1984   */\n  iszero\n  tag_52\n  jumpi\n    /* \"#utility.yul\":1964:1982   */\n  tag_52\n  tag_49\n  jump\t// in\ntag_52:\n  pop\n    /* \"#utility.yul\":2004:2013   */\n  mul\n  swap1\n    /* \"#utility.yul\":1851:2019   */\n  jump\t// out\n    /* \"#utility.yul\":2024:2404   */\ntag_16:\n    /* \"#utility.yul\":2103:2104   */\n  0x01\n    /* \"#utility.yul\":2099:2111   */\n  dup2\n  dup2\n  shr\n  swap1\n    /* \"#utility.yul\":2146:2158   */\n  dup3\n  and\n  dup1\n    /* \"#utility.yul\":2167:2228   */\n  tag_54\n  jumpi\n    /* \"#utility.yul\":2221:2225   */\n  0x7f\n    /* \"#utility.yul\":2213:2219   */\n  dup3\n    /* \"#utility.yul\":2209:2226   */\n  and\n    /* \"#utility.yul\":2199:2226   */\n  swap2\n  pop\n    /* \"#utility.yul\":2167:2228   */\ntag_54:\n    /* \"#utility.yul\":2274:2276   */\n  0x20\n    /* \"#utility.yul\":2266:2272   */\n  dup3\n    /* \"#utility.yul\":2263:2277   */\n  lt\n    /* \"#utility.yul\":2243:2261   */\n  dup2\n    /* \"#utility.yul\":2240:2278   */\n  eq\n    /* \"#utility.yul\":2237:2398   */\n  iszero\n  tag_55\n  jumpi\n    /* \"#utility.yul\":2320:2330   */\n  0x4e487b71\n    /* \"#utility.yul\":2315:2318   */\n  0xe0\n    /* \"#utility.yul\":2311:2331   */\n  shl\n    /* \"#utility.yul\":2308:2309   */\n  0x00\n    /* \"#utility.yul\":2301:2332   */\n  mstore\n    /* \"#utility.yul\":2355:2359   */\n  0x22\n    /* \"#utility.yul\":2352:2353   */\n  0x04\n    /* \"#utility.yul\":2345:2360   */\n  mstore\n    /* \"#utility.yul\":2383:2387   */\n  0x24\n    /* \"#utility.yul\":2380:2381   */\n  0x00\n    /* \"#utility.yul\":2373:2388   */\n  revert\n    /* \"#utility.yul\":2237:2398   */\ntag_55:\n  pop\n    /* \"#utility.yul\":2024:2404   */\n  swap2\n  swap1\n  pop\n  jump\t// out\n    /* \"#utility.yul\":2409:2536   */\ntag_49:\n    /* \"#utility.yul\":2470:2480   */\n  0x4e487b71\n    /* \"#utility.yul\":2465:2468   */\n  0xe0\n    /* \"#utility.yul\":2461:2481   */\n  shl\n    /* \"#utility.yul\":2458:2459   */\n  0x00\n    /* \"#utility.yul\":2451:2482   */\n  mstore\n    /* \"#utility.yul\":2501:2505   */\n  0x11\n    /* \"#utility.yul\":2498:2499   */\n  0x04\n    /* \"#utility.yul\":2491:2506   */\n  mstore\n    /* \"#utility.yul\":2525:2529   */\n  0x24\n    /* \"#utility.yul\":2522:2523   */\n  0x00\n    /* \"#utility.yul\":2515:2530   */\n  revert\n    /* \"#utility.yul\":2541:2668   */\ntag_32:\n    /* \"#utility.yul\":2602:2612   */\n  0x4e487b71\n    /* \"#utility.yul\":2597:2600   */\n  0xe0\n    /* \"#utility.yul\":2593:2613   */\n  shl\n    /* \"#utility.yul\":2590:2591   */\n  0x00\n    /* \"#utility.yul\":2583:2614   */\n  mstore\n    /* \"#utility.yul\":2633:2637   */\n  0x41\n    /* \"#utility.yul\":2630:2631   */\n  0x04\n    /* \"#utility.yul\":2623:2638   */\n  mstore\n    /* \"#utility.yul\":2657:2661   */\n  0x24\n    /* \"#utility.yul\":2654:2655   */\n  0x00\n    /* \"#utility.yul\":2647:2662   */\n  revert\n    /* \"#utility.yul\":2541:2668   */\ntag_26:\n    /* \"contracts/Lottery_ERC20_disposable.sol\":71:4343  contract Lottery {... */\n  dataSize(sub_0)\n  dup1\n  dataOffset(sub_0)\n  0x00\n  codecopy\n  0x00\n  return\nstop\n\nsub_0: assembly {\n        /* \"contracts/Lottery_ERC20_disposable.sol\":71:4343  contract Lottery {... */\n      mstore(0x40, 0x80)\n      jumpi(tag_1, lt(calldatasize, 0x04))\n      shr(0xe0, calldataload(0x00))\n      dup1\n      0x70a08231\n      gt\n      tag_22\n      jumpi\n      dup1\n      0xb3b95e30\n      gt\n      tag_23\n      jumpi\n      dup1\n      0xb3b95e30\n      eq\n      tag_17\n      jumpi\n      dup1\n      0xcb8a4c5c\n      eq\n      tag_18\n      jumpi\n      dup1\n      0xdd62ed3e\n      eq\n      tag_19\n      jumpi\n      dup1\n      0xdfbf53ae\n      eq\n      tag_20\n      jumpi\n      dup1\n      0xf732d3fd\n      eq\n      tag_21\n      jumpi\n      0x00\n      dup1\n      revert\n    tag_23:\n      dup1\n      0x70a08231\n      eq\n      tag_12\n      jumpi\n      dup1\n      0x78e97925\n      eq\n      tag_13\n      jumpi\n      dup1\n      0x7bb9bc6e\n      eq\n      tag_14\n      jumpi\n      dup1\n      0x95d89b41\n      eq\n      tag_15\n      jumpi\n      dup1\n      0xa9059cbb\n      eq\n      tag_16\n      jumpi\n      0x00\n      dup1\n      revert\n    tag_22:\n      dup1\n      0x3e016252\n      gt\n      tag_24\n      jumpi\n      dup1\n      0x3e016252\n      eq\n      tag_7\n      jumpi\n      dup1\n      0x485cc439\n      eq\n      tag_8\n      jumpi\n      dup1\n      0x520992f2\n      eq\n      tag_9\n      jumpi\n      dup1\n      0x5a3b7e42\n      eq\n      tag_10\n      jumpi\n      dup1\n      0x67dd74ca\n      eq\n      tag_11\n      jumpi\n      0x00\n      dup1\n      revert\n    tag_24:\n      dup1\n      0x06fdde03\n      eq\n      tag_2\n      jumpi\n      dup1\n      0x095ea7b3\n      eq\n      tag_3\n      jumpi\n      dup1\n      0x1209b1f6\n      eq\n      tag_4\n      jumpi\n      dup1\n      0x18160ddd\n      eq\n      tag_5\n      jumpi\n      dup1\n      0x23b872dd\n      eq\n      tag_6\n      jumpi\n    tag_1:\n      0x00\n      dup1\n      revert\n        /* \"contracts/Lottery_ERC20_disposable.sol\":114:133  string  public name */\n    tag_2:\n      callvalue\n      dup1\n      iszero\n      tag_25\n      jumpi\n      0x00\n      dup1\n      revert\n    tag_25:\n      pop\n      tag_26\n      tag_27\n      jump\t// in\n    tag_26:\n      mload(0x40)\n      tag_28\n      swap2\n      swap1\n      tag_29\n      jump\t// in\n    tag_28:\n      mload(0x40)\n      dup1\n      swap2\n      sub\n      swap1\n      return\n        /* \"contracts/Lottery_ERC20_disposable.sol\":4103:4317  function approve(address _spender, uint256 _value) public returns (bool success) {... */\n    tag_3:\n      callvalue\n      dup1\n      iszero\n      tag_30\n      jumpi\n      0x00\n      dup1\n      revert\n    tag_30:\n      pop\n      tag_31\n      tag_32\n      calldatasize\n      0x04\n      tag_33\n      jump\t// in\n    tag_32:\n      tag_34\n      jump\t// in\n    tag_31:\n      mload(0x40)\n        /* \"#utility.yul\":2329:2343   */\n      swap1\n      iszero\n        /* \"#utility.yul\":2322:2344   */\n      iszero\n        /* \"#utility.yul\":2304:2345   */\n      dup2\n      mstore\n        /* \"#utility.yul\":2292:2294   */\n      0x20\n        /* \"#utility.yul\":2277:2295   */\n      add\n        /* \"contracts/Lottery_ERC20_disposable.sol\":4103:4317  function approve(address _spender, uint256 _value) public returns (bool success) {... */\n      tag_28\n        /* \"#utility.yul\":2164:2351   */\n      jump\n        /* \"contracts/Lottery_ERC20_disposable.sol\":294:320  uint256 public ticketPrice */\n    tag_4:\n      callvalue\n      dup1\n      iszero\n      tag_37\n      jumpi\n      0x00\n      dup1\n      revert\n    tag_37:\n      pop\n      tag_38\n      sload(0x05)\n      dup2\n      jump\n    tag_38:\n      mload(0x40)\n        /* \"#utility.yul\":5198:5223   */\n      swap1\n      dup2\n      mstore\n        /* \"#utility.yul\":5186:5188   */\n      0x20\n        /* \"#utility.yul\":5171:5189   */\n      add\n        /* \"contracts/Lottery_ERC20_disposable.sol\":294:320  uint256 public ticketPrice */\n      tag_28\n        /* \"#utility.yul\":5052:5229   */\n      jump\n        /* \"contracts/Lottery_ERC20_disposable.sol\":215:241  uint256 public totalSupply */\n    tag_5:\n      callvalue\n      dup1\n      iszero\n      tag_42\n      jumpi\n      0x00\n      dup1\n      revert\n    tag_42:\n      pop\n      tag_38\n      sload(0x03)\n      dup2\n      jump\n        /* \"contracts/Lottery_ERC20_disposable.sol\":3663:4097  function transferFrom(address _from, address _to, uint256 _value) public returns (bool success) {... */\n    tag_6:\n      callvalue\n      dup1\n      iszero\n      tag_46\n      jumpi\n      0x00\n      dup1\n      revert\n    tag_46:\n      pop\n      tag_31\n      tag_48\n      calldatasize\n      0x04\n      tag_49\n      jump\t// in\n    tag_48:\n      tag_50\n      jump\t// in\n        /* \"contracts/Lottery_ERC20_disposable.sol\":532:562  uint256 public soldTicketLimit */\n    tag_7:\n      callvalue\n      dup1\n      iszero\n      tag_52\n      jumpi\n      0x00\n      dup1\n      revert\n    tag_52:\n      pop\n      tag_38\n      sload(0x0c)\n      dup2\n      jump\n        /* \"contracts/Lottery_ERC20_disposable.sol\":568:593  uint256 public ticketSold */\n    tag_8:\n      callvalue\n      dup1\n      iszero\n      tag_56\n      jumpi\n      0x00\n      dup1\n      revert\n    tag_56:\n      pop\n      tag_38\n      sload(0x0d)\n      dup2\n      jump\n        /* \"contracts/Lottery_ERC20_disposable.sol\":2907:3158  function returnTheMoney() public {... */\n    tag_9:\n      callvalue\n      dup1\n      iszero\n      tag_60\n      jumpi\n      0x00\n      dup1\n      revert\n    tag_60:\n      pop\n      tag_61\n      tag_62\n      jump\t// in\n    tag_61:\n      stop\n        /* \"contracts/Lottery_ERC20_disposable.sol\":166:209  string  public standard = \"Be$t_token v1.0\" */\n    tag_10:\n      callvalue\n      dup1\n      iszero\n      tag_63\n      jumpi\n      0x00\n      dup1\n      revert\n    tag_63:\n      pop\n      tag_26\n      tag_65\n      jump\t// in\n        /* \"contracts/Lottery_ERC20_disposable.sol\":1867:2496  function buyTicket(uint256 _numberOfTickets) public payable {... */\n    tag_11:\n      tag_61\n      tag_68\n      calldatasize\n      0x04\n      tag_69\n      jump\t// in\n    tag_68:\n      tag_70\n      jump\t// in\n        /* \"contracts/Lottery_ERC20_disposable.sol\":1431:1475  mapping(address => uint256) public balanceOf */\n    tag_12:\n      callvalue\n      dup1\n      iszero\n      tag_71\n      jumpi\n      0x00\n      dup1\n      revert\n    tag_71:\n      pop\n      tag_38\n      tag_73\n      calldatasize\n      0x04\n      tag_74\n      jump\t// in\n    tag_73:\n      mstore(0x20, 0x0e)\n      0x00\n      swap1\n      dup2\n      mstore\n      0x40\n      swap1\n      keccak256\n      sload\n      dup2\n      jump\n        /* \"contracts/Lottery_ERC20_disposable.sol\":421:442  uint public startTime */\n    tag_13:\n      callvalue\n      dup1\n      iszero\n      tag_77\n      jumpi\n      0x00\n      dup1\n      revert\n    tag_77:\n      pop\n      tag_38\n      sload(0x09)\n      dup2\n      jump\n        /* \"contracts/Lottery_ERC20_disposable.sol\":327:356  uint256 public ticketPriceEth */\n    tag_14:\n      callvalue\n      dup1\n      iszero\n      tag_81\n      jumpi\n      0x00\n      dup1\n      revert\n    tag_81:\n      pop\n      tag_38\n      sload(0x06)\n      dup2\n      jump\n        /* \"contracts/Lottery_ERC20_disposable.sol\":139:160  string  public symbol */\n    tag_15:\n      callvalue\n      dup1\n      iszero\n      tag_85\n      jumpi\n      0x00\n      dup1\n      revert\n    tag_85:\n      pop\n      tag_26\n      tag_87\n      jump\t// in\n        /* \"contracts/Lottery_ERC20_disposable.sol\":3378:3657  function transfer(address _to, uint256 _value) public returns (bool success) {... */\n    tag_16:\n      callvalue\n      dup1\n      iszero\n      tag_89\n      jumpi\n      0x00\n      dup1\n      revert\n    tag_89:\n      pop\n      tag_31\n      tag_91\n      calldatasize\n      0x04\n      tag_33\n      jump\t// in\n    tag_91:\n      tag_92\n      jump\t// in\n        /* \"contracts/Lottery_ERC20_disposable.sol\":490:511  uint public limitTime */\n    tag_17:\n      callvalue\n      dup1\n      iszero\n      tag_94\n      jumpi\n      0x00\n      dup1\n      revert\n    tag_94:\n      pop\n      tag_38\n      sload(0x0b)\n      dup2\n      jump\n        /* \"contracts/Lottery_ERC20_disposable.sol\":448:472  uint public limitTimeDay */\n    tag_18:\n      callvalue\n      dup1\n      iszero\n      tag_98\n      jumpi\n      0x00\n      dup1\n      revert\n    tag_98:\n      pop\n      tag_38\n      sload(0x0a)\n      dup2\n      jump\n        /* \"contracts/Lottery_ERC20_disposable.sol\":1481:1545  mapping(address => mapping(address => uint256)) public allowance */\n    tag_19:\n      callvalue\n      dup1\n      iszero\n      tag_102\n      jumpi\n      0x00\n      dup1\n      revert\n    tag_102:\n      pop\n      tag_38\n      tag_104\n      calldatasize\n      0x04\n      tag_105\n      jump\t// in\n    tag_104:\n      0x0f\n      0x20\n      swap1\n      dup2\n      mstore\n      0x00\n      swap3\n      dup4\n      mstore\n      0x40\n      dup1\n      dup5\n      keccak256\n      swap1\n      swap2\n      mstore\n      swap1\n      dup3\n      mstore\n      swap1\n      keccak256\n      sload\n      dup2\n      jump\n        /* \"contracts/Lottery_ERC20_disposable.sol\":267:288  address public winner */\n    tag_20:\n      callvalue\n      dup1\n      iszero\n      tag_108\n      jumpi\n      0x00\n      dup1\n      revert\n    tag_108:\n      pop\n      sload(0x04)\n      tag_109\n      swap1\n      sub(shl(0xa0, 0x01), 0x01)\n      and\n      dup2\n      jump\n    tag_109:\n      mload(0x40)\n      sub(shl(0xa0, 0x01), 0x01)\n        /* \"#utility.yul\":1841:1873   */\n      swap1\n      swap2\n      and\n        /* \"#utility.yul\":1823:1874   */\n      dup2\n      mstore\n        /* \"#utility.yul\":1811:1813   */\n      0x20\n        /* \"#utility.yul\":1796:1814   */\n      add\n        /* \"contracts/Lottery_ERC20_disposable.sol\":267:288  address public winner */\n      tag_28\n        /* \"#utility.yul\":1677:1880   */\n      jump\n        /* \"contracts/Lottery_ERC20_disposable.sol\":2502:2901  function letsPlayTheGame() public {... */\n    tag_21:\n      callvalue\n      dup1\n      iszero\n      tag_113\n      jumpi\n      0x00\n      dup1\n      revert\n    tag_113:\n      pop\n      tag_61\n      tag_115\n      jump\t// in\n        /* \"contracts/Lottery_ERC20_disposable.sol\":114:133  string  public name */\n    tag_27:\n      0x00\n      dup1\n      sload\n      tag_116\n      swap1\n      tag_117\n      jump\t// in\n    tag_116:\n      dup1\n      0x1f\n      add\n      0x20\n      dup1\n      swap2\n      div\n      mul\n      0x20\n      add\n      mload(0x40)\n      swap1\n      dup2\n      add\n      0x40\n      mstore\n      dup1\n      swap3\n      swap2\n      swap1\n      dup2\n      dup2\n      mstore\n      0x20\n      add\n      dup3\n      dup1\n      sload\n      tag_118\n      swap1\n      tag_117\n      jump\t// in\n    tag_118:\n      dup1\n      iszero\n      tag_119\n      jumpi\n      dup1\n      0x1f\n      lt\n      tag_120\n      jumpi\n      0x0100\n      dup1\n      dup4\n      sload\n      div\n      mul\n      dup4\n      mstore\n      swap2\n      0x20\n      add\n      swap2\n      jump(tag_119)\n    tag_120:\n      dup3\n      add\n      swap2\n      swap1\n      0x00\n      mstore\n      keccak256(0x00, 0x20)\n      swap1\n    tag_121:\n      dup2\n      sload\n      dup2\n      mstore\n      swap1\n      0x01\n      add\n      swap1\n      0x20\n      add\n      dup1\n      dup4\n      gt\n      tag_121\n      jumpi\n      dup3\n      swap1\n      sub\n      0x1f\n      and\n      dup3\n      add\n      swap2\n    tag_119:\n      pop\n      pop\n      pop\n      pop\n      pop\n      dup2\n      jump\t// out\n        /* \"contracts/Lottery_ERC20_disposable.sol\":4103:4317  function approve(address _spender, uint256 _value) public returns (bool success) {... */\n    tag_34:\n        /* \"contracts/Lottery_ERC20_disposable.sol\":4204:4214  msg.sender */\n      caller\n        /* \"contracts/Lottery_ERC20_disposable.sol\":4170:4182  bool success */\n      0x00\n        /* \"contracts/Lottery_ERC20_disposable.sol\":4194:4215  allowance[msg.sender] */\n      dup2\n      dup2\n      mstore\n        /* \"contracts/Lottery_ERC20_disposable.sol\":4194:4203  allowance */\n      0x0f\n        /* \"contracts/Lottery_ERC20_disposable.sol\":4194:4215  allowance[msg.sender] */\n      0x20\n      swap1\n      dup2\n      mstore\n      0x40\n      dup1\n      dup4\n      keccak256\n      sub(shl(0xa0, 0x01), 0x01)\n        /* \"contracts/Lottery_ERC20_disposable.sol\":4194:4225  allowance[msg.sender][_spender] */\n      dup8\n      and\n      dup1\n      dup6\n      mstore\n      swap3\n      mstore\n      dup1\n      dup4\n      keccak256\n        /* \"contracts/Lottery_ERC20_disposable.sol\":4194:4234  allowance[msg.sender][_spender] = _value */\n      dup6\n      swap1\n      sstore\n        /* \"contracts/Lottery_ERC20_disposable.sol\":4250:4288  Approval(msg.sender, _spender, _value) */\n      mload\n        /* \"contracts/Lottery_ERC20_disposable.sol\":4170:4182  bool success */\n      swap2\n      swap3\n        /* \"contracts/Lottery_ERC20_disposable.sol\":4194:4225  allowance[msg.sender][_spender] */\n      swap1\n      swap2\n        /* \"contracts/Lottery_ERC20_disposable.sol\":4250:4288  Approval(msg.sender, _spender, _value) */\n      0x8c5be1e5ebec7d5bd14f71427d1e84f3dd0314c0f7b2291e5b200ac8c7c3b925\n      swap1\n      tag_123\n      swap1\n        /* \"contracts/Lottery_ERC20_disposable.sol\":4228:4234  _value */\n      dup7\n        /* \"#utility.yul\":5198:5223   */\n      dup2\n      mstore\n        /* \"#utility.yul\":5186:5188   */\n      0x20\n        /* \"#utility.yul\":5171:5189   */\n      add\n      swap1\n        /* \"#utility.yul\":5052:5229   */\n      jump\n        /* \"contracts/Lottery_ERC20_disposable.sol\":4250:4288  Approval(msg.sender, _spender, _value) */\n    tag_123:\n      mload(0x40)\n      dup1\n      swap2\n      sub\n      swap1\n      log3\n      pop\n        /* \"contracts/Lottery_ERC20_disposable.sol\":4306:4310  true */\n      0x01\n        /* \"contracts/Lottery_ERC20_disposable.sol\":4103:4317  function approve(address _spender, uint256 _value) public returns (bool success) {... */\n    tag_122:\n      swap3\n      swap2\n      pop\n      pop\n      jump\t// out\n        /* \"contracts/Lottery_ERC20_disposable.sol\":3663:4097  function transferFrom(address _from, address _to, uint256 _value) public returns (bool success) {... */\n    tag_50:\n      sub(shl(0xa0, 0x01), 0x01)\n        /* \"contracts/Lottery_ERC20_disposable.sol\":3787:3803  balanceOf[_from] */\n      dup4\n      and\n        /* \"contracts/Lottery_ERC20_disposable.sol\":3745:3757  bool success */\n      0x00\n        /* \"contracts/Lottery_ERC20_disposable.sol\":3787:3803  balanceOf[_from] */\n      swap1\n      dup2\n      mstore\n        /* \"contracts/Lottery_ERC20_disposable.sol\":3787:3796  balanceOf */\n      0x0e\n        /* \"contracts/Lottery_ERC20_disposable.sol\":3787:3803  balanceOf[_from] */\n      0x20\n      mstore\n      0x40\n      dup2\n      keccak256\n      sload\n        /* \"contracts/Lottery_ERC20_disposable.sol\":3777:3803  _value <= balanceOf[_from] */\n      dup3\n      gt\n      iszero\n        /* \"contracts/Lottery_ERC20_disposable.sol\":3769:3826  require(_value <= balanceOf[_from], \"not enough tickets\") */\n      tag_125\n      jumpi\n      mload(0x40)\n      shl(0xe5, 0x461bcd)\n      dup2\n      mstore\n        /* \"#utility.yul\":4214:4216   */\n      0x20\n        /* \"contracts/Lottery_ERC20_disposable.sol\":3769:3826  require(_value <= balanceOf[_from], \"not enough tickets\") */\n      0x04\n      dup3\n      add\n        /* \"#utility.yul\":4196:4217   */\n      mstore\n        /* \"#utility.yul\":4253:4255   */\n      0x12\n        /* \"#utility.yul\":4233:4251   */\n      0x24\n      dup3\n      add\n        /* \"#utility.yul\":4226:4256   */\n      mstore\n      shl(0x70, 0x6e6f7420656e6f756768207469636b657473)\n        /* \"#utility.yul\":4272:4290   */\n      0x44\n      dup3\n      add\n        /* \"#utility.yul\":4265:4313   */\n      mstore\n        /* \"#utility.yul\":4330:4348   */\n      0x64\n      add\n        /* \"contracts/Lottery_ERC20_disposable.sol\":3769:3826  require(_value <= balanceOf[_from], \"not enough tickets\") */\n    tag_126:\n      mload(0x40)\n      dup1\n      swap2\n      sub\n      swap1\n      revert\n    tag_125:\n      sub(shl(0xa0, 0x01), 0x01)\n        /* \"contracts/Lottery_ERC20_disposable.sol\":3854:3870  allowance[_from] */\n      dup5\n      and\n      0x00\n      swap1\n      dup2\n      mstore\n        /* \"contracts/Lottery_ERC20_disposable.sol\":3854:3863  allowance */\n      0x0f\n        /* \"contracts/Lottery_ERC20_disposable.sol\":3854:3870  allowance[_from] */\n      0x20\n      swap1\n      dup2\n      mstore\n      0x40\n      dup1\n      dup4\n      keccak256\n        /* \"contracts/Lottery_ERC20_disposable.sol\":3871:3881  msg.sender */\n      caller\n        /* \"contracts/Lottery_ERC20_disposable.sol\":3854:3882  allowance[_from][msg.sender] */\n      dup5\n      mstore\n      swap1\n      swap2\n      mstore\n      swap1\n      keccak256\n      sload\n        /* \"contracts/Lottery_ERC20_disposable.sol\":3844:3882  _value <= allowance[_from][msg.sender] */\n      dup3\n      gt\n      iszero\n        /* \"contracts/Lottery_ERC20_disposable.sol\":3836:3907  require(_value <= allowance[_from][msg.sender], \"not enough allowance\") */\n      tag_128\n      jumpi\n      mload(0x40)\n      shl(0xe5, 0x461bcd)\n      dup2\n      mstore\n        /* \"#utility.yul\":4561:4563   */\n      0x20\n        /* \"contracts/Lottery_ERC20_disposable.sol\":3836:3907  require(_value <= allowance[_from][msg.sender], \"not enough allowance\") */\n      0x04\n      dup3\n      add\n        /* \"#utility.yul\":4543:4564   */\n      mstore\n        /* \"#utility.yul\":4600:4602   */\n      0x14\n        /* \"#utility.yul\":4580:4598   */\n      0x24\n      dup3\n      add\n        /* \"#utility.yul\":4573:4603   */\n      mstore\n      shl(0x60, 0x6e6f7420656e6f75676820616c6c6f77616e6365)\n        /* \"#utility.yul\":4619:4637   */\n      0x44\n      dup3\n      add\n        /* \"#utility.yul\":4612:4662   */\n      mstore\n        /* \"#utility.yul\":4679:4697   */\n      0x64\n      add\n        /* \"contracts/Lottery_ERC20_disposable.sol\":3836:3907  require(_value <= allowance[_from][msg.sender], \"not enough allowance\") */\n      tag_126\n        /* \"#utility.yul\":4359:4703   */\n      jump\n        /* \"contracts/Lottery_ERC20_disposable.sol\":3836:3907  require(_value <= allowance[_from][msg.sender], \"not enough allowance\") */\n    tag_128:\n      sub(shl(0xa0, 0x01), 0x01)\n        /* \"contracts/Lottery_ERC20_disposable.sol\":3917:3933  balanceOf[_from] */\n      dup5\n      and\n      0x00\n      swap1\n      dup2\n      mstore\n        /* \"contracts/Lottery_ERC20_disposable.sol\":3917:3926  balanceOf */\n      0x0e\n        /* \"contracts/Lottery_ERC20_disposable.sol\":3917:3933  balanceOf[_from] */\n      0x20\n      mstore\n      0x40\n      dup2\n      keccak256\n        /* \"contracts/Lottery_ERC20_disposable.sol\":3917:3943  balanceOf[_from] -= _value */\n      dup1\n      sload\n        /* \"contracts/Lottery_ERC20_disposable.sol\":3937:3943  _value */\n      dup5\n      swap3\n        /* \"contracts/Lottery_ERC20_disposable.sol\":3917:3933  balanceOf[_from] */\n      swap1\n        /* \"contracts/Lottery_ERC20_disposable.sol\":3917:3943  balanceOf[_from] -= _value */\n      tag_131\n      swap1\n        /* \"contracts/Lottery_ERC20_disposable.sol\":3937:3943  _value */\n      dup5\n      swap1\n        /* \"contracts/Lottery_ERC20_disposable.sol\":3917:3943  balanceOf[_from] -= _value */\n      tag_132\n      jump\t// in\n    tag_131:\n      swap1\n      swap2\n      sstore\n      pop\n      pop\n      sub(shl(0xa0, 0x01), 0x01)\n        /* \"contracts/Lottery_ERC20_disposable.sol\":3953:3967  balanceOf[_to] */\n      dup4\n      and\n      0x00\n      swap1\n      dup2\n      mstore\n        /* \"contracts/Lottery_ERC20_disposable.sol\":3953:3962  balanceOf */\n      0x0e\n        /* \"contracts/Lottery_ERC20_disposable.sol\":3953:3967  balanceOf[_to] */\n      0x20\n      mstore\n      0x40\n      dup2\n      keccak256\n        /* \"contracts/Lottery_ERC20_disposable.sol\":3953:3977  balanceOf[_to] += _value */\n      dup1\n      sload\n        /* \"contracts/Lottery_ERC20_disposable.sol\":3971:3977  _value */\n      dup5\n      swap3\n        /* \"contracts/Lottery_ERC20_disposable.sol\":3953:3967  balanceOf[_to] */\n      swap1\n        /* \"contracts/Lottery_ERC20_disposable.sol\":3953:3977  balanceOf[_to] += _value */\n      tag_133\n      swap1\n        /* \"contracts/Lottery_ERC20_disposable.sol\":3971:3977  _value */\n      dup5\n      swap1\n        /* \"contracts/Lottery_ERC20_disposable.sol\":3953:3977  balanceOf[_to] += _value */\n      tag_134\n      jump\t// in\n    tag_133:\n      swap1\n      swap2\n      sstore\n      pop\n      pop\n      sub(shl(0xa0, 0x01), 0x01)\n        /* \"contracts/Lottery_ERC20_disposable.sol\":3987:4003  allowance[_from] */\n      dup5\n      and\n      0x00\n      swap1\n      dup2\n      mstore\n        /* \"contracts/Lottery_ERC20_disposable.sol\":3987:3996  allowance */\n      0x0f\n        /* \"contracts/Lottery_ERC20_disposable.sol\":3987:4003  allowance[_from] */\n      0x20\n      swap1\n      dup2\n      mstore\n      0x40\n      dup1\n      dup4\n      keccak256\n        /* \"contracts/Lottery_ERC20_disposable.sol\":4004:4014  msg.sender */\n      caller\n        /* \"contracts/Lottery_ERC20_disposable.sol\":3987:4015  allowance[_from][msg.sender] */\n      dup5\n      mstore\n      swap1\n      swap2\n      mstore\n      dup2\n      keccak256\n        /* \"contracts/Lottery_ERC20_disposable.sol\":3987:4025  allowance[_from][msg.sender] -= _value */\n      dup1\n      sload\n        /* \"contracts/Lottery_ERC20_disposable.sol\":4019:4025  _value */\n      dup5\n      swap3\n        /* \"contracts/Lottery_ERC20_disposable.sol\":3987:4003  allowance[_from] */\n      swap1\n        /* \"contracts/Lottery_ERC20_disposable.sol\":3987:4025  allowance[_from][msg.sender] -= _value */\n      tag_135\n      swap1\n        /* \"contracts/Lottery_ERC20_disposable.sol\":4019:4025  _value */\n      dup5\n      swap1\n        /* \"contracts/Lottery_ERC20_disposable.sol\":3987:4025  allowance[_from][msg.sender] -= _value */\n      tag_132\n      jump\t// in\n    tag_135:\n      swap3\n      pop\n      pop\n      dup2\n      swap1\n      sstore\n      pop\n        /* \"contracts/Lottery_ERC20_disposable.sol\":4056:4059  _to */\n      dup3\n      sub(shl(0xa0, 0x01), 0x01)\n        /* \"contracts/Lottery_ERC20_disposable.sol\":4040:4068  Transfer(_from, _to, _value) */\n      and\n        /* \"contracts/Lottery_ERC20_disposable.sol\":4049:4054  _from */\n      dup5\n      sub(shl(0xa0, 0x01), 0x01)\n        /* \"contracts/Lottery_ERC20_disposable.sol\":4040:4068  Transfer(_from, _to, _value) */\n      and\n      0xddf252ad1be2c89b69c2b068fc378daa952ba7f163c4a11628f55a4df523b3ef\n        /* \"contracts/Lottery_ERC20_disposable.sol\":4061:4067  _value */\n      dup5\n        /* \"contracts/Lottery_ERC20_disposable.sol\":4040:4068  Transfer(_from, _to, _value) */\n      mload(0x40)\n      tag_136\n      swap2\n        /* \"#utility.yul\":5198:5223   */\n      dup2\n      mstore\n        /* \"#utility.yul\":5186:5188   */\n      0x20\n        /* \"#utility.yul\":5171:5189   */\n      add\n      swap1\n        /* \"#utility.yul\":5052:5229   */\n      jump\n        /* \"contracts/Lottery_ERC20_disposable.sol\":4040:4068  Transfer(_from, _to, _value) */\n    tag_136:\n      mload(0x40)\n      dup1\n      swap2\n      sub\n      swap1\n      log3\n      pop\n        /* \"contracts/Lottery_ERC20_disposable.sol\":4086:4090  true */\n      0x01\n        /* \"contracts/Lottery_ERC20_disposable.sol\":3663:4097  function transferFrom(address _from, address _to, uint256 _value) public returns (bool success) {... */\n      swap4\n      swap3\n      pop\n      pop\n      pop\n      jump\t// out\n        /* \"contracts/Lottery_ERC20_disposable.sol\":2907:3158  function returnTheMoney() public {... */\n    tag_62:\n        /* \"contracts/Lottery_ERC20_disposable.sol\":3009:3018  limitTime */\n      sload(0x0b)\n        /* \"contracts/Lottery_ERC20_disposable.sol\":2965:2980  block.timestamp */\n      timestamp\n      swap1\n        /* \"contracts/Lottery_ERC20_disposable.sol\":2999:3018  nowTime > limitTime */\n      dup2\n      gt\n        /* \"contracts/Lottery_ERC20_disposable.sol\":2998:3053  (nowTime > limitTime) && (ticketSold < soldTicketLimit) */\n      dup1\n      iszero\n      tag_138\n      jumpi\n      pop\n        /* \"contracts/Lottery_ERC20_disposable.sol\":3037:3052  soldTicketLimit */\n      sload(0x0c)\n        /* \"contracts/Lottery_ERC20_disposable.sol\":3024:3034  ticketSold */\n      sload(0x0d)\n        /* \"contracts/Lottery_ERC20_disposable.sol\":3024:3052  ticketSold < soldTicketLimit */\n      lt\n        /* \"contracts/Lottery_ERC20_disposable.sol\":2998:3053  (nowTime > limitTime) && (ticketSold < soldTicketLimit) */\n    tag_138:\n        /* \"contracts/Lottery_ERC20_disposable.sol\":2990:3076  require((nowTime > limitTime) && (ticketSold < soldTicketLimit), \"Time is not up yet\") */\n      tag_139\n      jumpi\n      mload(0x40)\n      shl(0xe5, 0x461bcd)\n      dup2\n      mstore\n        /* \"#utility.yul\":3508:3510   */\n      0x20\n        /* \"contracts/Lottery_ERC20_disposable.sol\":2990:3076  require((nowTime > limitTime) && (ticketSold < soldTicketLimit), \"Time is not up yet\") */\n      0x04\n      dup3\n      add\n        /* \"#utility.yul\":3490:3511   */\n      mstore\n        /* \"#utility.yul\":3547:3549   */\n      0x12\n        /* \"#utility.yul\":3527:3545   */\n      0x24\n      dup3\n      add\n        /* \"#utility.yul\":3520:3550   */\n      mstore\n      shl(0x72, 0x151a5b59481a5cc81b9bdd081d5c081e595d)\n        /* \"#utility.yul\":3566:3584   */\n      0x44\n      dup3\n      add\n        /* \"#utility.yul\":3559:3607   */\n      mstore\n        /* \"#utility.yul\":3624:3642   */\n      0x64\n      add\n        /* \"contracts/Lottery_ERC20_disposable.sol\":2990:3076  require((nowTime > limitTime) && (ticketSold < soldTicketLimit), \"Time is not up yet\") */\n      tag_126\n        /* \"#utility.yul\":3306:3648   */\n      jump\n        /* \"contracts/Lottery_ERC20_disposable.sol\":2990:3076  require((nowTime > limitTime) && (ticketSold < soldTicketLimit), \"Time is not up yet\") */\n    tag_139:\n        /* \"contracts/Lottery_ERC20_disposable.sol\":3094:3104  msg.sender */\n      caller\n        /* \"contracts/Lottery_ERC20_disposable.sol\":3129:3150  balanceOf[msg.sender] */\n      0x00\n      dup2\n      dup2\n      mstore\n        /* \"contracts/Lottery_ERC20_disposable.sol\":3129:3138  balanceOf */\n      0x0e\n        /* \"contracts/Lottery_ERC20_disposable.sol\":3129:3150  balanceOf[msg.sender] */\n      0x20\n      mstore\n      0x40\n      swap1\n      keccak256\n      sload\n        /* \"contracts/Lottery_ERC20_disposable.sol\":3115:3126  ticketPrice */\n      sload(0x05)\n        /* \"contracts/Lottery_ERC20_disposable.sol\":3086:3151  payable(msg.sender).transfer(ticketPrice * balanceOf[msg.sender]) */\n      0x08fc\n      swap2\n        /* \"contracts/Lottery_ERC20_disposable.sol\":3115:3150  ticketPrice * balanceOf[msg.sender] */\n      tag_142\n      swap2\n      tag_143\n      jump\t// in\n    tag_142:\n        /* \"contracts/Lottery_ERC20_disposable.sol\":3086:3151  payable(msg.sender).transfer(ticketPrice * balanceOf[msg.sender]) */\n      mload(0x40)\n      dup2\n      iszero\n      swap1\n      swap3\n      mul\n      swap2\n      0x00\n      dup2\n      dup2\n      dup2\n      dup6\n      dup9\n      dup9\n      call\n      swap4\n      pop\n      pop\n      pop\n      pop\n      iszero\n      dup1\n      iszero\n      tag_145\n      jumpi\n      returndatasize\n      0x00\n      dup1\n      returndatacopy\n      revert(0x00, returndatasize)\n    tag_145:\n      pop\n        /* \"contracts/Lottery_ERC20_disposable.sol\":2940:3158  {... */\n      pop\n        /* \"contracts/Lottery_ERC20_disposable.sol\":2907:3158  function returnTheMoney() public {... */\n      jump\t// out\n        /* \"contracts/Lottery_ERC20_disposable.sol\":166:209  string  public standard = \"Be$t_token v1.0\" */\n    tag_65:\n      0x02\n      dup1\n      sload\n      tag_116\n      swap1\n      tag_117\n      jump\t// in\n        /* \"contracts/Lottery_ERC20_disposable.sol\":1867:2496  function buyTicket(uint256 _numberOfTickets) public payable {... */\n    tag_70:\n        /* \"contracts/Lottery_ERC20_disposable.sol\":1995:2004  limitTime */\n      sload(0x0b)\n        /* \"contracts/Lottery_ERC20_disposable.sol\":1952:1967  block.timestamp */\n      timestamp\n      swap1\n        /* \"contracts/Lottery_ERC20_disposable.sol\":1985:2004  nowTime < limitTime */\n      dup2\n      lt\n        /* \"contracts/Lottery_ERC20_disposable.sol\":1977:2028  require(nowTime < limitTime, \"The lottery is over\") */\n      tag_152\n      jumpi\n      mload(0x40)\n      shl(0xe5, 0x461bcd)\n      dup2\n      mstore\n        /* \"#utility.yul\":3160:3162   */\n      0x20\n        /* \"contracts/Lottery_ERC20_disposable.sol\":1977:2028  require(nowTime < limitTime, \"The lottery is over\") */\n      0x04\n      dup3\n      add\n        /* \"#utility.yul\":3142:3163   */\n      mstore\n        /* \"#utility.yul\":3199:3201   */\n      0x13\n        /* \"#utility.yul\":3179:3197   */\n      0x24\n      dup3\n      add\n        /* \"#utility.yul\":3172:3202   */\n      mstore\n      shl(0x69, 0x2a3432903637ba3a32b93c9034b99037bb32b9)\n        /* \"#utility.yul\":3218:3236   */\n      0x44\n      dup3\n      add\n        /* \"#utility.yul\":3211:3260   */\n      mstore\n        /* \"#utility.yul\":3277:3295   */\n      0x64\n      add\n        /* \"contracts/Lottery_ERC20_disposable.sol\":1977:2028  require(nowTime < limitTime, \"The lottery is over\") */\n      tag_126\n        /* \"#utility.yul\":2958:3301   */\n      jump\n        /* \"contracts/Lottery_ERC20_disposable.sol\":1977:2028  require(nowTime < limitTime, \"The lottery is over\") */\n    tag_152:\n        /* \"contracts/Lottery_ERC20_disposable.sol\":2059:2098  multiply(_numberOfTickets, ticketPrice) */\n      tag_155\n        /* \"contracts/Lottery_ERC20_disposable.sol\":2068:2084  _numberOfTickets */\n      dup3\n        /* \"contracts/Lottery_ERC20_disposable.sol\":2086:2097  ticketPrice */\n      sload(0x05)\n        /* \"contracts/Lottery_ERC20_disposable.sol\":2059:2067  multiply */\n      tag_156\n        /* \"contracts/Lottery_ERC20_disposable.sol\":2059:2098  multiply(_numberOfTickets, ticketPrice) */\n      jump\t// in\n    tag_155:\n        /* \"contracts/Lottery_ERC20_disposable.sol\":2046:2055  msg.value */\n      callvalue\n        /* \"contracts/Lottery_ERC20_disposable.sol\":2046:2098  msg.value == multiply(_numberOfTickets, ticketPrice) */\n      eq\n        /* \"contracts/Lottery_ERC20_disposable.sol\":2038:2133  require(msg.value == multiply(_numberOfTickets, ticketPrice), \"Not enaught or too much ethers\") */\n      tag_157\n      jumpi\n      mload(0x40)\n      shl(0xe5, 0x461bcd)\n      dup2\n      mstore\n        /* \"#utility.yul\":3855:3857   */\n      0x20\n        /* \"contracts/Lottery_ERC20_disposable.sol\":2038:2133  require(msg.value == multiply(_numberOfTickets, ticketPrice), \"Not enaught or too much ethers\") */\n      0x04\n      dup3\n      add\n        /* \"#utility.yul\":3837:3858   */\n      mstore\n        /* \"#utility.yul\":3894:3896   */\n      0x1e\n        /* \"#utility.yul\":3874:3892   */\n      0x24\n      dup3\n      add\n        /* \"#utility.yul\":3867:3897   */\n      mstore\n        /* \"#utility.yul\":3933:3965   */\n      0x4e6f7420656e6175676874206f7220746f6f206d756368206574686572730000\n        /* \"#utility.yul\":3913:3931   */\n      0x44\n      dup3\n      add\n        /* \"#utility.yul\":3906:3966   */\n      mstore\n        /* \"#utility.yul\":3983:4001   */\n      0x64\n      add\n        /* \"contracts/Lottery_ERC20_disposable.sol\":2038:2133  require(msg.value == multiply(_numberOfTickets, ticketPrice), \"Not enaught or too much ethers\") */\n      tag_126\n        /* \"#utility.yul\":3653:4007   */\n      jump\n        /* \"contracts/Lottery_ERC20_disposable.sol\":2038:2133  require(msg.value == multiply(_numberOfTickets, ticketPrice), \"Not enaught or too much ethers\") */\n    tag_157:\n        /* \"contracts/Lottery_ERC20_disposable.sol\":2166:2170  this */\n      address\n        /* \"contracts/Lottery_ERC20_disposable.sol\":2148:2172  allowance[address(this)] */\n      0x00\n      dup2\n      dup2\n      mstore\n        /* \"contracts/Lottery_ERC20_disposable.sol\":2148:2157  allowance */\n      0x0f\n        /* \"contracts/Lottery_ERC20_disposable.sol\":2148:2172  allowance[address(this)] */\n      0x20\n      swap1\n      dup2\n      mstore\n      0x40\n      dup1\n      dup4\n      keccak256\n        /* \"contracts/Lottery_ERC20_disposable.sol\":2173:2183  msg.sender */\n      caller\n        /* \"contracts/Lottery_ERC20_disposable.sol\":2148:2184  allowance[address(this)][msg.sender] */\n      dup1\n      dup6\n      mstore\n      swap3\n      mstore\n      swap1\n      swap2\n      keccak256\n        /* \"contracts/Lottery_ERC20_disposable.sol\":2148:2203  allowance[address(this)][msg.sender] = _numberOfTickets */\n      dup5\n      swap1\n      sstore\n        /* \"contracts/Lottery_ERC20_disposable.sol\":2221:2278  transferFrom(address(this), msg.sender, _numberOfTickets) */\n      tag_160\n      swap2\n        /* \"contracts/Lottery_ERC20_disposable.sol\":2166:2170  this */\n      swap1\n        /* \"contracts/Lottery_ERC20_disposable.sol\":2187:2203  _numberOfTickets */\n      dup5\n        /* \"contracts/Lottery_ERC20_disposable.sol\":2221:2233  transferFrom */\n      tag_50\n        /* \"contracts/Lottery_ERC20_disposable.sol\":2221:2278  transferFrom(address(this), msg.sender, _numberOfTickets) */\n      jump\t// in\n    tag_160:\n        /* \"contracts/Lottery_ERC20_disposable.sol\":2213:2298  require(transferFrom(address(this), msg.sender, _numberOfTickets), \"transfer failed\") */\n      tag_161\n      jumpi\n      mload(0x40)\n      shl(0xe5, 0x461bcd)\n      dup2\n      mstore\n        /* \"#utility.yul\":4910:4912   */\n      0x20\n        /* \"contracts/Lottery_ERC20_disposable.sol\":2213:2298  require(transferFrom(address(this), msg.sender, _numberOfTickets), \"transfer failed\") */\n      0x04\n      dup3\n      add\n        /* \"#utility.yul\":4892:4913   */\n      mstore\n        /* \"#utility.yul\":4949:4951   */\n      0x0f\n        /* \"#utility.yul\":4929:4947   */\n      0x24\n      dup3\n      add\n        /* \"#utility.yul\":4922:4952   */\n      mstore\n      shl(0x8a, 0x1d1c985b9cd9995c8819985a5b1959)\n        /* \"#utility.yul\":4968:4986   */\n      0x44\n      dup3\n      add\n        /* \"#utility.yul\":4961:5006   */\n      mstore\n        /* \"#utility.yul\":5023:5041   */\n      0x64\n      add\n        /* \"contracts/Lottery_ERC20_disposable.sol\":2213:2298  require(transferFrom(address(this), msg.sender, _numberOfTickets), \"transfer failed\") */\n      tag_126\n        /* \"#utility.yul\":4708:5047   */\n      jump\n        /* \"contracts/Lottery_ERC20_disposable.sol\":2213:2298  require(transferFrom(address(this), msg.sender, _numberOfTickets), \"transfer failed\") */\n    tag_161:\n        /* \"contracts/Lottery_ERC20_disposable.sol\":2322:2338  _numberOfTickets */\n      dup2\n        /* \"contracts/Lottery_ERC20_disposable.sol\":2308:2318  ticketSold */\n      0x0d\n      0x00\n        /* \"contracts/Lottery_ERC20_disposable.sol\":2308:2338  ticketSold += _numberOfTickets */\n      dup3\n      dup3\n      sload\n      tag_164\n      swap2\n      swap1\n      tag_134\n      jump\t// in\n    tag_164:\n      swap1\n      swap2\n      sstore\n      pop\n        /* \"contracts/Lottery_ERC20_disposable.sol\":2353:2359  uint i */\n      0x00\n      swap1\n      pop\n        /* \"contracts/Lottery_ERC20_disposable.sol\":2348:2441  for (uint i = 0; i < _numberOfTickets; i++) {... */\n    tag_165:\n        /* \"contracts/Lottery_ERC20_disposable.sol\":2369:2385  _numberOfTickets */\n      dup3\n        /* \"contracts/Lottery_ERC20_disposable.sol\":2365:2366  i */\n      dup2\n        /* \"contracts/Lottery_ERC20_disposable.sol\":2365:2385  i < _numberOfTickets */\n      lt\n        /* \"contracts/Lottery_ERC20_disposable.sol\":2348:2441  for (uint i = 0; i < _numberOfTickets; i++) {... */\n      iszero\n      tag_166\n      jumpi\n        /* \"contracts/Lottery_ERC20_disposable.sol\":2406:2413  players */\n      0x08\n        /* \"contracts/Lottery_ERC20_disposable.sol\":2406:2430  players.push(msg.sender) */\n      dup1\n      sload\n      0x01\n      dup2\n      add\n      dup3\n      sstore\n      0x00\n      swap2\n      swap1\n      swap2\n      mstore\n      0xf3f7a9fe364faab93b216da50a3214154f22a0a2b415b23a84c8169e8b636ee3\n      add\n      dup1\n      sload\n      not(sub(shl(0xa0, 0x01), 0x01))\n      and\n        /* \"contracts/Lottery_ERC20_disposable.sol\":2419:2429  msg.sender */\n      caller\n        /* \"contracts/Lottery_ERC20_disposable.sol\":2406:2430  players.push(msg.sender) */\n      or\n      swap1\n      sstore\n        /* \"contracts/Lottery_ERC20_disposable.sol\":2387:2390  i++ */\n      dup1\n      tag_169\n      dup2\n      tag_170\n      jump\t// in\n    tag_169:\n      swap2\n      pop\n      pop\n        /* \"contracts/Lottery_ERC20_disposable.sol\":2348:2441  for (uint i = 0; i < _numberOfTickets; i++) {... */\n      jump(tag_165)\n    tag_166:\n      pop\n        /* \"contracts/Lottery_ERC20_disposable.sol\":2455:2489  Sell(msg.sender, _numberOfTickets) */\n      0x40\n      dup1\n      mload\n        /* \"contracts/Lottery_ERC20_disposable.sol\":2460:2470  msg.sender */\n      caller\n        /* \"#utility.yul\":2059:2110   */\n      dup2\n      mstore\n        /* \"#utility.yul\":2141:2143   */\n      0x20\n        /* \"#utility.yul\":2126:2144   */\n      dup2\n      add\n        /* \"#utility.yul\":2119:2153   */\n      dup5\n      swap1\n      mstore\n        /* \"contracts/Lottery_ERC20_disposable.sol\":2455:2489  Sell(msg.sender, _numberOfTickets) */\n      0x5e5e995ce3133561afceaa51a9a154d5db228cd7525d34df5185582c18d3df09\n      swap2\n        /* \"#utility.yul\":2032:2050   */\n      add\n        /* \"contracts/Lottery_ERC20_disposable.sol\":2455:2489  Sell(msg.sender, _numberOfTickets) */\n      mload(0x40)\n      dup1\n      swap2\n      sub\n      swap1\n      log1\n        /* \"contracts/Lottery_ERC20_disposable.sol\":1927:2496  {... */\n      pop\n        /* \"contracts/Lottery_ERC20_disposable.sol\":1867:2496  function buyTicket(uint256 _numberOfTickets) public payable {... */\n      pop\n      jump\t// out\n        /* \"contracts/Lottery_ERC20_disposable.sol\":139:160  string  public symbol */\n    tag_87:\n      0x01\n      dup1\n      sload\n      tag_116\n      swap1\n      tag_117\n      jump\t// in\n        /* \"contracts/Lottery_ERC20_disposable.sol\":3378:3657  function transfer(address _to, uint256 _value) public returns (bool success) {... */\n    tag_92:\n        /* \"contracts/Lottery_ERC20_disposable.sol\":3483:3493  msg.sender */\n      caller\n        /* \"contracts/Lottery_ERC20_disposable.sol\":3441:3453  bool success */\n      0x00\n        /* \"contracts/Lottery_ERC20_disposable.sol\":3473:3494  balanceOf[msg.sender] */\n      swap1\n      dup2\n      mstore\n        /* \"contracts/Lottery_ERC20_disposable.sol\":3473:3482  balanceOf */\n      0x0e\n        /* \"contracts/Lottery_ERC20_disposable.sol\":3473:3494  balanceOf[msg.sender] */\n      0x20\n      mstore\n      0x40\n      dup2\n      keccak256\n      sload\n        /* \"contracts/Lottery_ERC20_disposable.sol\":3473:3504  balanceOf[msg.sender] >= _value */\n      dup3\n      gt\n      iszero\n        /* \"contracts/Lottery_ERC20_disposable.sol\":3465:3505  require(balanceOf[msg.sender] >= _value) */\n      tag_179\n      jumpi\n      0x00\n      dup1\n      revert\n    tag_179:\n        /* \"contracts/Lottery_ERC20_disposable.sol\":3525:3535  msg.sender */\n      caller\n        /* \"contracts/Lottery_ERC20_disposable.sol\":3515:3536  balanceOf[msg.sender] */\n      0x00\n      swap1\n      dup2\n      mstore\n        /* \"contracts/Lottery_ERC20_disposable.sol\":3515:3524  balanceOf */\n      0x0e\n        /* \"contracts/Lottery_ERC20_disposable.sol\":3515:3536  balanceOf[msg.sender] */\n      0x20\n      mstore\n      0x40\n      dup2\n      keccak256\n        /* \"contracts/Lottery_ERC20_disposable.sol\":3515:3546  balanceOf[msg.sender] -= _value */\n      dup1\n      sload\n        /* \"contracts/Lottery_ERC20_disposable.sol\":3540:3546  _value */\n      dup5\n      swap3\n        /* \"contracts/Lottery_ERC20_disposable.sol\":3515:3536  balanceOf[msg.sender] */\n      swap1\n        /* \"contracts/Lottery_ERC20_disposable.sol\":3515:3546  balanceOf[msg.sender] -= _value */\n      tag_180\n      swap1\n        /* \"contracts/Lottery_ERC20_disposable.sol\":3540:3546  _value */\n      dup5\n      swap1\n        /* \"contracts/Lottery_ERC20_disposable.sol\":3515:3546  balanceOf[msg.sender] -= _value */\n      tag_132\n      jump\t// in\n    tag_180:\n      swap1\n      swap2\n      sstore\n      pop\n      pop\n      sub(shl(0xa0, 0x01), 0x01)\n        /* \"contracts/Lottery_ERC20_disposable.sol\":3556:3570  balanceOf[_to] */\n      dup4\n      and\n      0x00\n      swap1\n      dup2\n      mstore\n        /* \"contracts/Lottery_ERC20_disposable.sol\":3556:3565  balanceOf */\n      0x0e\n        /* \"contracts/Lottery_ERC20_disposable.sol\":3556:3570  balanceOf[_to] */\n      0x20\n      mstore\n      0x40\n      dup2\n      keccak256\n        /* \"contracts/Lottery_ERC20_disposable.sol\":3556:3580  balanceOf[_to] += _value */\n      dup1\n      sload\n        /* \"contracts/Lottery_ERC20_disposable.sol\":3574:3580  _value */\n      dup5\n      swap3\n        /* \"contracts/Lottery_ERC20_disposable.sol\":3556:3570  balanceOf[_to] */\n      swap1\n        /* \"contracts/Lottery_ERC20_disposable.sol\":3556:3580  balanceOf[_to] += _value */\n      tag_181\n      swap1\n        /* \"contracts/Lottery_ERC20_disposable.sol\":3574:3580  _value */\n      dup5\n      swap1\n        /* \"contracts/Lottery_ERC20_disposable.sol\":3556:3580  balanceOf[_to] += _value */\n      tag_134\n      jump\t// in\n    tag_181:\n      swap1\n      swap2\n      sstore\n      pop\n      pop\n        /* \"contracts/Lottery_ERC20_disposable.sol\":3595:3628  Transfer(msg.sender, _to, _value) */\n      mload(0x40)\n        /* \"#utility.yul\":5198:5223   */\n      dup3\n      dup2\n      mstore\n      sub(shl(0xa0, 0x01), 0x01)\n        /* \"contracts/Lottery_ERC20_disposable.sol\":3595:3628  Transfer(msg.sender, _to, _value) */\n      dup5\n      and\n      swap1\n        /* \"contracts/Lottery_ERC20_disposable.sol\":3604:3614  msg.sender */\n      caller\n      swap1\n        /* \"contracts/Lottery_ERC20_disposable.sol\":3595:3628  Transfer(msg.sender, _to, _value) */\n      0xddf252ad1be2c89b69c2b068fc378daa952ba7f163c4a11628f55a4df523b3ef\n      swap1\n        /* \"#utility.yul\":5186:5188   */\n      0x20\n        /* \"#utility.yul\":5171:5189   */\n      add\n        /* \"contracts/Lottery_ERC20_disposable.sol\":3595:3628  Transfer(msg.sender, _to, _value) */\n      tag_123\n        /* \"#utility.yul\":5052:5229   */\n      jump\n        /* \"contracts/Lottery_ERC20_disposable.sol\":2502:2901  function letsPlayTheGame() public {... */\n    tag_115:\n        /* \"contracts/Lottery_ERC20_disposable.sol\":2609:2620  totalSupply */\n      sload(0x03)\n        /* \"contracts/Lottery_ERC20_disposable.sol\":2595:2605  ticketSold */\n      sload(0x0d)\n        /* \"contracts/Lottery_ERC20_disposable.sol\":2561:2576  block.timestamp */\n      timestamp\n      swap2\n        /* \"contracts/Lottery_ERC20_disposable.sol\":2595:2620  ticketSold == totalSupply */\n      eq\n      dup1\n        /* \"contracts/Lottery_ERC20_disposable.sol\":2594:2684  (ticketSold == totalSupply) || ((ticketSold >= soldTicketLimit) && (nowTime >= limitTime)) */\n      tag_185\n      jumpi\n      pop\n        /* \"contracts/Lottery_ERC20_disposable.sol\":2641:2656  soldTicketLimit */\n      sload(0x0c)\n        /* \"contracts/Lottery_ERC20_disposable.sol\":2627:2637  ticketSold */\n      sload(0x0d)\n        /* \"contracts/Lottery_ERC20_disposable.sol\":2627:2656  ticketSold >= soldTicketLimit */\n      lt\n      iszero\n        /* \"contracts/Lottery_ERC20_disposable.sol\":2626:2683  (ticketSold >= soldTicketLimit) && (nowTime >= limitTime) */\n      dup1\n      iszero\n      tag_185\n      jumpi\n      pop\n        /* \"contracts/Lottery_ERC20_disposable.sol\":2673:2682  limitTime */\n      sload(0x0b)\n        /* \"contracts/Lottery_ERC20_disposable.sol\":2662:2669  nowTime */\n      dup2\n        /* \"contracts/Lottery_ERC20_disposable.sol\":2662:2682  nowTime >= limitTime */\n      lt\n      iszero\n        /* \"contracts/Lottery_ERC20_disposable.sol\":2626:2683  (ticketSold >= soldTicketLimit) && (nowTime >= limitTime) */\n    tag_185:\n        /* \"contracts/Lottery_ERC20_disposable.sol\":2586:2685  require((ticketSold == totalSupply) || ((ticketSold >= soldTicketLimit) && (nowTime >= limitTime))) */\n      tag_186\n      jumpi\n      0x00\n      dup1\n      revert\n    tag_186:\n        /* \"contracts/Lottery_ERC20_disposable.sol\":2710:2717  players */\n      0x08\n        /* \"contracts/Lottery_ERC20_disposable.sol\":2725:2739  players.length */\n      dup1\n      sload\n        /* \"contracts/Lottery_ERC20_disposable.sol\":2718:2740  random(players.length) */\n      tag_187\n      swap1\n        /* \"contracts/Lottery_ERC20_disposable.sol\":2718:2724  random */\n      tag_188\n        /* \"contracts/Lottery_ERC20_disposable.sol\":2718:2740  random(players.length) */\n      jump\t// in\n    tag_187:\n        /* \"contracts/Lottery_ERC20_disposable.sol\":2710:2741  players[random(players.length)] */\n      dup2\n      sload\n      dup2\n      lt\n      tag_190\n      jumpi\n      tag_190\n      tag_191\n      jump\t// in\n    tag_190:\n      0x00\n      swap2\n      dup3\n      mstore\n      0x20\n      swap2\n      dup3\n      swap1\n      keccak256\n      add\n      sload\n        /* \"contracts/Lottery_ERC20_disposable.sol\":2701:2707  winner */\n      0x04\n        /* \"contracts/Lottery_ERC20_disposable.sol\":2701:2741  winner = players[random(players.length)] */\n      dup1\n      sload\n      not(sub(shl(0xa0, 0x01), 0x01))\n      and\n      sub(shl(0xa0, 0x01), 0x01)\n        /* \"contracts/Lottery_ERC20_disposable.sol\":2710:2741  players[random(players.length)] */\n      swap1\n      swap3\n      and\n        /* \"contracts/Lottery_ERC20_disposable.sol\":2701:2741  winner = players[random(players.length)] */\n      swap2\n      dup3\n      or\n      swap1\n      sstore\n        /* \"contracts/Lottery_ERC20_disposable.sol\":2757:2778  WeHaveAWinner(winner) */\n      mload(0x40)\n        /* \"#utility.yul\":1823:1874   */\n      swap1\n      dup2\n      mstore\n        /* \"contracts/Lottery_ERC20_disposable.sol\":2757:2778  WeHaveAWinner(winner) */\n      0x10233db257888c60414333eee11dab8e8dabaf552466002fee253e03615db1d1\n      swap2\n        /* \"#utility.yul\":1796:1814   */\n      add\n        /* \"contracts/Lottery_ERC20_disposable.sol\":2757:2778  WeHaveAWinner(winner) */\n      mload(0x40)\n      dup1\n      swap2\n      sub\n      swap1\n      log1\n        /* \"contracts/Lottery_ERC20_disposable.sol\":2819:2838  1000000000000000000 */\n      0x0de0b6b3a7640000\n        /* \"contracts/Lottery_ERC20_disposable.sol\":2805:2816  ticketPrice */\n      sload(0x05)\n        /* \"contracts/Lottery_ERC20_disposable.sol\":2805:2838  ticketPrice / 1000000000000000000 */\n      tag_194\n      swap2\n      swap1\n      tag_195\n      jump\t// in\n    tag_194:\n        /* \"contracts/Lottery_ERC20_disposable.sol\":2788:2802  ticketPriceEth */\n      0x06\n        /* \"contracts/Lottery_ERC20_disposable.sol\":2788:2838  ticketPriceEth = ticketPrice / 1000000000000000000 */\n      sstore\n        /* \"contracts/Lottery_ERC20_disposable.sol\":2856:2861  admin */\n      sload(0x07)\n        /* \"contracts/Lottery_ERC20_disposable.sol\":2848:2894  payable(admin).transfer(address(this).balance) */\n      mload(0x40)\n      sub(shl(0xa0, 0x01), 0x01)\n        /* \"contracts/Lottery_ERC20_disposable.sol\":2856:2861  admin */\n      swap1\n      swap2\n      and\n      swap1\n        /* \"contracts/Lottery_ERC20_disposable.sol\":2872:2893  address(this).balance */\n      selfbalance\n        /* \"contracts/Lottery_ERC20_disposable.sol\":2848:2894  payable(admin).transfer(address(this).balance) */\n      dup1\n      iszero\n      0x08fc\n      mul\n      swap2\n        /* \"contracts/Lottery_ERC20_disposable.sol\":2856:2861  admin */\n      0x00\n        /* \"contracts/Lottery_ERC20_disposable.sol\":2848:2894  payable(admin).transfer(address(this).balance) */\n      dup2\n        /* \"contracts/Lottery_ERC20_disposable.sol\":2856:2861  admin */\n      dup2\n        /* \"contracts/Lottery_ERC20_disposable.sol\":2848:2894  payable(admin).transfer(address(this).balance) */\n      dup2\n        /* \"contracts/Lottery_ERC20_disposable.sol\":2872:2893  address(this).balance */\n      dup6\n        /* \"contracts/Lottery_ERC20_disposable.sol\":2856:2861  admin */\n      dup9\n        /* \"contracts/Lottery_ERC20_disposable.sol\":2848:2894  payable(admin).transfer(address(this).balance) */\n      dup9\n      call\n      swap4\n      pop\n      pop\n      pop\n      pop\n      iszero\n      dup1\n      iszero\n      tag_145\n      jumpi\n      returndatasize\n      0x00\n      dup1\n      returndatacopy\n      revert(0x00, returndatasize)\n        /* \"contracts/Lottery_ERC20_disposable.sol\":1740:1861  function multiply(uint x, uint y) internal pure returns (uint z) {... */\n    tag_156:\n        /* \"contracts/Lottery_ERC20_disposable.sol\":1797:1803  uint z */\n      0x00\n        /* \"contracts/Lottery_ERC20_disposable.sol\":1823:1829  y == 0 */\n      dup2\n      iszero\n      dup1\n        /* \"contracts/Lottery_ERC20_disposable.sol\":1823:1853  y == 0 || (z = x * y) / y == x */\n      tag_199\n      jumpi\n      pop\n        /* \"contracts/Lottery_ERC20_disposable.sol\":1852:1853  x */\n      dup3\n        /* \"contracts/Lottery_ERC20_disposable.sol\":1847:1848  y */\n      dup3\n        /* \"contracts/Lottery_ERC20_disposable.sol\":1838:1843  x * y */\n      tag_200\n        /* \"contracts/Lottery_ERC20_disposable.sol\":1847:1848  y */\n      dup2\n        /* \"contracts/Lottery_ERC20_disposable.sol\":1852:1853  x */\n      dup4\n        /* \"contracts/Lottery_ERC20_disposable.sol\":1838:1843  x * y */\n      tag_143\n      jump\t// in\n    tag_200:\n        /* \"contracts/Lottery_ERC20_disposable.sol\":1834:1843  z = x * y */\n      swap3\n      pop\n        /* \"contracts/Lottery_ERC20_disposable.sol\":1833:1848  (z = x * y) / y */\n      tag_201\n      swap1\n        /* \"contracts/Lottery_ERC20_disposable.sol\":1834:1843  z = x * y */\n      dup4\n        /* \"contracts/Lottery_ERC20_disposable.sol\":1833:1848  (z = x * y) / y */\n      tag_195\n      jump\t// in\n    tag_201:\n        /* \"contracts/Lottery_ERC20_disposable.sol\":1833:1853  (z = x * y) / y == x */\n      eq\n        /* \"contracts/Lottery_ERC20_disposable.sol\":1823:1853  y == 0 || (z = x * y) / y == x */\n    tag_199:\n        /* \"contracts/Lottery_ERC20_disposable.sol\":1815:1854  require(y == 0 || (z = x * y) / y == x) */\n      tag_122\n      jumpi\n      0x00\n      dup1\n      revert\n        /* \"contracts/Lottery_ERC20_disposable.sol\":3164:3347  function random(uint256 _playersCount) private view returns (uint256) {... */\n    tag_188:\n        /* \"contracts/Lottery_ERC20_disposable.sol\":3225:3232  uint256 */\n      0x00\n        /* \"contracts/Lottery_ERC20_disposable.sol\":3324:3339  _playersCount-1 */\n      tag_204\n        /* \"contracts/Lottery_ERC20_disposable.sol\":3338:3339  1 */\n      0x01\n        /* \"contracts/Lottery_ERC20_disposable.sol\":3324:3337  _playersCount */\n      dup4\n        /* \"contracts/Lottery_ERC20_disposable.sol\":3324:3339  _playersCount-1 */\n      tag_132\n      jump\t// in\n    tag_204:\n        /* \"contracts/Lottery_ERC20_disposable.sol\":3269:3320  abi.encodePacked(block.timestamp, block.difficulty) */\n      0x40\n      dup1\n      mload\n        /* \"contracts/Lottery_ERC20_disposable.sol\":3286:3301  block.timestamp */\n      timestamp\n        /* \"contracts/Lottery_ERC20_disposable.sol\":3269:3320  abi.encodePacked(block.timestamp, block.difficulty) */\n      0x20\n      dup3\n      add\n        /* \"#utility.yul\":1582:1601   */\n      mstore\n        /* \"contracts/Lottery_ERC20_disposable.sol\":3303:3319  block.difficulty */\n      difficulty\n        /* \"#utility.yul\":1617:1629   */\n      swap2\n      dup2\n      add\n        /* \"#utility.yul\":1610:1638   */\n      swap2\n      swap1\n      swap2\n      mstore\n        /* \"#utility.yul\":1654:1666   */\n      0x60\n      add\n        /* \"contracts/Lottery_ERC20_disposable.sol\":3269:3320  abi.encodePacked(block.timestamp, block.difficulty) */\n      mload(0x40)\n      0x20\n      dup2\n      dup4\n      sub\n      sub\n      dup2\n      mstore\n      swap1\n      0x40\n      mstore\n        /* \"contracts/Lottery_ERC20_disposable.sol\":3259:3321  keccak256(abi.encodePacked(block.timestamp, block.difficulty)) */\n      dup1\n      mload\n      swap1\n      0x20\n      add\n      keccak256\n        /* \"contracts/Lottery_ERC20_disposable.sol\":3251:3322  uint256(keccak256(abi.encodePacked(block.timestamp, block.difficulty))) */\n      0x00\n      shr\n        /* \"contracts/Lottery_ERC20_disposable.sol\":3251:3340  uint256(keccak256(abi.encodePacked(block.timestamp, block.difficulty)))%(_playersCount-1) */\n      tag_122\n      swap2\n      swap1\n      tag_208\n      jump\t// in\n        /* \"#utility.yul\":14:187   */\n    tag_210:\n        /* \"#utility.yul\":82:102   */\n      dup1\n      calldataload\n      sub(shl(0xa0, 0x01), 0x01)\n        /* \"#utility.yul\":131:162   */\n      dup2\n      and\n        /* \"#utility.yul\":121:163   */\n      dup2\n      eq\n        /* \"#utility.yul\":111:181   */\n      tag_212\n      jumpi\n        /* \"#utility.yul\":177:178   */\n      0x00\n        /* \"#utility.yul\":174:175   */\n      dup1\n        /* \"#utility.yul\":167:179   */\n      revert\n        /* \"#utility.yul\":111:181   */\n    tag_212:\n        /* \"#utility.yul\":14:187   */\n      swap2\n      swap1\n      pop\n      jump\t// out\n        /* \"#utility.yul\":192:378   */\n    tag_74:\n        /* \"#utility.yul\":251:257   */\n      0x00\n        /* \"#utility.yul\":304:306   */\n      0x20\n        /* \"#utility.yul\":292:301   */\n      dup3\n        /* \"#utility.yul\":283:290   */\n      dup5\n        /* \"#utility.yul\":279:302   */\n      sub\n        /* \"#utility.yul\":275:307   */\n      slt\n        /* \"#utility.yul\":272:324   */\n      iszero\n      tag_214\n      jumpi\n        /* \"#utility.yul\":320:321   */\n      0x00\n        /* \"#utility.yul\":317:318   */\n      dup1\n        /* \"#utility.yul\":310:322   */\n      revert\n        /* \"#utility.yul\":272:324   */\n    tag_214:\n        /* \"#utility.yul\":343:372   */\n      tag_215\n        /* \"#utility.yul\":362:371   */\n      dup3\n        /* \"#utility.yul\":343:372   */\n      tag_210\n      jump\t// in\n    tag_215:\n        /* \"#utility.yul\":333:372   */\n      swap4\n        /* \"#utility.yul\":192:378   */\n      swap3\n      pop\n      pop\n      pop\n      jump\t// out\n        /* \"#utility.yul\":383:643   */\n    tag_105:\n        /* \"#utility.yul\":451:457   */\n      0x00\n        /* \"#utility.yul\":459:465   */\n      dup1\n        /* \"#utility.yul\":512:514   */\n      0x40\n        /* \"#utility.yul\":500:509   */\n      dup4\n        /* \"#utility.yul\":491:498   */\n      dup6\n        /* \"#utility.yul\":487:510   */\n      sub\n        /* \"#utility.yul\":483:515   */\n      slt\n        /* \"#utility.yul\":480:532   */\n      iszero\n      tag_217\n      jumpi\n        /* \"#utility.yul\":528:529   */\n      0x00\n        /* \"#utility.yul\":525:526   */\n      dup1\n        /* \"#utility.yul\":518:530   */\n      revert\n        /* \"#utility.yul\":480:532   */\n    tag_217:\n        /* \"#utility.yul\":551:580   */\n      tag_218\n        /* \"#utility.yul\":570:579   */\n      dup4\n        /* \"#utility.yul\":551:580   */\n      tag_210\n      jump\t// in\n    tag_218:\n        /* \"#utility.yul\":541:580   */\n      swap2\n      pop\n        /* \"#utility.yul\":599:637   */\n      tag_219\n        /* \"#utility.yul\":633:635   */\n      0x20\n        /* \"#utility.yul\":622:631   */\n      dup5\n        /* \"#utility.yul\":618:636   */\n      add\n        /* \"#utility.yul\":599:637   */\n      tag_210\n      jump\t// in\n    tag_219:\n        /* \"#utility.yul\":589:637   */\n      swap1\n      pop\n        /* \"#utility.yul\":383:643   */\n      swap3\n      pop\n      swap3\n      swap1\n      pop\n      jump\t// out\n        /* \"#utility.yul\":648:976   */\n    tag_49:\n        /* \"#utility.yul\":725:731   */\n      0x00\n        /* \"#utility.yul\":733:739   */\n      dup1\n        /* \"#utility.yul\":741:747   */\n      0x00\n        /* \"#utility.yul\":794:796   */\n      0x60\n        /* \"#utility.yul\":782:791   */\n      dup5\n        /* \"#utility.yul\":773:780   */\n      dup7\n        /* \"#utility.yul\":769:792   */\n      sub\n        /* \"#utility.yul\":765:797   */\n      slt\n        /* \"#utility.yul\":762:814   */\n      iszero\n      tag_221\n      jumpi\n        /* \"#utility.yul\":810:811   */\n      0x00\n        /* \"#utility.yul\":807:808   */\n      dup1\n        /* \"#utility.yul\":800:812   */\n      revert\n        /* \"#utility.yul\":762:814   */\n    tag_221:\n        /* \"#utility.yul\":833:862   */\n      tag_222\n        /* \"#utility.yul\":852:861   */\n      dup5\n        /* \"#utility.yul\":833:862   */\n      tag_210\n      jump\t// in\n    tag_222:\n        /* \"#utility.yul\":823:862   */\n      swap3\n      pop\n        /* \"#utility.yul\":881:919   */\n      tag_223\n        /* \"#utility.yul\":915:917   */\n      0x20\n        /* \"#utility.yul\":904:913   */\n      dup6\n        /* \"#utility.yul\":900:918   */\n      add\n        /* \"#utility.yul\":881:919   */\n      tag_210\n      jump\t// in\n    tag_223:\n        /* \"#utility.yul\":871:919   */\n      swap2\n      pop\n        /* \"#utility.yul\":966:968   */\n      0x40\n        /* \"#utility.yul\":955:964   */\n      dup5\n        /* \"#utility.yul\":951:969   */\n      add\n        /* \"#utility.yul\":938:970   */\n      calldataload\n        /* \"#utility.yul\":928:970   */\n      swap1\n      pop\n        /* \"#utility.yul\":648:976   */\n      swap3\n      pop\n      swap3\n      pop\n      swap3\n      jump\t// out\n        /* \"#utility.yul\":981:1235   */\n    tag_33:\n        /* \"#utility.yul\":1049:1055   */\n      0x00\n        /* \"#utility.yul\":1057:1063   */\n      dup1\n        /* \"#utility.yul\":1110:1112   */\n      0x40\n        /* \"#utility.yul\":1098:1107   */\n      dup4\n        /* \"#utility.yul\":1089:1096   */\n      dup6\n        /* \"#utility.yul\":1085:1108   */\n      sub\n        /* \"#utility.yul\":1081:1113   */\n      slt\n        /* \"#utility.yul\":1078:1130   */\n      iszero\n      tag_225\n      jumpi\n        /* \"#utility.yul\":1126:1127   */\n      0x00\n        /* \"#utility.yul\":1123:1124   */\n      dup1\n        /* \"#utility.yul\":1116:1128   */\n      revert\n        /* \"#utility.yul\":1078:1130   */\n    tag_225:\n        /* \"#utility.yul\":1149:1178   */\n      tag_226\n        /* \"#utility.yul\":1168:1177   */\n      dup4\n        /* \"#utility.yul\":1149:1178   */\n      tag_210\n      jump\t// in\n    tag_226:\n        /* \"#utility.yul\":1139:1178   */\n      swap5\n        /* \"#utility.yul\":1225:1227   */\n      0x20\n        /* \"#utility.yul\":1210:1228   */\n      swap4\n      swap1\n      swap4\n      add\n        /* \"#utility.yul\":1197:1229   */\n      calldataload\n      swap4\n      pop\n      pop\n      pop\n        /* \"#utility.yul\":981:1235   */\n      jump\t// out\n        /* \"#utility.yul\":1240:1420   */\n    tag_69:\n        /* \"#utility.yul\":1299:1305   */\n      0x00\n        /* \"#utility.yul\":1352:1354   */\n      0x20\n        /* \"#utility.yul\":1340:1349   */\n      dup3\n        /* \"#utility.yul\":1331:1338   */\n      dup5\n        /* \"#utility.yul\":1327:1350   */\n      sub\n        /* \"#utility.yul\":1323:1355   */\n      slt\n        /* \"#utility.yul\":1320:1372   */\n      iszero\n      tag_228\n      jumpi\n        /* \"#utility.yul\":1368:1369   */\n      0x00\n        /* \"#utility.yul\":1365:1366   */\n      dup1\n        /* \"#utility.yul\":1358:1370   */\n      revert\n        /* \"#utility.yul\":1320:1372   */\n    tag_228:\n      pop\n        /* \"#utility.yul\":1391:1414   */\n      calldataload\n      swap2\n        /* \"#utility.yul\":1240:1420   */\n      swap1\n      pop\n      jump\t// out\n        /* \"#utility.yul\":2356:2953   */\n    tag_29:\n        /* \"#utility.yul\":2468:2472   */\n      0x00\n        /* \"#utility.yul\":2497:2499   */\n      0x20\n        /* \"#utility.yul\":2526:2528   */\n      dup1\n        /* \"#utility.yul\":2515:2524   */\n      dup4\n        /* \"#utility.yul\":2508:2529   */\n      mstore\n        /* \"#utility.yul\":2558:2564   */\n      dup4\n        /* \"#utility.yul\":2552:2565   */\n      mload\n        /* \"#utility.yul\":2601:2607   */\n      dup1\n        /* \"#utility.yul\":2596:2598   */\n      dup3\n        /* \"#utility.yul\":2585:2594   */\n      dup6\n        /* \"#utility.yul\":2581:2599   */\n      add\n        /* \"#utility.yul\":2574:2608   */\n      mstore\n        /* \"#utility.yul\":2626:2627   */\n      0x00\n        /* \"#utility.yul\":2636:2776   */\n    tag_234:\n        /* \"#utility.yul\":2650:2656   */\n      dup2\n        /* \"#utility.yul\":2647:2648   */\n      dup2\n        /* \"#utility.yul\":2644:2657   */\n      lt\n        /* \"#utility.yul\":2636:2776   */\n      iszero\n      tag_236\n      jumpi\n        /* \"#utility.yul\":2745:2759   */\n      dup6\n      dup2\n      add\n        /* \"#utility.yul\":2741:2764   */\n      dup4\n      add\n        /* \"#utility.yul\":2735:2765   */\n      mload\n        /* \"#utility.yul\":2711:2728   */\n      dup6\n      dup3\n      add\n        /* \"#utility.yul\":2730:2732   */\n      0x40\n        /* \"#utility.yul\":2707:2733   */\n      add\n        /* \"#utility.yul\":2700:2766   */\n      mstore\n        /* \"#utility.yul\":2665:2675   */\n      dup3\n      add\n        /* \"#utility.yul\":2636:2776   */\n      jump(tag_234)\n    tag_236:\n        /* \"#utility.yul\":2794:2800   */\n      dup2\n        /* \"#utility.yul\":2791:2792   */\n      dup2\n        /* \"#utility.yul\":2788:2801   */\n      gt\n        /* \"#utility.yul\":2785:2876   */\n      iszero\n      tag_237\n      jumpi\n        /* \"#utility.yul\":2864:2865   */\n      0x00\n        /* \"#utility.yul\":2859:2861   */\n      0x40\n        /* \"#utility.yul\":2850:2856   */\n      dup4\n        /* \"#utility.yul\":2839:2848   */\n      dup8\n        /* \"#utility.yul\":2835:2857   */\n      add\n        /* \"#utility.yul\":2831:2862   */\n      add\n        /* \"#utility.yul\":2824:2866   */\n      mstore\n        /* \"#utility.yul\":2785:2876   */\n    tag_237:\n      pop\n        /* \"#utility.yul\":2937:2939   */\n      0x1f\n        /* \"#utility.yul\":2916:2931   */\n      add\n      not(0x1f)\n        /* \"#utility.yul\":2912:2941   */\n      and\n        /* \"#utility.yul\":2897:2942   */\n      swap3\n      swap1\n      swap3\n      add\n        /* \"#utility.yul\":2944:2946   */\n      0x40\n        /* \"#utility.yul\":2893:2947   */\n      add\n      swap4\n        /* \"#utility.yul\":2356:2953   */\n      swap3\n      pop\n      pop\n      pop\n      jump\t// out\n        /* \"#utility.yul\":5234:5362   */\n    tag_134:\n        /* \"#utility.yul\":5274:5277   */\n      0x00\n        /* \"#utility.yul\":5305:5306   */\n      dup3\n        /* \"#utility.yul\":5301:5307   */\n      not\n        /* \"#utility.yul\":5298:5299   */\n      dup3\n        /* \"#utility.yul\":5295:5308   */\n      gt\n        /* \"#utility.yul\":5292:5331   */\n      iszero\n      tag_247\n      jumpi\n        /* \"#utility.yul\":5311:5329   */\n      tag_247\n      tag_248\n      jump\t// in\n    tag_247:\n      pop\n        /* \"#utility.yul\":5347:5356   */\n      add\n      swap1\n        /* \"#utility.yul\":5234:5362   */\n      jump\t// out\n        /* \"#utility.yul\":5367:5487   */\n    tag_195:\n        /* \"#utility.yul\":5407:5408   */\n      0x00\n        /* \"#utility.yul\":5433:5434   */\n      dup3\n        /* \"#utility.yul\":5423:5458   */\n      tag_251\n      jumpi\n        /* \"#utility.yul\":5438:5456   */\n      tag_251\n      tag_252\n      jump\t// in\n    tag_251:\n      pop\n        /* \"#utility.yul\":5472:5481   */\n      div\n      swap1\n        /* \"#utility.yul\":5367:5487   */\n      jump\t// out\n        /* \"#utility.yul\":5492:5660   */\n    tag_143:\n        /* \"#utility.yul\":5532:5539   */\n      0x00\n        /* \"#utility.yul\":5598:5599   */\n      dup2\n        /* \"#utility.yul\":5594:5595   */\n      0x00\n        /* \"#utility.yul\":5590:5596   */\n      not\n        /* \"#utility.yul\":5586:5600   */\n      div\n        /* \"#utility.yul\":5583:5584   */\n      dup4\n        /* \"#utility.yul\":5580:5601   */\n      gt\n        /* \"#utility.yul\":5575:5576   */\n      dup3\n        /* \"#utility.yul\":5568:5577   */\n      iszero\n        /* \"#utility.yul\":5561:5578   */\n      iszero\n        /* \"#utility.yul\":5557:5602   */\n      and\n        /* \"#utility.yul\":5554:5625   */\n      iszero\n      tag_255\n      jumpi\n        /* \"#utility.yul\":5605:5623   */\n      tag_255\n      tag_248\n      jump\t// in\n    tag_255:\n      pop\n        /* \"#utility.yul\":5645:5654   */\n      mul\n      swap1\n        /* \"#utility.yul\":5492:5660   */\n      jump\t// out\n        /* \"#utility.yul\":5665:5790   */\n    tag_132:\n        /* \"#utility.yul\":5705:5709   */\n      0x00\n        /* \"#utility.yul\":5733:5734   */\n      dup3\n        /* \"#utility.yul\":5730:5731   */\n      dup3\n        /* \"#utility.yul\":5727:5735   */\n      lt\n        /* \"#utility.yul\":5724:5758   */\n      iszero\n      tag_258\n      jumpi\n        /* \"#utility.yul\":5738:5756   */\n      tag_258\n      tag_248\n      jump\t// in\n    tag_258:\n      pop\n        /* \"#utility.yul\":5775:5784   */\n      sub\n      swap1\n        /* \"#utility.yul\":5665:5790   */\n      jump\t// out\n        /* \"#utility.yul\":5795:6175   */\n    tag_117:\n        /* \"#utility.yul\":5874:5875   */\n      0x01\n        /* \"#utility.yul\":5870:5882   */\n      dup2\n      dup2\n      shr\n      swap1\n        /* \"#utility.yul\":5917:5929   */\n      dup3\n      and\n      dup1\n        /* \"#utility.yul\":5938:5999   */\n      tag_260\n      jumpi\n        /* \"#utility.yul\":5992:5996   */\n      0x7f\n        /* \"#utility.yul\":5984:5990   */\n      dup3\n        /* \"#utility.yul\":5980:5997   */\n      and\n        /* \"#utility.yul\":5970:5997   */\n      swap2\n      pop\n        /* \"#utility.yul\":5938:5999   */\n    tag_260:\n        /* \"#utility.yul\":6045:6047   */\n      0x20\n        /* \"#utility.yul\":6037:6043   */\n      dup3\n        /* \"#utility.yul\":6034:6048   */\n      lt\n        /* \"#utility.yul\":6014:6032   */\n      dup2\n        /* \"#utility.yul\":6011:6049   */\n      eq\n        /* \"#utility.yul\":6008:6169   */\n      iszero\n      tag_261\n      jumpi\n        /* \"#utility.yul\":6091:6101   */\n      0x4e487b71\n        /* \"#utility.yul\":6086:6089   */\n      0xe0\n        /* \"#utility.yul\":6082:6102   */\n      shl\n        /* \"#utility.yul\":6079:6080   */\n      0x00\n        /* \"#utility.yul\":6072:6103   */\n      mstore\n        /* \"#utility.yul\":6126:6130   */\n      0x22\n        /* \"#utility.yul\":6123:6124   */\n      0x04\n        /* \"#utility.yul\":6116:6131   */\n      mstore\n        /* \"#utility.yul\":6154:6158   */\n      0x24\n        /* \"#utility.yul\":6151:6152   */\n      0x00\n        /* \"#utility.yul\":6144:6159   */\n      revert\n        /* \"#utility.yul\":6008:6169   */\n    tag_261:\n      pop\n        /* \"#utility.yul\":5795:6175   */\n      swap2\n      swap1\n      pop\n      jump\t// out\n        /* \"#utility.yul\":6180:6315   */\n    tag_170:\n        /* \"#utility.yul\":6219:6222   */\n      0x00\n      not(0x00)\n        /* \"#utility.yul\":6240:6257   */\n      dup3\n      eq\n        /* \"#utility.yul\":6237:6280   */\n      iszero\n      tag_264\n      jumpi\n        /* \"#utility.yul\":6260:6278   */\n      tag_264\n      tag_248\n      jump\t// in\n    tag_264:\n      pop\n        /* \"#utility.yul\":6307:6308   */\n      0x01\n        /* \"#utility.yul\":6296:6309   */\n      add\n      swap1\n        /* \"#utility.yul\":6180:6315   */\n      jump\t// out\n        /* \"#utility.yul\":6320:6432   */\n    tag_208:\n        /* \"#utility.yul\":6352:6353   */\n      0x00\n        /* \"#utility.yul\":6378:6379   */\n      dup3\n        /* \"#utility.yul\":6368:6403   */\n      tag_267\n      jumpi\n        /* \"#utility.yul\":6383:6401   */\n      tag_267\n      tag_252\n      jump\t// in\n    tag_267:\n      pop\n        /* \"#utility.yul\":6417:6426   */\n      mod\n      swap1\n        /* \"#utility.yul\":6320:6432   */\n      jump\t// out\n        /* \"#utility.yul\":6437:6564   */\n    tag_248:\n        /* \"#utility.yul\":6498:6508   */\n      0x4e487b71\n        /* \"#utility.yul\":6493:6496   */\n      0xe0\n        /* \"#utility.yul\":6489:6509   */\n      shl\n        /* \"#utility.yul\":6486:6487   */\n      0x00\n        /* \"#utility.yul\":6479:6510   */\n      mstore\n        /* \"#utility.yul\":6529:6533   */\n      0x11\n        /* \"#utility.yul\":6526:6527   */\n      0x04\n        /* \"#utility.yul\":6519:6534   */\n      mstore\n        /* \"#utility.yul\":6553:6557   */\n      0x24\n        /* \"#utility.yul\":6550:6551   */\n      0x00\n        /* \"#utility.yul\":6543:6558   */\n      revert\n        /* \"#utility.yul\":6569:6696   */\n    tag_252:\n        /* \"#utility.yul\":6630:6640   */\n      0x4e487b71\n        /* \"#utility.yul\":6625:6628   */\n      0xe0\n        /* \"#utility.yul\":6621:6641   */\n      shl\n        /* \"#utility.yul\":6618:6619   */\n      0x00\n        /* \"#utility.yul\":6611:6642   */\n      mstore\n        /* \"#utility.yul\":6661:6665   */\n      0x12\n        /* \"#utility.yul\":6658:6659   */\n      0x04\n        /* \"#utility.yul\":6651:6666   */\n      mstore\n        /* \"#utility.yul\":6685:6689   */\n      0x24\n        /* \"#utility.yul\":6682:6683   */\n      0x00\n        /* \"#utility.yul\":6675:6690   */\n      revert\n        /* \"#utility.yul\":6701:6828   */\n    tag_191:\n        /* \"#utility.yul\":6762:6772   */\n      0x4e487b71\n        /* \"#utility.yul\":6757:6760   */\n      0xe0\n        /* \"#utility.yul\":6753:6773   */\n      shl\n        /* \"#utility.yul\":6750:6751   */\n      0x00\n        /* \"#utility.yul\":6743:6774   */\n      mstore\n        /* \"#utility.yul\":6793:6797   */\n      0x32\n        /* \"#utility.yul\":6790:6791   */\n      0x04\n        /* \"#utility.yul\":6783:6798   */\n      mstore\n        /* \"#utility.yul\":6817:6821   */\n      0x24\n        /* \"#utility.yul\":6814:6815   */\n      0x00\n        /* \"#utility.yul\":6807:6822   */\n      revert\n\n    auxdata: 0xa2646970667358221220f4880868f124a62031bbe8d89f56959536dc8fb2506f819ce66bb74720007a1f64736f6c63430008070033\n}\n",
				"bytecode": {
					"linkReferences": {},
					"object": "60c0604052600f60808190526e0426524745f746f6b656e2076312e3608c1b60a0908152620000329160029190620000fa565b503480156200004057600080fd5b50604051620010eb380380620010eb833981016040819052620000639162000257565b600780546001600160a01b0319163317905585516200008a906000906020890190620000fa565b508451620000a0906001906020880190620000fa565b506005839055600a8281556003859055600c829055306000908152600e602052604090208590554260095554620000db906201518062000301565b600954620000ea9190620002e6565b600b55506200038c945050505050565b828054620001089062000323565b90600052602060002090601f0160209004810192826200012c576000855562000177565b82601f106200014757805160ff191683800117855562000177565b8280016001018555821562000177579182015b82811115620001775782518255916020019190600101906200015a565b506200018592915062000189565b5090565b5b808211156200018557600081556001016200018a565b600082601f830112620001b257600080fd5b81516001600160401b0380821115620001cf57620001cf62000376565b604051601f8301601f19908116603f01168101908282118183101715620001fa57620001fa62000376565b816040528381526020925086838588010111156200021757600080fd5b600091505b838210156200023b57858201830151818301840152908201906200021c565b838211156200024d5760008385830101525b9695505050505050565b60008060008060008060c087890312156200027157600080fd5b86516001600160401b03808211156200028957600080fd5b620002978a838b01620001a0565b97506020890151915080821115620002ae57600080fd5b50620002bd89828a01620001a0565b95505060408701519350606087015192506080870151915060a087015190509295509295509295565b60008219821115620002fc57620002fc62000360565b500190565b60008160001904831182151516156200031e576200031e62000360565b500290565b600181811c908216806200033857607f821691505b602082108114156200035a57634e487b7160e01b600052602260045260246000fd5b50919050565b634e487b7160e01b600052601160045260246000fd5b634e487b7160e01b600052604160045260246000fd5b610d4f806200039c6000396000f3fe60806040526004361061011f5760003560e01c806370a08231116100a0578063b3b95e3011610064578063b3b95e30146102d2578063cb8a4c5c146102e8578063dd62ed3e146102fe578063dfbf53ae14610336578063f732d3fd1461036e57600080fd5b806370a082311461024457806378e97925146102715780637bb9bc6e1461028757806395d89b411461029d578063a9059cbb146102b257600080fd5b80633e016252116100e75780633e016252146101d9578063485cc439146101ef578063520992f2146102055780635a3b7e421461021c57806367dd74ca1461023157600080fd5b806306fdde0314610124578063095ea7b31461014f5780631209b1f61461017f57806318160ddd146101a357806323b872dd146101b9575b600080fd5b34801561013057600080fd5b50610139610383565b6040516101469190610bb6565b60405180910390f35b34801561015b57600080fd5b5061016f61016a366004610b73565b610411565b6040519015158152602001610146565b34801561018b57600080fd5b5061019560055481565b604051908152602001610146565b3480156101af57600080fd5b5061019560035481565b3480156101c557600080fd5b5061016f6101d4366004610b37565b61047e565b3480156101e557600080fd5b50610195600c5481565b3480156101fb57600080fd5b50610195600d5481565b34801561021157600080fd5b5061021a610635565b005b34801561022857600080fd5b506101396106d8565b61021a61023f366004610b9d565b6106e5565b34801561025057600080fd5b5061019561025f366004610ae2565b600e6020526000908152604090205481565b34801561027d57600080fd5b5061019560095481565b34801561029357600080fd5b5061019560065481565b3480156102a957600080fd5b506101396108a4565b3480156102be57600080fd5b5061016f6102cd366004610b73565b6108b1565b3480156102de57600080fd5b50610195600b5481565b3480156102f457600080fd5b50610195600a5481565b34801561030a57600080fd5b50610195610319366004610b04565b600f60209081526000928352604080842090915290825290205481565b34801561034257600080fd5b50600454610356906001600160a01b031681565b6040516001600160a01b039091168152602001610146565b34801561037a57600080fd5b5061021a61095b565b6000805461039090610c6d565b80601f01602080910402602001604051908101604052809291908181526020018280546103bc90610c6d565b80156104095780601f106103de57610100808354040283529160200191610409565b820191906000526020600020905b8154815290600101906020018083116103ec57829003601f168201915b505050505081565b336000818152600f602090815260408083206001600160a01b038716808552925280832085905551919290917f8c5be1e5ebec7d5bd14f71427d1e84f3dd0314c0f7b2291e5b200ac8c7c3b9259061046c9086815260200190565b60405180910390a35060015b92915050565b6001600160a01b0383166000908152600e60205260408120548211156104e05760405162461bcd60e51b81526020600482015260126024820152716e6f7420656e6f756768207469636b65747360701b60448201526064015b60405180910390fd5b6001600160a01b0384166000908152600f6020908152604080832033845290915290205482111561054a5760405162461bcd60e51b81526020600482015260146024820152736e6f7420656e6f75676820616c6c6f77616e636560601b60448201526064016104d7565b6001600160a01b0384166000908152600e602052604081208054849290610572908490610c56565b90915550506001600160a01b0383166000908152600e60205260408120805484929061059f908490610c0b565b90915550506001600160a01b0384166000908152600f60209081526040808320338452909152812080548492906105d7908490610c56565b92505081905550826001600160a01b0316846001600160a01b03167fddf252ad1be2c89b69c2b068fc378daa952ba7f163c4a11628f55a4df523b3ef8460405161062391815260200190565b60405180910390a35060019392505050565b600b5442908111801561064b5750600c54600d54105b61068c5760405162461bcd60e51b8152602060048201526012602482015271151a5b59481a5cc81b9bdd081d5c081e595d60721b60448201526064016104d7565b336000818152600e60205260409020546005546108fc916106ac91610c37565b6040518115909202916000818181858888f193505050501580156106d4573d6000803e3d6000fd5b5050565b6002805461039090610c6d565b600b544290811061072e5760405162461bcd60e51b81526020600482015260136024820152722a3432903637ba3a32b93c9034b99037bb32b960691b60448201526064016104d7565b61073a82600554610a54565b34146107885760405162461bcd60e51b815260206004820152601e60248201527f4e6f7420656e6175676874206f7220746f6f206d75636820657468657273000060448201526064016104d7565b306000818152600f602090815260408083203380855292529091208490556107b191908461047e565b6107ef5760405162461bcd60e51b815260206004820152600f60248201526e1d1c985b9cd9995c8819985a5b1959608a1b60448201526064016104d7565b81600d60008282546108019190610c0b565b90915550600090505b8281101561086657600880546001810182556000919091527ff3f7a9fe364faab93b216da50a3214154f22a0a2b415b23a84c8169e8b636ee30180546001600160a01b031916331790558061085e81610ca8565b91505061080a565b5060408051338152602081018490527f5e5e995ce3133561afceaa51a9a154d5db228cd7525d34df5185582c18d3df09910160405180910390a15050565b6001805461039090610c6d565b336000908152600e60205260408120548211156108cd57600080fd5b336000908152600e6020526040812080548492906108ec908490610c56565b90915550506001600160a01b0383166000908152600e602052604081208054849290610919908490610c0b565b90915550506040518281526001600160a01b0384169033907fddf252ad1be2c89b69c2b068fc378daa952ba7f163c4a11628f55a4df523b3ef9060200161046c565b600354600d54429114806109805750600c54600d54101580156109805750600b548110155b61098957600080fd5b6008805461099690610a81565b815481106109a6576109a6610d03565b60009182526020918290200154600480546001600160a01b0319166001600160a01b0390921691821790556040519081527f10233db257888c60414333eee11dab8e8dabaf552466002fee253e03615db1d1910160405180910390a1670de0b6b3a7640000600554610a189190610c23565b6006556007546040516001600160a01b03909116904780156108fc02916000818181858888f193505050501580156106d4573d6000803e3d6000fd5b6000811580610a7857508282610a6a8183610c37565b9250610a769083610c23565b145b61047857600080fd5b6000610a8e600183610c56565b6040805142602082015244918101919091526060016040516020818303038152906040528051906020012060001c6104789190610cc3565b80356001600160a01b0381168114610add57600080fd5b919050565b600060208284031215610af457600080fd5b610afd82610ac6565b9392505050565b60008060408385031215610b1757600080fd5b610b2083610ac6565b9150610b2e60208401610ac6565b90509250929050565b600080600060608486031215610b4c57600080fd5b610b5584610ac6565b9250610b6360208501610ac6565b9150604084013590509250925092565b60008060408385031215610b8657600080fd5b610b8f83610ac6565b946020939093013593505050565b600060208284031215610baf57600080fd5b5035919050565b600060208083528351808285015260005b81811015610be357858101830151858201604001528201610bc7565b81811115610bf5576000604083870101525b50601f01601f1916929092016040019392505050565b60008219821115610c1e57610c1e610cd7565b500190565b600082610c3257610c32610ced565b500490565b6000816000190483118215151615610c5157610c51610cd7565b500290565b600082821015610c6857610c68610cd7565b500390565b600181811c90821680610c8157607f821691505b60208210811415610ca257634e487b7160e01b600052602260045260246000fd5b50919050565b6000600019821415610cbc57610cbc610cd7565b5060010190565b600082610cd257610cd2610ced565b500690565b634e487b7160e01b600052601160045260246000fd5b634e487b7160e01b600052601260045260246000fd5b634e487b7160e01b600052603260045260246000fdfea2646970667358221220f4880868f124a62031bbe8d89f56959536dc8fb2506f819ce66bb74720007a1f64736f6c63430008070033",
					"opcodes": "PUSH1 0xC0 PUSH1 0x40 MSTORE PUSH1 0xF PUSH1 0x80 DUP2 SWAP1 MSTORE PUSH15 0x426524745F746F6B656E2076312E3 PUSH1 0x8C SHL PUSH1 0xA0 SWAP1 DUP2 MSTORE PUSH3 0x32 SWAP2 PUSH1 0x2 SWAP2 SWAP1 PUSH3 0xFA JUMP JUMPDEST POP CALLVALUE DUP1 ISZERO PUSH3 0x40 JUMPI PUSH1 0x0 DUP1 REVERT JUMPDEST POP PUSH1 0x40 MLOAD PUSH3 0x10EB CODESIZE SUB DUP1 PUSH3 0x10EB DUP4 CODECOPY DUP2 ADD PUSH1 0x40 DUP2 SWAP1 MSTORE PUSH3 0x63 SWAP2 PUSH3 0x257 JUMP JUMPDEST PUSH1 0x7 DUP1 SLOAD PUSH1 0x1 PUSH1 0x1 PUSH1 0xA0 SHL SUB NOT AND CALLER OR SWAP1 SSTORE DUP6 MLOAD PUSH3 0x8A SWAP1 PUSH1 0x0 SWAP1 PUSH1 0x20 DUP10 ADD SWAP1 PUSH3 0xFA JUMP JUMPDEST POP DUP5 MLOAD PUSH3 0xA0 SWAP1 PUSH1 0x1 SWAP1 PUSH1 0x20 DUP9 ADD SWAP1 PUSH3 0xFA JUMP JUMPDEST POP PUSH1 0x5 DUP4 SWAP1 SSTORE PUSH1 0xA DUP3 DUP2 SSTORE PUSH1 0x3 DUP6 SWAP1 SSTORE PUSH1 0xC DUP3 SWAP1 SSTORE ADDRESS PUSH1 0x0 SWAP1 DUP2 MSTORE PUSH1 0xE PUSH1 0x20 MSTORE PUSH1 0x40 SWAP1 KECCAK256 DUP6 SWAP1 SSTORE TIMESTAMP PUSH1 0x9 SSTORE SLOAD PUSH3 0xDB SWAP1 PUSH3 0x15180 PUSH3 0x301 JUMP JUMPDEST PUSH1 0x9 SLOAD PUSH3 0xEA SWAP2 SWAP1 PUSH3 0x2E6 JUMP JUMPDEST PUSH1 0xB SSTORE POP PUSH3 0x38C SWAP5 POP POP POP POP POP JUMP JUMPDEST DUP3 DUP1 SLOAD PUSH3 0x108 SWAP1 PUSH3 0x323 JUMP JUMPDEST SWAP1 PUSH1 0x0 MSTORE PUSH1 0x20 PUSH1 0x0 KECCAK256 SWAP1 PUSH1 0x1F ADD PUSH1 0x20 SWAP1 DIV DUP2 ADD SWAP3 DUP3 PUSH3 0x12C JUMPI PUSH1 0x0 DUP6 SSTORE PUSH3 0x177 JUMP JUMPDEST DUP3 PUSH1 0x1F LT PUSH3 0x147 JUMPI DUP1 MLOAD PUSH1 0xFF NOT AND DUP4 DUP1 ADD OR DUP6 SSTORE PUSH3 0x177 JUMP JUMPDEST DUP3 DUP1 ADD PUSH1 0x1 ADD DUP6 SSTORE DUP3 ISZERO PUSH3 0x177 JUMPI SWAP2 DUP3 ADD JUMPDEST DUP3 DUP2 GT ISZERO PUSH3 0x177 JUMPI DUP3 MLOAD DUP3 SSTORE SWAP2 PUSH1 0x20 ADD SWAP2 SWAP1 PUSH1 0x1 ADD SWAP1 PUSH3 0x15A JUMP JUMPDEST POP PUSH3 0x185 SWAP3 SWAP2 POP PUSH3 0x189 JUMP JUMPDEST POP SWAP1 JUMP JUMPDEST JUMPDEST DUP1 DUP3 GT ISZERO PUSH3 0x185 JUMPI PUSH1 0x0 DUP2 SSTORE PUSH1 0x1 ADD PUSH3 0x18A JUMP JUMPDEST PUSH1 0x0 DUP3 PUSH1 0x1F DUP4 ADD SLT PUSH3 0x1B2 JUMPI PUSH1 0x0 DUP1 REVERT JUMPDEST DUP2 MLOAD PUSH1 0x1 PUSH1 0x1 PUSH1 0x40 SHL SUB DUP1 DUP3 GT ISZERO PUSH3 0x1CF JUMPI PUSH3 0x1CF PUSH3 0x376 JUMP JUMPDEST PUSH1 0x40 MLOAD PUSH1 0x1F DUP4 ADD PUSH1 0x1F NOT SWAP1 DUP2 AND PUSH1 0x3F ADD AND DUP2 ADD SWAP1 DUP3 DUP3 GT DUP2 DUP4 LT OR ISZERO PUSH3 0x1FA JUMPI PUSH3 0x1FA PUSH3 0x376 JUMP JUMPDEST DUP2 PUSH1 0x40 MSTORE DUP4 DUP2 MSTORE PUSH1 0x20 SWAP3 POP DUP7 DUP4 DUP6 DUP9 ADD ADD GT ISZERO PUSH3 0x217 JUMPI PUSH1 0x0 DUP1 REVERT JUMPDEST PUSH1 0x0 SWAP2 POP JUMPDEST DUP4 DUP3 LT ISZERO PUSH3 0x23B JUMPI DUP6 DUP3 ADD DUP4 ADD MLOAD DUP2 DUP4 ADD DUP5 ADD MSTORE SWAP1 DUP3 ADD SWAP1 PUSH3 0x21C JUMP JUMPDEST DUP4 DUP3 GT ISZERO PUSH3 0x24D JUMPI PUSH1 0x0 DUP4 DUP6 DUP4 ADD ADD MSTORE JUMPDEST SWAP7 SWAP6 POP POP POP POP POP POP JUMP JUMPDEST PUSH1 0x0 DUP1 PUSH1 0x0 DUP1 PUSH1 0x0 DUP1 PUSH1 0xC0 DUP8 DUP10 SUB SLT ISZERO PUSH3 0x271 JUMPI PUSH1 0x0 DUP1 REVERT JUMPDEST DUP7 MLOAD PUSH1 0x1 PUSH1 0x1 PUSH1 0x40 SHL SUB DUP1 DUP3 GT ISZERO PUSH3 0x289 JUMPI PUSH1 0x0 DUP1 REVERT JUMPDEST PUSH3 0x297 DUP11 DUP4 DUP12 ADD PUSH3 0x1A0 JUMP JUMPDEST SWAP8 POP PUSH1 0x20 DUP10 ADD MLOAD SWAP2 POP DUP1 DUP3 GT ISZERO PUSH3 0x2AE JUMPI PUSH1 0x0 DUP1 REVERT JUMPDEST POP PUSH3 0x2BD DUP10 DUP3 DUP11 ADD PUSH3 0x1A0 JUMP JUMPDEST SWAP6 POP POP PUSH1 0x40 DUP8 ADD MLOAD SWAP4 POP PUSH1 0x60 DUP8 ADD MLOAD SWAP3 POP PUSH1 0x80 DUP8 ADD MLOAD SWAP2 POP PUSH1 0xA0 DUP8 ADD MLOAD SWAP1 POP SWAP3 SWAP6 POP SWAP3 SWAP6 POP SWAP3 SWAP6 JUMP JUMPDEST PUSH1 0x0 DUP3 NOT DUP3 GT ISZERO PUSH3 0x2FC JUMPI PUSH3 0x2FC PUSH3 0x360 JUMP JUMPDEST POP ADD SWAP1 JUMP JUMPDEST PUSH1 0x0 DUP2 PUSH1 0x0 NOT DIV DUP4 GT DUP3 ISZERO ISZERO AND ISZERO PUSH3 0x31E JUMPI PUSH3 0x31E PUSH3 0x360 JUMP JUMPDEST POP MUL SWAP1 JUMP JUMPDEST PUSH1 0x1 DUP2 DUP2 SHR SWAP1 DUP3 AND DUP1 PUSH3 0x338 JUMPI PUSH1 0x7F DUP3 AND SWAP2 POP JUMPDEST PUSH1 0x20 DUP3 LT DUP2 EQ ISZERO PUSH3 0x35A JUMPI PUSH4 0x4E487B71 PUSH1 0xE0 SHL PUSH1 0x0 MSTORE PUSH1 0x22 PUSH1 0x4 MSTORE PUSH1 0x24 PUSH1 0x0 REVERT JUMPDEST POP SWAP2 SWAP1 POP JUMP JUMPDEST PUSH4 0x4E487B71 PUSH1 0xE0 SHL PUSH1 0x0 MSTORE PUSH1 0x11 PUSH1 0x4 MSTORE PUSH1 0x24 PUSH1 0x0 REVERT JUMPDEST PUSH4 0x4E487B71 PUSH1 0xE0 SHL PUSH1 0x0 MSTORE PUSH1 0x41 PUSH1 0x4 MSTORE PUSH1 0x24 PUSH1 0x0 REVERT JUMPDEST PUSH2 0xD4F DUP1 PUSH3 0x39C PUSH1 0x0 CODECOPY PUSH1 0x0 RETURN INVALID PUSH1 0x80 PUSH1 0x40 MSTORE PUSH1 0x4 CALLDATASIZE LT PUSH2 0x11F JUMPI PUSH1 0x0 CALLDATALOAD PUSH1 0xE0 SHR DUP1 PUSH4 0x70A08231 GT PUSH2 0xA0 JUMPI DUP1 PUSH4 0xB3B95E30 GT PUSH2 0x64 JUMPI DUP1 PUSH4 0xB3B95E30 EQ PUSH2 0x2D2 JUMPI DUP1 PUSH4 0xCB8A4C5C EQ PUSH2 0x2E8 JUMPI DUP1 PUSH4 0xDD62ED3E EQ PUSH2 0x2FE JUMPI DUP1 PUSH4 0xDFBF53AE EQ PUSH2 0x336 JUMPI DUP1 PUSH4 0xF732D3FD EQ PUSH2 0x36E JUMPI PUSH1 0x0 DUP1 REVERT JUMPDEST DUP1 PUSH4 0x70A08231 EQ PUSH2 0x244 JUMPI DUP1 PUSH4 0x78E97925 EQ PUSH2 0x271 JUMPI DUP1 PUSH4 0x7BB9BC6E EQ PUSH2 0x287 JUMPI DUP1 PUSH4 0x95D89B41 EQ PUSH2 0x29D JUMPI DUP1 PUSH4 0xA9059CBB EQ PUSH2 0x2B2 JUMPI PUSH1 0x0 DUP1 REVERT JUMPDEST DUP1 PUSH4 0x3E016252 GT PUSH2 0xE7 JUMPI DUP1 PUSH4 0x3E016252 EQ PUSH2 0x1D9 JUMPI DUP1 PUSH4 0x485CC439 EQ PUSH2 0x1EF JUMPI DUP1 PUSH4 0x520992F2 EQ PUSH2 0x205 JUMPI DUP1 PUSH4 0x5A3B7E42 EQ PUSH2 0x21C JUMPI DUP1 PUSH4 0x67DD74CA EQ PUSH2 0x231 JUMPI PUSH1 0x0 DUP1 REVERT JUMPDEST DUP1 PUSH4 0x6FDDE03 EQ PUSH2 0x124 JUMPI DUP1 PUSH4 0x95EA7B3 EQ PUSH2 0x14F JUMPI DUP1 PUSH4 0x1209B1F6 EQ PUSH2 0x17F JUMPI DUP1 PUSH4 0x18160DDD EQ PUSH2 0x1A3 JUMPI DUP1 PUSH4 0x23B872DD EQ PUSH2 0x1B9 JUMPI JUMPDEST PUSH1 0x0 DUP1 REVERT JUMPDEST CALLVALUE DUP1 ISZERO PUSH2 0x130 JUMPI PUSH1 0x0 DUP1 REVERT JUMPDEST POP PUSH2 0x139 PUSH2 0x383 JUMP JUMPDEST PUSH1 0x40 MLOAD PUSH2 0x146 SWAP2 SWAP1 PUSH2 0xBB6 JUMP JUMPDEST PUSH1 0x40 MLOAD DUP1 SWAP2 SUB SWAP1 RETURN JUMPDEST CALLVALUE DUP1 ISZERO PUSH2 0x15B JUMPI PUSH1 0x0 DUP1 REVERT JUMPDEST POP PUSH2 0x16F PUSH2 0x16A CALLDATASIZE PUSH1 0x4 PUSH2 0xB73 JUMP JUMPDEST PUSH2 0x411 JUMP JUMPDEST PUSH1 0x40 MLOAD SWAP1 ISZERO ISZERO DUP2 MSTORE PUSH1 0x20 ADD PUSH2 0x146 JUMP JUMPDEST CALLVALUE DUP1 ISZERO PUSH2 0x18B JUMPI PUSH1 0x0 DUP1 REVERT JUMPDEST POP PUSH2 0x195 PUSH1 0x5 SLOAD DUP2 JUMP JUMPDEST PUSH1 0x40 MLOAD SWAP1 DUP2 MSTORE PUSH1 0x20 ADD PUSH2 0x146 JUMP JUMPDEST CALLVALUE DUP1 ISZERO PUSH2 0x1AF JUMPI PUSH1 0x0 DUP1 REVERT JUMPDEST POP PUSH2 0x195 PUSH1 0x3 SLOAD DUP2 JUMP JUMPDEST CALLVALUE DUP1 ISZERO PUSH2 0x1C5 JUMPI PUSH1 0x0 DUP1 REVERT JUMPDEST POP PUSH2 0x16F PUSH2 0x1D4 CALLDATASIZE PUSH1 0x4 PUSH2 0xB37 JUMP JUMPDEST PUSH2 0x47E JUMP JUMPDEST CALLVALUE DUP1 ISZERO PUSH2 0x1E5 JUMPI PUSH1 0x0 DUP1 REVERT JUMPDEST POP PUSH2 0x195 PUSH1 0xC SLOAD DUP2 JUMP JUMPDEST CALLVALUE DUP1 ISZERO PUSH2 0x1FB JUMPI PUSH1 0x0 DUP1 REVERT JUMPDEST POP PUSH2 0x195 PUSH1 0xD SLOAD DUP2 JUMP JUMPDEST CALLVALUE DUP1 ISZERO PUSH2 0x211 JUMPI PUSH1 0x0 DUP1 REVERT JUMPDEST POP PUSH2 0x21A PUSH2 0x635 JUMP JUMPDEST STOP JUMPDEST CALLVALUE DUP1 ISZERO PUSH2 0x228 JUMPI PUSH1 0x0 DUP1 REVERT JUMPDEST POP PUSH2 0x139 PUSH2 0x6D8 JUMP JUMPDEST PUSH2 0x21A PUSH2 0x23F CALLDATASIZE PUSH1 0x4 PUSH2 0xB9D JUMP JUMPDEST PUSH2 0x6E5 JUMP JUMPDEST CALLVALUE DUP1 ISZERO PUSH2 0x250 JUMPI PUSH1 0x0 DUP1 REVERT JUMPDEST POP PUSH2 0x195 PUSH2 0x25F CALLDATASIZE PUSH1 0x4 PUSH2 0xAE2 JUMP JUMPDEST PUSH1 0xE PUSH1 0x20 MSTORE PUSH1 0x0 SWAP1 DUP2 MSTORE PUSH1 0x40 SWAP1 KECCAK256 SLOAD DUP2 JUMP JUMPDEST CALLVALUE DUP1 ISZERO PUSH2 0x27D JUMPI PUSH1 0x0 DUP1 REVERT JUMPDEST POP PUSH2 0x195 PUSH1 0x9 SLOAD DUP2 JUMP JUMPDEST CALLVALUE DUP1 ISZERO PUSH2 0x293 JUMPI PUSH1 0x0 DUP1 REVERT JUMPDEST POP PUSH2 0x195 PUSH1 0x6 SLOAD DUP2 JUMP JUMPDEST CALLVALUE DUP1 ISZERO PUSH2 0x2A9 JUMPI PUSH1 0x0 DUP1 REVERT JUMPDEST POP PUSH2 0x139 PUSH2 0x8A4 JUMP JUMPDEST CALLVALUE DUP1 ISZERO PUSH2 0x2BE JUMPI PUSH1 0x0 DUP1 REVERT JUMPDEST POP PUSH2 0x16F PUSH2 0x2CD CALLDATASIZE PUSH1 0x4 PUSH2 0xB73 JUMP JUMPDEST PUSH2 0x8B1 JUMP JUMPDEST CALLVALUE DUP1 ISZERO PUSH2 0x2DE JUMPI PUSH1 0x0 DUP1 REVERT JUMPDEST POP PUSH2 0x195 PUSH1 0xB SLOAD DUP2 JUMP JUMPDEST CALLVALUE DUP1 ISZERO PUSH2 0x2F4 JUMPI PUSH1 0x0 DUP1 REVERT JUMPDEST POP PUSH2 0x195 PUSH1 0xA SLOAD DUP2 JUMP JUMPDEST CALLVALUE DUP1 ISZERO PUSH2 0x30A JUMPI PUSH1 0x0 DUP1 REVERT JUMPDEST POP PUSH2 0x195 PUSH2 0x319 CALLDATASIZE PUSH1 0x4 PUSH2 0xB04 JUMP JUMPDEST PUSH1 0xF PUSH1 0x20 SWAP1 DUP2 MSTORE PUSH1 0x0 SWAP3 DUP4 MSTORE PUSH1 0x40 DUP1 DUP5 KECCAK256 SWAP1 SWAP2 MSTORE SWAP1 DUP3 MSTORE SWAP1 KECCAK256 SLOAD DUP2 JUMP JUMPDEST CALLVALUE DUP1 ISZERO PUSH2 0x342 JUMPI PUSH1 0x0 DUP1 REVERT JUMPDEST POP PUSH1 0x4 SLOAD PUSH2 0x356 SWAP1 PUSH1 0x1 PUSH1 0x1 PUSH1 0xA0 SHL SUB AND DUP2 JUMP JUMPDEST PUSH1 0x40 MLOAD PUSH1 0x1 PUSH1 0x1 PUSH1 0xA0 SHL SUB SWAP1 SWAP2 AND DUP2 MSTORE PUSH1 0x20 ADD PUSH2 0x146 JUMP JUMPDEST CALLVALUE DUP1 ISZERO PUSH2 0x37A JUMPI PUSH1 0x0 DUP1 REVERT JUMPDEST POP PUSH2 0x21A PUSH2 0x95B JUMP JUMPDEST PUSH1 0x0 DUP1 SLOAD PUSH2 0x390 SWAP1 PUSH2 0xC6D JUMP JUMPDEST DUP1 PUSH1 0x1F ADD PUSH1 0x20 DUP1 SWAP2 DIV MUL PUSH1 0x20 ADD PUSH1 0x40 MLOAD SWAP1 DUP2 ADD PUSH1 0x40 MSTORE DUP1 SWAP3 SWAP2 SWAP1 DUP2 DUP2 MSTORE PUSH1 0x20 ADD DUP3 DUP1 SLOAD PUSH2 0x3BC SWAP1 PUSH2 0xC6D JUMP JUMPDEST DUP1 ISZERO PUSH2 0x409 JUMPI DUP1 PUSH1 0x1F LT PUSH2 0x3DE JUMPI PUSH2 0x100 DUP1 DUP4 SLOAD DIV MUL DUP4 MSTORE SWAP2 PUSH1 0x20 ADD SWAP2 PUSH2 0x409 JUMP JUMPDEST DUP3 ADD SWAP2 SWAP1 PUSH1 0x0 MSTORE PUSH1 0x20 PUSH1 0x0 KECCAK256 SWAP1 JUMPDEST DUP2 SLOAD DUP2 MSTORE SWAP1 PUSH1 0x1 ADD SWAP1 PUSH1 0x20 ADD DUP1 DUP4 GT PUSH2 0x3EC JUMPI DUP3 SWAP1 SUB PUSH1 0x1F AND DUP3 ADD SWAP2 JUMPDEST POP POP POP POP POP DUP2 JUMP JUMPDEST CALLER PUSH1 0x0 DUP2 DUP2 MSTORE PUSH1 0xF PUSH1 0x20 SWAP1 DUP2 MSTORE PUSH1 0x40 DUP1 DUP4 KECCAK256 PUSH1 0x1 PUSH1 0x1 PUSH1 0xA0 SHL SUB DUP8 AND DUP1 DUP6 MSTORE SWAP3 MSTORE DUP1 DUP4 KECCAK256 DUP6 SWAP1 SSTORE MLOAD SWAP2 SWAP3 SWAP1 SWAP2 PUSH32 0x8C5BE1E5EBEC7D5BD14F71427D1E84F3DD0314C0F7B2291E5B200AC8C7C3B925 SWAP1 PUSH2 0x46C SWAP1 DUP7 DUP2 MSTORE PUSH1 0x20 ADD SWAP1 JUMP JUMPDEST PUSH1 0x40 MLOAD DUP1 SWAP2 SUB SWAP1 LOG3 POP PUSH1 0x1 JUMPDEST SWAP3 SWAP2 POP POP JUMP JUMPDEST PUSH1 0x1 PUSH1 0x1 PUSH1 0xA0 SHL SUB DUP4 AND PUSH1 0x0 SWAP1 DUP2 MSTORE PUSH1 0xE PUSH1 0x20 MSTORE PUSH1 0x40 DUP2 KECCAK256 SLOAD DUP3 GT ISZERO PUSH2 0x4E0 JUMPI PUSH1 0x40 MLOAD PUSH3 0x461BCD PUSH1 0xE5 SHL DUP2 MSTORE PUSH1 0x20 PUSH1 0x4 DUP3 ADD MSTORE PUSH1 0x12 PUSH1 0x24 DUP3 ADD MSTORE PUSH18 0x6E6F7420656E6F756768207469636B657473 PUSH1 0x70 SHL PUSH1 0x44 DUP3 ADD MSTORE PUSH1 0x64 ADD JUMPDEST PUSH1 0x40 MLOAD DUP1 SWAP2 SUB SWAP1 REVERT JUMPDEST PUSH1 0x1 PUSH1 0x1 PUSH1 0xA0 SHL SUB DUP5 AND PUSH1 0x0 SWAP1 DUP2 MSTORE PUSH1 0xF PUSH1 0x20 SWAP1 DUP2 MSTORE PUSH1 0x40 DUP1 DUP4 KECCAK256 CALLER DUP5 MSTORE SWAP1 SWAP2 MSTORE SWAP1 KECCAK256 SLOAD DUP3 GT ISZERO PUSH2 0x54A JUMPI PUSH1 0x40 MLOAD PUSH3 0x461BCD PUSH1 0xE5 SHL DUP2 MSTORE PUSH1 0x20 PUSH1 0x4 DUP3 ADD MSTORE PUSH1 0x14 PUSH1 0x24 DUP3 ADD MSTORE PUSH20 0x6E6F7420656E6F75676820616C6C6F77616E6365 PUSH1 0x60 SHL PUSH1 0x44 DUP3 ADD MSTORE PUSH1 0x64 ADD PUSH2 0x4D7 JUMP JUMPDEST PUSH1 0x1 PUSH1 0x1 PUSH1 0xA0 SHL SUB DUP5 AND PUSH1 0x0 SWAP1 DUP2 MSTORE PUSH1 0xE PUSH1 0x20 MSTORE PUSH1 0x40 DUP2 KECCAK256 DUP1 SLOAD DUP5 SWAP3 SWAP1 PUSH2 0x572 SWAP1 DUP5 SWAP1 PUSH2 0xC56 JUMP JUMPDEST SWAP1 SWAP2 SSTORE POP POP PUSH1 0x1 PUSH1 0x1 PUSH1 0xA0 SHL SUB DUP4 AND PUSH1 0x0 SWAP1 DUP2 MSTORE PUSH1 0xE PUSH1 0x20 MSTORE PUSH1 0x40 DUP2 KECCAK256 DUP1 SLOAD DUP5 SWAP3 SWAP1 PUSH2 0x59F SWAP1 DUP5 SWAP1 PUSH2 0xC0B JUMP JUMPDEST SWAP1 SWAP2 SSTORE POP POP PUSH1 0x1 PUSH1 0x1 PUSH1 0xA0 SHL SUB DUP5 AND PUSH1 0x0 SWAP1 DUP2 MSTORE PUSH1 0xF PUSH1 0x20 SWAP1 DUP2 MSTORE PUSH1 0x40 DUP1 DUP4 KECCAK256 CALLER DUP5 MSTORE SWAP1 SWAP2 MSTORE DUP2 KECCAK256 DUP1 SLOAD DUP5 SWAP3 SWAP1 PUSH2 0x5D7 SWAP1 DUP5 SWAP1 PUSH2 0xC56 JUMP JUMPDEST SWAP3 POP POP DUP2 SWAP1 SSTORE POP DUP3 PUSH1 0x1 PUSH1 0x1 PUSH1 0xA0 SHL SUB AND DUP5 PUSH1 0x1 PUSH1 0x1 PUSH1 0xA0 SHL SUB AND PUSH32 0xDDF252AD1BE2C89B69C2B068FC378DAA952BA7F163C4A11628F55A4DF523B3EF DUP5 PUSH1 0x40 MLOAD PUSH2 0x623 SWAP2 DUP2 MSTORE PUSH1 0x20 ADD SWAP1 JUMP JUMPDEST PUSH1 0x40 MLOAD DUP1 SWAP2 SUB SWAP1 LOG3 POP PUSH1 0x1 SWAP4 SWAP3 POP POP POP JUMP JUMPDEST PUSH1 0xB SLOAD TIMESTAMP SWAP1 DUP2 GT DUP1 ISZERO PUSH2 0x64B JUMPI POP PUSH1 0xC SLOAD PUSH1 0xD SLOAD LT JUMPDEST PUSH2 0x68C JUMPI PUSH1 0x40 MLOAD PUSH3 0x461BCD PUSH1 0xE5 SHL DUP2 MSTORE PUSH1 0x20 PUSH1 0x4 DUP3 ADD MSTORE PUSH1 0x12 PUSH1 0x24 DUP3 ADD MSTORE PUSH18 0x151A5B59481A5CC81B9BDD081D5C081E595D PUSH1 0x72 SHL PUSH1 0x44 DUP3 ADD MSTORE PUSH1 0x64 ADD PUSH2 0x4D7 JUMP JUMPDEST CALLER PUSH1 0x0 DUP2 DUP2 MSTORE PUSH1 0xE PUSH1 0x20 MSTORE PUSH1 0x40 SWAP1 KECCAK256 SLOAD PUSH1 0x5 SLOAD PUSH2 0x8FC SWAP2 PUSH2 0x6AC SWAP2 PUSH2 0xC37 JUMP JUMPDEST PUSH1 0x40 MLOAD DUP2 ISZERO SWAP1 SWAP3 MUL SWAP2 PUSH1 0x0 DUP2 DUP2 DUP2 DUP6 DUP9 DUP9 CALL SWAP4 POP POP POP POP ISZERO DUP1 ISZERO PUSH2 0x6D4 JUMPI RETURNDATASIZE PUSH1 0x0 DUP1 RETURNDATACOPY RETURNDATASIZE PUSH1 0x0 REVERT JUMPDEST POP POP JUMP JUMPDEST PUSH1 0x2 DUP1 SLOAD PUSH2 0x390 SWAP1 PUSH2 0xC6D JUMP JUMPDEST PUSH1 0xB SLOAD TIMESTAMP SWAP1 DUP2 LT PUSH2 0x72E JUMPI PUSH1 0x40 MLOAD PUSH3 0x461BCD PUSH1 0xE5 SHL DUP2 MSTORE PUSH1 0x20 PUSH1 0x4 DUP3 ADD MSTORE PUSH1 0x13 PUSH1 0x24 DUP3 ADD MSTORE PUSH19 0x2A3432903637BA3A32B93C9034B99037BB32B9 PUSH1 0x69 SHL PUSH1 0x44 DUP3 ADD MSTORE PUSH1 0x64 ADD PUSH2 0x4D7 JUMP JUMPDEST PUSH2 0x73A DUP3 PUSH1 0x5 SLOAD PUSH2 0xA54 JUMP JUMPDEST CALLVALUE EQ PUSH2 0x788 JUMPI PUSH1 0x40 MLOAD PUSH3 0x461BCD PUSH1 0xE5 SHL DUP2 MSTORE PUSH1 0x20 PUSH1 0x4 DUP3 ADD MSTORE PUSH1 0x1E PUSH1 0x24 DUP3 ADD MSTORE PUSH32 0x4E6F7420656E6175676874206F7220746F6F206D756368206574686572730000 PUSH1 0x44 DUP3 ADD MSTORE PUSH1 0x64 ADD PUSH2 0x4D7 JUMP JUMPDEST ADDRESS PUSH1 0x0 DUP2 DUP2 MSTORE PUSH1 0xF PUSH1 0x20 SWAP1 DUP2 MSTORE PUSH1 0x40 DUP1 DUP4 KECCAK256 CALLER DUP1 DUP6 MSTORE SWAP3 MSTORE SWAP1 SWAP2 KECCAK256 DUP5 SWAP1 SSTORE PUSH2 0x7B1 SWAP2 SWAP1 DUP5 PUSH2 0x47E JUMP JUMPDEST PUSH2 0x7EF JUMPI PUSH1 0x40 MLOAD PUSH3 0x461BCD PUSH1 0xE5 SHL DUP2 MSTORE PUSH1 0x20 PUSH1 0x4 DUP3 ADD MSTORE PUSH1 0xF PUSH1 0x24 DUP3 ADD MSTORE PUSH15 0x1D1C985B9CD9995C8819985A5B1959 PUSH1 0x8A SHL PUSH1 0x44 DUP3 ADD MSTORE PUSH1 0x64 ADD PUSH2 0x4D7 JUMP JUMPDEST DUP2 PUSH1 0xD PUSH1 0x0 DUP3 DUP3 SLOAD PUSH2 0x801 SWAP2 SWAP1 PUSH2 0xC0B JUMP JUMPDEST SWAP1 SWAP2 SSTORE POP PUSH1 0x0 SWAP1 POP JUMPDEST DUP3 DUP2 LT ISZERO PUSH2 0x866 JUMPI PUSH1 0x8 DUP1 SLOAD PUSH1 0x1 DUP2 ADD DUP3 SSTORE PUSH1 0x0 SWAP2 SWAP1 SWAP2 MSTORE PUSH32 0xF3F7A9FE364FAAB93B216DA50A3214154F22A0A2B415B23A84C8169E8B636EE3 ADD DUP1 SLOAD PUSH1 0x1 PUSH1 0x1 PUSH1 0xA0 SHL SUB NOT AND CALLER OR SWAP1 SSTORE DUP1 PUSH2 0x85E DUP2 PUSH2 0xCA8 JUMP JUMPDEST SWAP2 POP POP PUSH2 0x80A JUMP JUMPDEST POP PUSH1 0x40 DUP1 MLOAD CALLER DUP2 MSTORE PUSH1 0x20 DUP2 ADD DUP5 SWAP1 MSTORE PUSH32 0x5E5E995CE3133561AFCEAA51A9A154D5DB228CD7525D34DF5185582C18D3DF09 SWAP2 ADD PUSH1 0x40 MLOAD DUP1 SWAP2 SUB SWAP1 LOG1 POP POP JUMP JUMPDEST PUSH1 0x1 DUP1 SLOAD PUSH2 0x390 SWAP1 PUSH2 0xC6D JUMP JUMPDEST CALLER PUSH1 0x0 SWAP1 DUP2 MSTORE PUSH1 0xE PUSH1 0x20 MSTORE PUSH1 0x40 DUP2 KECCAK256 SLOAD DUP3 GT ISZERO PUSH2 0x8CD JUMPI PUSH1 0x0 DUP1 REVERT JUMPDEST CALLER PUSH1 0x0 SWAP1 DUP2 MSTORE PUSH1 0xE PUSH1 0x20 MSTORE PUSH1 0x40 DUP2 KECCAK256 DUP1 SLOAD DUP5 SWAP3 SWAP1 PUSH2 0x8EC SWAP1 DUP5 SWAP1 PUSH2 0xC56 JUMP JUMPDEST SWAP1 SWAP2 SSTORE POP POP PUSH1 0x1 PUSH1 0x1 PUSH1 0xA0 SHL SUB DUP4 AND PUSH1 0x0 SWAP1 DUP2 MSTORE PUSH1 0xE PUSH1 0x20 MSTORE PUSH1 0x40 DUP2 KECCAK256 DUP1 SLOAD DUP5 SWAP3 SWAP1 PUSH2 0x919 SWAP1 DUP5 SWAP1 PUSH2 0xC0B JUMP JUMPDEST SWAP1 SWAP2 SSTORE POP POP PUSH1 0x40 MLOAD DUP3 DUP2 MSTORE PUSH1 0x1 PUSH1 0x1 PUSH1 0xA0 SHL SUB DUP5 AND SWAP1 CALLER SWAP1 PUSH32 0xDDF252AD1BE2C89B69C2B068FC378DAA952BA7F163C4A11628F55A4DF523B3EF SWAP1 PUSH1 0x20 ADD PUSH2 0x46C JUMP JUMPDEST PUSH1 0x3 SLOAD PUSH1 0xD SLOAD TIMESTAMP SWAP2 EQ DUP1 PUSH2 0x980 JUMPI POP PUSH1 0xC SLOAD PUSH1 0xD SLOAD LT ISZERO DUP1 ISZERO PUSH2 0x980 JUMPI POP PUSH1 0xB SLOAD DUP2 LT ISZERO JUMPDEST PUSH2 0x989 JUMPI PUSH1 0x0 DUP1 REVERT JUMPDEST PUSH1 0x8 DUP1 SLOAD PUSH2 0x996 SWAP1 PUSH2 0xA81 JUMP JUMPDEST DUP2 SLOAD DUP2 LT PUSH2 0x9A6 JUMPI PUSH2 0x9A6 PUSH2 0xD03 JUMP JUMPDEST PUSH1 0x0 SWAP2 DUP3 MSTORE PUSH1 0x20 SWAP2 DUP3 SWAP1 KECCAK256 ADD SLOAD PUSH1 0x4 DUP1 SLOAD PUSH1 0x1 PUSH1 0x1 PUSH1 0xA0 SHL SUB NOT AND PUSH1 0x1 PUSH1 0x1 PUSH1 0xA0 SHL SUB SWAP1 SWAP3 AND SWAP2 DUP3 OR SWAP1 SSTORE PUSH1 0x40 MLOAD SWAP1 DUP2 MSTORE PUSH32 0x10233DB257888C60414333EEE11DAB8E8DABAF552466002FEE253E03615DB1D1 SWAP2 ADD PUSH1 0x40 MLOAD DUP1 SWAP2 SUB SWAP1 LOG1 PUSH8 0xDE0B6B3A7640000 PUSH1 0x5 SLOAD PUSH2 0xA18 SWAP2 SWAP1 PUSH2 0xC23 JUMP JUMPDEST PUSH1 0x6 SSTORE PUSH1 0x7 SLOAD PUSH1 0x40 MLOAD PUSH1 0x1 PUSH1 0x1 PUSH1 0xA0 SHL SUB SWAP1 SWAP2 AND SWAP1 SELFBALANCE DUP1 ISZERO PUSH2 0x8FC MUL SWAP2 PUSH1 0x0 DUP2 DUP2 DUP2 DUP6 DUP9 DUP9 CALL SWAP4 POP POP POP POP ISZERO DUP1 ISZERO PUSH2 0x6D4 JUMPI RETURNDATASIZE PUSH1 0x0 DUP1 RETURNDATACOPY RETURNDATASIZE PUSH1 0x0 REVERT JUMPDEST PUSH1 0x0 DUP2 ISZERO DUP1 PUSH2 0xA78 JUMPI POP DUP3 DUP3 PUSH2 0xA6A DUP2 DUP4 PUSH2 0xC37 JUMP JUMPDEST SWAP3 POP PUSH2 0xA76 SWAP1 DUP4 PUSH2 0xC23 JUMP JUMPDEST EQ JUMPDEST PUSH2 0x478 JUMPI PUSH1 0x0 DUP1 REVERT JUMPDEST PUSH1 0x0 PUSH2 0xA8E PUSH1 0x1 DUP4 PUSH2 0xC56 JUMP JUMPDEST PUSH1 0x40 DUP1 MLOAD TIMESTAMP PUSH1 0x20 DUP3 ADD MSTORE DIFFICULTY SWAP2 DUP2 ADD SWAP2 SWAP1 SWAP2 MSTORE PUSH1 0x60 ADD PUSH1 0x40 MLOAD PUSH1 0x20 DUP2 DUP4 SUB SUB DUP2 MSTORE SWAP1 PUSH1 0x40 MSTORE DUP1 MLOAD SWAP1 PUSH1 0x20 ADD KECCAK256 PUSH1 0x0 SHR PUSH2 0x478 SWAP2 SWAP1 PUSH2 0xCC3 JUMP JUMPDEST DUP1 CALLDATALOAD PUSH1 0x1 PUSH1 0x1 PUSH1 0xA0 SHL SUB DUP2 AND DUP2 EQ PUSH2 0xADD JUMPI PUSH1 0x0 DUP1 REVERT JUMPDEST SWAP2 SWAP1 POP JUMP JUMPDEST PUSH1 0x0 PUSH1 0x20 DUP3 DUP5 SUB SLT ISZERO PUSH2 0xAF4 JUMPI PUSH1 0x0 DUP1 REVERT JUMPDEST PUSH2 0xAFD DUP3 PUSH2 0xAC6 JUMP JUMPDEST SWAP4 SWAP3 POP POP POP JUMP JUMPDEST PUSH1 0x0 DUP1 PUSH1 0x40 DUP4 DUP6 SUB SLT ISZERO PUSH2 0xB17 JUMPI PUSH1 0x0 DUP1 REVERT JUMPDEST PUSH2 0xB20 DUP4 PUSH2 0xAC6 JUMP JUMPDEST SWAP2 POP PUSH2 0xB2E PUSH1 0x20 DUP5 ADD PUSH2 0xAC6 JUMP JUMPDEST SWAP1 POP SWAP3 POP SWAP3 SWAP1 POP JUMP JUMPDEST PUSH1 0x0 DUP1 PUSH1 0x0 PUSH1 0x60 DUP5 DUP7 SUB SLT ISZERO PUSH2 0xB4C JUMPI PUSH1 0x0 DUP1 REVERT JUMPDEST PUSH2 0xB55 DUP5 PUSH2 0xAC6 JUMP JUMPDEST SWAP3 POP PUSH2 0xB63 PUSH1 0x20 DUP6 ADD PUSH2 0xAC6 JUMP JUMPDEST SWAP2 POP PUSH1 0x40 DUP5 ADD CALLDATALOAD SWAP1 POP SWAP3 POP SWAP3 POP SWAP3 JUMP JUMPDEST PUSH1 0x0 DUP1 PUSH1 0x40 DUP4 DUP6 SUB SLT ISZERO PUSH2 0xB86 JUMPI PUSH1 0x0 DUP1 REVERT JUMPDEST PUSH2 0xB8F DUP4 PUSH2 0xAC6 JUMP JUMPDEST SWAP5 PUSH1 0x20 SWAP4 SWAP1 SWAP4 ADD CALLDATALOAD SWAP4 POP POP POP JUMP JUMPDEST PUSH1 0x0 PUSH1 0x20 DUP3 DUP5 SUB SLT ISZERO PUSH2 0xBAF JUMPI PUSH1 0x0 DUP1 REVERT JUMPDEST POP CALLDATALOAD SWAP2 SWAP1 POP JUMP JUMPDEST PUSH1 0x0 PUSH1 0x20 DUP1 DUP4 MSTORE DUP4 MLOAD DUP1 DUP3 DUP6 ADD MSTORE PUSH1 0x0 JUMPDEST DUP2 DUP2 LT ISZERO PUSH2 0xBE3 JUMPI DUP6 DUP2 ADD DUP4 ADD MLOAD DUP6 DUP3 ADD PUSH1 0x40 ADD MSTORE DUP3 ADD PUSH2 0xBC7 JUMP JUMPDEST DUP2 DUP2 GT ISZERO PUSH2 0xBF5 JUMPI PUSH1 0x0 PUSH1 0x40 DUP4 DUP8 ADD ADD MSTORE JUMPDEST POP PUSH1 0x1F ADD PUSH1 0x1F NOT AND SWAP3 SWAP1 SWAP3 ADD PUSH1 0x40 ADD SWAP4 SWAP3 POP POP POP JUMP JUMPDEST PUSH1 0x0 DUP3 NOT DUP3 GT ISZERO PUSH2 0xC1E JUMPI PUSH2 0xC1E PUSH2 0xCD7 JUMP JUMPDEST POP ADD SWAP1 JUMP JUMPDEST PUSH1 0x0 DUP3 PUSH2 0xC32 JUMPI PUSH2 0xC32 PUSH2 0xCED JUMP JUMPDEST POP DIV SWAP1 JUMP JUMPDEST PUSH1 0x0 DUP2 PUSH1 0x0 NOT DIV DUP4 GT DUP3 ISZERO ISZERO AND ISZERO PUSH2 0xC51 JUMPI PUSH2 0xC51 PUSH2 0xCD7 JUMP JUMPDEST POP MUL SWAP1 JUMP JUMPDEST PUSH1 0x0 DUP3 DUP3 LT ISZERO PUSH2 0xC68 JUMPI PUSH2 0xC68 PUSH2 0xCD7 JUMP JUMPDEST POP SUB SWAP1 JUMP JUMPDEST PUSH1 0x1 DUP2 DUP2 SHR SWAP1 DUP3 AND DUP1 PUSH2 0xC81 JUMPI PUSH1 0x7F DUP3 AND SWAP2 POP JUMPDEST PUSH1 0x20 DUP3 LT DUP2 EQ ISZERO PUSH2 0xCA2 JUMPI PUSH4 0x4E487B71 PUSH1 0xE0 SHL PUSH1 0x0 MSTORE PUSH1 0x22 PUSH1 0x4 MSTORE PUSH1 0x24 PUSH1 0x0 REVERT JUMPDEST POP SWAP2 SWAP1 POP JUMP JUMPDEST PUSH1 0x0 PUSH1 0x0 NOT DUP3 EQ ISZERO PUSH2 0xCBC JUMPI PUSH2 0xCBC PUSH2 0xCD7 JUMP JUMPDEST POP PUSH1 0x1 ADD SWAP1 JUMP JUMPDEST PUSH1 0x0 DUP3 PUSH2 0xCD2 JUMPI PUSH2 0xCD2 PUSH2 0xCED JUMP JUMPDEST POP MOD SWAP1 JUMP JUMPDEST PUSH4 0x4E487B71 PUSH1 0xE0 SHL PUSH1 0x0 MSTORE PUSH1 0x11 PUSH1 0x4 MSTORE PUSH1 0x24 PUSH1 0x0 REVERT JUMPDEST PUSH4 0x4E487B71 PUSH1 0xE0 SHL PUSH1 0x0 MSTORE PUSH1 0x12 PUSH1 0x4 MSTORE PUSH1 0x24 PUSH1 0x0 REVERT JUMPDEST PUSH4 0x4E487B71 PUSH1 0xE0 SHL PUSH1 0x0 MSTORE PUSH1 0x32 PUSH1 0x4 MSTORE PUSH1 0x24 PUSH1 0x0 REVERT INVALID LOG2 PUSH5 0x6970667358 0x22 SLT KECCAK256 DELEGATECALL DUP9 ADDMOD PUSH9 0xF124A62031BBE8D89F JUMP SWAP6 SWAP6 CALLDATASIZE 0xDC DUP16 0xB2 POP PUSH16 0x819CE66BB74720007A1F64736F6C6343 STOP ADDMOD SMOD STOP CALLER "
				},
				"gasEstimates": {
					"creation": {
						"codeDepositCost": "681400",
						"executionCost": "infinite",
						"totalCost": "infinite"
					},
					"external": {
						"allowance(address,address)": "infinite",
						"approve(address,uint256)": "24546",
						"balanceOf(address)": "2542",
						"buyTicket(uint256)": "infinite",
						"letsPlayTheGame()": "infinite",
						"limitTime()": "2317",
						"limitTimeDay()": "2339",
						"name()": "infinite",
						"returnTheMoney()": "infinite",
						"soldTicketLimit()": "2318",
						"standard()": "infinite",
						"startTime()": "2340",
						"symbol()": "infinite",
						"ticketPrice()": "2363",
						"ticketPriceEth()": "2362",
						"ticketSold()": "2340",
						"totalSupply()": "2385",
						"transfer(address,uint256)": "53297",
						"transferFrom(address,address,uint256)": "infinite",
						"winner()": "2425"
					},
					"internal": {
						"multiply(uint256,uint256)": "227",
						"random(uint256)": "infinite"
					}
				},
				"methodIdentifiers": {
					"allowance(address,address)": "dd62ed3e",
					"approve(address,uint256)": "095ea7b3",
					"balanceOf(address)": "70a08231",
					"buyTicket(uint256)": "67dd74ca",
					"letsPlayTheGame()": "f732d3fd",
					"limitTime()": "b3b95e30",
					"limitTimeDay()": "cb8a4c5c",
					"name()": "06fdde03",
					"returnTheMoney()": "520992f2",
					"soldTicketLimit()": "3e016252",
					"standard()": "5a3b7e42",
					"startTime()": "78e97925",
					"symbol()": "95d89b41",
					"ticketPrice()": "1209b1f6",
					"ticketPriceEth()": "7bb9bc6e",
					"ticketSold()": "485cc439",
					"totalSupply()": "18160ddd",
					"transfer(address,uint256)": "a9059cbb",
					"transferFrom(address,address,uint256)": "23b872dd",
					"winner()": "dfbf53ae"
				}
			},
			"userdoc": {
				"kind": "user",
				"methods": {},
				"version": 1
			}
		}
	}
}